{"contracts/MilkaQueueBidding.sol":{"MilkaQueueBidding":{"abi":[{"inputs":[{"internalType":"uint256","name":"minTime","type":"uint256"}],"stateMutability":"nonpayable","type":"constructor"},{"anonymous":false,"inputs":[{"indexed":false,"internalType":"uint256","name":"hashId","type":"uint256"},{"indexed":false,"internalType":"bytes32","name":"title","type":"bytes32"},{"indexed":false,"internalType":"bytes32","name":"description","type":"bytes32"},{"indexed":false,"internalType":"address payable","name":"currentOwner","type":"address"},{"indexed":false,"internalType":"uint256","name":"value","type":"uint256"}],"name":"AcceptedProposal","type":"event"},{"anonymous":false,"inputs":[{"indexed":false,"internalType":"uint256","name":"hashId","type":"uint256"},{"indexed":false,"internalType":"bytes32","name":"title","type":"bytes32"},{"indexed":false,"internalType":"bytes32","name":"description","type":"bytes32"}],"name":"CancelProposal","type":"event"},{"anonymous":false,"inputs":[{"indexed":false,"internalType":"uint256","name":"hashId","type":"uint256"},{"indexed":false,"internalType":"bytes32","name":"title","type":"bytes32"},{"indexed":false,"internalType":"bytes32","name":"description","type":"bytes32"},{"indexed":false,"internalType":"address payable","name":"currentOwner","type":"address"}],"name":"CreatedBidding","type":"event"},{"anonymous":false,"inputs":[{"indexed":false,"internalType":"uint256","name":"hashId","type":"uint256"}],"name":"RejectedProposal","type":"event"},{"inputs":[],"name":"QUEUE_COUNT","outputs":[{"internalType":"uint256","name":"","type":"uint256"}],"stateMutability":"view","type":"function"},{"inputs":[{"internalType":"uint256","name":"hashId","type":"uint256"}],"name":"buyItem","outputs":[{"internalType":"bool","name":"","type":"bool"}],"stateMutability":"payable","type":"function"},{"inputs":[{"internalType":"uint256","name":"currTime","type":"uint256"},{"internalType":"uint256","name":"deltaTime","type":"uint256"}],"name":"calcUpdatedTime","outputs":[{"internalType":"uint256","name":"","type":"uint256"}],"stateMutability":"pure","type":"function"},{"inputs":[{"internalType":"uint256","name":"hashId","type":"uint256"},{"internalType":"bytes32","name":"title","type":"bytes32"},{"internalType":"bytes32","name":"description","type":"bytes32"},{"internalType":"uint256","name":"minValue","type":"uint256"}],"name":"createBidding","outputs":[],"stateMutability":"nonpayable","type":"function"},{"inputs":[{"internalType":"uint256","name":"hashId","type":"uint256"}],"name":"currentAddress","outputs":[{"internalType":"address","name":"","type":"address"}],"stateMutability":"view","type":"function"},{"inputs":[{"internalType":"uint256","name":"hashId","type":"uint256"}],"name":"currentDeltaTime","outputs":[{"internalType":"uint256","name":"","type":"uint256"}],"stateMutability":"view","type":"function"},{"inputs":[{"components":[{"internalType":"uint256","name":"hashId","type":"uint256"},{"internalType":"uint256","name":"createDate","type":"uint256"},{"internalType":"uint256","name":"endDate","type":"uint256"},{"internalType":"uint256","name":"currentDeltaTime","type":"uint256"},{"internalType":"uint256","name":"value","type":"uint256"},{"internalType":"uint256","name":"nextMinValue","type":"uint256"},{"internalType":"address payable","name":"currentOwner","type":"address"},{"internalType":"address payable","name":"biddingCreator","type":"address"},{"internalType":"bytes32","name":"title","type":"bytes32"},{"internalType":"bytes32","name":"description","type":"bytes32"},{"internalType":"uint256","name":"addityProcent","type":"uint256"},{"internalType":"bool","name":"isEndBidding","type":"bool"}],"internalType":"struct MilkaBiddingUtils.Product","name":"prod","type":"tuple"}],"name":"emitFinishedBidding","outputs":[],"stateMutability":"nonpayable","type":"function"},{"inputs":[{"internalType":"uint256","name":"hashId","type":"uint256"}],"name":"getTimeStampEnd","outputs":[{"internalType":"uint256","name":"","type":"uint256"}],"stateMutability":"view","type":"function"},{"inputs":[{"internalType":"uint256","name":"hashId","type":"uint256"}],"name":"tryFinishBidding","outputs":[{"internalType":"bool","name":"","type":"bool"}],"stateMutability":"nonpayable","type":"function"}],"evm":{"bytecode":{"linkReferences":{},"object":"60806040526102586000553480156200001757600080fd5b506040516200184a3803806200184a83398181016040528101906200003d919062000062565b8060008190555050620000bd565b6000815190506200005c81620000a3565b92915050565b6000602082840312156200007b576200007a6200009e565b5b60006200008b848285016200004b565b91505092915050565b6000819050919050565b600080fd5b620000ae8162000094565b8114620000ba57600080fd5b50565b61177d80620000cd6000396000f3fe6080604052600436106100865760003560e01c80637326032911610059578063732603291461017f5780639341d4eb146101a8578063a907865c146101d1578063e7fb74c71461020e578063f7208c9c1461023e57610086565b806318e7d58d1461008b5780632238b73a146100c85780633ff760401461010557806344b7db0814610142575b600080fd5b34801561009757600080fd5b506100b260048036038101906100ad9190611108565b610269565b6040516100bf9190611288565b60405180910390f35b3480156100d457600080fd5b506100ef60048036038101906100ea919061119c565b6102b7565b6040516100fc91906112e3565b60405180910390f35b34801561011157600080fd5b5061012c60048036038101906101279190611108565b6102cd565b60405161013991906112e3565b60405180910390f35b34801561014e57600080fd5b5061016960048036038101906101649190611108565b6102ff565b604051610176919061126d565b60405180910390f35b34801561018b57600080fd5b506101a660048036038101906101a19190611135565b610351565b005b3480156101b457600080fd5b506101cf60048036038101906101ca91906110da565b6105a2565b005b3480156101dd57600080fd5b506101f860048036038101906101f39190611108565b610682565b60405161020591906112e3565b60405180910390f35b61022860048036038101906102239190611108565b6106b4565b6040516102359190611288565b60405180910390f35b34801561024a57600080fd5b50610253610935565b60405161026091906112e3565b60405180910390f35b6000806102758361093a565b90506001816003811061028b5761028a611620565b5b600c02016002015442106102ac576102a2816109c8565b60019150506102b2565b60009150505b919050565b600081836102c59190611403565b905092915050565b6000806102d98361093a565b9050600181600381106102ef576102ee611620565b5b600c020160020154915050919050565b60008061030b8361093a565b90506001816003811061032157610320611620565b5b600c020160060160009054906101000a900473ffffffffffffffffffffffffffffffffffffffff16915050919050565b8360005b600381101561039957816001826003811061037357610372611620565b5b600c020160000154141561038657600080fd5b808061039190611579565b915050610355565b5060006103a586610c25565b90507fffffffffffffffffffffffffffffffffffffffffffffffffffffffffffffffff8114156103d5575061059b565b600081905086600182600381106103ef576103ee611620565b5b600c020160000181905550336001826003811061040f5761040e611620565b5b600c020160070160006101000a81548173ffffffffffffffffffffffffffffffffffffffff021916908373ffffffffffffffffffffffffffffffffffffffff160217905550856001826003811061046957610468611620565b5b600c020160080181905550846001826003811061048957610488611620565b5b600c02016009018190555042600182600381106104a9576104a8611620565b5b600c0201600101819055506005600182600381106104ca576104c9611620565b5b600c0201600a018190555083600182600381106104ea576104e9611620565b5b600c0201600501819055506000546001826003811061050c5761050b611620565b5b600c02016003018190555061052081610d01565b7fa11993eb95384e356b03388262d2842238f11010690c653232a9da617fa923608787876001856003811061055857610557611620565b5b600c020160070160009054906101000a900473ffffffffffffffffffffffffffffffffffffffff166040516105909493929190611335565b60405180910390a150505b5050505050565b600073ffffffffffffffffffffffffffffffffffffffff168160c0015173ffffffffffffffffffffffffffffffffffffffff161415610629577ff13bfa7d2cec3002aa80fa154881c0b17d3fd01c4ff8b0f25e68895053462cd3816000015182610100015183610120015160405161061c939291906112fe565b60405180910390a161067f565b7fe92dedc60fde586a3e790ad45c1b64f3af47f7086dbded30d4495b6fcfacf2b381600001518261010001518361012001518460c00151856080015160405161067695949392919061137a565b60405180910390a15b50565b60008061068e8361093a565b9050600181600381106106a4576106a3611620565b5b600c020160030154915050919050565b6000808214156106c357600080fd5b60006106ce83610d2f565b90507fffffffffffffffffffffffffffffffffffffffffffffffffffffffffffffffff811415610733576040517f08c379a000000000000000000000000000000000000000000000000000000000815260040161072a906112a3565b60405180910390fd5b600081905061074181610da9565b1561075157600092505050610930565b6001816003811061076557610764611620565b5b600c0201600501543410156107af576040517f08c379a00000000000000000000000000000000000000000000000000000000081526004016107a6906112c3565b60405180910390fd5b600073ffffffffffffffffffffffffffffffffffffffff16600182600381106107db576107da611620565b5b600c020160060160009054906101000a900473ffffffffffffffffffffffffffffffffffffffff1673ffffffffffffffffffffffffffffffffffffffff16146108bc576001816003811061083257610831611620565b5b600c020160060160009054906101000a900473ffffffffffffffffffffffffffffffffffffffff1673ffffffffffffffffffffffffffffffffffffffff166108fc6001836003811061088757610886611620565b5b600c0201600401549081150290604051600060405180830381858888f193505050501580156108ba573d6000803e3d6000fd5b505b33600182600381106108d1576108d0611620565b5b600c020160060160006101000a81548173ffffffffffffffffffffffffffffffffffffffff021916908373ffffffffffffffffffffffffffffffffffffffff1602179055506109208134610e1b565b61092981610d01565b6001925050505b919050565b600381565b60008082141561094957600080fd5b600061095483610d2f565b90507fffffffffffffffffffffffffffffffffffffffffffffffffffffffffffffffff8114156109b9576040517f08c379a00000000000000000000000000000000000000000000000000000000081526004016109b0906112a3565b60405180910390fd5b60008190508092505050919050565b600073ffffffffffffffffffffffffffffffffffffffff16600182600381106109f4576109f3611620565b5b600c020160060160009054906101000a900473ffffffffffffffffffffffffffffffffffffffff1673ffffffffffffffffffffffffffffffffffffffff1614610ad55760018160038110610a4b57610a4a611620565b5b600c020160070160009054906101000a900473ffffffffffffffffffffffffffffffffffffffff1673ffffffffffffffffffffffffffffffffffffffff166108fc60018360038110610aa057610a9f611620565b5b600c0201600401549081150290604051600060405180830381858888f19350505050158015610ad3573d6000803e3d6000fd5b505b610c2260018260038110610aec57610aeb611620565b5b600c0201604051806101800160405290816000820154815260200160018201548152602001600282015481526020016003820154815260200160048201548152602001600582015481526020016006820160009054906101000a900473ffffffffffffffffffffffffffffffffffffffff1673ffffffffffffffffffffffffffffffffffffffff1673ffffffffffffffffffffffffffffffffffffffff1681526020016007820160009054906101000a900473ffffffffffffffffffffffffffffffffffffffff1673ffffffffffffffffffffffffffffffffffffffff1673ffffffffffffffffffffffffffffffffffffffff1681526020016008820154815260200160098201548152602001600a8201548152602001600b820160009054906101000a900460ff1615151515815250506105a2565b50565b600080600090505b6003811015610c5357610c3f81610da9565b508080610c4b90611579565b915050610c2d565b5060005b6003811015610ca057600060018260038110610c7657610c75611620565b5b600c0201600201541415610c8d5780915050610cfc565b8080610c9890611579565b915050610c57565b507f85b3529207dd89841fa3db816f8978cc3e132c92559d4f082f7dabce026aa63482604051610cd091906112e3565b60405180910390a17fffffffffffffffffffffffffffffffffffffffffffffffffffffffffffffffff90505b919050565b610d0d426000546102b7565b60018260038110610d2157610d20611620565b5b600c02016002018190555050565b600080600090505b6003811015610d7f578260018260038110610d5557610d54611620565b5b600c0201600001541415610d6c5780915050610da4565b8080610d7790611579565b915050610d37565b507fffffffffffffffffffffffffffffffffffffffffffffffffffffffffffffffff90505b919050565b600060018260038110610dbf57610dbe611620565b5b600c02016002015442118015610df15750600060018360038110610de657610de5611620565b5b600c02016002015414155b15610e1157610dff826109c8565b610e0882610e9c565b60019050610e16565b600090505b919050565b8060018360038110610e3057610e2f611620565b5b600c02016004018190555060018260038110610e4f57610e4e611620565b5b600c0201600a0154606482610e649190611459565b610e6e919061148a565b81610e799190611403565b60018360038110610e8d57610e8c611620565b5b600c0201600501819055505050565b60018160038110610eb057610eaf611620565b5b600c0201600080820160009055600182016000905560028201600090556003820160009055600482016000905560058201600090556006820160006101000a81549073ffffffffffffffffffffffffffffffffffffffff02191690556007820160006101000a81549073ffffffffffffffffffffffffffffffffffffffff021916905560088201600090556009820160009055600a820160009055600b820160006101000a81549060ff0219169055505050565b600081359050610f73816116eb565b92915050565b600081359050610f8881611702565b92915050565b600081359050610f9d81611719565b92915050565b60006101808284031215610fba57610fb961167e565b5b610fc56101806113cd565b90506000610fd5848285016110c5565b6000830152506020610fe9848285016110c5565b6020830152506040610ffd848285016110c5565b6040830152506060611011848285016110c5565b6060830152506080611025848285016110c5565b60808301525060a0611039848285016110c5565b60a08301525060c061104d84828501610f64565b60c08301525060e061106184828501610f64565b60e08301525061010061107684828501610f8e565b6101008301525061012061108c84828501610f8e565b610120830152506101406110a2848285016110c5565b610140830152506101606110b884828501610f79565b6101608301525092915050565b6000813590506110d481611730565b92915050565b600061018082840312156110f1576110f0611683565b5b60006110ff84828501610fa3565b91505092915050565b60006020828403121561111e5761111d611683565b5b600061112c848285016110c5565b91505092915050565b6000806000806080858703121561114f5761114e611683565b5b600061115d878288016110c5565b945050602061116e87828801610f8e565b935050604061117f87828801610f8e565b9250506060611190878288016110c5565b91505092959194509250565b600080604083850312156111b3576111b2611683565b5b60006111c1858286016110c5565b92505060206111d2858286016110c5565b9150509250929050565b6111e5816114f6565b82525050565b6111f4816114e4565b82525050565b61120381611508565b82525050565b61121281611514565b82525050565b6000611225600d836113f2565b915061123082611699565b602082019050919050565b60006112486012836113f2565b9150611253826116c2565b602082019050919050565b6112678161153e565b82525050565b600060208201905061128260008301846111eb565b92915050565b600060208201905061129d60008301846111fa565b92915050565b600060208201905081810360008301526112bc81611218565b9050919050565b600060208201905081810360008301526112dc8161123b565b9050919050565b60006020820190506112f8600083018461125e565b92915050565b6000606082019050611313600083018661125e565b6113206020830185611209565b61132d6040830184611209565b949350505050565b600060808201905061134a600083018761125e565b6113576020830186611209565b6113646040830185611209565b61137160608301846111dc565b95945050505050565b600060a08201905061138f600083018861125e565b61139c6020830187611209565b6113a96040830186611209565b6113b660608301856111dc565b6113c3608083018461125e565b9695505050505050565b60006113d76113e8565b90506113e38282611548565b919050565b6000604051905090565b600082825260208201905092915050565b600061140e8261153e565b91506114198361153e565b9250827fffffffffffffffffffffffffffffffffffffffffffffffffffffffffffffffff0382111561144e5761144d6115c2565b5b828201905092915050565b60006114648261153e565b915061146f8361153e565b92508261147f5761147e6115f1565b5b828204905092915050565b60006114958261153e565b91506114a08361153e565b9250817fffffffffffffffffffffffffffffffffffffffffffffffffffffffffffffffff04831182151516156114d9576114d86115c2565b5b828202905092915050565b60006114ef8261151e565b9050919050565b60006115018261151e565b9050919050565b60008115159050919050565b6000819050919050565b600073ffffffffffffffffffffffffffffffffffffffff82169050919050565b6000819050919050565b61155182611688565b810181811067ffffffffffffffff821117156115705761156f61164f565b5b80604052505050565b60006115848261153e565b91507fffffffffffffffffffffffffffffffffffffffffffffffffffffffffffffffff8214156115b7576115b66115c2565b5b600182019050919050565b7f4e487b7100000000000000000000000000000000000000000000000000000000600052601160045260246000fd5b7f4e487b7100000000000000000000000000000000000000000000000000000000600052601260045260246000fd5b7f4e487b7100000000000000000000000000000000000000000000000000000000600052603260045260246000fd5b7f4e487b7100000000000000000000000000000000000000000000000000000000600052604160045260246000fd5b600080fd5b600080fd5b6000601f19601f8301169050919050565b7f556b6e6f776e2068617368496400000000000000000000000000000000000000600082015250565b7f56616c756520697320696e636f72726563740000000000000000000000000000600082015250565b6116f4816114f6565b81146116ff57600080fd5b50565b61170b81611508565b811461171657600080fd5b50565b61172281611514565b811461172d57600080fd5b50565b6117398161153e565b811461174457600080fd5b5056fea26469706673582212200529b3f8738c026931041c976240a7fa716f01fba23a10aec8c539ca404fc9cd64736f6c63430008070033","opcodes":"PUSH1 0x80 PUSH1 0x40 MSTORE PUSH2 0x258 PUSH1 0x0 SSTORE CALLVALUE DUP1 ISZERO PUSH3 0x17 JUMPI PUSH1 0x0 DUP1 REVERT JUMPDEST POP PUSH1 0x40 MLOAD PUSH3 0x184A CODESIZE SUB DUP1 PUSH3 0x184A DUP4 CODECOPY DUP2 DUP2 ADD PUSH1 0x40 MSTORE DUP2 ADD SWAP1 PUSH3 0x3D SWAP2 SWAP1 PUSH3 0x62 JUMP JUMPDEST DUP1 PUSH1 0x0 DUP2 SWAP1 SSTORE POP POP PUSH3 0xBD JUMP JUMPDEST PUSH1 0x0 DUP2 MLOAD SWAP1 POP PUSH3 0x5C DUP2 PUSH3 0xA3 JUMP JUMPDEST SWAP3 SWAP2 POP POP JUMP JUMPDEST PUSH1 0x0 PUSH1 0x20 DUP3 DUP5 SUB SLT ISZERO PUSH3 0x7B JUMPI PUSH3 0x7A PUSH3 0x9E JUMP JUMPDEST JUMPDEST PUSH1 0x0 PUSH3 0x8B DUP5 DUP3 DUP6 ADD PUSH3 0x4B JUMP JUMPDEST SWAP2 POP POP SWAP3 SWAP2 POP POP JUMP JUMPDEST PUSH1 0x0 DUP2 SWAP1 POP SWAP2 SWAP1 POP JUMP JUMPDEST PUSH1 0x0 DUP1 REVERT JUMPDEST PUSH3 0xAE DUP2 PUSH3 0x94 JUMP JUMPDEST DUP2 EQ PUSH3 0xBA JUMPI PUSH1 0x0 DUP1 REVERT JUMPDEST POP JUMP JUMPDEST PUSH2 0x177D DUP1 PUSH3 0xCD PUSH1 0x0 CODECOPY PUSH1 0x0 RETURN INVALID PUSH1 0x80 PUSH1 0x40 MSTORE PUSH1 0x4 CALLDATASIZE LT PUSH2 0x86 JUMPI PUSH1 0x0 CALLDATALOAD PUSH1 0xE0 SHR DUP1 PUSH4 0x73260329 GT PUSH2 0x59 JUMPI DUP1 PUSH4 0x73260329 EQ PUSH2 0x17F JUMPI DUP1 PUSH4 0x9341D4EB EQ PUSH2 0x1A8 JUMPI DUP1 PUSH4 0xA907865C EQ PUSH2 0x1D1 JUMPI DUP1 PUSH4 0xE7FB74C7 EQ PUSH2 0x20E JUMPI DUP1 PUSH4 0xF7208C9C EQ PUSH2 0x23E JUMPI PUSH2 0x86 JUMP JUMPDEST DUP1 PUSH4 0x18E7D58D EQ PUSH2 0x8B JUMPI DUP1 PUSH4 0x2238B73A EQ PUSH2 0xC8 JUMPI DUP1 PUSH4 0x3FF76040 EQ PUSH2 0x105 JUMPI DUP1 PUSH4 0x44B7DB08 EQ PUSH2 0x142 JUMPI JUMPDEST PUSH1 0x0 DUP1 REVERT JUMPDEST CALLVALUE DUP1 ISZERO PUSH2 0x97 JUMPI PUSH1 0x0 DUP1 REVERT JUMPDEST POP PUSH2 0xB2 PUSH1 0x4 DUP1 CALLDATASIZE SUB DUP2 ADD SWAP1 PUSH2 0xAD SWAP2 SWAP1 PUSH2 0x1108 JUMP JUMPDEST PUSH2 0x269 JUMP JUMPDEST PUSH1 0x40 MLOAD PUSH2 0xBF SWAP2 SWAP1 PUSH2 0x1288 JUMP JUMPDEST PUSH1 0x40 MLOAD DUP1 SWAP2 SUB SWAP1 RETURN JUMPDEST CALLVALUE DUP1 ISZERO PUSH2 0xD4 JUMPI PUSH1 0x0 DUP1 REVERT JUMPDEST POP PUSH2 0xEF PUSH1 0x4 DUP1 CALLDATASIZE SUB DUP2 ADD SWAP1 PUSH2 0xEA SWAP2 SWAP1 PUSH2 0x119C JUMP JUMPDEST PUSH2 0x2B7 JUMP JUMPDEST PUSH1 0x40 MLOAD PUSH2 0xFC SWAP2 SWAP1 PUSH2 0x12E3 JUMP JUMPDEST PUSH1 0x40 MLOAD DUP1 SWAP2 SUB SWAP1 RETURN JUMPDEST CALLVALUE DUP1 ISZERO PUSH2 0x111 JUMPI PUSH1 0x0 DUP1 REVERT JUMPDEST POP PUSH2 0x12C PUSH1 0x4 DUP1 CALLDATASIZE SUB DUP2 ADD SWAP1 PUSH2 0x127 SWAP2 SWAP1 PUSH2 0x1108 JUMP JUMPDEST PUSH2 0x2CD JUMP JUMPDEST PUSH1 0x40 MLOAD PUSH2 0x139 SWAP2 SWAP1 PUSH2 0x12E3 JUMP JUMPDEST PUSH1 0x40 MLOAD DUP1 SWAP2 SUB SWAP1 RETURN JUMPDEST CALLVALUE DUP1 ISZERO PUSH2 0x14E JUMPI PUSH1 0x0 DUP1 REVERT JUMPDEST POP PUSH2 0x169 PUSH1 0x4 DUP1 CALLDATASIZE SUB DUP2 ADD SWAP1 PUSH2 0x164 SWAP2 SWAP1 PUSH2 0x1108 JUMP JUMPDEST PUSH2 0x2FF JUMP JUMPDEST PUSH1 0x40 MLOAD PUSH2 0x176 SWAP2 SWAP1 PUSH2 0x126D JUMP JUMPDEST PUSH1 0x40 MLOAD DUP1 SWAP2 SUB SWAP1 RETURN JUMPDEST CALLVALUE DUP1 ISZERO PUSH2 0x18B JUMPI PUSH1 0x0 DUP1 REVERT JUMPDEST POP PUSH2 0x1A6 PUSH1 0x4 DUP1 CALLDATASIZE SUB DUP2 ADD SWAP1 PUSH2 0x1A1 SWAP2 SWAP1 PUSH2 0x1135 JUMP JUMPDEST PUSH2 0x351 JUMP JUMPDEST STOP JUMPDEST CALLVALUE DUP1 ISZERO PUSH2 0x1B4 JUMPI PUSH1 0x0 DUP1 REVERT JUMPDEST POP PUSH2 0x1CF PUSH1 0x4 DUP1 CALLDATASIZE SUB DUP2 ADD SWAP1 PUSH2 0x1CA SWAP2 SWAP1 PUSH2 0x10DA JUMP JUMPDEST PUSH2 0x5A2 JUMP JUMPDEST STOP JUMPDEST CALLVALUE DUP1 ISZERO PUSH2 0x1DD JUMPI PUSH1 0x0 DUP1 REVERT JUMPDEST POP PUSH2 0x1F8 PUSH1 0x4 DUP1 CALLDATASIZE SUB DUP2 ADD SWAP1 PUSH2 0x1F3 SWAP2 SWAP1 PUSH2 0x1108 JUMP JUMPDEST PUSH2 0x682 JUMP JUMPDEST PUSH1 0x40 MLOAD PUSH2 0x205 SWAP2 SWAP1 PUSH2 0x12E3 JUMP JUMPDEST PUSH1 0x40 MLOAD DUP1 SWAP2 SUB SWAP1 RETURN JUMPDEST PUSH2 0x228 PUSH1 0x4 DUP1 CALLDATASIZE SUB DUP2 ADD SWAP1 PUSH2 0x223 SWAP2 SWAP1 PUSH2 0x1108 JUMP JUMPDEST PUSH2 0x6B4 JUMP JUMPDEST PUSH1 0x40 MLOAD PUSH2 0x235 SWAP2 SWAP1 PUSH2 0x1288 JUMP JUMPDEST PUSH1 0x40 MLOAD DUP1 SWAP2 SUB SWAP1 RETURN JUMPDEST CALLVALUE DUP1 ISZERO PUSH2 0x24A JUMPI PUSH1 0x0 DUP1 REVERT JUMPDEST POP PUSH2 0x253 PUSH2 0x935 JUMP JUMPDEST PUSH1 0x40 MLOAD PUSH2 0x260 SWAP2 SWAP1 PUSH2 0x12E3 JUMP JUMPDEST PUSH1 0x40 MLOAD DUP1 SWAP2 SUB SWAP1 RETURN JUMPDEST PUSH1 0x0 DUP1 PUSH2 0x275 DUP4 PUSH2 0x93A JUMP JUMPDEST SWAP1 POP PUSH1 0x1 DUP2 PUSH1 0x3 DUP2 LT PUSH2 0x28B JUMPI PUSH2 0x28A PUSH2 0x1620 JUMP JUMPDEST JUMPDEST PUSH1 0xC MUL ADD PUSH1 0x2 ADD SLOAD TIMESTAMP LT PUSH2 0x2AC JUMPI PUSH2 0x2A2 DUP2 PUSH2 0x9C8 JUMP JUMPDEST PUSH1 0x1 SWAP2 POP POP PUSH2 0x2B2 JUMP JUMPDEST PUSH1 0x0 SWAP2 POP POP JUMPDEST SWAP2 SWAP1 POP JUMP JUMPDEST PUSH1 0x0 DUP2 DUP4 PUSH2 0x2C5 SWAP2 SWAP1 PUSH2 0x1403 JUMP JUMPDEST SWAP1 POP SWAP3 SWAP2 POP POP JUMP JUMPDEST PUSH1 0x0 DUP1 PUSH2 0x2D9 DUP4 PUSH2 0x93A JUMP JUMPDEST SWAP1 POP PUSH1 0x1 DUP2 PUSH1 0x3 DUP2 LT PUSH2 0x2EF JUMPI PUSH2 0x2EE PUSH2 0x1620 JUMP JUMPDEST JUMPDEST PUSH1 0xC MUL ADD PUSH1 0x2 ADD SLOAD SWAP2 POP POP SWAP2 SWAP1 POP JUMP JUMPDEST PUSH1 0x0 DUP1 PUSH2 0x30B DUP4 PUSH2 0x93A JUMP JUMPDEST SWAP1 POP PUSH1 0x1 DUP2 PUSH1 0x3 DUP2 LT PUSH2 0x321 JUMPI PUSH2 0x320 PUSH2 0x1620 JUMP JUMPDEST JUMPDEST PUSH1 0xC MUL ADD PUSH1 0x6 ADD PUSH1 0x0 SWAP1 SLOAD SWAP1 PUSH2 0x100 EXP SWAP1 DIV PUSH20 0xFFFFFFFFFFFFFFFFFFFFFFFFFFFFFFFFFFFFFFFF AND SWAP2 POP POP SWAP2 SWAP1 POP JUMP JUMPDEST DUP4 PUSH1 0x0 JUMPDEST PUSH1 0x3 DUP2 LT ISZERO PUSH2 0x399 JUMPI DUP2 PUSH1 0x1 DUP3 PUSH1 0x3 DUP2 LT PUSH2 0x373 JUMPI PUSH2 0x372 PUSH2 0x1620 JUMP JUMPDEST JUMPDEST PUSH1 0xC MUL ADD PUSH1 0x0 ADD SLOAD EQ ISZERO PUSH2 0x386 JUMPI PUSH1 0x0 DUP1 REVERT JUMPDEST DUP1 DUP1 PUSH2 0x391 SWAP1 PUSH2 0x1579 JUMP JUMPDEST SWAP2 POP POP PUSH2 0x355 JUMP JUMPDEST POP PUSH1 0x0 PUSH2 0x3A5 DUP7 PUSH2 0xC25 JUMP JUMPDEST SWAP1 POP PUSH32 0xFFFFFFFFFFFFFFFFFFFFFFFFFFFFFFFFFFFFFFFFFFFFFFFFFFFFFFFFFFFFFFFF DUP2 EQ ISZERO PUSH2 0x3D5 JUMPI POP PUSH2 0x59B JUMP JUMPDEST PUSH1 0x0 DUP2 SWAP1 POP DUP7 PUSH1 0x1 DUP3 PUSH1 0x3 DUP2 LT PUSH2 0x3EF JUMPI PUSH2 0x3EE PUSH2 0x1620 JUMP JUMPDEST JUMPDEST PUSH1 0xC MUL ADD PUSH1 0x0 ADD DUP2 SWAP1 SSTORE POP CALLER PUSH1 0x1 DUP3 PUSH1 0x3 DUP2 LT PUSH2 0x40F JUMPI PUSH2 0x40E PUSH2 0x1620 JUMP JUMPDEST JUMPDEST PUSH1 0xC MUL ADD PUSH1 0x7 ADD PUSH1 0x0 PUSH2 0x100 EXP DUP2 SLOAD DUP2 PUSH20 0xFFFFFFFFFFFFFFFFFFFFFFFFFFFFFFFFFFFFFFFF MUL NOT AND SWAP1 DUP4 PUSH20 0xFFFFFFFFFFFFFFFFFFFFFFFFFFFFFFFFFFFFFFFF AND MUL OR SWAP1 SSTORE POP DUP6 PUSH1 0x1 DUP3 PUSH1 0x3 DUP2 LT PUSH2 0x469 JUMPI PUSH2 0x468 PUSH2 0x1620 JUMP JUMPDEST JUMPDEST PUSH1 0xC MUL ADD PUSH1 0x8 ADD DUP2 SWAP1 SSTORE POP DUP5 PUSH1 0x1 DUP3 PUSH1 0x3 DUP2 LT PUSH2 0x489 JUMPI PUSH2 0x488 PUSH2 0x1620 JUMP JUMPDEST JUMPDEST PUSH1 0xC MUL ADD PUSH1 0x9 ADD DUP2 SWAP1 SSTORE POP TIMESTAMP PUSH1 0x1 DUP3 PUSH1 0x3 DUP2 LT PUSH2 0x4A9 JUMPI PUSH2 0x4A8 PUSH2 0x1620 JUMP JUMPDEST JUMPDEST PUSH1 0xC MUL ADD PUSH1 0x1 ADD DUP2 SWAP1 SSTORE POP PUSH1 0x5 PUSH1 0x1 DUP3 PUSH1 0x3 DUP2 LT PUSH2 0x4CA JUMPI PUSH2 0x4C9 PUSH2 0x1620 JUMP JUMPDEST JUMPDEST PUSH1 0xC MUL ADD PUSH1 0xA ADD DUP2 SWAP1 SSTORE POP DUP4 PUSH1 0x1 DUP3 PUSH1 0x3 DUP2 LT PUSH2 0x4EA JUMPI PUSH2 0x4E9 PUSH2 0x1620 JUMP JUMPDEST JUMPDEST PUSH1 0xC MUL ADD PUSH1 0x5 ADD DUP2 SWAP1 SSTORE POP PUSH1 0x0 SLOAD PUSH1 0x1 DUP3 PUSH1 0x3 DUP2 LT PUSH2 0x50C JUMPI PUSH2 0x50B PUSH2 0x1620 JUMP JUMPDEST JUMPDEST PUSH1 0xC MUL ADD PUSH1 0x3 ADD DUP2 SWAP1 SSTORE POP PUSH2 0x520 DUP2 PUSH2 0xD01 JUMP JUMPDEST PUSH32 0xA11993EB95384E356B03388262D2842238F11010690C653232A9DA617FA92360 DUP8 DUP8 DUP8 PUSH1 0x1 DUP6 PUSH1 0x3 DUP2 LT PUSH2 0x558 JUMPI PUSH2 0x557 PUSH2 0x1620 JUMP JUMPDEST JUMPDEST PUSH1 0xC MUL ADD PUSH1 0x7 ADD PUSH1 0x0 SWAP1 SLOAD SWAP1 PUSH2 0x100 EXP SWAP1 DIV PUSH20 0xFFFFFFFFFFFFFFFFFFFFFFFFFFFFFFFFFFFFFFFF AND PUSH1 0x40 MLOAD PUSH2 0x590 SWAP5 SWAP4 SWAP3 SWAP2 SWAP1 PUSH2 0x1335 JUMP JUMPDEST PUSH1 0x40 MLOAD DUP1 SWAP2 SUB SWAP1 LOG1 POP POP JUMPDEST POP POP POP POP POP JUMP JUMPDEST PUSH1 0x0 PUSH20 0xFFFFFFFFFFFFFFFFFFFFFFFFFFFFFFFFFFFFFFFF AND DUP2 PUSH1 0xC0 ADD MLOAD PUSH20 0xFFFFFFFFFFFFFFFFFFFFFFFFFFFFFFFFFFFFFFFF AND EQ ISZERO PUSH2 0x629 JUMPI PUSH32 0xF13BFA7D2CEC3002AA80FA154881C0B17D3FD01C4FF8B0F25E68895053462CD3 DUP2 PUSH1 0x0 ADD MLOAD DUP3 PUSH2 0x100 ADD MLOAD DUP4 PUSH2 0x120 ADD MLOAD PUSH1 0x40 MLOAD PUSH2 0x61C SWAP4 SWAP3 SWAP2 SWAP1 PUSH2 0x12FE JUMP JUMPDEST PUSH1 0x40 MLOAD DUP1 SWAP2 SUB SWAP1 LOG1 PUSH2 0x67F JUMP JUMPDEST PUSH32 0xE92DEDC60FDE586A3E790AD45C1B64F3AF47F7086DBDED30D4495B6FCFACF2B3 DUP2 PUSH1 0x0 ADD MLOAD DUP3 PUSH2 0x100 ADD MLOAD DUP4 PUSH2 0x120 ADD MLOAD DUP5 PUSH1 0xC0 ADD MLOAD DUP6 PUSH1 0x80 ADD MLOAD PUSH1 0x40 MLOAD PUSH2 0x676 SWAP6 SWAP5 SWAP4 SWAP3 SWAP2 SWAP1 PUSH2 0x137A JUMP JUMPDEST PUSH1 0x40 MLOAD DUP1 SWAP2 SUB SWAP1 LOG1 JUMPDEST POP JUMP JUMPDEST PUSH1 0x0 DUP1 PUSH2 0x68E DUP4 PUSH2 0x93A JUMP JUMPDEST SWAP1 POP PUSH1 0x1 DUP2 PUSH1 0x3 DUP2 LT PUSH2 0x6A4 JUMPI PUSH2 0x6A3 PUSH2 0x1620 JUMP JUMPDEST JUMPDEST PUSH1 0xC MUL ADD PUSH1 0x3 ADD SLOAD SWAP2 POP POP SWAP2 SWAP1 POP JUMP JUMPDEST PUSH1 0x0 DUP1 DUP3 EQ ISZERO PUSH2 0x6C3 JUMPI PUSH1 0x0 DUP1 REVERT JUMPDEST PUSH1 0x0 PUSH2 0x6CE DUP4 PUSH2 0xD2F JUMP JUMPDEST SWAP1 POP PUSH32 0xFFFFFFFFFFFFFFFFFFFFFFFFFFFFFFFFFFFFFFFFFFFFFFFFFFFFFFFFFFFFFFFF DUP2 EQ ISZERO PUSH2 0x733 JUMPI PUSH1 0x40 MLOAD PUSH32 0x8C379A000000000000000000000000000000000000000000000000000000000 DUP2 MSTORE PUSH1 0x4 ADD PUSH2 0x72A SWAP1 PUSH2 0x12A3 JUMP JUMPDEST PUSH1 0x40 MLOAD DUP1 SWAP2 SUB SWAP1 REVERT JUMPDEST PUSH1 0x0 DUP2 SWAP1 POP PUSH2 0x741 DUP2 PUSH2 0xDA9 JUMP JUMPDEST ISZERO PUSH2 0x751 JUMPI PUSH1 0x0 SWAP3 POP POP POP PUSH2 0x930 JUMP JUMPDEST PUSH1 0x1 DUP2 PUSH1 0x3 DUP2 LT PUSH2 0x765 JUMPI PUSH2 0x764 PUSH2 0x1620 JUMP JUMPDEST JUMPDEST PUSH1 0xC MUL ADD PUSH1 0x5 ADD SLOAD CALLVALUE LT ISZERO PUSH2 0x7AF JUMPI PUSH1 0x40 MLOAD PUSH32 0x8C379A000000000000000000000000000000000000000000000000000000000 DUP2 MSTORE PUSH1 0x4 ADD PUSH2 0x7A6 SWAP1 PUSH2 0x12C3 JUMP JUMPDEST PUSH1 0x40 MLOAD DUP1 SWAP2 SUB SWAP1 REVERT JUMPDEST PUSH1 0x0 PUSH20 0xFFFFFFFFFFFFFFFFFFFFFFFFFFFFFFFFFFFFFFFF AND PUSH1 0x1 DUP3 PUSH1 0x3 DUP2 LT PUSH2 0x7DB JUMPI PUSH2 0x7DA PUSH2 0x1620 JUMP JUMPDEST JUMPDEST PUSH1 0xC MUL ADD PUSH1 0x6 ADD PUSH1 0x0 SWAP1 SLOAD SWAP1 PUSH2 0x100 EXP SWAP1 DIV PUSH20 0xFFFFFFFFFFFFFFFFFFFFFFFFFFFFFFFFFFFFFFFF AND PUSH20 0xFFFFFFFFFFFFFFFFFFFFFFFFFFFFFFFFFFFFFFFF AND EQ PUSH2 0x8BC JUMPI PUSH1 0x1 DUP2 PUSH1 0x3 DUP2 LT PUSH2 0x832 JUMPI PUSH2 0x831 PUSH2 0x1620 JUMP JUMPDEST JUMPDEST PUSH1 0xC MUL ADD PUSH1 0x6 ADD PUSH1 0x0 SWAP1 SLOAD SWAP1 PUSH2 0x100 EXP SWAP1 DIV PUSH20 0xFFFFFFFFFFFFFFFFFFFFFFFFFFFFFFFFFFFFFFFF AND PUSH20 0xFFFFFFFFFFFFFFFFFFFFFFFFFFFFFFFFFFFFFFFF AND PUSH2 0x8FC PUSH1 0x1 DUP4 PUSH1 0x3 DUP2 LT PUSH2 0x887 JUMPI PUSH2 0x886 PUSH2 0x1620 JUMP JUMPDEST JUMPDEST PUSH1 0xC MUL ADD PUSH1 0x4 ADD SLOAD SWAP1 DUP2 ISZERO MUL SWAP1 PUSH1 0x40 MLOAD PUSH1 0x0 PUSH1 0x40 MLOAD DUP1 DUP4 SUB DUP2 DUP6 DUP9 DUP9 CALL SWAP4 POP POP POP POP ISZERO DUP1 ISZERO PUSH2 0x8BA JUMPI RETURNDATASIZE PUSH1 0x0 DUP1 RETURNDATACOPY RETURNDATASIZE PUSH1 0x0 REVERT JUMPDEST POP JUMPDEST CALLER PUSH1 0x1 DUP3 PUSH1 0x3 DUP2 LT PUSH2 0x8D1 JUMPI PUSH2 0x8D0 PUSH2 0x1620 JUMP JUMPDEST JUMPDEST PUSH1 0xC MUL ADD PUSH1 0x6 ADD PUSH1 0x0 PUSH2 0x100 EXP DUP2 SLOAD DUP2 PUSH20 0xFFFFFFFFFFFFFFFFFFFFFFFFFFFFFFFFFFFFFFFF MUL NOT AND SWAP1 DUP4 PUSH20 0xFFFFFFFFFFFFFFFFFFFFFFFFFFFFFFFFFFFFFFFF AND MUL OR SWAP1 SSTORE POP PUSH2 0x920 DUP2 CALLVALUE PUSH2 0xE1B JUMP JUMPDEST PUSH2 0x929 DUP2 PUSH2 0xD01 JUMP JUMPDEST PUSH1 0x1 SWAP3 POP POP POP JUMPDEST SWAP2 SWAP1 POP JUMP JUMPDEST PUSH1 0x3 DUP2 JUMP JUMPDEST PUSH1 0x0 DUP1 DUP3 EQ ISZERO PUSH2 0x949 JUMPI PUSH1 0x0 DUP1 REVERT JUMPDEST PUSH1 0x0 PUSH2 0x954 DUP4 PUSH2 0xD2F JUMP JUMPDEST SWAP1 POP PUSH32 0xFFFFFFFFFFFFFFFFFFFFFFFFFFFFFFFFFFFFFFFFFFFFFFFFFFFFFFFFFFFFFFFF DUP2 EQ ISZERO PUSH2 0x9B9 JUMPI PUSH1 0x40 MLOAD PUSH32 0x8C379A000000000000000000000000000000000000000000000000000000000 DUP2 MSTORE PUSH1 0x4 ADD PUSH2 0x9B0 SWAP1 PUSH2 0x12A3 JUMP JUMPDEST PUSH1 0x40 MLOAD DUP1 SWAP2 SUB SWAP1 REVERT JUMPDEST PUSH1 0x0 DUP2 SWAP1 POP DUP1 SWAP3 POP POP POP SWAP2 SWAP1 POP JUMP JUMPDEST PUSH1 0x0 PUSH20 0xFFFFFFFFFFFFFFFFFFFFFFFFFFFFFFFFFFFFFFFF AND PUSH1 0x1 DUP3 PUSH1 0x3 DUP2 LT PUSH2 0x9F4 JUMPI PUSH2 0x9F3 PUSH2 0x1620 JUMP JUMPDEST JUMPDEST PUSH1 0xC MUL ADD PUSH1 0x6 ADD PUSH1 0x0 SWAP1 SLOAD SWAP1 PUSH2 0x100 EXP SWAP1 DIV PUSH20 0xFFFFFFFFFFFFFFFFFFFFFFFFFFFFFFFFFFFFFFFF AND PUSH20 0xFFFFFFFFFFFFFFFFFFFFFFFFFFFFFFFFFFFFFFFF AND EQ PUSH2 0xAD5 JUMPI PUSH1 0x1 DUP2 PUSH1 0x3 DUP2 LT PUSH2 0xA4B JUMPI PUSH2 0xA4A PUSH2 0x1620 JUMP JUMPDEST JUMPDEST PUSH1 0xC MUL ADD PUSH1 0x7 ADD PUSH1 0x0 SWAP1 SLOAD SWAP1 PUSH2 0x100 EXP SWAP1 DIV PUSH20 0xFFFFFFFFFFFFFFFFFFFFFFFFFFFFFFFFFFFFFFFF AND PUSH20 0xFFFFFFFFFFFFFFFFFFFFFFFFFFFFFFFFFFFFFFFF AND PUSH2 0x8FC PUSH1 0x1 DUP4 PUSH1 0x3 DUP2 LT PUSH2 0xAA0 JUMPI PUSH2 0xA9F PUSH2 0x1620 JUMP JUMPDEST JUMPDEST PUSH1 0xC MUL ADD PUSH1 0x4 ADD SLOAD SWAP1 DUP2 ISZERO MUL SWAP1 PUSH1 0x40 MLOAD PUSH1 0x0 PUSH1 0x40 MLOAD DUP1 DUP4 SUB DUP2 DUP6 DUP9 DUP9 CALL SWAP4 POP POP POP POP ISZERO DUP1 ISZERO PUSH2 0xAD3 JUMPI RETURNDATASIZE PUSH1 0x0 DUP1 RETURNDATACOPY RETURNDATASIZE PUSH1 0x0 REVERT JUMPDEST POP JUMPDEST PUSH2 0xC22 PUSH1 0x1 DUP3 PUSH1 0x3 DUP2 LT PUSH2 0xAEC JUMPI PUSH2 0xAEB PUSH2 0x1620 JUMP JUMPDEST JUMPDEST PUSH1 0xC MUL ADD PUSH1 0x40 MLOAD DUP1 PUSH2 0x180 ADD PUSH1 0x40 MSTORE SWAP1 DUP2 PUSH1 0x0 DUP3 ADD SLOAD DUP2 MSTORE PUSH1 0x20 ADD PUSH1 0x1 DUP3 ADD SLOAD DUP2 MSTORE PUSH1 0x20 ADD PUSH1 0x2 DUP3 ADD SLOAD DUP2 MSTORE PUSH1 0x20 ADD PUSH1 0x3 DUP3 ADD SLOAD DUP2 MSTORE PUSH1 0x20 ADD PUSH1 0x4 DUP3 ADD SLOAD DUP2 MSTORE PUSH1 0x20 ADD PUSH1 0x5 DUP3 ADD SLOAD DUP2 MSTORE PUSH1 0x20 ADD PUSH1 0x6 DUP3 ADD PUSH1 0x0 SWAP1 SLOAD SWAP1 PUSH2 0x100 EXP SWAP1 DIV PUSH20 0xFFFFFFFFFFFFFFFFFFFFFFFFFFFFFFFFFFFFFFFF AND PUSH20 0xFFFFFFFFFFFFFFFFFFFFFFFFFFFFFFFFFFFFFFFF AND PUSH20 0xFFFFFFFFFFFFFFFFFFFFFFFFFFFFFFFFFFFFFFFF AND DUP2 MSTORE PUSH1 0x20 ADD PUSH1 0x7 DUP3 ADD PUSH1 0x0 SWAP1 SLOAD SWAP1 PUSH2 0x100 EXP SWAP1 DIV PUSH20 0xFFFFFFFFFFFFFFFFFFFFFFFFFFFFFFFFFFFFFFFF AND PUSH20 0xFFFFFFFFFFFFFFFFFFFFFFFFFFFFFFFFFFFFFFFF AND PUSH20 0xFFFFFFFFFFFFFFFFFFFFFFFFFFFFFFFFFFFFFFFF AND DUP2 MSTORE PUSH1 0x20 ADD PUSH1 0x8 DUP3 ADD SLOAD DUP2 MSTORE PUSH1 0x20 ADD PUSH1 0x9 DUP3 ADD SLOAD DUP2 MSTORE PUSH1 0x20 ADD PUSH1 0xA DUP3 ADD SLOAD DUP2 MSTORE PUSH1 0x20 ADD PUSH1 0xB DUP3 ADD PUSH1 0x0 SWAP1 SLOAD SWAP1 PUSH2 0x100 EXP SWAP1 DIV PUSH1 0xFF AND ISZERO ISZERO ISZERO ISZERO DUP2 MSTORE POP POP PUSH2 0x5A2 JUMP JUMPDEST POP JUMP JUMPDEST PUSH1 0x0 DUP1 PUSH1 0x0 SWAP1 POP JUMPDEST PUSH1 0x3 DUP2 LT ISZERO PUSH2 0xC53 JUMPI PUSH2 0xC3F DUP2 PUSH2 0xDA9 JUMP JUMPDEST POP DUP1 DUP1 PUSH2 0xC4B SWAP1 PUSH2 0x1579 JUMP JUMPDEST SWAP2 POP POP PUSH2 0xC2D JUMP JUMPDEST POP PUSH1 0x0 JUMPDEST PUSH1 0x3 DUP2 LT ISZERO PUSH2 0xCA0 JUMPI PUSH1 0x0 PUSH1 0x1 DUP3 PUSH1 0x3 DUP2 LT PUSH2 0xC76 JUMPI PUSH2 0xC75 PUSH2 0x1620 JUMP JUMPDEST JUMPDEST PUSH1 0xC MUL ADD PUSH1 0x2 ADD SLOAD EQ ISZERO PUSH2 0xC8D JUMPI DUP1 SWAP2 POP POP PUSH2 0xCFC JUMP JUMPDEST DUP1 DUP1 PUSH2 0xC98 SWAP1 PUSH2 0x1579 JUMP JUMPDEST SWAP2 POP POP PUSH2 0xC57 JUMP JUMPDEST POP PUSH32 0x85B3529207DD89841FA3DB816F8978CC3E132C92559D4F082F7DABCE026AA634 DUP3 PUSH1 0x40 MLOAD PUSH2 0xCD0 SWAP2 SWAP1 PUSH2 0x12E3 JUMP JUMPDEST PUSH1 0x40 MLOAD DUP1 SWAP2 SUB SWAP1 LOG1 PUSH32 0xFFFFFFFFFFFFFFFFFFFFFFFFFFFFFFFFFFFFFFFFFFFFFFFFFFFFFFFFFFFFFFFF SWAP1 POP JUMPDEST SWAP2 SWAP1 POP JUMP JUMPDEST PUSH2 0xD0D TIMESTAMP PUSH1 0x0 SLOAD PUSH2 0x2B7 JUMP JUMPDEST PUSH1 0x1 DUP3 PUSH1 0x3 DUP2 LT PUSH2 0xD21 JUMPI PUSH2 0xD20 PUSH2 0x1620 JUMP JUMPDEST JUMPDEST PUSH1 0xC MUL ADD PUSH1 0x2 ADD DUP2 SWAP1 SSTORE POP POP JUMP JUMPDEST PUSH1 0x0 DUP1 PUSH1 0x0 SWAP1 POP JUMPDEST PUSH1 0x3 DUP2 LT ISZERO PUSH2 0xD7F JUMPI DUP3 PUSH1 0x1 DUP3 PUSH1 0x3 DUP2 LT PUSH2 0xD55 JUMPI PUSH2 0xD54 PUSH2 0x1620 JUMP JUMPDEST JUMPDEST PUSH1 0xC MUL ADD PUSH1 0x0 ADD SLOAD EQ ISZERO PUSH2 0xD6C JUMPI DUP1 SWAP2 POP POP PUSH2 0xDA4 JUMP JUMPDEST DUP1 DUP1 PUSH2 0xD77 SWAP1 PUSH2 0x1579 JUMP JUMPDEST SWAP2 POP POP PUSH2 0xD37 JUMP JUMPDEST POP PUSH32 0xFFFFFFFFFFFFFFFFFFFFFFFFFFFFFFFFFFFFFFFFFFFFFFFFFFFFFFFFFFFFFFFF SWAP1 POP JUMPDEST SWAP2 SWAP1 POP JUMP JUMPDEST PUSH1 0x0 PUSH1 0x1 DUP3 PUSH1 0x3 DUP2 LT PUSH2 0xDBF JUMPI PUSH2 0xDBE PUSH2 0x1620 JUMP JUMPDEST JUMPDEST PUSH1 0xC MUL ADD PUSH1 0x2 ADD SLOAD TIMESTAMP GT DUP1 ISZERO PUSH2 0xDF1 JUMPI POP PUSH1 0x0 PUSH1 0x1 DUP4 PUSH1 0x3 DUP2 LT PUSH2 0xDE6 JUMPI PUSH2 0xDE5 PUSH2 0x1620 JUMP JUMPDEST JUMPDEST PUSH1 0xC MUL ADD PUSH1 0x2 ADD SLOAD EQ ISZERO JUMPDEST ISZERO PUSH2 0xE11 JUMPI PUSH2 0xDFF DUP3 PUSH2 0x9C8 JUMP JUMPDEST PUSH2 0xE08 DUP3 PUSH2 0xE9C JUMP JUMPDEST PUSH1 0x1 SWAP1 POP PUSH2 0xE16 JUMP JUMPDEST PUSH1 0x0 SWAP1 POP JUMPDEST SWAP2 SWAP1 POP JUMP JUMPDEST DUP1 PUSH1 0x1 DUP4 PUSH1 0x3 DUP2 LT PUSH2 0xE30 JUMPI PUSH2 0xE2F PUSH2 0x1620 JUMP JUMPDEST JUMPDEST PUSH1 0xC MUL ADD PUSH1 0x4 ADD DUP2 SWAP1 SSTORE POP PUSH1 0x1 DUP3 PUSH1 0x3 DUP2 LT PUSH2 0xE4F JUMPI PUSH2 0xE4E PUSH2 0x1620 JUMP JUMPDEST JUMPDEST PUSH1 0xC MUL ADD PUSH1 0xA ADD SLOAD PUSH1 0x64 DUP3 PUSH2 0xE64 SWAP2 SWAP1 PUSH2 0x1459 JUMP JUMPDEST PUSH2 0xE6E SWAP2 SWAP1 PUSH2 0x148A JUMP JUMPDEST DUP2 PUSH2 0xE79 SWAP2 SWAP1 PUSH2 0x1403 JUMP JUMPDEST PUSH1 0x1 DUP4 PUSH1 0x3 DUP2 LT PUSH2 0xE8D JUMPI PUSH2 0xE8C PUSH2 0x1620 JUMP JUMPDEST JUMPDEST PUSH1 0xC MUL ADD PUSH1 0x5 ADD DUP2 SWAP1 SSTORE POP POP POP JUMP JUMPDEST PUSH1 0x1 DUP2 PUSH1 0x3 DUP2 LT PUSH2 0xEB0 JUMPI PUSH2 0xEAF PUSH2 0x1620 JUMP JUMPDEST JUMPDEST PUSH1 0xC MUL ADD PUSH1 0x0 DUP1 DUP3 ADD PUSH1 0x0 SWAP1 SSTORE PUSH1 0x1 DUP3 ADD PUSH1 0x0 SWAP1 SSTORE PUSH1 0x2 DUP3 ADD PUSH1 0x0 SWAP1 SSTORE PUSH1 0x3 DUP3 ADD PUSH1 0x0 SWAP1 SSTORE PUSH1 0x4 DUP3 ADD PUSH1 0x0 SWAP1 SSTORE PUSH1 0x5 DUP3 ADD PUSH1 0x0 SWAP1 SSTORE PUSH1 0x6 DUP3 ADD PUSH1 0x0 PUSH2 0x100 EXP DUP2 SLOAD SWAP1 PUSH20 0xFFFFFFFFFFFFFFFFFFFFFFFFFFFFFFFFFFFFFFFF MUL NOT AND SWAP1 SSTORE PUSH1 0x7 DUP3 ADD PUSH1 0x0 PUSH2 0x100 EXP DUP2 SLOAD SWAP1 PUSH20 0xFFFFFFFFFFFFFFFFFFFFFFFFFFFFFFFFFFFFFFFF MUL NOT AND SWAP1 SSTORE PUSH1 0x8 DUP3 ADD PUSH1 0x0 SWAP1 SSTORE PUSH1 0x9 DUP3 ADD PUSH1 0x0 SWAP1 SSTORE PUSH1 0xA DUP3 ADD PUSH1 0x0 SWAP1 SSTORE PUSH1 0xB DUP3 ADD PUSH1 0x0 PUSH2 0x100 EXP DUP2 SLOAD SWAP1 PUSH1 0xFF MUL NOT AND SWAP1 SSTORE POP POP POP JUMP JUMPDEST PUSH1 0x0 DUP2 CALLDATALOAD SWAP1 POP PUSH2 0xF73 DUP2 PUSH2 0x16EB JUMP JUMPDEST SWAP3 SWAP2 POP POP JUMP JUMPDEST PUSH1 0x0 DUP2 CALLDATALOAD SWAP1 POP PUSH2 0xF88 DUP2 PUSH2 0x1702 JUMP JUMPDEST SWAP3 SWAP2 POP POP JUMP JUMPDEST PUSH1 0x0 DUP2 CALLDATALOAD SWAP1 POP PUSH2 0xF9D DUP2 PUSH2 0x1719 JUMP JUMPDEST SWAP3 SWAP2 POP POP JUMP JUMPDEST PUSH1 0x0 PUSH2 0x180 DUP3 DUP5 SUB SLT ISZERO PUSH2 0xFBA JUMPI PUSH2 0xFB9 PUSH2 0x167E JUMP JUMPDEST JUMPDEST PUSH2 0xFC5 PUSH2 0x180 PUSH2 0x13CD JUMP JUMPDEST SWAP1 POP PUSH1 0x0 PUSH2 0xFD5 DUP5 DUP3 DUP6 ADD PUSH2 0x10C5 JUMP JUMPDEST PUSH1 0x0 DUP4 ADD MSTORE POP PUSH1 0x20 PUSH2 0xFE9 DUP5 DUP3 DUP6 ADD PUSH2 0x10C5 JUMP JUMPDEST PUSH1 0x20 DUP4 ADD MSTORE POP PUSH1 0x40 PUSH2 0xFFD DUP5 DUP3 DUP6 ADD PUSH2 0x10C5 JUMP JUMPDEST PUSH1 0x40 DUP4 ADD MSTORE POP PUSH1 0x60 PUSH2 0x1011 DUP5 DUP3 DUP6 ADD PUSH2 0x10C5 JUMP JUMPDEST PUSH1 0x60 DUP4 ADD MSTORE POP PUSH1 0x80 PUSH2 0x1025 DUP5 DUP3 DUP6 ADD PUSH2 0x10C5 JUMP JUMPDEST PUSH1 0x80 DUP4 ADD MSTORE POP PUSH1 0xA0 PUSH2 0x1039 DUP5 DUP3 DUP6 ADD PUSH2 0x10C5 JUMP JUMPDEST PUSH1 0xA0 DUP4 ADD MSTORE POP PUSH1 0xC0 PUSH2 0x104D DUP5 DUP3 DUP6 ADD PUSH2 0xF64 JUMP JUMPDEST PUSH1 0xC0 DUP4 ADD MSTORE POP PUSH1 0xE0 PUSH2 0x1061 DUP5 DUP3 DUP6 ADD PUSH2 0xF64 JUMP JUMPDEST PUSH1 0xE0 DUP4 ADD MSTORE POP PUSH2 0x100 PUSH2 0x1076 DUP5 DUP3 DUP6 ADD PUSH2 0xF8E JUMP JUMPDEST PUSH2 0x100 DUP4 ADD MSTORE POP PUSH2 0x120 PUSH2 0x108C DUP5 DUP3 DUP6 ADD PUSH2 0xF8E JUMP JUMPDEST PUSH2 0x120 DUP4 ADD MSTORE POP PUSH2 0x140 PUSH2 0x10A2 DUP5 DUP3 DUP6 ADD PUSH2 0x10C5 JUMP JUMPDEST PUSH2 0x140 DUP4 ADD MSTORE POP PUSH2 0x160 PUSH2 0x10B8 DUP5 DUP3 DUP6 ADD PUSH2 0xF79 JUMP JUMPDEST PUSH2 0x160 DUP4 ADD MSTORE POP SWAP3 SWAP2 POP POP JUMP JUMPDEST PUSH1 0x0 DUP2 CALLDATALOAD SWAP1 POP PUSH2 0x10D4 DUP2 PUSH2 0x1730 JUMP JUMPDEST SWAP3 SWAP2 POP POP JUMP JUMPDEST PUSH1 0x0 PUSH2 0x180 DUP3 DUP5 SUB SLT ISZERO PUSH2 0x10F1 JUMPI PUSH2 0x10F0 PUSH2 0x1683 JUMP JUMPDEST JUMPDEST PUSH1 0x0 PUSH2 0x10FF DUP5 DUP3 DUP6 ADD PUSH2 0xFA3 JUMP JUMPDEST SWAP2 POP POP SWAP3 SWAP2 POP POP JUMP JUMPDEST PUSH1 0x0 PUSH1 0x20 DUP3 DUP5 SUB SLT ISZERO PUSH2 0x111E JUMPI PUSH2 0x111D PUSH2 0x1683 JUMP JUMPDEST JUMPDEST PUSH1 0x0 PUSH2 0x112C DUP5 DUP3 DUP6 ADD PUSH2 0x10C5 JUMP JUMPDEST SWAP2 POP POP SWAP3 SWAP2 POP POP JUMP JUMPDEST PUSH1 0x0 DUP1 PUSH1 0x0 DUP1 PUSH1 0x80 DUP6 DUP8 SUB SLT ISZERO PUSH2 0x114F JUMPI PUSH2 0x114E PUSH2 0x1683 JUMP JUMPDEST JUMPDEST PUSH1 0x0 PUSH2 0x115D DUP8 DUP3 DUP9 ADD PUSH2 0x10C5 JUMP JUMPDEST SWAP5 POP POP PUSH1 0x20 PUSH2 0x116E DUP8 DUP3 DUP9 ADD PUSH2 0xF8E JUMP JUMPDEST SWAP4 POP POP PUSH1 0x40 PUSH2 0x117F DUP8 DUP3 DUP9 ADD PUSH2 0xF8E JUMP JUMPDEST SWAP3 POP POP PUSH1 0x60 PUSH2 0x1190 DUP8 DUP3 DUP9 ADD PUSH2 0x10C5 JUMP JUMPDEST SWAP2 POP POP SWAP3 SWAP6 SWAP2 SWAP5 POP SWAP3 POP JUMP JUMPDEST PUSH1 0x0 DUP1 PUSH1 0x40 DUP4 DUP6 SUB SLT ISZERO PUSH2 0x11B3 JUMPI PUSH2 0x11B2 PUSH2 0x1683 JUMP JUMPDEST JUMPDEST PUSH1 0x0 PUSH2 0x11C1 DUP6 DUP3 DUP7 ADD PUSH2 0x10C5 JUMP JUMPDEST SWAP3 POP POP PUSH1 0x20 PUSH2 0x11D2 DUP6 DUP3 DUP7 ADD PUSH2 0x10C5 JUMP JUMPDEST SWAP2 POP POP SWAP3 POP SWAP3 SWAP1 POP JUMP JUMPDEST PUSH2 0x11E5 DUP2 PUSH2 0x14F6 JUMP JUMPDEST DUP3 MSTORE POP POP JUMP JUMPDEST PUSH2 0x11F4 DUP2 PUSH2 0x14E4 JUMP JUMPDEST DUP3 MSTORE POP POP JUMP JUMPDEST PUSH2 0x1203 DUP2 PUSH2 0x1508 JUMP JUMPDEST DUP3 MSTORE POP POP JUMP JUMPDEST PUSH2 0x1212 DUP2 PUSH2 0x1514 JUMP JUMPDEST DUP3 MSTORE POP POP JUMP JUMPDEST PUSH1 0x0 PUSH2 0x1225 PUSH1 0xD DUP4 PUSH2 0x13F2 JUMP JUMPDEST SWAP2 POP PUSH2 0x1230 DUP3 PUSH2 0x1699 JUMP JUMPDEST PUSH1 0x20 DUP3 ADD SWAP1 POP SWAP2 SWAP1 POP JUMP JUMPDEST PUSH1 0x0 PUSH2 0x1248 PUSH1 0x12 DUP4 PUSH2 0x13F2 JUMP JUMPDEST SWAP2 POP PUSH2 0x1253 DUP3 PUSH2 0x16C2 JUMP JUMPDEST PUSH1 0x20 DUP3 ADD SWAP1 POP SWAP2 SWAP1 POP JUMP JUMPDEST PUSH2 0x1267 DUP2 PUSH2 0x153E JUMP JUMPDEST DUP3 MSTORE POP POP JUMP JUMPDEST PUSH1 0x0 PUSH1 0x20 DUP3 ADD SWAP1 POP PUSH2 0x1282 PUSH1 0x0 DUP4 ADD DUP5 PUSH2 0x11EB JUMP JUMPDEST SWAP3 SWAP2 POP POP JUMP JUMPDEST PUSH1 0x0 PUSH1 0x20 DUP3 ADD SWAP1 POP PUSH2 0x129D PUSH1 0x0 DUP4 ADD DUP5 PUSH2 0x11FA JUMP JUMPDEST SWAP3 SWAP2 POP POP JUMP JUMPDEST PUSH1 0x0 PUSH1 0x20 DUP3 ADD SWAP1 POP DUP2 DUP2 SUB PUSH1 0x0 DUP4 ADD MSTORE PUSH2 0x12BC DUP2 PUSH2 0x1218 JUMP JUMPDEST SWAP1 POP SWAP2 SWAP1 POP JUMP JUMPDEST PUSH1 0x0 PUSH1 0x20 DUP3 ADD SWAP1 POP DUP2 DUP2 SUB PUSH1 0x0 DUP4 ADD MSTORE PUSH2 0x12DC DUP2 PUSH2 0x123B JUMP JUMPDEST SWAP1 POP SWAP2 SWAP1 POP JUMP JUMPDEST PUSH1 0x0 PUSH1 0x20 DUP3 ADD SWAP1 POP PUSH2 0x12F8 PUSH1 0x0 DUP4 ADD DUP5 PUSH2 0x125E JUMP JUMPDEST SWAP3 SWAP2 POP POP JUMP JUMPDEST PUSH1 0x0 PUSH1 0x60 DUP3 ADD SWAP1 POP PUSH2 0x1313 PUSH1 0x0 DUP4 ADD DUP7 PUSH2 0x125E JUMP JUMPDEST PUSH2 0x1320 PUSH1 0x20 DUP4 ADD DUP6 PUSH2 0x1209 JUMP JUMPDEST PUSH2 0x132D PUSH1 0x40 DUP4 ADD DUP5 PUSH2 0x1209 JUMP JUMPDEST SWAP5 SWAP4 POP POP POP POP JUMP JUMPDEST PUSH1 0x0 PUSH1 0x80 DUP3 ADD SWAP1 POP PUSH2 0x134A PUSH1 0x0 DUP4 ADD DUP8 PUSH2 0x125E JUMP JUMPDEST PUSH2 0x1357 PUSH1 0x20 DUP4 ADD DUP7 PUSH2 0x1209 JUMP JUMPDEST PUSH2 0x1364 PUSH1 0x40 DUP4 ADD DUP6 PUSH2 0x1209 JUMP JUMPDEST PUSH2 0x1371 PUSH1 0x60 DUP4 ADD DUP5 PUSH2 0x11DC JUMP JUMPDEST SWAP6 SWAP5 POP POP POP POP POP JUMP JUMPDEST PUSH1 0x0 PUSH1 0xA0 DUP3 ADD SWAP1 POP PUSH2 0x138F PUSH1 0x0 DUP4 ADD DUP9 PUSH2 0x125E JUMP JUMPDEST PUSH2 0x139C PUSH1 0x20 DUP4 ADD DUP8 PUSH2 0x1209 JUMP JUMPDEST PUSH2 0x13A9 PUSH1 0x40 DUP4 ADD DUP7 PUSH2 0x1209 JUMP JUMPDEST PUSH2 0x13B6 PUSH1 0x60 DUP4 ADD DUP6 PUSH2 0x11DC JUMP JUMPDEST PUSH2 0x13C3 PUSH1 0x80 DUP4 ADD DUP5 PUSH2 0x125E JUMP JUMPDEST SWAP7 SWAP6 POP POP POP POP POP POP JUMP JUMPDEST PUSH1 0x0 PUSH2 0x13D7 PUSH2 0x13E8 JUMP JUMPDEST SWAP1 POP PUSH2 0x13E3 DUP3 DUP3 PUSH2 0x1548 JUMP JUMPDEST SWAP2 SWAP1 POP JUMP JUMPDEST PUSH1 0x0 PUSH1 0x40 MLOAD SWAP1 POP SWAP1 JUMP JUMPDEST PUSH1 0x0 DUP3 DUP3 MSTORE PUSH1 0x20 DUP3 ADD SWAP1 POP SWAP3 SWAP2 POP POP JUMP JUMPDEST PUSH1 0x0 PUSH2 0x140E DUP3 PUSH2 0x153E JUMP JUMPDEST SWAP2 POP PUSH2 0x1419 DUP4 PUSH2 0x153E JUMP JUMPDEST SWAP3 POP DUP3 PUSH32 0xFFFFFFFFFFFFFFFFFFFFFFFFFFFFFFFFFFFFFFFFFFFFFFFFFFFFFFFFFFFFFFFF SUB DUP3 GT ISZERO PUSH2 0x144E JUMPI PUSH2 0x144D PUSH2 0x15C2 JUMP JUMPDEST JUMPDEST DUP3 DUP3 ADD SWAP1 POP SWAP3 SWAP2 POP POP JUMP JUMPDEST PUSH1 0x0 PUSH2 0x1464 DUP3 PUSH2 0x153E JUMP JUMPDEST SWAP2 POP PUSH2 0x146F DUP4 PUSH2 0x153E JUMP JUMPDEST SWAP3 POP DUP3 PUSH2 0x147F JUMPI PUSH2 0x147E PUSH2 0x15F1 JUMP JUMPDEST JUMPDEST DUP3 DUP3 DIV SWAP1 POP SWAP3 SWAP2 POP POP JUMP JUMPDEST PUSH1 0x0 PUSH2 0x1495 DUP3 PUSH2 0x153E JUMP JUMPDEST SWAP2 POP PUSH2 0x14A0 DUP4 PUSH2 0x153E JUMP JUMPDEST SWAP3 POP DUP2 PUSH32 0xFFFFFFFFFFFFFFFFFFFFFFFFFFFFFFFFFFFFFFFFFFFFFFFFFFFFFFFFFFFFFFFF DIV DUP4 GT DUP3 ISZERO ISZERO AND ISZERO PUSH2 0x14D9 JUMPI PUSH2 0x14D8 PUSH2 0x15C2 JUMP JUMPDEST JUMPDEST DUP3 DUP3 MUL SWAP1 POP SWAP3 SWAP2 POP POP JUMP JUMPDEST PUSH1 0x0 PUSH2 0x14EF DUP3 PUSH2 0x151E JUMP JUMPDEST SWAP1 POP SWAP2 SWAP1 POP JUMP JUMPDEST PUSH1 0x0 PUSH2 0x1501 DUP3 PUSH2 0x151E JUMP JUMPDEST SWAP1 POP SWAP2 SWAP1 POP JUMP JUMPDEST PUSH1 0x0 DUP2 ISZERO ISZERO SWAP1 POP SWAP2 SWAP1 POP JUMP JUMPDEST PUSH1 0x0 DUP2 SWAP1 POP SWAP2 SWAP1 POP JUMP JUMPDEST PUSH1 0x0 PUSH20 0xFFFFFFFFFFFFFFFFFFFFFFFFFFFFFFFFFFFFFFFF DUP3 AND SWAP1 POP SWAP2 SWAP1 POP JUMP JUMPDEST PUSH1 0x0 DUP2 SWAP1 POP SWAP2 SWAP1 POP JUMP JUMPDEST PUSH2 0x1551 DUP3 PUSH2 0x1688 JUMP JUMPDEST DUP2 ADD DUP2 DUP2 LT PUSH8 0xFFFFFFFFFFFFFFFF DUP3 GT OR ISZERO PUSH2 0x1570 JUMPI PUSH2 0x156F PUSH2 0x164F JUMP JUMPDEST JUMPDEST DUP1 PUSH1 0x40 MSTORE POP POP POP JUMP JUMPDEST PUSH1 0x0 PUSH2 0x1584 DUP3 PUSH2 0x153E JUMP JUMPDEST SWAP2 POP PUSH32 0xFFFFFFFFFFFFFFFFFFFFFFFFFFFFFFFFFFFFFFFFFFFFFFFFFFFFFFFFFFFFFFFF DUP3 EQ ISZERO PUSH2 0x15B7 JUMPI PUSH2 0x15B6 PUSH2 0x15C2 JUMP JUMPDEST JUMPDEST PUSH1 0x1 DUP3 ADD SWAP1 POP SWAP2 SWAP1 POP JUMP JUMPDEST PUSH32 0x4E487B7100000000000000000000000000000000000000000000000000000000 PUSH1 0x0 MSTORE PUSH1 0x11 PUSH1 0x4 MSTORE PUSH1 0x24 PUSH1 0x0 REVERT JUMPDEST PUSH32 0x4E487B7100000000000000000000000000000000000000000000000000000000 PUSH1 0x0 MSTORE PUSH1 0x12 PUSH1 0x4 MSTORE PUSH1 0x24 PUSH1 0x0 REVERT JUMPDEST PUSH32 0x4E487B7100000000000000000000000000000000000000000000000000000000 PUSH1 0x0 MSTORE PUSH1 0x32 PUSH1 0x4 MSTORE PUSH1 0x24 PUSH1 0x0 REVERT JUMPDEST PUSH32 0x4E487B7100000000000000000000000000000000000000000000000000000000 PUSH1 0x0 MSTORE PUSH1 0x41 PUSH1 0x4 MSTORE PUSH1 0x24 PUSH1 0x0 REVERT JUMPDEST PUSH1 0x0 DUP1 REVERT JUMPDEST PUSH1 0x0 DUP1 REVERT JUMPDEST PUSH1 0x0 PUSH1 0x1F NOT PUSH1 0x1F DUP4 ADD AND SWAP1 POP SWAP2 SWAP1 POP JUMP JUMPDEST PUSH32 0x556B6E6F776E2068617368496400000000000000000000000000000000000000 PUSH1 0x0 DUP3 ADD MSTORE POP JUMP JUMPDEST PUSH32 0x56616C756520697320696E636F72726563740000000000000000000000000000 PUSH1 0x0 DUP3 ADD MSTORE POP JUMP JUMPDEST PUSH2 0x16F4 DUP2 PUSH2 0x14F6 JUMP JUMPDEST DUP2 EQ PUSH2 0x16FF JUMPI PUSH1 0x0 DUP1 REVERT JUMPDEST POP JUMP JUMPDEST PUSH2 0x170B DUP2 PUSH2 0x1508 JUMP JUMPDEST DUP2 EQ PUSH2 0x1716 JUMPI PUSH1 0x0 DUP1 REVERT JUMPDEST POP JUMP JUMPDEST PUSH2 0x1722 DUP2 PUSH2 0x1514 JUMP JUMPDEST DUP2 EQ PUSH2 0x172D JUMPI PUSH1 0x0 DUP1 REVERT JUMPDEST POP JUMP JUMPDEST PUSH2 0x1739 DUP2 PUSH2 0x153E JUMP JUMPDEST DUP2 EQ PUSH2 0x1744 JUMPI PUSH1 0x0 DUP1 REVERT JUMPDEST POP JUMP INVALID LOG2 PUSH5 0x6970667358 0x22 SLT KECCAK256 SDIV 0x29 0xB3 0xF8 PUSH20 0x8C026931041C976240A7FA716F01FBA23A10AEC8 0xC5 CODECOPY 0xCA BLOCKHASH 0x4F 0xC9 0xCD PUSH5 0x736F6C6343 STOP ADDMOD SMOD STOP CALLER "},"methodIdentifiers":{"QUEUE_COUNT()":"f7208c9c","buyItem(uint256)":"e7fb74c7","calcUpdatedTime(uint256,uint256)":"2238b73a","createBidding(uint256,bytes32,bytes32,uint256)":"73260329","currentAddress(uint256)":"44b7db08","currentDeltaTime(uint256)":"a907865c","emitFinishedBidding((uint256,uint256,uint256,uint256,uint256,uint256,address,address,bytes32,bytes32,uint256,bool))":"9341d4eb","getTimeStampEnd(uint256)":"3ff76040","tryFinishBidding(uint256)":"18e7d58d"}}}}}