{"contracts/MilkaSingleBidding.sol":{"MilkaSingleBidding":{"abi":[{"inputs":[{"internalType":"bytes32","name":"title","type":"bytes32"},{"internalType":"bytes32","name":"description","type":"bytes32"},{"internalType":"uint256","name":"minValue","type":"uint256"},{"internalType":"uint256","name":"minTime","type":"uint256"},{"internalType":"uint256","name":"maxTime","type":"uint256"},{"internalType":"uint256","name":"addityProcent","type":"uint256"}],"stateMutability":"nonpayable","type":"constructor"},{"anonymous":false,"inputs":[{"indexed":false,"internalType":"uint256","name":"hashId","type":"uint256"},{"indexed":false,"internalType":"bytes32","name":"title","type":"bytes32"},{"indexed":false,"internalType":"bytes32","name":"description","type":"bytes32"},{"indexed":false,"internalType":"address payable","name":"currentOwner","type":"address"},{"indexed":false,"internalType":"uint256","name":"value","type":"uint256"}],"name":"AcceptedProposal","type":"event"},{"anonymous":false,"inputs":[{"indexed":false,"internalType":"uint256","name":"hashId","type":"uint256"},{"indexed":false,"internalType":"bytes32","name":"title","type":"bytes32"},{"indexed":false,"internalType":"bytes32","name":"description","type":"bytes32"}],"name":"CancelProposal","type":"event"},{"anonymous":false,"inputs":[{"indexed":false,"internalType":"uint256","name":"hashId","type":"uint256"},{"indexed":false,"internalType":"bytes32","name":"title","type":"bytes32"},{"indexed":false,"internalType":"bytes32","name":"description","type":"bytes32"},{"indexed":false,"internalType":"address payable","name":"currentOwner","type":"address"}],"name":"CreatedBidding","type":"event"},{"anonymous":false,"inputs":[{"indexed":false,"internalType":"uint256","name":"hashId","type":"uint256"}],"name":"RejectedProposal","type":"event"},{"inputs":[],"name":"buyItem","outputs":[{"internalType":"bool","name":"","type":"bool"}],"stateMutability":"payable","type":"function"},{"inputs":[{"internalType":"uint256","name":"currTime","type":"uint256"},{"internalType":"uint256","name":"deltaTime","type":"uint256"}],"name":"calcUpdatedTime","outputs":[{"internalType":"uint256","name":"","type":"uint256"}],"stateMutability":"pure","type":"function"},{"inputs":[],"name":"currentAddress","outputs":[{"internalType":"address","name":"","type":"address"}],"stateMutability":"view","type":"function"},{"inputs":[],"name":"currentDeltaTime","outputs":[{"internalType":"uint256","name":"","type":"uint256"}],"stateMutability":"view","type":"function"},{"inputs":[],"name":"currentIsFinished","outputs":[{"internalType":"bool","name":"","type":"bool"}],"stateMutability":"view","type":"function"},{"inputs":[{"components":[{"internalType":"uint256","name":"hashId","type":"uint256"},{"internalType":"uint256","name":"createDate","type":"uint256"},{"internalType":"uint256","name":"endDate","type":"uint256"},{"internalType":"uint256","name":"currentDeltaTime","type":"uint256"},{"internalType":"uint256","name":"value","type":"uint256"},{"internalType":"uint256","name":"nextMinValue","type":"uint256"},{"internalType":"address payable","name":"currentOwner","type":"address"},{"internalType":"address payable","name":"biddingCreator","type":"address"},{"internalType":"bytes32","name":"title","type":"bytes32"},{"internalType":"bytes32","name":"description","type":"bytes32"},{"internalType":"uint256","name":"addityProcent","type":"uint256"},{"internalType":"bool","name":"isEndBidding","type":"bool"}],"internalType":"struct MilkaBiddingUtils.Product","name":"prod","type":"tuple"}],"name":"emitFinishedBidding","outputs":[],"stateMutability":"nonpayable","type":"function"},{"inputs":[],"name":"tryFinishBidding","outputs":[{"internalType":"bool","name":"","type":"bool"}],"stateMutability":"nonpayable","type":"function"}],"evm":{"bytecode":{"linkReferences":{},"object":"6080604052620151806000556102586001553480156200001e57600080fd5b506040516200154d3803806200154d8339818101604052810190620000449190620002ae565b818311156200008a576040517f08c379a00000000000000000000000000000000000000000000000000000000081526004016200008190620003a4565b60405180910390fd5b33600260070160006101000a81548173ffffffffffffffffffffffffffffffffffffffff021916908373ffffffffffffffffffffffffffffffffffffffff160217905550856002600801819055508460026009018190555042600260010181905550806002600a018190555083600260050181905550600082146200011157816000819055505b600083146200012257826001819055505b600154600e600101819055506200013e620001c860201b60201c565b600260030181905550620001576200024260201b60201c565b7fa11993eb95384e356b03388262d2842238f11010690c653232a9da617fa9236060008787600260070160009054906101000a900473ffffffffffffffffffffffffffffffffffffffff16604051620001b49493929190620003c6565b60405180910390a1505050505050620005bb565b600080600e6000015490506000600e60010154905060008183620001ed919062000424565b905060008160005462000201919062000481565b11620002155760015493505050506200023f565b81600e6000018190555080600e600101819055508060005462000239919062000481565b93505050505b90565b6200025e426002600301546200026860201b620001a51760201c565b6002800181905550565b6000818362000278919062000424565b905092915050565b600081519050620002918162000587565b92915050565b600081519050620002a881620005a1565b92915050565b60008060008060008060c08789031215620002ce57620002cd62000533565b5b6000620002de89828a0162000280565b9650506020620002f189828a0162000280565b95505060406200030489828a0162000297565b94505060606200031789828a0162000297565b93505060806200032a89828a0162000297565b92505060a06200033d89828a0162000297565b9150509295509295509295565b6200035581620004bc565b82525050565b6200036681620004d0565b82525050565b60006200037b603d8362000413565b9150620003888262000538565b604082019050919050565b6200039e81620004fa565b82525050565b60006020820190508181036000830152620003bf816200036c565b9050919050565b6000608082019050620003dd600083018762000393565b620003ec60208301866200035b565b620003fb60408301856200035b565b6200040a60608301846200034a565b95945050505050565b600082825260208201905092915050565b60006200043182620004fa565b91506200043e83620004fa565b9250827fffffffffffffffffffffffffffffffffffffffffffffffffffffffffffffffff0382111562000476576200047562000504565b5b828201905092915050565b60006200048e82620004fa565b91506200049b83620004fa565b925082821015620004b157620004b062000504565b5b828203905092915050565b6000620004c982620004da565b9050919050565b6000819050919050565b600073ffffffffffffffffffffffffffffffffffffffff82169050919050565b6000819050919050565b7f4e487b7100000000000000000000000000000000000000000000000000000000600052601160045260246000fd5b600080fd5b7f506c656173652c20696e70757420636f72726563742074696d653a206d696e5460008201527f696d65206d757374206265206c657373207468616e206d617854696d65000000602082015250565b6200059281620004d0565b81146200059e57600080fd5b50565b620005ac81620004fa565b8114620005b857600080fd5b50565b610f8280620005cb6000396000f3fe6080604052600436106100705760003560e01c8063795612d61161004e578063795612d61461010857806381bf4718146101265780639341d4eb14610151578063f66d631c1461017a57610070565b80632238b73a146100755780634e9c1208146100b25780636cc494c5146100dd575b600080fd5b34801561008157600080fd5b5061009c600480360381019061009791906109be565b6101a5565b6040516100a99190610b48565b60405180910390f35b3480156100be57600080fd5b506100c76101bb565b6040516100d49190610acd565b60405180910390f35b3480156100e957600080fd5b506100f26101e1565b6040516100ff9190610acd565b60405180910390f35b6101106101fc565b60405161011d9190610acd565b60405180910390f35b34801561013257600080fd5b5061013b610453565b6040516101489190610ab2565b60405180910390f35b34801561015d57600080fd5b5061017860048036038101906101739190610990565b610480565b005b34801561018657600080fd5b5061018f610560565b60405161019c9190610b48565b60405180910390f35b600081836101b39190610c23565b905092915050565b6000600280015442106101d9576101d061056d565b600190506101de565b600090505b90565b60006002600b0160009054906101000a900460ff1615905090565b60006002600b0160009054906101000a900460ff1615610251576040517f08c379a000000000000000000000000000000000000000000000000000000000815260040161024890610b08565b60405180910390fd5b60028001544210610297576040517f08c379a000000000000000000000000000000000000000000000000000000000815260040161028e90610ae8565b60405180910390fd5b6002600501543410156102df576040517f08c379a00000000000000000000000000000000000000000000000000000000081526004016102d690610b28565b60405180910390fd5b600073ffffffffffffffffffffffffffffffffffffffff16600260060160009054906101000a900473ffffffffffffffffffffffffffffffffffffffff1673ffffffffffffffffffffffffffffffffffffffff16146103aa57600260060160009054906101000a900473ffffffffffffffffffffffffffffffffffffffff1673ffffffffffffffffffffffffffffffffffffffff166108fc6002600401549081150290604051600060405180830381858888f193505050501580156103a8573d6000803e3d6000fd5b505b33600260060160006101000a81548173ffffffffffffffffffffffffffffffffffffffff021916908373ffffffffffffffffffffffffffffffffffffffff160217905550346002600401819055506002600a015460646002600401546104109190610c79565b61041a9190610caa565b60026004015461042a9190610c23565b60026005018190555061043b61078f565b60026003018190555061044c610801565b6001905090565b6000600260060160009054906101000a900473ffffffffffffffffffffffffffffffffffffffff16905090565b600073ffffffffffffffffffffffffffffffffffffffff168160c0015173ffffffffffffffffffffffffffffffffffffffff161415610507577ff13bfa7d2cec3002aa80fa154881c0b17d3fd01c4ff8b0f25e68895053462cd381600001518261010001518361012001516040516104fa93929190610b63565b60405180910390a161055d565b7fe92dedc60fde586a3e790ad45c1b64f3af47f7086dbded30d4495b6fcfacf2b381600001518261010001518361012001518460c001518560800151604051610554959493929190610b9a565b60405180910390a15b50565b6000600260030154905090565b60016002600b0160006101000a81548160ff021916908315150217905550600073ffffffffffffffffffffffffffffffffffffffff16600260060160009054906101000a900473ffffffffffffffffffffffffffffffffffffffff1673ffffffffffffffffffffffffffffffffffffffff161461065657600260070160009054906101000a900473ffffffffffffffffffffffffffffffffffffffff1673ffffffffffffffffffffffffffffffffffffffff166108fc6002600401549081150290604051600060405180830381858888f19350505050158015610654573d6000803e3d6000fd5b505b61078d6002604051806101800160405290816000820154815260200160018201548152602001600282015481526020016003820154815260200160048201548152602001600582015481526020016006820160009054906101000a900473ffffffffffffffffffffffffffffffffffffffff1673ffffffffffffffffffffffffffffffffffffffff1673ffffffffffffffffffffffffffffffffffffffff1681526020016007820160009054906101000a900473ffffffffffffffffffffffffffffffffffffffff1673ffffffffffffffffffffffffffffffffffffffff1673ffffffffffffffffffffffffffffffffffffffff1681526020016008820154815260200160098201548152602001600a8201548152602001600b820160009054906101000a900460ff161515151581525050610480565b565b600080600e6000015490506000600e600101549050600081836107b29190610c23565b90506000816000546107c49190610d04565b116107d65760015493505050506107fe565b81600e6000018190555080600e60010181905550806000546107f89190610d04565b93505050505b90565b610810426002600301546101a5565b6002800181905550565b60008135905061082981610ef0565b92915050565b60008135905061083e81610f07565b92915050565b60008135905061085381610f1e565b92915050565b600061018082840312156108705761086f610e5a565b5b61087b610180610bed565b9050600061088b8482850161097b565b600083015250602061089f8482850161097b565b60208301525060406108b38482850161097b565b60408301525060606108c78482850161097b565b60608301525060806108db8482850161097b565b60808301525060a06108ef8482850161097b565b60a08301525060c06109038482850161081a565b60c08301525060e06109178482850161081a565b60e08301525061010061092c84828501610844565b6101008301525061012061094284828501610844565b610120830152506101406109588482850161097b565b6101408301525061016061096e8482850161082f565b6101608301525092915050565b60008135905061098a81610f35565b92915050565b600061018082840312156109a7576109a6610e5f565b5b60006109b584828501610859565b91505092915050565b600080604083850312156109d5576109d4610e5f565b5b60006109e38582860161097b565b92505060206109f48582860161097b565b9150509250929050565b610a0781610d4a565b82525050565b610a1681610d38565b82525050565b610a2581610d5c565b82525050565b610a3481610d68565b82525050565b6000610a47600683610c12565b9150610a5282610e75565b602082019050919050565b6000610a6a601383610c12565b9150610a7582610e9e565b602082019050919050565b6000610a8d601283610c12565b9150610a9882610ec7565b602082019050919050565b610aac81610d92565b82525050565b6000602082019050610ac76000830184610a0d565b92915050565b6000602082019050610ae26000830184610a1c565b92915050565b60006020820190508181036000830152610b0181610a3a565b9050919050565b60006020820190508181036000830152610b2181610a5d565b9050919050565b60006020820190508181036000830152610b4181610a80565b9050919050565b6000602082019050610b5d6000830184610aa3565b92915050565b6000606082019050610b786000830186610aa3565b610b856020830185610a2b565b610b926040830184610a2b565b949350505050565b600060a082019050610baf6000830188610aa3565b610bbc6020830187610a2b565b610bc96040830186610a2b565b610bd660608301856109fe565b610be36080830184610aa3565b9695505050505050565b6000610bf7610c08565b9050610c038282610d9c565b919050565b6000604051905090565b600082825260208201905092915050565b6000610c2e82610d92565b9150610c3983610d92565b9250827fffffffffffffffffffffffffffffffffffffffffffffffffffffffffffffffff03821115610c6e57610c6d610dcd565b5b828201905092915050565b6000610c8482610d92565b9150610c8f83610d92565b925082610c9f57610c9e610dfc565b5b828204905092915050565b6000610cb582610d92565b9150610cc083610d92565b9250817fffffffffffffffffffffffffffffffffffffffffffffffffffffffffffffffff0483118215151615610cf957610cf8610dcd565b5b828202905092915050565b6000610d0f82610d92565b9150610d1a83610d92565b925082821015610d2d57610d2c610dcd565b5b828203905092915050565b6000610d4382610d72565b9050919050565b6000610d5582610d72565b9050919050565b60008115159050919050565b6000819050919050565b600073ffffffffffffffffffffffffffffffffffffffff82169050919050565b6000819050919050565b610da582610e64565b810181811067ffffffffffffffff82111715610dc457610dc3610e2b565b5b80604052505050565b7f4e487b7100000000000000000000000000000000000000000000000000000000600052601160045260246000fd5b7f4e487b7100000000000000000000000000000000000000000000000000000000600052601260045260246000fd5b7f4e487b7100000000000000000000000000000000000000000000000000000000600052604160045260246000fd5b600080fd5b600080fd5b6000601f19601f8301169050919050565b7f46696e6973680000000000000000000000000000000000000000000000000000600082015250565b7f42696464696e672069732066696e697368656400000000000000000000000000600082015250565b7f56616c756520697320696e636f72726563740000000000000000000000000000600082015250565b610ef981610d4a565b8114610f0457600080fd5b50565b610f1081610d5c565b8114610f1b57600080fd5b50565b610f2781610d68565b8114610f3257600080fd5b50565b610f3e81610d92565b8114610f4957600080fd5b5056fea2646970667358221220250c9f987304d3dbcbaa833267cbd16b8311020c75286aeca0d28bc6a0dbddfd64736f6c63430008070033","opcodes":"PUSH1 0x80 PUSH1 0x40 MSTORE PUSH3 0x15180 PUSH1 0x0 SSTORE PUSH2 0x258 PUSH1 0x1 SSTORE CALLVALUE DUP1 ISZERO PUSH3 0x1E JUMPI PUSH1 0x0 DUP1 REVERT JUMPDEST POP PUSH1 0x40 MLOAD PUSH3 0x154D CODESIZE SUB DUP1 PUSH3 0x154D DUP4 CODECOPY DUP2 DUP2 ADD PUSH1 0x40 MSTORE DUP2 ADD SWAP1 PUSH3 0x44 SWAP2 SWAP1 PUSH3 0x2AE JUMP JUMPDEST DUP2 DUP4 GT ISZERO PUSH3 0x8A JUMPI PUSH1 0x40 MLOAD PUSH32 0x8C379A000000000000000000000000000000000000000000000000000000000 DUP2 MSTORE PUSH1 0x4 ADD PUSH3 0x81 SWAP1 PUSH3 0x3A4 JUMP JUMPDEST PUSH1 0x40 MLOAD DUP1 SWAP2 SUB SWAP1 REVERT JUMPDEST CALLER PUSH1 0x2 PUSH1 0x7 ADD PUSH1 0x0 PUSH2 0x100 EXP DUP2 SLOAD DUP2 PUSH20 0xFFFFFFFFFFFFFFFFFFFFFFFFFFFFFFFFFFFFFFFF MUL NOT AND SWAP1 DUP4 PUSH20 0xFFFFFFFFFFFFFFFFFFFFFFFFFFFFFFFFFFFFFFFF AND MUL OR SWAP1 SSTORE POP DUP6 PUSH1 0x2 PUSH1 0x8 ADD DUP2 SWAP1 SSTORE POP DUP5 PUSH1 0x2 PUSH1 0x9 ADD DUP2 SWAP1 SSTORE POP TIMESTAMP PUSH1 0x2 PUSH1 0x1 ADD DUP2 SWAP1 SSTORE POP DUP1 PUSH1 0x2 PUSH1 0xA ADD DUP2 SWAP1 SSTORE POP DUP4 PUSH1 0x2 PUSH1 0x5 ADD DUP2 SWAP1 SSTORE POP PUSH1 0x0 DUP3 EQ PUSH3 0x111 JUMPI DUP2 PUSH1 0x0 DUP2 SWAP1 SSTORE POP JUMPDEST PUSH1 0x0 DUP4 EQ PUSH3 0x122 JUMPI DUP3 PUSH1 0x1 DUP2 SWAP1 SSTORE POP JUMPDEST PUSH1 0x1 SLOAD PUSH1 0xE PUSH1 0x1 ADD DUP2 SWAP1 SSTORE POP PUSH3 0x13E PUSH3 0x1C8 PUSH1 0x20 SHL PUSH1 0x20 SHR JUMP JUMPDEST PUSH1 0x2 PUSH1 0x3 ADD DUP2 SWAP1 SSTORE POP PUSH3 0x157 PUSH3 0x242 PUSH1 0x20 SHL PUSH1 0x20 SHR JUMP JUMPDEST PUSH32 0xA11993EB95384E356B03388262D2842238F11010690C653232A9DA617FA92360 PUSH1 0x0 DUP8 DUP8 PUSH1 0x2 PUSH1 0x7 ADD PUSH1 0x0 SWAP1 SLOAD SWAP1 PUSH2 0x100 EXP SWAP1 DIV PUSH20 0xFFFFFFFFFFFFFFFFFFFFFFFFFFFFFFFFFFFFFFFF AND PUSH1 0x40 MLOAD PUSH3 0x1B4 SWAP5 SWAP4 SWAP3 SWAP2 SWAP1 PUSH3 0x3C6 JUMP JUMPDEST PUSH1 0x40 MLOAD DUP1 SWAP2 SUB SWAP1 LOG1 POP POP POP POP POP POP PUSH3 0x5BB JUMP JUMPDEST PUSH1 0x0 DUP1 PUSH1 0xE PUSH1 0x0 ADD SLOAD SWAP1 POP PUSH1 0x0 PUSH1 0xE PUSH1 0x1 ADD SLOAD SWAP1 POP PUSH1 0x0 DUP2 DUP4 PUSH3 0x1ED SWAP2 SWAP1 PUSH3 0x424 JUMP JUMPDEST SWAP1 POP PUSH1 0x0 DUP2 PUSH1 0x0 SLOAD PUSH3 0x201 SWAP2 SWAP1 PUSH3 0x481 JUMP JUMPDEST GT PUSH3 0x215 JUMPI PUSH1 0x1 SLOAD SWAP4 POP POP POP POP PUSH3 0x23F JUMP JUMPDEST DUP2 PUSH1 0xE PUSH1 0x0 ADD DUP2 SWAP1 SSTORE POP DUP1 PUSH1 0xE PUSH1 0x1 ADD DUP2 SWAP1 SSTORE POP DUP1 PUSH1 0x0 SLOAD PUSH3 0x239 SWAP2 SWAP1 PUSH3 0x481 JUMP JUMPDEST SWAP4 POP POP POP POP JUMPDEST SWAP1 JUMP JUMPDEST PUSH3 0x25E TIMESTAMP PUSH1 0x2 PUSH1 0x3 ADD SLOAD PUSH3 0x268 PUSH1 0x20 SHL PUSH3 0x1A5 OR PUSH1 0x20 SHR JUMP JUMPDEST PUSH1 0x2 DUP1 ADD DUP2 SWAP1 SSTORE POP JUMP JUMPDEST PUSH1 0x0 DUP2 DUP4 PUSH3 0x278 SWAP2 SWAP1 PUSH3 0x424 JUMP JUMPDEST SWAP1 POP SWAP3 SWAP2 POP POP JUMP JUMPDEST PUSH1 0x0 DUP2 MLOAD SWAP1 POP PUSH3 0x291 DUP2 PUSH3 0x587 JUMP JUMPDEST SWAP3 SWAP2 POP POP JUMP JUMPDEST PUSH1 0x0 DUP2 MLOAD SWAP1 POP PUSH3 0x2A8 DUP2 PUSH3 0x5A1 JUMP JUMPDEST SWAP3 SWAP2 POP POP JUMP JUMPDEST PUSH1 0x0 DUP1 PUSH1 0x0 DUP1 PUSH1 0x0 DUP1 PUSH1 0xC0 DUP8 DUP10 SUB SLT ISZERO PUSH3 0x2CE JUMPI PUSH3 0x2CD PUSH3 0x533 JUMP JUMPDEST JUMPDEST PUSH1 0x0 PUSH3 0x2DE DUP10 DUP3 DUP11 ADD PUSH3 0x280 JUMP JUMPDEST SWAP7 POP POP PUSH1 0x20 PUSH3 0x2F1 DUP10 DUP3 DUP11 ADD PUSH3 0x280 JUMP JUMPDEST SWAP6 POP POP PUSH1 0x40 PUSH3 0x304 DUP10 DUP3 DUP11 ADD PUSH3 0x297 JUMP JUMPDEST SWAP5 POP POP PUSH1 0x60 PUSH3 0x317 DUP10 DUP3 DUP11 ADD PUSH3 0x297 JUMP JUMPDEST SWAP4 POP POP PUSH1 0x80 PUSH3 0x32A DUP10 DUP3 DUP11 ADD PUSH3 0x297 JUMP JUMPDEST SWAP3 POP POP PUSH1 0xA0 PUSH3 0x33D DUP10 DUP3 DUP11 ADD PUSH3 0x297 JUMP JUMPDEST SWAP2 POP POP SWAP3 SWAP6 POP SWAP3 SWAP6 POP SWAP3 SWAP6 JUMP JUMPDEST PUSH3 0x355 DUP2 PUSH3 0x4BC JUMP JUMPDEST DUP3 MSTORE POP POP JUMP JUMPDEST PUSH3 0x366 DUP2 PUSH3 0x4D0 JUMP JUMPDEST DUP3 MSTORE POP POP JUMP JUMPDEST PUSH1 0x0 PUSH3 0x37B PUSH1 0x3D DUP4 PUSH3 0x413 JUMP JUMPDEST SWAP2 POP PUSH3 0x388 DUP3 PUSH3 0x538 JUMP JUMPDEST PUSH1 0x40 DUP3 ADD SWAP1 POP SWAP2 SWAP1 POP JUMP JUMPDEST PUSH3 0x39E DUP2 PUSH3 0x4FA JUMP JUMPDEST DUP3 MSTORE POP POP JUMP JUMPDEST PUSH1 0x0 PUSH1 0x20 DUP3 ADD SWAP1 POP DUP2 DUP2 SUB PUSH1 0x0 DUP4 ADD MSTORE PUSH3 0x3BF DUP2 PUSH3 0x36C JUMP JUMPDEST SWAP1 POP SWAP2 SWAP1 POP JUMP JUMPDEST PUSH1 0x0 PUSH1 0x80 DUP3 ADD SWAP1 POP PUSH3 0x3DD PUSH1 0x0 DUP4 ADD DUP8 PUSH3 0x393 JUMP JUMPDEST PUSH3 0x3EC PUSH1 0x20 DUP4 ADD DUP7 PUSH3 0x35B JUMP JUMPDEST PUSH3 0x3FB PUSH1 0x40 DUP4 ADD DUP6 PUSH3 0x35B JUMP JUMPDEST PUSH3 0x40A PUSH1 0x60 DUP4 ADD DUP5 PUSH3 0x34A JUMP JUMPDEST SWAP6 SWAP5 POP POP POP POP POP JUMP JUMPDEST PUSH1 0x0 DUP3 DUP3 MSTORE PUSH1 0x20 DUP3 ADD SWAP1 POP SWAP3 SWAP2 POP POP JUMP JUMPDEST PUSH1 0x0 PUSH3 0x431 DUP3 PUSH3 0x4FA JUMP JUMPDEST SWAP2 POP PUSH3 0x43E DUP4 PUSH3 0x4FA JUMP JUMPDEST SWAP3 POP DUP3 PUSH32 0xFFFFFFFFFFFFFFFFFFFFFFFFFFFFFFFFFFFFFFFFFFFFFFFFFFFFFFFFFFFFFFFF SUB DUP3 GT ISZERO PUSH3 0x476 JUMPI PUSH3 0x475 PUSH3 0x504 JUMP JUMPDEST JUMPDEST DUP3 DUP3 ADD SWAP1 POP SWAP3 SWAP2 POP POP JUMP JUMPDEST PUSH1 0x0 PUSH3 0x48E DUP3 PUSH3 0x4FA JUMP JUMPDEST SWAP2 POP PUSH3 0x49B DUP4 PUSH3 0x4FA JUMP JUMPDEST SWAP3 POP DUP3 DUP3 LT ISZERO PUSH3 0x4B1 JUMPI PUSH3 0x4B0 PUSH3 0x504 JUMP JUMPDEST JUMPDEST DUP3 DUP3 SUB SWAP1 POP SWAP3 SWAP2 POP POP JUMP JUMPDEST PUSH1 0x0 PUSH3 0x4C9 DUP3 PUSH3 0x4DA JUMP JUMPDEST SWAP1 POP SWAP2 SWAP1 POP JUMP JUMPDEST PUSH1 0x0 DUP2 SWAP1 POP SWAP2 SWAP1 POP JUMP JUMPDEST PUSH1 0x0 PUSH20 0xFFFFFFFFFFFFFFFFFFFFFFFFFFFFFFFFFFFFFFFF DUP3 AND SWAP1 POP SWAP2 SWAP1 POP JUMP JUMPDEST PUSH1 0x0 DUP2 SWAP1 POP SWAP2 SWAP1 POP JUMP JUMPDEST PUSH32 0x4E487B7100000000000000000000000000000000000000000000000000000000 PUSH1 0x0 MSTORE PUSH1 0x11 PUSH1 0x4 MSTORE PUSH1 0x24 PUSH1 0x0 REVERT JUMPDEST PUSH1 0x0 DUP1 REVERT JUMPDEST PUSH32 0x506C656173652C20696E70757420636F72726563742074696D653A206D696E54 PUSH1 0x0 DUP3 ADD MSTORE PUSH32 0x696D65206D757374206265206C657373207468616E206D617854696D65000000 PUSH1 0x20 DUP3 ADD MSTORE POP JUMP JUMPDEST PUSH3 0x592 DUP2 PUSH3 0x4D0 JUMP JUMPDEST DUP2 EQ PUSH3 0x59E JUMPI PUSH1 0x0 DUP1 REVERT JUMPDEST POP JUMP JUMPDEST PUSH3 0x5AC DUP2 PUSH3 0x4FA JUMP JUMPDEST DUP2 EQ PUSH3 0x5B8 JUMPI PUSH1 0x0 DUP1 REVERT JUMPDEST POP JUMP JUMPDEST PUSH2 0xF82 DUP1 PUSH3 0x5CB PUSH1 0x0 CODECOPY PUSH1 0x0 RETURN INVALID PUSH1 0x80 PUSH1 0x40 MSTORE PUSH1 0x4 CALLDATASIZE LT PUSH2 0x70 JUMPI PUSH1 0x0 CALLDATALOAD PUSH1 0xE0 SHR DUP1 PUSH4 0x795612D6 GT PUSH2 0x4E JUMPI DUP1 PUSH4 0x795612D6 EQ PUSH2 0x108 JUMPI DUP1 PUSH4 0x81BF4718 EQ PUSH2 0x126 JUMPI DUP1 PUSH4 0x9341D4EB EQ PUSH2 0x151 JUMPI DUP1 PUSH4 0xF66D631C EQ PUSH2 0x17A JUMPI PUSH2 0x70 JUMP JUMPDEST DUP1 PUSH4 0x2238B73A EQ PUSH2 0x75 JUMPI DUP1 PUSH4 0x4E9C1208 EQ PUSH2 0xB2 JUMPI DUP1 PUSH4 0x6CC494C5 EQ PUSH2 0xDD JUMPI JUMPDEST PUSH1 0x0 DUP1 REVERT JUMPDEST CALLVALUE DUP1 ISZERO PUSH2 0x81 JUMPI PUSH1 0x0 DUP1 REVERT JUMPDEST POP PUSH2 0x9C PUSH1 0x4 DUP1 CALLDATASIZE SUB DUP2 ADD SWAP1 PUSH2 0x97 SWAP2 SWAP1 PUSH2 0x9BE JUMP JUMPDEST PUSH2 0x1A5 JUMP JUMPDEST PUSH1 0x40 MLOAD PUSH2 0xA9 SWAP2 SWAP1 PUSH2 0xB48 JUMP JUMPDEST PUSH1 0x40 MLOAD DUP1 SWAP2 SUB SWAP1 RETURN JUMPDEST CALLVALUE DUP1 ISZERO PUSH2 0xBE JUMPI PUSH1 0x0 DUP1 REVERT JUMPDEST POP PUSH2 0xC7 PUSH2 0x1BB JUMP JUMPDEST PUSH1 0x40 MLOAD PUSH2 0xD4 SWAP2 SWAP1 PUSH2 0xACD JUMP JUMPDEST PUSH1 0x40 MLOAD DUP1 SWAP2 SUB SWAP1 RETURN JUMPDEST CALLVALUE DUP1 ISZERO PUSH2 0xE9 JUMPI PUSH1 0x0 DUP1 REVERT JUMPDEST POP PUSH2 0xF2 PUSH2 0x1E1 JUMP JUMPDEST PUSH1 0x40 MLOAD PUSH2 0xFF SWAP2 SWAP1 PUSH2 0xACD JUMP JUMPDEST PUSH1 0x40 MLOAD DUP1 SWAP2 SUB SWAP1 RETURN JUMPDEST PUSH2 0x110 PUSH2 0x1FC JUMP JUMPDEST PUSH1 0x40 MLOAD PUSH2 0x11D SWAP2 SWAP1 PUSH2 0xACD JUMP JUMPDEST PUSH1 0x40 MLOAD DUP1 SWAP2 SUB SWAP1 RETURN JUMPDEST CALLVALUE DUP1 ISZERO PUSH2 0x132 JUMPI PUSH1 0x0 DUP1 REVERT JUMPDEST POP PUSH2 0x13B PUSH2 0x453 JUMP JUMPDEST PUSH1 0x40 MLOAD PUSH2 0x148 SWAP2 SWAP1 PUSH2 0xAB2 JUMP JUMPDEST PUSH1 0x40 MLOAD DUP1 SWAP2 SUB SWAP1 RETURN JUMPDEST CALLVALUE DUP1 ISZERO PUSH2 0x15D JUMPI PUSH1 0x0 DUP1 REVERT JUMPDEST POP PUSH2 0x178 PUSH1 0x4 DUP1 CALLDATASIZE SUB DUP2 ADD SWAP1 PUSH2 0x173 SWAP2 SWAP1 PUSH2 0x990 JUMP JUMPDEST PUSH2 0x480 JUMP JUMPDEST STOP JUMPDEST CALLVALUE DUP1 ISZERO PUSH2 0x186 JUMPI PUSH1 0x0 DUP1 REVERT JUMPDEST POP PUSH2 0x18F PUSH2 0x560 JUMP JUMPDEST PUSH1 0x40 MLOAD PUSH2 0x19C SWAP2 SWAP1 PUSH2 0xB48 JUMP JUMPDEST PUSH1 0x40 MLOAD DUP1 SWAP2 SUB SWAP1 RETURN JUMPDEST PUSH1 0x0 DUP2 DUP4 PUSH2 0x1B3 SWAP2 SWAP1 PUSH2 0xC23 JUMP JUMPDEST SWAP1 POP SWAP3 SWAP2 POP POP JUMP JUMPDEST PUSH1 0x0 PUSH1 0x2 DUP1 ADD SLOAD TIMESTAMP LT PUSH2 0x1D9 JUMPI PUSH2 0x1D0 PUSH2 0x56D JUMP JUMPDEST PUSH1 0x1 SWAP1 POP PUSH2 0x1DE JUMP JUMPDEST PUSH1 0x0 SWAP1 POP JUMPDEST SWAP1 JUMP JUMPDEST PUSH1 0x0 PUSH1 0x2 PUSH1 0xB ADD PUSH1 0x0 SWAP1 SLOAD SWAP1 PUSH2 0x100 EXP SWAP1 DIV PUSH1 0xFF AND ISZERO SWAP1 POP SWAP1 JUMP JUMPDEST PUSH1 0x0 PUSH1 0x2 PUSH1 0xB ADD PUSH1 0x0 SWAP1 SLOAD SWAP1 PUSH2 0x100 EXP SWAP1 DIV PUSH1 0xFF AND ISZERO PUSH2 0x251 JUMPI PUSH1 0x40 MLOAD PUSH32 0x8C379A000000000000000000000000000000000000000000000000000000000 DUP2 MSTORE PUSH1 0x4 ADD PUSH2 0x248 SWAP1 PUSH2 0xB08 JUMP JUMPDEST PUSH1 0x40 MLOAD DUP1 SWAP2 SUB SWAP1 REVERT JUMPDEST PUSH1 0x2 DUP1 ADD SLOAD TIMESTAMP LT PUSH2 0x297 JUMPI PUSH1 0x40 MLOAD PUSH32 0x8C379A000000000000000000000000000000000000000000000000000000000 DUP2 MSTORE PUSH1 0x4 ADD PUSH2 0x28E SWAP1 PUSH2 0xAE8 JUMP JUMPDEST PUSH1 0x40 MLOAD DUP1 SWAP2 SUB SWAP1 REVERT JUMPDEST PUSH1 0x2 PUSH1 0x5 ADD SLOAD CALLVALUE LT ISZERO PUSH2 0x2DF JUMPI PUSH1 0x40 MLOAD PUSH32 0x8C379A000000000000000000000000000000000000000000000000000000000 DUP2 MSTORE PUSH1 0x4 ADD PUSH2 0x2D6 SWAP1 PUSH2 0xB28 JUMP JUMPDEST PUSH1 0x40 MLOAD DUP1 SWAP2 SUB SWAP1 REVERT JUMPDEST PUSH1 0x0 PUSH20 0xFFFFFFFFFFFFFFFFFFFFFFFFFFFFFFFFFFFFFFFF AND PUSH1 0x2 PUSH1 0x6 ADD PUSH1 0x0 SWAP1 SLOAD SWAP1 PUSH2 0x100 EXP SWAP1 DIV PUSH20 0xFFFFFFFFFFFFFFFFFFFFFFFFFFFFFFFFFFFFFFFF AND PUSH20 0xFFFFFFFFFFFFFFFFFFFFFFFFFFFFFFFFFFFFFFFF AND EQ PUSH2 0x3AA JUMPI PUSH1 0x2 PUSH1 0x6 ADD PUSH1 0x0 SWAP1 SLOAD SWAP1 PUSH2 0x100 EXP SWAP1 DIV PUSH20 0xFFFFFFFFFFFFFFFFFFFFFFFFFFFFFFFFFFFFFFFF AND PUSH20 0xFFFFFFFFFFFFFFFFFFFFFFFFFFFFFFFFFFFFFFFF AND PUSH2 0x8FC PUSH1 0x2 PUSH1 0x4 ADD SLOAD SWAP1 DUP2 ISZERO MUL SWAP1 PUSH1 0x40 MLOAD PUSH1 0x0 PUSH1 0x40 MLOAD DUP1 DUP4 SUB DUP2 DUP6 DUP9 DUP9 CALL SWAP4 POP POP POP POP ISZERO DUP1 ISZERO PUSH2 0x3A8 JUMPI RETURNDATASIZE PUSH1 0x0 DUP1 RETURNDATACOPY RETURNDATASIZE PUSH1 0x0 REVERT JUMPDEST POP JUMPDEST CALLER PUSH1 0x2 PUSH1 0x6 ADD PUSH1 0x0 PUSH2 0x100 EXP DUP2 SLOAD DUP2 PUSH20 0xFFFFFFFFFFFFFFFFFFFFFFFFFFFFFFFFFFFFFFFF MUL NOT AND SWAP1 DUP4 PUSH20 0xFFFFFFFFFFFFFFFFFFFFFFFFFFFFFFFFFFFFFFFF AND MUL OR SWAP1 SSTORE POP CALLVALUE PUSH1 0x2 PUSH1 0x4 ADD DUP2 SWAP1 SSTORE POP PUSH1 0x2 PUSH1 0xA ADD SLOAD PUSH1 0x64 PUSH1 0x2 PUSH1 0x4 ADD SLOAD PUSH2 0x410 SWAP2 SWAP1 PUSH2 0xC79 JUMP JUMPDEST PUSH2 0x41A SWAP2 SWAP1 PUSH2 0xCAA JUMP JUMPDEST PUSH1 0x2 PUSH1 0x4 ADD SLOAD PUSH2 0x42A SWAP2 SWAP1 PUSH2 0xC23 JUMP JUMPDEST PUSH1 0x2 PUSH1 0x5 ADD DUP2 SWAP1 SSTORE POP PUSH2 0x43B PUSH2 0x78F JUMP JUMPDEST PUSH1 0x2 PUSH1 0x3 ADD DUP2 SWAP1 SSTORE POP PUSH2 0x44C PUSH2 0x801 JUMP JUMPDEST PUSH1 0x1 SWAP1 POP SWAP1 JUMP JUMPDEST PUSH1 0x0 PUSH1 0x2 PUSH1 0x6 ADD PUSH1 0x0 SWAP1 SLOAD SWAP1 PUSH2 0x100 EXP SWAP1 DIV PUSH20 0xFFFFFFFFFFFFFFFFFFFFFFFFFFFFFFFFFFFFFFFF AND SWAP1 POP SWAP1 JUMP JUMPDEST PUSH1 0x0 PUSH20 0xFFFFFFFFFFFFFFFFFFFFFFFFFFFFFFFFFFFFFFFF AND DUP2 PUSH1 0xC0 ADD MLOAD PUSH20 0xFFFFFFFFFFFFFFFFFFFFFFFFFFFFFFFFFFFFFFFF AND EQ ISZERO PUSH2 0x507 JUMPI PUSH32 0xF13BFA7D2CEC3002AA80FA154881C0B17D3FD01C4FF8B0F25E68895053462CD3 DUP2 PUSH1 0x0 ADD MLOAD DUP3 PUSH2 0x100 ADD MLOAD DUP4 PUSH2 0x120 ADD MLOAD PUSH1 0x40 MLOAD PUSH2 0x4FA SWAP4 SWAP3 SWAP2 SWAP1 PUSH2 0xB63 JUMP JUMPDEST PUSH1 0x40 MLOAD DUP1 SWAP2 SUB SWAP1 LOG1 PUSH2 0x55D JUMP JUMPDEST PUSH32 0xE92DEDC60FDE586A3E790AD45C1B64F3AF47F7086DBDED30D4495B6FCFACF2B3 DUP2 PUSH1 0x0 ADD MLOAD DUP3 PUSH2 0x100 ADD MLOAD DUP4 PUSH2 0x120 ADD MLOAD DUP5 PUSH1 0xC0 ADD MLOAD DUP6 PUSH1 0x80 ADD MLOAD PUSH1 0x40 MLOAD PUSH2 0x554 SWAP6 SWAP5 SWAP4 SWAP3 SWAP2 SWAP1 PUSH2 0xB9A JUMP JUMPDEST PUSH1 0x40 MLOAD DUP1 SWAP2 SUB SWAP1 LOG1 JUMPDEST POP JUMP JUMPDEST PUSH1 0x0 PUSH1 0x2 PUSH1 0x3 ADD SLOAD SWAP1 POP SWAP1 JUMP JUMPDEST PUSH1 0x1 PUSH1 0x2 PUSH1 0xB ADD PUSH1 0x0 PUSH2 0x100 EXP DUP2 SLOAD DUP2 PUSH1 0xFF MUL NOT AND SWAP1 DUP4 ISZERO ISZERO MUL OR SWAP1 SSTORE POP PUSH1 0x0 PUSH20 0xFFFFFFFFFFFFFFFFFFFFFFFFFFFFFFFFFFFFFFFF AND PUSH1 0x2 PUSH1 0x6 ADD PUSH1 0x0 SWAP1 SLOAD SWAP1 PUSH2 0x100 EXP SWAP1 DIV PUSH20 0xFFFFFFFFFFFFFFFFFFFFFFFFFFFFFFFFFFFFFFFF AND PUSH20 0xFFFFFFFFFFFFFFFFFFFFFFFFFFFFFFFFFFFFFFFF AND EQ PUSH2 0x656 JUMPI PUSH1 0x2 PUSH1 0x7 ADD PUSH1 0x0 SWAP1 SLOAD SWAP1 PUSH2 0x100 EXP SWAP1 DIV PUSH20 0xFFFFFFFFFFFFFFFFFFFFFFFFFFFFFFFFFFFFFFFF AND PUSH20 0xFFFFFFFFFFFFFFFFFFFFFFFFFFFFFFFFFFFFFFFF AND PUSH2 0x8FC PUSH1 0x2 PUSH1 0x4 ADD SLOAD SWAP1 DUP2 ISZERO MUL SWAP1 PUSH1 0x40 MLOAD PUSH1 0x0 PUSH1 0x40 MLOAD DUP1 DUP4 SUB DUP2 DUP6 DUP9 DUP9 CALL SWAP4 POP POP POP POP ISZERO DUP1 ISZERO PUSH2 0x654 JUMPI RETURNDATASIZE PUSH1 0x0 DUP1 RETURNDATACOPY RETURNDATASIZE PUSH1 0x0 REVERT JUMPDEST POP JUMPDEST PUSH2 0x78D PUSH1 0x2 PUSH1 0x40 MLOAD DUP1 PUSH2 0x180 ADD PUSH1 0x40 MSTORE SWAP1 DUP2 PUSH1 0x0 DUP3 ADD SLOAD DUP2 MSTORE PUSH1 0x20 ADD PUSH1 0x1 DUP3 ADD SLOAD DUP2 MSTORE PUSH1 0x20 ADD PUSH1 0x2 DUP3 ADD SLOAD DUP2 MSTORE PUSH1 0x20 ADD PUSH1 0x3 DUP3 ADD SLOAD DUP2 MSTORE PUSH1 0x20 ADD PUSH1 0x4 DUP3 ADD SLOAD DUP2 MSTORE PUSH1 0x20 ADD PUSH1 0x5 DUP3 ADD SLOAD DUP2 MSTORE PUSH1 0x20 ADD PUSH1 0x6 DUP3 ADD PUSH1 0x0 SWAP1 SLOAD SWAP1 PUSH2 0x100 EXP SWAP1 DIV PUSH20 0xFFFFFFFFFFFFFFFFFFFFFFFFFFFFFFFFFFFFFFFF AND PUSH20 0xFFFFFFFFFFFFFFFFFFFFFFFFFFFFFFFFFFFFFFFF AND PUSH20 0xFFFFFFFFFFFFFFFFFFFFFFFFFFFFFFFFFFFFFFFF AND DUP2 MSTORE PUSH1 0x20 ADD PUSH1 0x7 DUP3 ADD PUSH1 0x0 SWAP1 SLOAD SWAP1 PUSH2 0x100 EXP SWAP1 DIV PUSH20 0xFFFFFFFFFFFFFFFFFFFFFFFFFFFFFFFFFFFFFFFF AND PUSH20 0xFFFFFFFFFFFFFFFFFFFFFFFFFFFFFFFFFFFFFFFF AND PUSH20 0xFFFFFFFFFFFFFFFFFFFFFFFFFFFFFFFFFFFFFFFF AND DUP2 MSTORE PUSH1 0x20 ADD PUSH1 0x8 DUP3 ADD SLOAD DUP2 MSTORE PUSH1 0x20 ADD PUSH1 0x9 DUP3 ADD SLOAD DUP2 MSTORE PUSH1 0x20 ADD PUSH1 0xA DUP3 ADD SLOAD DUP2 MSTORE PUSH1 0x20 ADD PUSH1 0xB DUP3 ADD PUSH1 0x0 SWAP1 SLOAD SWAP1 PUSH2 0x100 EXP SWAP1 DIV PUSH1 0xFF AND ISZERO ISZERO ISZERO ISZERO DUP2 MSTORE POP POP PUSH2 0x480 JUMP JUMPDEST JUMP JUMPDEST PUSH1 0x0 DUP1 PUSH1 0xE PUSH1 0x0 ADD SLOAD SWAP1 POP PUSH1 0x0 PUSH1 0xE PUSH1 0x1 ADD SLOAD SWAP1 POP PUSH1 0x0 DUP2 DUP4 PUSH2 0x7B2 SWAP2 SWAP1 PUSH2 0xC23 JUMP JUMPDEST SWAP1 POP PUSH1 0x0 DUP2 PUSH1 0x0 SLOAD PUSH2 0x7C4 SWAP2 SWAP1 PUSH2 0xD04 JUMP JUMPDEST GT PUSH2 0x7D6 JUMPI PUSH1 0x1 SLOAD SWAP4 POP POP POP POP PUSH2 0x7FE JUMP JUMPDEST DUP2 PUSH1 0xE PUSH1 0x0 ADD DUP2 SWAP1 SSTORE POP DUP1 PUSH1 0xE PUSH1 0x1 ADD DUP2 SWAP1 SSTORE POP DUP1 PUSH1 0x0 SLOAD PUSH2 0x7F8 SWAP2 SWAP1 PUSH2 0xD04 JUMP JUMPDEST SWAP4 POP POP POP POP JUMPDEST SWAP1 JUMP JUMPDEST PUSH2 0x810 TIMESTAMP PUSH1 0x2 PUSH1 0x3 ADD SLOAD PUSH2 0x1A5 JUMP JUMPDEST PUSH1 0x2 DUP1 ADD DUP2 SWAP1 SSTORE POP JUMP JUMPDEST PUSH1 0x0 DUP2 CALLDATALOAD SWAP1 POP PUSH2 0x829 DUP2 PUSH2 0xEF0 JUMP JUMPDEST SWAP3 SWAP2 POP POP JUMP JUMPDEST PUSH1 0x0 DUP2 CALLDATALOAD SWAP1 POP PUSH2 0x83E DUP2 PUSH2 0xF07 JUMP JUMPDEST SWAP3 SWAP2 POP POP JUMP JUMPDEST PUSH1 0x0 DUP2 CALLDATALOAD SWAP1 POP PUSH2 0x853 DUP2 PUSH2 0xF1E JUMP JUMPDEST SWAP3 SWAP2 POP POP JUMP JUMPDEST PUSH1 0x0 PUSH2 0x180 DUP3 DUP5 SUB SLT ISZERO PUSH2 0x870 JUMPI PUSH2 0x86F PUSH2 0xE5A JUMP JUMPDEST JUMPDEST PUSH2 0x87B PUSH2 0x180 PUSH2 0xBED JUMP JUMPDEST SWAP1 POP PUSH1 0x0 PUSH2 0x88B DUP5 DUP3 DUP6 ADD PUSH2 0x97B JUMP JUMPDEST PUSH1 0x0 DUP4 ADD MSTORE POP PUSH1 0x20 PUSH2 0x89F DUP5 DUP3 DUP6 ADD PUSH2 0x97B JUMP JUMPDEST PUSH1 0x20 DUP4 ADD MSTORE POP PUSH1 0x40 PUSH2 0x8B3 DUP5 DUP3 DUP6 ADD PUSH2 0x97B JUMP JUMPDEST PUSH1 0x40 DUP4 ADD MSTORE POP PUSH1 0x60 PUSH2 0x8C7 DUP5 DUP3 DUP6 ADD PUSH2 0x97B JUMP JUMPDEST PUSH1 0x60 DUP4 ADD MSTORE POP PUSH1 0x80 PUSH2 0x8DB DUP5 DUP3 DUP6 ADD PUSH2 0x97B JUMP JUMPDEST PUSH1 0x80 DUP4 ADD MSTORE POP PUSH1 0xA0 PUSH2 0x8EF DUP5 DUP3 DUP6 ADD PUSH2 0x97B JUMP JUMPDEST PUSH1 0xA0 DUP4 ADD MSTORE POP PUSH1 0xC0 PUSH2 0x903 DUP5 DUP3 DUP6 ADD PUSH2 0x81A JUMP JUMPDEST PUSH1 0xC0 DUP4 ADD MSTORE POP PUSH1 0xE0 PUSH2 0x917 DUP5 DUP3 DUP6 ADD PUSH2 0x81A JUMP JUMPDEST PUSH1 0xE0 DUP4 ADD MSTORE POP PUSH2 0x100 PUSH2 0x92C DUP5 DUP3 DUP6 ADD PUSH2 0x844 JUMP JUMPDEST PUSH2 0x100 DUP4 ADD MSTORE POP PUSH2 0x120 PUSH2 0x942 DUP5 DUP3 DUP6 ADD PUSH2 0x844 JUMP JUMPDEST PUSH2 0x120 DUP4 ADD MSTORE POP PUSH2 0x140 PUSH2 0x958 DUP5 DUP3 DUP6 ADD PUSH2 0x97B JUMP JUMPDEST PUSH2 0x140 DUP4 ADD MSTORE POP PUSH2 0x160 PUSH2 0x96E DUP5 DUP3 DUP6 ADD PUSH2 0x82F JUMP JUMPDEST PUSH2 0x160 DUP4 ADD MSTORE POP SWAP3 SWAP2 POP POP JUMP JUMPDEST PUSH1 0x0 DUP2 CALLDATALOAD SWAP1 POP PUSH2 0x98A DUP2 PUSH2 0xF35 JUMP JUMPDEST SWAP3 SWAP2 POP POP JUMP JUMPDEST PUSH1 0x0 PUSH2 0x180 DUP3 DUP5 SUB SLT ISZERO PUSH2 0x9A7 JUMPI PUSH2 0x9A6 PUSH2 0xE5F JUMP JUMPDEST JUMPDEST PUSH1 0x0 PUSH2 0x9B5 DUP5 DUP3 DUP6 ADD PUSH2 0x859 JUMP JUMPDEST SWAP2 POP POP SWAP3 SWAP2 POP POP JUMP JUMPDEST PUSH1 0x0 DUP1 PUSH1 0x40 DUP4 DUP6 SUB SLT ISZERO PUSH2 0x9D5 JUMPI PUSH2 0x9D4 PUSH2 0xE5F JUMP JUMPDEST JUMPDEST PUSH1 0x0 PUSH2 0x9E3 DUP6 DUP3 DUP7 ADD PUSH2 0x97B JUMP JUMPDEST SWAP3 POP POP PUSH1 0x20 PUSH2 0x9F4 DUP6 DUP3 DUP7 ADD PUSH2 0x97B JUMP JUMPDEST SWAP2 POP POP SWAP3 POP SWAP3 SWAP1 POP JUMP JUMPDEST PUSH2 0xA07 DUP2 PUSH2 0xD4A JUMP JUMPDEST DUP3 MSTORE POP POP JUMP JUMPDEST PUSH2 0xA16 DUP2 PUSH2 0xD38 JUMP JUMPDEST DUP3 MSTORE POP POP JUMP JUMPDEST PUSH2 0xA25 DUP2 PUSH2 0xD5C JUMP JUMPDEST DUP3 MSTORE POP POP JUMP JUMPDEST PUSH2 0xA34 DUP2 PUSH2 0xD68 JUMP JUMPDEST DUP3 MSTORE POP POP JUMP JUMPDEST PUSH1 0x0 PUSH2 0xA47 PUSH1 0x6 DUP4 PUSH2 0xC12 JUMP JUMPDEST SWAP2 POP PUSH2 0xA52 DUP3 PUSH2 0xE75 JUMP JUMPDEST PUSH1 0x20 DUP3 ADD SWAP1 POP SWAP2 SWAP1 POP JUMP JUMPDEST PUSH1 0x0 PUSH2 0xA6A PUSH1 0x13 DUP4 PUSH2 0xC12 JUMP JUMPDEST SWAP2 POP PUSH2 0xA75 DUP3 PUSH2 0xE9E JUMP JUMPDEST PUSH1 0x20 DUP3 ADD SWAP1 POP SWAP2 SWAP1 POP JUMP JUMPDEST PUSH1 0x0 PUSH2 0xA8D PUSH1 0x12 DUP4 PUSH2 0xC12 JUMP JUMPDEST SWAP2 POP PUSH2 0xA98 DUP3 PUSH2 0xEC7 JUMP JUMPDEST PUSH1 0x20 DUP3 ADD SWAP1 POP SWAP2 SWAP1 POP JUMP JUMPDEST PUSH2 0xAAC DUP2 PUSH2 0xD92 JUMP JUMPDEST DUP3 MSTORE POP POP JUMP JUMPDEST PUSH1 0x0 PUSH1 0x20 DUP3 ADD SWAP1 POP PUSH2 0xAC7 PUSH1 0x0 DUP4 ADD DUP5 PUSH2 0xA0D JUMP JUMPDEST SWAP3 SWAP2 POP POP JUMP JUMPDEST PUSH1 0x0 PUSH1 0x20 DUP3 ADD SWAP1 POP PUSH2 0xAE2 PUSH1 0x0 DUP4 ADD DUP5 PUSH2 0xA1C JUMP JUMPDEST SWAP3 SWAP2 POP POP JUMP JUMPDEST PUSH1 0x0 PUSH1 0x20 DUP3 ADD SWAP1 POP DUP2 DUP2 SUB PUSH1 0x0 DUP4 ADD MSTORE PUSH2 0xB01 DUP2 PUSH2 0xA3A JUMP JUMPDEST SWAP1 POP SWAP2 SWAP1 POP JUMP JUMPDEST PUSH1 0x0 PUSH1 0x20 DUP3 ADD SWAP1 POP DUP2 DUP2 SUB PUSH1 0x0 DUP4 ADD MSTORE PUSH2 0xB21 DUP2 PUSH2 0xA5D JUMP JUMPDEST SWAP1 POP SWAP2 SWAP1 POP JUMP JUMPDEST PUSH1 0x0 PUSH1 0x20 DUP3 ADD SWAP1 POP DUP2 DUP2 SUB PUSH1 0x0 DUP4 ADD MSTORE PUSH2 0xB41 DUP2 PUSH2 0xA80 JUMP JUMPDEST SWAP1 POP SWAP2 SWAP1 POP JUMP JUMPDEST PUSH1 0x0 PUSH1 0x20 DUP3 ADD SWAP1 POP PUSH2 0xB5D PUSH1 0x0 DUP4 ADD DUP5 PUSH2 0xAA3 JUMP JUMPDEST SWAP3 SWAP2 POP POP JUMP JUMPDEST PUSH1 0x0 PUSH1 0x60 DUP3 ADD SWAP1 POP PUSH2 0xB78 PUSH1 0x0 DUP4 ADD DUP7 PUSH2 0xAA3 JUMP JUMPDEST PUSH2 0xB85 PUSH1 0x20 DUP4 ADD DUP6 PUSH2 0xA2B JUMP JUMPDEST PUSH2 0xB92 PUSH1 0x40 DUP4 ADD DUP5 PUSH2 0xA2B JUMP JUMPDEST SWAP5 SWAP4 POP POP POP POP JUMP JUMPDEST PUSH1 0x0 PUSH1 0xA0 DUP3 ADD SWAP1 POP PUSH2 0xBAF PUSH1 0x0 DUP4 ADD DUP9 PUSH2 0xAA3 JUMP JUMPDEST PUSH2 0xBBC PUSH1 0x20 DUP4 ADD DUP8 PUSH2 0xA2B JUMP JUMPDEST PUSH2 0xBC9 PUSH1 0x40 DUP4 ADD DUP7 PUSH2 0xA2B JUMP JUMPDEST PUSH2 0xBD6 PUSH1 0x60 DUP4 ADD DUP6 PUSH2 0x9FE JUMP JUMPDEST PUSH2 0xBE3 PUSH1 0x80 DUP4 ADD DUP5 PUSH2 0xAA3 JUMP JUMPDEST SWAP7 SWAP6 POP POP POP POP POP POP JUMP JUMPDEST PUSH1 0x0 PUSH2 0xBF7 PUSH2 0xC08 JUMP JUMPDEST SWAP1 POP PUSH2 0xC03 DUP3 DUP3 PUSH2 0xD9C JUMP JUMPDEST SWAP2 SWAP1 POP JUMP JUMPDEST PUSH1 0x0 PUSH1 0x40 MLOAD SWAP1 POP SWAP1 JUMP JUMPDEST PUSH1 0x0 DUP3 DUP3 MSTORE PUSH1 0x20 DUP3 ADD SWAP1 POP SWAP3 SWAP2 POP POP JUMP JUMPDEST PUSH1 0x0 PUSH2 0xC2E DUP3 PUSH2 0xD92 JUMP JUMPDEST SWAP2 POP PUSH2 0xC39 DUP4 PUSH2 0xD92 JUMP JUMPDEST SWAP3 POP DUP3 PUSH32 0xFFFFFFFFFFFFFFFFFFFFFFFFFFFFFFFFFFFFFFFFFFFFFFFFFFFFFFFFFFFFFFFF SUB DUP3 GT ISZERO PUSH2 0xC6E JUMPI PUSH2 0xC6D PUSH2 0xDCD JUMP JUMPDEST JUMPDEST DUP3 DUP3 ADD SWAP1 POP SWAP3 SWAP2 POP POP JUMP JUMPDEST PUSH1 0x0 PUSH2 0xC84 DUP3 PUSH2 0xD92 JUMP JUMPDEST SWAP2 POP PUSH2 0xC8F DUP4 PUSH2 0xD92 JUMP JUMPDEST SWAP3 POP DUP3 PUSH2 0xC9F JUMPI PUSH2 0xC9E PUSH2 0xDFC JUMP JUMPDEST JUMPDEST DUP3 DUP3 DIV SWAP1 POP SWAP3 SWAP2 POP POP JUMP JUMPDEST PUSH1 0x0 PUSH2 0xCB5 DUP3 PUSH2 0xD92 JUMP JUMPDEST SWAP2 POP PUSH2 0xCC0 DUP4 PUSH2 0xD92 JUMP JUMPDEST SWAP3 POP DUP2 PUSH32 0xFFFFFFFFFFFFFFFFFFFFFFFFFFFFFFFFFFFFFFFFFFFFFFFFFFFFFFFFFFFFFFFF DIV DUP4 GT DUP3 ISZERO ISZERO AND ISZERO PUSH2 0xCF9 JUMPI PUSH2 0xCF8 PUSH2 0xDCD JUMP JUMPDEST JUMPDEST DUP3 DUP3 MUL SWAP1 POP SWAP3 SWAP2 POP POP JUMP JUMPDEST PUSH1 0x0 PUSH2 0xD0F DUP3 PUSH2 0xD92 JUMP JUMPDEST SWAP2 POP PUSH2 0xD1A DUP4 PUSH2 0xD92 JUMP JUMPDEST SWAP3 POP DUP3 DUP3 LT ISZERO PUSH2 0xD2D JUMPI PUSH2 0xD2C PUSH2 0xDCD JUMP JUMPDEST JUMPDEST DUP3 DUP3 SUB SWAP1 POP SWAP3 SWAP2 POP POP JUMP JUMPDEST PUSH1 0x0 PUSH2 0xD43 DUP3 PUSH2 0xD72 JUMP JUMPDEST SWAP1 POP SWAP2 SWAP1 POP JUMP JUMPDEST PUSH1 0x0 PUSH2 0xD55 DUP3 PUSH2 0xD72 JUMP JUMPDEST SWAP1 POP SWAP2 SWAP1 POP JUMP JUMPDEST PUSH1 0x0 DUP2 ISZERO ISZERO SWAP1 POP SWAP2 SWAP1 POP JUMP JUMPDEST PUSH1 0x0 DUP2 SWAP1 POP SWAP2 SWAP1 POP JUMP JUMPDEST PUSH1 0x0 PUSH20 0xFFFFFFFFFFFFFFFFFFFFFFFFFFFFFFFFFFFFFFFF DUP3 AND SWAP1 POP SWAP2 SWAP1 POP JUMP JUMPDEST PUSH1 0x0 DUP2 SWAP1 POP SWAP2 SWAP1 POP JUMP JUMPDEST PUSH2 0xDA5 DUP3 PUSH2 0xE64 JUMP JUMPDEST DUP2 ADD DUP2 DUP2 LT PUSH8 0xFFFFFFFFFFFFFFFF DUP3 GT OR ISZERO PUSH2 0xDC4 JUMPI PUSH2 0xDC3 PUSH2 0xE2B JUMP JUMPDEST JUMPDEST DUP1 PUSH1 0x40 MSTORE POP POP POP JUMP JUMPDEST PUSH32 0x4E487B7100000000000000000000000000000000000000000000000000000000 PUSH1 0x0 MSTORE PUSH1 0x11 PUSH1 0x4 MSTORE PUSH1 0x24 PUSH1 0x0 REVERT JUMPDEST PUSH32 0x4E487B7100000000000000000000000000000000000000000000000000000000 PUSH1 0x0 MSTORE PUSH1 0x12 PUSH1 0x4 MSTORE PUSH1 0x24 PUSH1 0x0 REVERT JUMPDEST PUSH32 0x4E487B7100000000000000000000000000000000000000000000000000000000 PUSH1 0x0 MSTORE PUSH1 0x41 PUSH1 0x4 MSTORE PUSH1 0x24 PUSH1 0x0 REVERT JUMPDEST PUSH1 0x0 DUP1 REVERT JUMPDEST PUSH1 0x0 DUP1 REVERT JUMPDEST PUSH1 0x0 PUSH1 0x1F NOT PUSH1 0x1F DUP4 ADD AND SWAP1 POP SWAP2 SWAP1 POP JUMP JUMPDEST PUSH32 0x46696E6973680000000000000000000000000000000000000000000000000000 PUSH1 0x0 DUP3 ADD MSTORE POP JUMP JUMPDEST PUSH32 0x42696464696E672069732066696E697368656400000000000000000000000000 PUSH1 0x0 DUP3 ADD MSTORE POP JUMP JUMPDEST PUSH32 0x56616C756520697320696E636F72726563740000000000000000000000000000 PUSH1 0x0 DUP3 ADD MSTORE POP JUMP JUMPDEST PUSH2 0xEF9 DUP2 PUSH2 0xD4A JUMP JUMPDEST DUP2 EQ PUSH2 0xF04 JUMPI PUSH1 0x0 DUP1 REVERT JUMPDEST POP JUMP JUMPDEST PUSH2 0xF10 DUP2 PUSH2 0xD5C JUMP JUMPDEST DUP2 EQ PUSH2 0xF1B JUMPI PUSH1 0x0 DUP1 REVERT JUMPDEST POP JUMP JUMPDEST PUSH2 0xF27 DUP2 PUSH2 0xD68 JUMP JUMPDEST DUP2 EQ PUSH2 0xF32 JUMPI PUSH1 0x0 DUP1 REVERT JUMPDEST POP JUMP JUMPDEST PUSH2 0xF3E DUP2 PUSH2 0xD92 JUMP JUMPDEST DUP2 EQ PUSH2 0xF49 JUMPI PUSH1 0x0 DUP1 REVERT JUMPDEST POP JUMP INVALID LOG2 PUSH5 0x6970667358 0x22 SLT KECCAK256 0x25 0xC SWAP16 SWAP9 PUSH20 0x4D3DBCBAA833267CBD16B8311020C75286AECA0 0xD2 DUP12 0xC6 LOG0 0xDB 0xDD REVERT PUSH5 0x736F6C6343 STOP ADDMOD SMOD STOP CALLER "},"methodIdentifiers":{"buyItem()":"795612d6","calcUpdatedTime(uint256,uint256)":"2238b73a","currentAddress()":"81bf4718","currentDeltaTime()":"f66d631c","currentIsFinished()":"6cc494c5","emitFinishedBidding((uint256,uint256,uint256,uint256,uint256,uint256,address,address,bytes32,bytes32,uint256,bool))":"9341d4eb","tryFinishBidding()":"4e9c1208"}}}}}