{"contracts/ProxiesAndCalls.sol":{"Proxy":{"abi":[{"inputs":[{"internalType":"address","name":"_implementation","type":"address"}],"stateMutability":"nonpayable","type":"constructor"},{"stateMutability":"nonpayable","type":"fallback"},{"inputs":[],"name":"___clash550254402","outputs":[],"stateMutability":"nonpayable","type":"function"},{"inputs":[],"name":"impl","outputs":[{"internalType":"address","name":"","type":"address"}],"stateMutability":"view","type":"function"},{"inputs":[],"name":"version","outputs":[{"internalType":"uint256","name":"","type":"uint256"}],"stateMutability":"view","type":"function"}],"evm":{"bytecode":{"linkReferences":{},"object":"6080604052600360015534801561001557600080fd5b5060405161037f38038061037f83398181016040528101906100379190610092565b806000806101000a81548173ffffffffffffffffffffffffffffffffffffffff021916908373ffffffffffffffffffffffffffffffffffffffff1602179055505061010d565b60008151905061008c816100f6565b92915050565b6000602082840312156100a8576100a76100f1565b5b60006100b68482850161007d565b91505092915050565b60006100ca826100d1565b9050919050565b600073ffffffffffffffffffffffffffffffffffffffff82169050919050565b600080fd5b6100ff816100bf565b811461010a57600080fd5b50565b6102638061011c6000396000f3fe608060405234801561001057600080fd5b50600436106100455760003560e01c80631aac76011461009257806354fd4d501461009c5780638abf6077146100ba57610046565b5b60008060009054906101000a900473ffffffffffffffffffffffffffffffffffffffff1690503660008037600080366000845af43d6000803e806000811461008d573d6000f35b3d6000fd5b61009a6100d8565b005b6100a46100ee565b6040516100b19190610151565b60405180910390f35b6100c26100f4565b6040516100cf9190610136565b60405180910390f35b600180546100e6919061016c565b600181905550565b60015481565b60008054906101000a900473ffffffffffffffffffffffffffffffffffffffff1681565b610121816101c2565b82525050565b610130816101f4565b82525050565b600060208201905061014b6000830184610118565b92915050565b60006020820190506101666000830184610127565b92915050565b6000610177826101f4565b9150610182836101f4565b9250827fffffffffffffffffffffffffffffffffffffffffffffffffffffffffffffffff038211156101b7576101b66101fe565b5b828201905092915050565b60006101cd826101d4565b9050919050565b600073ffffffffffffffffffffffffffffffffffffffff82169050919050565b6000819050919050565b7f4e487b7100000000000000000000000000000000000000000000000000000000600052601160045260246000fdfea26469706673582212201455035fe9a2039539b46e365b398ac51f09749e01396a229ca7a26e9b5c535464736f6c63430008070033","opcodes":"PUSH1 0x80 PUSH1 0x40 MSTORE PUSH1 0x3 PUSH1 0x1 SSTORE CALLVALUE DUP1 ISZERO PUSH2 0x15 JUMPI PUSH1 0x0 DUP1 REVERT JUMPDEST POP PUSH1 0x40 MLOAD PUSH2 0x37F CODESIZE SUB DUP1 PUSH2 0x37F DUP4 CODECOPY DUP2 DUP2 ADD PUSH1 0x40 MSTORE DUP2 ADD SWAP1 PUSH2 0x37 SWAP2 SWAP1 PUSH2 0x92 JUMP JUMPDEST DUP1 PUSH1 0x0 DUP1 PUSH2 0x100 EXP DUP2 SLOAD DUP2 PUSH20 0xFFFFFFFFFFFFFFFFFFFFFFFFFFFFFFFFFFFFFFFF MUL NOT AND SWAP1 DUP4 PUSH20 0xFFFFFFFFFFFFFFFFFFFFFFFFFFFFFFFFFFFFFFFF AND MUL OR SWAP1 SSTORE POP POP PUSH2 0x10D JUMP JUMPDEST PUSH1 0x0 DUP2 MLOAD SWAP1 POP PUSH2 0x8C DUP2 PUSH2 0xF6 JUMP JUMPDEST SWAP3 SWAP2 POP POP JUMP JUMPDEST PUSH1 0x0 PUSH1 0x20 DUP3 DUP5 SUB SLT ISZERO PUSH2 0xA8 JUMPI PUSH2 0xA7 PUSH2 0xF1 JUMP JUMPDEST JUMPDEST PUSH1 0x0 PUSH2 0xB6 DUP5 DUP3 DUP6 ADD PUSH2 0x7D JUMP JUMPDEST SWAP2 POP POP SWAP3 SWAP2 POP POP JUMP JUMPDEST PUSH1 0x0 PUSH2 0xCA DUP3 PUSH2 0xD1 JUMP JUMPDEST SWAP1 POP SWAP2 SWAP1 POP JUMP JUMPDEST PUSH1 0x0 PUSH20 0xFFFFFFFFFFFFFFFFFFFFFFFFFFFFFFFFFFFFFFFF DUP3 AND SWAP1 POP SWAP2 SWAP1 POP JUMP JUMPDEST PUSH1 0x0 DUP1 REVERT JUMPDEST PUSH2 0xFF DUP2 PUSH2 0xBF JUMP JUMPDEST DUP2 EQ PUSH2 0x10A JUMPI PUSH1 0x0 DUP1 REVERT JUMPDEST POP JUMP JUMPDEST PUSH2 0x263 DUP1 PUSH2 0x11C PUSH1 0x0 CODECOPY PUSH1 0x0 RETURN INVALID PUSH1 0x80 PUSH1 0x40 MSTORE CALLVALUE DUP1 ISZERO PUSH2 0x10 JUMPI PUSH1 0x0 DUP1 REVERT JUMPDEST POP PUSH1 0x4 CALLDATASIZE LT PUSH2 0x45 JUMPI PUSH1 0x0 CALLDATALOAD PUSH1 0xE0 SHR DUP1 PUSH4 0x1AAC7601 EQ PUSH2 0x92 JUMPI DUP1 PUSH4 0x54FD4D50 EQ PUSH2 0x9C JUMPI DUP1 PUSH4 0x8ABF6077 EQ PUSH2 0xBA JUMPI PUSH2 0x46 JUMP JUMPDEST JUMPDEST PUSH1 0x0 DUP1 PUSH1 0x0 SWAP1 SLOAD SWAP1 PUSH2 0x100 EXP SWAP1 DIV PUSH20 0xFFFFFFFFFFFFFFFFFFFFFFFFFFFFFFFFFFFFFFFF AND SWAP1 POP CALLDATASIZE PUSH1 0x0 DUP1 CALLDATACOPY PUSH1 0x0 DUP1 CALLDATASIZE PUSH1 0x0 DUP5 GAS DELEGATECALL RETURNDATASIZE PUSH1 0x0 DUP1 RETURNDATACOPY DUP1 PUSH1 0x0 DUP2 EQ PUSH2 0x8D JUMPI RETURNDATASIZE PUSH1 0x0 RETURN JUMPDEST RETURNDATASIZE PUSH1 0x0 REVERT JUMPDEST PUSH2 0x9A PUSH2 0xD8 JUMP JUMPDEST STOP JUMPDEST PUSH2 0xA4 PUSH2 0xEE JUMP JUMPDEST PUSH1 0x40 MLOAD PUSH2 0xB1 SWAP2 SWAP1 PUSH2 0x151 JUMP JUMPDEST PUSH1 0x40 MLOAD DUP1 SWAP2 SUB SWAP1 RETURN JUMPDEST PUSH2 0xC2 PUSH2 0xF4 JUMP JUMPDEST PUSH1 0x40 MLOAD PUSH2 0xCF SWAP2 SWAP1 PUSH2 0x136 JUMP JUMPDEST PUSH1 0x40 MLOAD DUP1 SWAP2 SUB SWAP1 RETURN JUMPDEST PUSH1 0x1 DUP1 SLOAD PUSH2 0xE6 SWAP2 SWAP1 PUSH2 0x16C JUMP JUMPDEST PUSH1 0x1 DUP2 SWAP1 SSTORE POP JUMP JUMPDEST PUSH1 0x1 SLOAD DUP2 JUMP JUMPDEST PUSH1 0x0 DUP1 SLOAD SWAP1 PUSH2 0x100 EXP SWAP1 DIV PUSH20 0xFFFFFFFFFFFFFFFFFFFFFFFFFFFFFFFFFFFFFFFF AND DUP2 JUMP JUMPDEST PUSH2 0x121 DUP2 PUSH2 0x1C2 JUMP JUMPDEST DUP3 MSTORE POP POP JUMP JUMPDEST PUSH2 0x130 DUP2 PUSH2 0x1F4 JUMP JUMPDEST DUP3 MSTORE POP POP JUMP JUMPDEST PUSH1 0x0 PUSH1 0x20 DUP3 ADD SWAP1 POP PUSH2 0x14B PUSH1 0x0 DUP4 ADD DUP5 PUSH2 0x118 JUMP JUMPDEST SWAP3 SWAP2 POP POP JUMP JUMPDEST PUSH1 0x0 PUSH1 0x20 DUP3 ADD SWAP1 POP PUSH2 0x166 PUSH1 0x0 DUP4 ADD DUP5 PUSH2 0x127 JUMP JUMPDEST SWAP3 SWAP2 POP POP JUMP JUMPDEST PUSH1 0x0 PUSH2 0x177 DUP3 PUSH2 0x1F4 JUMP JUMPDEST SWAP2 POP PUSH2 0x182 DUP4 PUSH2 0x1F4 JUMP JUMPDEST SWAP3 POP DUP3 PUSH32 0xFFFFFFFFFFFFFFFFFFFFFFFFFFFFFFFFFFFFFFFFFFFFFFFFFFFFFFFFFFFFFFFF SUB DUP3 GT ISZERO PUSH2 0x1B7 JUMPI PUSH2 0x1B6 PUSH2 0x1FE JUMP JUMPDEST JUMPDEST DUP3 DUP3 ADD SWAP1 POP SWAP3 SWAP2 POP POP JUMP JUMPDEST PUSH1 0x0 PUSH2 0x1CD DUP3 PUSH2 0x1D4 JUMP JUMPDEST SWAP1 POP SWAP2 SWAP1 POP JUMP JUMPDEST PUSH1 0x0 PUSH20 0xFFFFFFFFFFFFFFFFFFFFFFFFFFFFFFFFFFFFFFFF DUP3 AND SWAP1 POP SWAP2 SWAP1 POP JUMP JUMPDEST PUSH1 0x0 DUP2 SWAP1 POP SWAP2 SWAP1 POP JUMP JUMPDEST PUSH32 0x4E487B7100000000000000000000000000000000000000000000000000000000 PUSH1 0x0 MSTORE PUSH1 0x11 PUSH1 0x4 MSTORE PUSH1 0x24 PUSH1 0x0 REVERT INVALID LOG2 PUSH5 0x6970667358 0x22 SLT KECCAK256 EQ SSTORE SUB 0x5F 0xE9 LOG2 SUB SWAP6 CODECOPY 0xB4 PUSH15 0x365B398AC51F09749E01396A229CA7 LOG2 PUSH15 0x9B5C535464736F6C63430008070033 "},"methodIdentifiers":{"___clash550254402()":"1aac7601","impl()":"8abf6077","version()":"54fd4d50"}}}}}