{"contracts/MilkaVote.sol":{"MilkaVote":{"abi":[{"inputs":[{"internalType":"contract ERC20","name":"inputVoteCoin","type":"address"}],"stateMutability":"nonpayable","type":"constructor"},{"anonymous":false,"inputs":[{"indexed":true,"internalType":"uint256","name":"hash","type":"uint256"}],"name":"AcceptedProposal","type":"event"},{"anonymous":false,"inputs":[{"indexed":true,"internalType":"uint256","name":"hash","type":"uint256"}],"name":"CreatedProposal","type":"event"},{"anonymous":false,"inputs":[{"indexed":true,"internalType":"uint256","name":"hash","type":"uint256"}],"name":"DisableProposal","type":"event"},{"anonymous":false,"inputs":[{"indexed":true,"internalType":"uint256","name":"hash","type":"uint256"}],"name":"RejectedProposal","type":"event"},{"inputs":[{"internalType":"uint256","name":"propIndex","type":"uint256"}],"name":"_clearProp","outputs":[],"stateMutability":"nonpayable","type":"function"},{"inputs":[{"internalType":"uint256","name":"hashId","type":"uint256"}],"name":"_getFreeProposal","outputs":[{"internalType":"int256","name":"","type":"int256"}],"stateMutability":"nonpayable","type":"function"},{"inputs":[],"name":"containsFreeProps","outputs":[{"internalType":"bool","name":"","type":"bool"}],"stateMutability":"view","type":"function"},{"inputs":[{"internalType":"uint256","name":"hashId","type":"uint256"}],"name":"createNewProposal","outputs":[],"stateMutability":"nonpayable","type":"function"},{"inputs":[{"internalType":"uint256","name":"hashId","type":"uint256"}],"name":"makeAgreeVotes","outputs":[],"stateMutability":"nonpayable","type":"function"},{"inputs":[{"internalType":"uint256","name":"hashId","type":"uint256"}],"name":"makeRejectVotes","outputs":[],"stateMutability":"nonpayable","type":"function"}],"evm":{"bytecode":{"linkReferences":{},"object":"608060405234801561001057600080fd5b50604051610dab380380610dab8339818101604052810190610032919061008e565b80601260006101000a81548173ffffffffffffffffffffffffffffffffffffffff021916908373ffffffffffffffffffffffffffffffffffffffff1602179055505061011b565b60008151905061008881610104565b92915050565b6000602082840312156100a4576100a36100ff565b5b60006100b284828501610079565b91505092915050565b60006100c6826100df565b9050919050565b60006100d8826100bb565b9050919050565b600073ffffffffffffffffffffffffffffffffffffffff82169050919050565b600080fd5b61010d816100cd565b811461011857600080fd5b50565b610c818061012a6000396000f3fe608060405234801561001057600080fd5b50600436106100625760003560e01c8063250e24e91461006757806367098b59146100975780636e120dcb146100b35780637d4584cd146100cf578063bc191fb4146100eb578063c7fc845a14610109575b600080fd5b610081600480360381019061007c919061091f565b610125565b60405161008e9190610a22565b60405180910390f35b6100b160048036038101906100ac919061091f565b610200565b005b6100cd60048036038101906100c8919061091f565b61020e565b005b6100e960048036038101906100e4919061091f565b610260565b005b6100f361026e565b6040516101009190610a07565b60405180910390f35b610123600480360381019061011e919061091f565b6102d2565b005b600080600090505b60038110156101535761013f81610411565b50808061014b90610b36565b91505061012d565b5060005b60038110156101a9576000816003811061017457610173610bae565b5b6006020160040160009054906101000a900460ff1661019657809150506101fb565b80806101a190610b36565b915050610157565b50817f877b62329cce1bf39c9d6913ca97392dc0be730112ea2842f001c9c1dc9e120560405160405180910390a27fffffffffffffffffffffffffffffffffffffffffffffffffffffffffffffffff90505b919050565b61020b8160006104b0565b50565b6000816003811061022257610221610bae565b5b600602016000808201600090556001820160009055600282016000905560038201600090556004820160006101000a81549060ff0219169055505050565b61026b8160016104b0565b50565b600080600090505b60038110156102c9576000816003811061029357610292610bae565b5b6006020160040160009054906101000a900460ff166102b65760019150506102cf565b80806102c190610b36565b915050610276565b50600090505b90565b8060005b600381101561031a5781600082600381106102f4576102f3610bae565b5b6006020160000154141561030757600080fd5b808061031290610b36565b9150506102d6565b50600061032683610125565b90507fffffffffffffffffffffffffffffffffffffffffffffffffffffffffffffffff811415610356575061040d565b600081905060016000826003811061037157610370610bae565b5b6006020160040160006101000a81548160ff02191690831515021790555083600082600381106103a4576103a3610bae565b5b60060201600001819055506203f480426103be9190610a8e565b600082600381106103d2576103d1610bae565b5b6006020160030181905550837fb1cc60311a9b5133ab0e8d3288f9e8a9c663b0dd1d81431f36d2bc88500f504960405160405180910390a250505b5050565b600080826003811061042657610425610bae565b5b60060201600301544211156104a65761043e82610763565b1561044c57600190506104ab565b600082600381106104605761045f610bae565b5b60060201600001547f877b62329cce1bf39c9d6913ca97392dc0be730112ea2842f001c9c1dc9e120560405160405180910390a261049d8261020e565b600190506104ab565b600090505b919050565b60006104bb8361087b565b90507fffffffffffffffffffffffffffffffffffffffffffffffffffffffffffffffff811415610520576040517f08c379a000000000000000000000000000000000000000000000000000000000815260040161051790610a5d565b60405180910390fd5b600081905061052e81610411565b1561053a57505061075f565b836000826003811061054f5761054e610bae565b5b6006020160050160003373ffffffffffffffffffffffffffffffffffffffff1673ffffffffffffffffffffffffffffffffffffffff1681526020019081526020016000205414156105d5576040517f08c379a00000000000000000000000000000000000000000000000000000000081526004016105cc90610a3d565b60405180910390fd5b6000601260009054906101000a900473ffffffffffffffffffffffffffffffffffffffff1673ffffffffffffffffffffffffffffffffffffffff166370a08231336040518263ffffffff1660e01b815260040161063291906109ec565b60206040518083038186803b15801561064a57600080fd5b505afa15801561065e573d6000803e3d6000fd5b505050506040513d601f19601f82011682018060405250810190610682919061094c565b905083156106c157806000836003811061069f5761069e610bae565b5b6006020160010160008282546106b59190610a8e565b925050819055506106f4565b80600083600381106106d6576106d5610bae565b5b6006020160020160008282546106ec9190610a8e565b925050819055505b846000836003811061070957610708610bae565b5b6006020160050160003373ffffffffffffffffffffffffffffffffffffffff1673ffffffffffffffffffffffffffffffffffffffff1681526020019081526020016000208190555061075a82610763565b505050505b5050565b60006302faf08063ffffffff166000836003811061078457610783610bae565b5b6006020160010154106107eb57600082600381106107a5576107a4610bae565b5b60060201600001547f1741186fea6cb44d0edf559c207c18db2e1ee22a3bd9a96bf8571a61b729b0ba60405160405180910390a26107e28261020e565b60019050610876565b6302faf08063ffffffff166000836003811061080a57610809610bae565b5b600602016002015410610871576000826003811061082b5761082a610bae565b5b60060201600001547f85b3529207dd89841fa3db816f8978cc3e132c92559d4f082f7dabce026aa63460405160405180910390a26108688261020e565b60019050610876565b600090505b919050565b600080600090505b60038110156108cb5782600082600381106108a1576108a0610bae565b5b600602016000015414156108b857809150506108f0565b80806108c390610b36565b915050610883565b507fffffffffffffffffffffffffffffffffffffffffffffffffffffffffffffffff90505b919050565b60008135905061090481610c34565b92915050565b60008151905061091981610c34565b92915050565b60006020828403121561093557610934610bdd565b5b6000610943848285016108f5565b91505092915050565b60006020828403121561096257610961610bdd565b5b60006109708482850161090a565b91505092915050565b61098281610ae4565b82525050565b61099181610af6565b82525050565b6109a081610b02565b82525050565b60006109b3601283610a7d565b91506109be82610be2565b602082019050919050565b60006109d6600d83610a7d565b91506109e182610c0b565b602082019050919050565b6000602082019050610a016000830184610979565b92915050565b6000602082019050610a1c6000830184610988565b92915050565b6000602082019050610a376000830184610997565b92915050565b60006020820190508181036000830152610a56816109a6565b9050919050565b60006020820190508181036000830152610a76816109c9565b9050919050565b600082825260208201905092915050565b6000610a9982610b2c565b9150610aa483610b2c565b9250827fffffffffffffffffffffffffffffffffffffffffffffffffffffffffffffffff03821115610ad957610ad8610b7f565b5b828201905092915050565b6000610aef82610b0c565b9050919050565b60008115159050919050565b6000819050919050565b600073ffffffffffffffffffffffffffffffffffffffff82169050919050565b6000819050919050565b6000610b4182610b2c565b91507fffffffffffffffffffffffffffffffffffffffffffffffffffffffffffffffff821415610b7457610b73610b7f565b5b600182019050919050565b7f4e487b7100000000000000000000000000000000000000000000000000000000600052601160045260246000fd5b7f4e487b7100000000000000000000000000000000000000000000000000000000600052603260045260246000fd5b600080fd5b7f5573657220616c726561647920766f7465640000000000000000000000000000600082015250565b7f556b6e6f776e2068617368496400000000000000000000000000000000000000600082015250565b610c3d81610b2c565b8114610c4857600080fd5b5056fea2646970667358221220cb62ccb4cf3e6767fb685ddc83bf8eb141a0aeb7c5c14b6af13f8ae5d029513864736f6c63430008070033","opcodes":"PUSH1 0x80 PUSH1 0x40 MSTORE CALLVALUE DUP1 ISZERO PUSH2 0x10 JUMPI PUSH1 0x0 DUP1 REVERT JUMPDEST POP PUSH1 0x40 MLOAD PUSH2 0xDAB CODESIZE SUB DUP1 PUSH2 0xDAB DUP4 CODECOPY DUP2 DUP2 ADD PUSH1 0x40 MSTORE DUP2 ADD SWAP1 PUSH2 0x32 SWAP2 SWAP1 PUSH2 0x8E JUMP JUMPDEST DUP1 PUSH1 0x12 PUSH1 0x0 PUSH2 0x100 EXP DUP2 SLOAD DUP2 PUSH20 0xFFFFFFFFFFFFFFFFFFFFFFFFFFFFFFFFFFFFFFFF MUL NOT AND SWAP1 DUP4 PUSH20 0xFFFFFFFFFFFFFFFFFFFFFFFFFFFFFFFFFFFFFFFF AND MUL OR SWAP1 SSTORE POP POP PUSH2 0x11B JUMP JUMPDEST PUSH1 0x0 DUP2 MLOAD SWAP1 POP PUSH2 0x88 DUP2 PUSH2 0x104 JUMP JUMPDEST SWAP3 SWAP2 POP POP JUMP JUMPDEST PUSH1 0x0 PUSH1 0x20 DUP3 DUP5 SUB SLT ISZERO PUSH2 0xA4 JUMPI PUSH2 0xA3 PUSH2 0xFF JUMP JUMPDEST JUMPDEST PUSH1 0x0 PUSH2 0xB2 DUP5 DUP3 DUP6 ADD PUSH2 0x79 JUMP JUMPDEST SWAP2 POP POP SWAP3 SWAP2 POP POP JUMP JUMPDEST PUSH1 0x0 PUSH2 0xC6 DUP3 PUSH2 0xDF JUMP JUMPDEST SWAP1 POP SWAP2 SWAP1 POP JUMP JUMPDEST PUSH1 0x0 PUSH2 0xD8 DUP3 PUSH2 0xBB JUMP JUMPDEST SWAP1 POP SWAP2 SWAP1 POP JUMP JUMPDEST PUSH1 0x0 PUSH20 0xFFFFFFFFFFFFFFFFFFFFFFFFFFFFFFFFFFFFFFFF DUP3 AND SWAP1 POP SWAP2 SWAP1 POP JUMP JUMPDEST PUSH1 0x0 DUP1 REVERT JUMPDEST PUSH2 0x10D DUP2 PUSH2 0xCD JUMP JUMPDEST DUP2 EQ PUSH2 0x118 JUMPI PUSH1 0x0 DUP1 REVERT JUMPDEST POP JUMP JUMPDEST PUSH2 0xC81 DUP1 PUSH2 0x12A PUSH1 0x0 CODECOPY PUSH1 0x0 RETURN INVALID PUSH1 0x80 PUSH1 0x40 MSTORE CALLVALUE DUP1 ISZERO PUSH2 0x10 JUMPI PUSH1 0x0 DUP1 REVERT JUMPDEST POP PUSH1 0x4 CALLDATASIZE LT PUSH2 0x62 JUMPI PUSH1 0x0 CALLDATALOAD PUSH1 0xE0 SHR DUP1 PUSH4 0x250E24E9 EQ PUSH2 0x67 JUMPI DUP1 PUSH4 0x67098B59 EQ PUSH2 0x97 JUMPI DUP1 PUSH4 0x6E120DCB EQ PUSH2 0xB3 JUMPI DUP1 PUSH4 0x7D4584CD EQ PUSH2 0xCF JUMPI DUP1 PUSH4 0xBC191FB4 EQ PUSH2 0xEB JUMPI DUP1 PUSH4 0xC7FC845A EQ PUSH2 0x109 JUMPI JUMPDEST PUSH1 0x0 DUP1 REVERT JUMPDEST PUSH2 0x81 PUSH1 0x4 DUP1 CALLDATASIZE SUB DUP2 ADD SWAP1 PUSH2 0x7C SWAP2 SWAP1 PUSH2 0x91F JUMP JUMPDEST PUSH2 0x125 JUMP JUMPDEST PUSH1 0x40 MLOAD PUSH2 0x8E SWAP2 SWAP1 PUSH2 0xA22 JUMP JUMPDEST PUSH1 0x40 MLOAD DUP1 SWAP2 SUB SWAP1 RETURN JUMPDEST PUSH2 0xB1 PUSH1 0x4 DUP1 CALLDATASIZE SUB DUP2 ADD SWAP1 PUSH2 0xAC SWAP2 SWAP1 PUSH2 0x91F JUMP JUMPDEST PUSH2 0x200 JUMP JUMPDEST STOP JUMPDEST PUSH2 0xCD PUSH1 0x4 DUP1 CALLDATASIZE SUB DUP2 ADD SWAP1 PUSH2 0xC8 SWAP2 SWAP1 PUSH2 0x91F JUMP JUMPDEST PUSH2 0x20E JUMP JUMPDEST STOP JUMPDEST PUSH2 0xE9 PUSH1 0x4 DUP1 CALLDATASIZE SUB DUP2 ADD SWAP1 PUSH2 0xE4 SWAP2 SWAP1 PUSH2 0x91F JUMP JUMPDEST PUSH2 0x260 JUMP JUMPDEST STOP JUMPDEST PUSH2 0xF3 PUSH2 0x26E JUMP JUMPDEST PUSH1 0x40 MLOAD PUSH2 0x100 SWAP2 SWAP1 PUSH2 0xA07 JUMP JUMPDEST PUSH1 0x40 MLOAD DUP1 SWAP2 SUB SWAP1 RETURN JUMPDEST PUSH2 0x123 PUSH1 0x4 DUP1 CALLDATASIZE SUB DUP2 ADD SWAP1 PUSH2 0x11E SWAP2 SWAP1 PUSH2 0x91F JUMP JUMPDEST PUSH2 0x2D2 JUMP JUMPDEST STOP JUMPDEST PUSH1 0x0 DUP1 PUSH1 0x0 SWAP1 POP JUMPDEST PUSH1 0x3 DUP2 LT ISZERO PUSH2 0x153 JUMPI PUSH2 0x13F DUP2 PUSH2 0x411 JUMP JUMPDEST POP DUP1 DUP1 PUSH2 0x14B SWAP1 PUSH2 0xB36 JUMP JUMPDEST SWAP2 POP POP PUSH2 0x12D JUMP JUMPDEST POP PUSH1 0x0 JUMPDEST PUSH1 0x3 DUP2 LT ISZERO PUSH2 0x1A9 JUMPI PUSH1 0x0 DUP2 PUSH1 0x3 DUP2 LT PUSH2 0x174 JUMPI PUSH2 0x173 PUSH2 0xBAE JUMP JUMPDEST JUMPDEST PUSH1 0x6 MUL ADD PUSH1 0x4 ADD PUSH1 0x0 SWAP1 SLOAD SWAP1 PUSH2 0x100 EXP SWAP1 DIV PUSH1 0xFF AND PUSH2 0x196 JUMPI DUP1 SWAP2 POP POP PUSH2 0x1FB JUMP JUMPDEST DUP1 DUP1 PUSH2 0x1A1 SWAP1 PUSH2 0xB36 JUMP JUMPDEST SWAP2 POP POP PUSH2 0x157 JUMP JUMPDEST POP DUP2 PUSH32 0x877B62329CCE1BF39C9D6913CA97392DC0BE730112EA2842F001C9C1DC9E1205 PUSH1 0x40 MLOAD PUSH1 0x40 MLOAD DUP1 SWAP2 SUB SWAP1 LOG2 PUSH32 0xFFFFFFFFFFFFFFFFFFFFFFFFFFFFFFFFFFFFFFFFFFFFFFFFFFFFFFFFFFFFFFFF SWAP1 POP JUMPDEST SWAP2 SWAP1 POP JUMP JUMPDEST PUSH2 0x20B DUP2 PUSH1 0x0 PUSH2 0x4B0 JUMP JUMPDEST POP JUMP JUMPDEST PUSH1 0x0 DUP2 PUSH1 0x3 DUP2 LT PUSH2 0x222 JUMPI PUSH2 0x221 PUSH2 0xBAE JUMP JUMPDEST JUMPDEST PUSH1 0x6 MUL ADD PUSH1 0x0 DUP1 DUP3 ADD PUSH1 0x0 SWAP1 SSTORE PUSH1 0x1 DUP3 ADD PUSH1 0x0 SWAP1 SSTORE PUSH1 0x2 DUP3 ADD PUSH1 0x0 SWAP1 SSTORE PUSH1 0x3 DUP3 ADD PUSH1 0x0 SWAP1 SSTORE PUSH1 0x4 DUP3 ADD PUSH1 0x0 PUSH2 0x100 EXP DUP2 SLOAD SWAP1 PUSH1 0xFF MUL NOT AND SWAP1 SSTORE POP POP POP JUMP JUMPDEST PUSH2 0x26B DUP2 PUSH1 0x1 PUSH2 0x4B0 JUMP JUMPDEST POP JUMP JUMPDEST PUSH1 0x0 DUP1 PUSH1 0x0 SWAP1 POP JUMPDEST PUSH1 0x3 DUP2 LT ISZERO PUSH2 0x2C9 JUMPI PUSH1 0x0 DUP2 PUSH1 0x3 DUP2 LT PUSH2 0x293 JUMPI PUSH2 0x292 PUSH2 0xBAE JUMP JUMPDEST JUMPDEST PUSH1 0x6 MUL ADD PUSH1 0x4 ADD PUSH1 0x0 SWAP1 SLOAD SWAP1 PUSH2 0x100 EXP SWAP1 DIV PUSH1 0xFF AND PUSH2 0x2B6 JUMPI PUSH1 0x1 SWAP2 POP POP PUSH2 0x2CF JUMP JUMPDEST DUP1 DUP1 PUSH2 0x2C1 SWAP1 PUSH2 0xB36 JUMP JUMPDEST SWAP2 POP POP PUSH2 0x276 JUMP JUMPDEST POP PUSH1 0x0 SWAP1 POP JUMPDEST SWAP1 JUMP JUMPDEST DUP1 PUSH1 0x0 JUMPDEST PUSH1 0x3 DUP2 LT ISZERO PUSH2 0x31A JUMPI DUP2 PUSH1 0x0 DUP3 PUSH1 0x3 DUP2 LT PUSH2 0x2F4 JUMPI PUSH2 0x2F3 PUSH2 0xBAE JUMP JUMPDEST JUMPDEST PUSH1 0x6 MUL ADD PUSH1 0x0 ADD SLOAD EQ ISZERO PUSH2 0x307 JUMPI PUSH1 0x0 DUP1 REVERT JUMPDEST DUP1 DUP1 PUSH2 0x312 SWAP1 PUSH2 0xB36 JUMP JUMPDEST SWAP2 POP POP PUSH2 0x2D6 JUMP JUMPDEST POP PUSH1 0x0 PUSH2 0x326 DUP4 PUSH2 0x125 JUMP JUMPDEST SWAP1 POP PUSH32 0xFFFFFFFFFFFFFFFFFFFFFFFFFFFFFFFFFFFFFFFFFFFFFFFFFFFFFFFFFFFFFFFF DUP2 EQ ISZERO PUSH2 0x356 JUMPI POP PUSH2 0x40D JUMP JUMPDEST PUSH1 0x0 DUP2 SWAP1 POP PUSH1 0x1 PUSH1 0x0 DUP3 PUSH1 0x3 DUP2 LT PUSH2 0x371 JUMPI PUSH2 0x370 PUSH2 0xBAE JUMP JUMPDEST JUMPDEST PUSH1 0x6 MUL ADD PUSH1 0x4 ADD PUSH1 0x0 PUSH2 0x100 EXP DUP2 SLOAD DUP2 PUSH1 0xFF MUL NOT AND SWAP1 DUP4 ISZERO ISZERO MUL OR SWAP1 SSTORE POP DUP4 PUSH1 0x0 DUP3 PUSH1 0x3 DUP2 LT PUSH2 0x3A4 JUMPI PUSH2 0x3A3 PUSH2 0xBAE JUMP JUMPDEST JUMPDEST PUSH1 0x6 MUL ADD PUSH1 0x0 ADD DUP2 SWAP1 SSTORE POP PUSH3 0x3F480 TIMESTAMP PUSH2 0x3BE SWAP2 SWAP1 PUSH2 0xA8E JUMP JUMPDEST PUSH1 0x0 DUP3 PUSH1 0x3 DUP2 LT PUSH2 0x3D2 JUMPI PUSH2 0x3D1 PUSH2 0xBAE JUMP JUMPDEST JUMPDEST PUSH1 0x6 MUL ADD PUSH1 0x3 ADD DUP2 SWAP1 SSTORE POP DUP4 PUSH32 0xB1CC60311A9B5133AB0E8D3288F9E8A9C663B0DD1D81431F36D2BC88500F5049 PUSH1 0x40 MLOAD PUSH1 0x40 MLOAD DUP1 SWAP2 SUB SWAP1 LOG2 POP POP JUMPDEST POP POP JUMP JUMPDEST PUSH1 0x0 DUP1 DUP3 PUSH1 0x3 DUP2 LT PUSH2 0x426 JUMPI PUSH2 0x425 PUSH2 0xBAE JUMP JUMPDEST JUMPDEST PUSH1 0x6 MUL ADD PUSH1 0x3 ADD SLOAD TIMESTAMP GT ISZERO PUSH2 0x4A6 JUMPI PUSH2 0x43E DUP3 PUSH2 0x763 JUMP JUMPDEST ISZERO PUSH2 0x44C JUMPI PUSH1 0x1 SWAP1 POP PUSH2 0x4AB JUMP JUMPDEST PUSH1 0x0 DUP3 PUSH1 0x3 DUP2 LT PUSH2 0x460 JUMPI PUSH2 0x45F PUSH2 0xBAE JUMP JUMPDEST JUMPDEST PUSH1 0x6 MUL ADD PUSH1 0x0 ADD SLOAD PUSH32 0x877B62329CCE1BF39C9D6913CA97392DC0BE730112EA2842F001C9C1DC9E1205 PUSH1 0x40 MLOAD PUSH1 0x40 MLOAD DUP1 SWAP2 SUB SWAP1 LOG2 PUSH2 0x49D DUP3 PUSH2 0x20E JUMP JUMPDEST PUSH1 0x1 SWAP1 POP PUSH2 0x4AB JUMP JUMPDEST PUSH1 0x0 SWAP1 POP JUMPDEST SWAP2 SWAP1 POP JUMP JUMPDEST PUSH1 0x0 PUSH2 0x4BB DUP4 PUSH2 0x87B JUMP JUMPDEST SWAP1 POP PUSH32 0xFFFFFFFFFFFFFFFFFFFFFFFFFFFFFFFFFFFFFFFFFFFFFFFFFFFFFFFFFFFFFFFF DUP2 EQ ISZERO PUSH2 0x520 JUMPI PUSH1 0x40 MLOAD PUSH32 0x8C379A000000000000000000000000000000000000000000000000000000000 DUP2 MSTORE PUSH1 0x4 ADD PUSH2 0x517 SWAP1 PUSH2 0xA5D JUMP JUMPDEST PUSH1 0x40 MLOAD DUP1 SWAP2 SUB SWAP1 REVERT JUMPDEST PUSH1 0x0 DUP2 SWAP1 POP PUSH2 0x52E DUP2 PUSH2 0x411 JUMP JUMPDEST ISZERO PUSH2 0x53A JUMPI POP POP PUSH2 0x75F JUMP JUMPDEST DUP4 PUSH1 0x0 DUP3 PUSH1 0x3 DUP2 LT PUSH2 0x54F JUMPI PUSH2 0x54E PUSH2 0xBAE JUMP JUMPDEST JUMPDEST PUSH1 0x6 MUL ADD PUSH1 0x5 ADD PUSH1 0x0 CALLER PUSH20 0xFFFFFFFFFFFFFFFFFFFFFFFFFFFFFFFFFFFFFFFF AND PUSH20 0xFFFFFFFFFFFFFFFFFFFFFFFFFFFFFFFFFFFFFFFF AND DUP2 MSTORE PUSH1 0x20 ADD SWAP1 DUP2 MSTORE PUSH1 0x20 ADD PUSH1 0x0 KECCAK256 SLOAD EQ ISZERO PUSH2 0x5D5 JUMPI PUSH1 0x40 MLOAD PUSH32 0x8C379A000000000000000000000000000000000000000000000000000000000 DUP2 MSTORE PUSH1 0x4 ADD PUSH2 0x5CC SWAP1 PUSH2 0xA3D JUMP JUMPDEST PUSH1 0x40 MLOAD DUP1 SWAP2 SUB SWAP1 REVERT JUMPDEST PUSH1 0x0 PUSH1 0x12 PUSH1 0x0 SWAP1 SLOAD SWAP1 PUSH2 0x100 EXP SWAP1 DIV PUSH20 0xFFFFFFFFFFFFFFFFFFFFFFFFFFFFFFFFFFFFFFFF AND PUSH20 0xFFFFFFFFFFFFFFFFFFFFFFFFFFFFFFFFFFFFFFFF AND PUSH4 0x70A08231 CALLER PUSH1 0x40 MLOAD DUP3 PUSH4 0xFFFFFFFF AND PUSH1 0xE0 SHL DUP2 MSTORE PUSH1 0x4 ADD PUSH2 0x632 SWAP2 SWAP1 PUSH2 0x9EC JUMP JUMPDEST PUSH1 0x20 PUSH1 0x40 MLOAD DUP1 DUP4 SUB DUP2 DUP7 DUP1 EXTCODESIZE ISZERO DUP1 ISZERO PUSH2 0x64A JUMPI PUSH1 0x0 DUP1 REVERT JUMPDEST POP GAS STATICCALL ISZERO DUP1 ISZERO PUSH2 0x65E JUMPI RETURNDATASIZE PUSH1 0x0 DUP1 RETURNDATACOPY RETURNDATASIZE PUSH1 0x0 REVERT JUMPDEST POP POP POP POP PUSH1 0x40 MLOAD RETURNDATASIZE PUSH1 0x1F NOT PUSH1 0x1F DUP3 ADD AND DUP3 ADD DUP1 PUSH1 0x40 MSTORE POP DUP2 ADD SWAP1 PUSH2 0x682 SWAP2 SWAP1 PUSH2 0x94C JUMP JUMPDEST SWAP1 POP DUP4 ISZERO PUSH2 0x6C1 JUMPI DUP1 PUSH1 0x0 DUP4 PUSH1 0x3 DUP2 LT PUSH2 0x69F JUMPI PUSH2 0x69E PUSH2 0xBAE JUMP JUMPDEST JUMPDEST PUSH1 0x6 MUL ADD PUSH1 0x1 ADD PUSH1 0x0 DUP3 DUP3 SLOAD PUSH2 0x6B5 SWAP2 SWAP1 PUSH2 0xA8E JUMP JUMPDEST SWAP3 POP POP DUP2 SWAP1 SSTORE POP PUSH2 0x6F4 JUMP JUMPDEST DUP1 PUSH1 0x0 DUP4 PUSH1 0x3 DUP2 LT PUSH2 0x6D6 JUMPI PUSH2 0x6D5 PUSH2 0xBAE JUMP JUMPDEST JUMPDEST PUSH1 0x6 MUL ADD PUSH1 0x2 ADD PUSH1 0x0 DUP3 DUP3 SLOAD PUSH2 0x6EC SWAP2 SWAP1 PUSH2 0xA8E JUMP JUMPDEST SWAP3 POP POP DUP2 SWAP1 SSTORE POP JUMPDEST DUP5 PUSH1 0x0 DUP4 PUSH1 0x3 DUP2 LT PUSH2 0x709 JUMPI PUSH2 0x708 PUSH2 0xBAE JUMP JUMPDEST JUMPDEST PUSH1 0x6 MUL ADD PUSH1 0x5 ADD PUSH1 0x0 CALLER PUSH20 0xFFFFFFFFFFFFFFFFFFFFFFFFFFFFFFFFFFFFFFFF AND PUSH20 0xFFFFFFFFFFFFFFFFFFFFFFFFFFFFFFFFFFFFFFFF AND DUP2 MSTORE PUSH1 0x20 ADD SWAP1 DUP2 MSTORE PUSH1 0x20 ADD PUSH1 0x0 KECCAK256 DUP2 SWAP1 SSTORE POP PUSH2 0x75A DUP3 PUSH2 0x763 JUMP JUMPDEST POP POP POP POP JUMPDEST POP POP JUMP JUMPDEST PUSH1 0x0 PUSH4 0x2FAF080 PUSH4 0xFFFFFFFF AND PUSH1 0x0 DUP4 PUSH1 0x3 DUP2 LT PUSH2 0x784 JUMPI PUSH2 0x783 PUSH2 0xBAE JUMP JUMPDEST JUMPDEST PUSH1 0x6 MUL ADD PUSH1 0x1 ADD SLOAD LT PUSH2 0x7EB JUMPI PUSH1 0x0 DUP3 PUSH1 0x3 DUP2 LT PUSH2 0x7A5 JUMPI PUSH2 0x7A4 PUSH2 0xBAE JUMP JUMPDEST JUMPDEST PUSH1 0x6 MUL ADD PUSH1 0x0 ADD SLOAD PUSH32 0x1741186FEA6CB44D0EDF559C207C18DB2E1EE22A3BD9A96BF8571A61B729B0BA PUSH1 0x40 MLOAD PUSH1 0x40 MLOAD DUP1 SWAP2 SUB SWAP1 LOG2 PUSH2 0x7E2 DUP3 PUSH2 0x20E JUMP JUMPDEST PUSH1 0x1 SWAP1 POP PUSH2 0x876 JUMP JUMPDEST PUSH4 0x2FAF080 PUSH4 0xFFFFFFFF AND PUSH1 0x0 DUP4 PUSH1 0x3 DUP2 LT PUSH2 0x80A JUMPI PUSH2 0x809 PUSH2 0xBAE JUMP JUMPDEST JUMPDEST PUSH1 0x6 MUL ADD PUSH1 0x2 ADD SLOAD LT PUSH2 0x871 JUMPI PUSH1 0x0 DUP3 PUSH1 0x3 DUP2 LT PUSH2 0x82B JUMPI PUSH2 0x82A PUSH2 0xBAE JUMP JUMPDEST JUMPDEST PUSH1 0x6 MUL ADD PUSH1 0x0 ADD SLOAD PUSH32 0x85B3529207DD89841FA3DB816F8978CC3E132C92559D4F082F7DABCE026AA634 PUSH1 0x40 MLOAD PUSH1 0x40 MLOAD DUP1 SWAP2 SUB SWAP1 LOG2 PUSH2 0x868 DUP3 PUSH2 0x20E JUMP JUMPDEST PUSH1 0x1 SWAP1 POP PUSH2 0x876 JUMP JUMPDEST PUSH1 0x0 SWAP1 POP JUMPDEST SWAP2 SWAP1 POP JUMP JUMPDEST PUSH1 0x0 DUP1 PUSH1 0x0 SWAP1 POP JUMPDEST PUSH1 0x3 DUP2 LT ISZERO PUSH2 0x8CB JUMPI DUP3 PUSH1 0x0 DUP3 PUSH1 0x3 DUP2 LT PUSH2 0x8A1 JUMPI PUSH2 0x8A0 PUSH2 0xBAE JUMP JUMPDEST JUMPDEST PUSH1 0x6 MUL ADD PUSH1 0x0 ADD SLOAD EQ ISZERO PUSH2 0x8B8 JUMPI DUP1 SWAP2 POP POP PUSH2 0x8F0 JUMP JUMPDEST DUP1 DUP1 PUSH2 0x8C3 SWAP1 PUSH2 0xB36 JUMP JUMPDEST SWAP2 POP POP PUSH2 0x883 JUMP JUMPDEST POP PUSH32 0xFFFFFFFFFFFFFFFFFFFFFFFFFFFFFFFFFFFFFFFFFFFFFFFFFFFFFFFFFFFFFFFF SWAP1 POP JUMPDEST SWAP2 SWAP1 POP JUMP JUMPDEST PUSH1 0x0 DUP2 CALLDATALOAD SWAP1 POP PUSH2 0x904 DUP2 PUSH2 0xC34 JUMP JUMPDEST SWAP3 SWAP2 POP POP JUMP JUMPDEST PUSH1 0x0 DUP2 MLOAD SWAP1 POP PUSH2 0x919 DUP2 PUSH2 0xC34 JUMP JUMPDEST SWAP3 SWAP2 POP POP JUMP JUMPDEST PUSH1 0x0 PUSH1 0x20 DUP3 DUP5 SUB SLT ISZERO PUSH2 0x935 JUMPI PUSH2 0x934 PUSH2 0xBDD JUMP JUMPDEST JUMPDEST PUSH1 0x0 PUSH2 0x943 DUP5 DUP3 DUP6 ADD PUSH2 0x8F5 JUMP JUMPDEST SWAP2 POP POP SWAP3 SWAP2 POP POP JUMP JUMPDEST PUSH1 0x0 PUSH1 0x20 DUP3 DUP5 SUB SLT ISZERO PUSH2 0x962 JUMPI PUSH2 0x961 PUSH2 0xBDD JUMP JUMPDEST JUMPDEST PUSH1 0x0 PUSH2 0x970 DUP5 DUP3 DUP6 ADD PUSH2 0x90A JUMP JUMPDEST SWAP2 POP POP SWAP3 SWAP2 POP POP JUMP JUMPDEST PUSH2 0x982 DUP2 PUSH2 0xAE4 JUMP JUMPDEST DUP3 MSTORE POP POP JUMP JUMPDEST PUSH2 0x991 DUP2 PUSH2 0xAF6 JUMP JUMPDEST DUP3 MSTORE POP POP JUMP JUMPDEST PUSH2 0x9A0 DUP2 PUSH2 0xB02 JUMP JUMPDEST DUP3 MSTORE POP POP JUMP JUMPDEST PUSH1 0x0 PUSH2 0x9B3 PUSH1 0x12 DUP4 PUSH2 0xA7D JUMP JUMPDEST SWAP2 POP PUSH2 0x9BE DUP3 PUSH2 0xBE2 JUMP JUMPDEST PUSH1 0x20 DUP3 ADD SWAP1 POP SWAP2 SWAP1 POP JUMP JUMPDEST PUSH1 0x0 PUSH2 0x9D6 PUSH1 0xD DUP4 PUSH2 0xA7D JUMP JUMPDEST SWAP2 POP PUSH2 0x9E1 DUP3 PUSH2 0xC0B JUMP JUMPDEST PUSH1 0x20 DUP3 ADD SWAP1 POP SWAP2 SWAP1 POP JUMP JUMPDEST PUSH1 0x0 PUSH1 0x20 DUP3 ADD SWAP1 POP PUSH2 0xA01 PUSH1 0x0 DUP4 ADD DUP5 PUSH2 0x979 JUMP JUMPDEST SWAP3 SWAP2 POP POP JUMP JUMPDEST PUSH1 0x0 PUSH1 0x20 DUP3 ADD SWAP1 POP PUSH2 0xA1C PUSH1 0x0 DUP4 ADD DUP5 PUSH2 0x988 JUMP JUMPDEST SWAP3 SWAP2 POP POP JUMP JUMPDEST PUSH1 0x0 PUSH1 0x20 DUP3 ADD SWAP1 POP PUSH2 0xA37 PUSH1 0x0 DUP4 ADD DUP5 PUSH2 0x997 JUMP JUMPDEST SWAP3 SWAP2 POP POP JUMP JUMPDEST PUSH1 0x0 PUSH1 0x20 DUP3 ADD SWAP1 POP DUP2 DUP2 SUB PUSH1 0x0 DUP4 ADD MSTORE PUSH2 0xA56 DUP2 PUSH2 0x9A6 JUMP JUMPDEST SWAP1 POP SWAP2 SWAP1 POP JUMP JUMPDEST PUSH1 0x0 PUSH1 0x20 DUP3 ADD SWAP1 POP DUP2 DUP2 SUB PUSH1 0x0 DUP4 ADD MSTORE PUSH2 0xA76 DUP2 PUSH2 0x9C9 JUMP JUMPDEST SWAP1 POP SWAP2 SWAP1 POP JUMP JUMPDEST PUSH1 0x0 DUP3 DUP3 MSTORE PUSH1 0x20 DUP3 ADD SWAP1 POP SWAP3 SWAP2 POP POP JUMP JUMPDEST PUSH1 0x0 PUSH2 0xA99 DUP3 PUSH2 0xB2C JUMP JUMPDEST SWAP2 POP PUSH2 0xAA4 DUP4 PUSH2 0xB2C JUMP JUMPDEST SWAP3 POP DUP3 PUSH32 0xFFFFFFFFFFFFFFFFFFFFFFFFFFFFFFFFFFFFFFFFFFFFFFFFFFFFFFFFFFFFFFFF SUB DUP3 GT ISZERO PUSH2 0xAD9 JUMPI PUSH2 0xAD8 PUSH2 0xB7F JUMP JUMPDEST JUMPDEST DUP3 DUP3 ADD SWAP1 POP SWAP3 SWAP2 POP POP JUMP JUMPDEST PUSH1 0x0 PUSH2 0xAEF DUP3 PUSH2 0xB0C JUMP JUMPDEST SWAP1 POP SWAP2 SWAP1 POP JUMP JUMPDEST PUSH1 0x0 DUP2 ISZERO ISZERO SWAP1 POP SWAP2 SWAP1 POP JUMP JUMPDEST PUSH1 0x0 DUP2 SWAP1 POP SWAP2 SWAP1 POP JUMP JUMPDEST PUSH1 0x0 PUSH20 0xFFFFFFFFFFFFFFFFFFFFFFFFFFFFFFFFFFFFFFFF DUP3 AND SWAP1 POP SWAP2 SWAP1 POP JUMP JUMPDEST PUSH1 0x0 DUP2 SWAP1 POP SWAP2 SWAP1 POP JUMP JUMPDEST PUSH1 0x0 PUSH2 0xB41 DUP3 PUSH2 0xB2C JUMP JUMPDEST SWAP2 POP PUSH32 0xFFFFFFFFFFFFFFFFFFFFFFFFFFFFFFFFFFFFFFFFFFFFFFFFFFFFFFFFFFFFFFFF DUP3 EQ ISZERO PUSH2 0xB74 JUMPI PUSH2 0xB73 PUSH2 0xB7F JUMP JUMPDEST JUMPDEST PUSH1 0x1 DUP3 ADD SWAP1 POP SWAP2 SWAP1 POP JUMP JUMPDEST PUSH32 0x4E487B7100000000000000000000000000000000000000000000000000000000 PUSH1 0x0 MSTORE PUSH1 0x11 PUSH1 0x4 MSTORE PUSH1 0x24 PUSH1 0x0 REVERT JUMPDEST PUSH32 0x4E487B7100000000000000000000000000000000000000000000000000000000 PUSH1 0x0 MSTORE PUSH1 0x32 PUSH1 0x4 MSTORE PUSH1 0x24 PUSH1 0x0 REVERT JUMPDEST PUSH1 0x0 DUP1 REVERT JUMPDEST PUSH32 0x5573657220616C726561647920766F7465640000000000000000000000000000 PUSH1 0x0 DUP3 ADD MSTORE POP JUMP JUMPDEST PUSH32 0x556B6E6F776E2068617368496400000000000000000000000000000000000000 PUSH1 0x0 DUP3 ADD MSTORE POP JUMP JUMPDEST PUSH2 0xC3D DUP2 PUSH2 0xB2C JUMP JUMPDEST DUP2 EQ PUSH2 0xC48 JUMPI PUSH1 0x0 DUP1 REVERT JUMPDEST POP JUMP INVALID LOG2 PUSH5 0x6970667358 0x22 SLT KECCAK256 0xCB PUSH3 0xCCB4CF RETURNDATACOPY PUSH8 0x67FB685DDC83BF8E 0xB1 COINBASE LOG0 0xAE 0xB7 0xC5 0xC1 0x4B PUSH11 0xF13F8AE5D029513864736F PUSH13 0x63430008070033000000000000 "},"methodIdentifiers":{"_clearProp(uint256)":"6e120dcb","_getFreeProposal(uint256)":"250e24e9","containsFreeProps()":"bc191fb4","createNewProposal(uint256)":"c7fc845a","makeAgreeVotes(uint256)":"7d4584cd","makeRejectVotes(uint256)":"67098b59"}}}}}