{"contracts/MilkaQueueBidding.sol":{"MilkaQueueBidding":{"abi":[{"inputs":[{"internalType":"uint256","name":"minTime","type":"uint256"}],"stateMutability":"nonpayable","type":"constructor"},{"inputs":[],"name":"QUEUE_COUNT","outputs":[{"internalType":"uint256","name":"","type":"uint256"}],"stateMutability":"view","type":"function"},{"inputs":[{"internalType":"uint256","name":"propIndex","type":"uint256"}],"name":"_clearProp","outputs":[],"stateMutability":"nonpayable","type":"function"},{"inputs":[{"internalType":"uint256","name":"hashId","type":"uint256"}],"name":"buyItem","outputs":[{"internalType":"bool","name":"","type":"bool"}],"stateMutability":"payable","type":"function"},{"inputs":[{"internalType":"uint256","name":"hashId","type":"uint256"},{"internalType":"bytes32","name":"title","type":"bytes32"},{"internalType":"bytes32","name":"description","type":"bytes32"},{"internalType":"uint256","name":"minValue","type":"uint256"}],"name":"createBidding","outputs":[],"stateMutability":"nonpayable","type":"function"}],"evm":{"bytecode":{"linkReferences":{"contracts/MilkaBiddingUtils.sol":{"MilkaBiddingUtils":[{"length":20,"start":2073},{"length":20,"start":2880}]}},"object":"60806040526102586000553480156200001757600080fd5b506040516200138f3803806200138f83398181016040528101906200003d919062000062565b8060008190555050620000bd565b6000815190506200005c81620000a3565b92915050565b6000602082840312156200007b576200007a6200009e565b5b60006200008b848285016200004b565b91505092915050565b6000819050919050565b600080fd5b620000ae8162000094565b8114620000ba57600080fd5b50565b6112c280620000cd6000396000f3fe60806040526004361061003f5760003560e01c80636e120dcb14610044578063732603291461006d578063e7fb74c714610096578063f7208c9c146100c6575b600080fd5b34801561005057600080fd5b5061006b60048036038101906100669190610b31565b6100f1565b005b34801561007957600080fd5b50610094600480360381019061008f9190610b8b565b6101b9565b005b6100b060048036038101906100ab9190610b31565b6103e8565b6040516100bd9190610e37565b60405180910390f35b3480156100d257600080fd5b506100db610669565b6040516100e89190610eae565b60405180910390f35b60018160038110610105576101046111cb565b5b600c0201600080820160009055600182016000905560028201600090556003820160009055600482016000905560058201600090556006820160006101000a81549073ffffffffffffffffffffffffffffffffffffffff02191690556007820160006101000a81549073ffffffffffffffffffffffffffffffffffffffff021916905560088201600090556009820160009055600a820160009055600b820160006101000a81549060ff0219169055505050565b8360005b60038110156102015781600182600381106101db576101da6111cb565b5b600c02016000015414156101ee57600080fd5b80806101f990611124565b9150506101bd565b50600061020d8661066e565b90507fffffffffffffffffffffffffffffffffffffffffffffffffffffffffffffffff81141561023d57506103e1565b60008190508660018260038110610257576102566111cb565b5b600c0201600001819055503360018260038110610277576102766111cb565b5b600c020160070160006101000a81548173ffffffffffffffffffffffffffffffffffffffff021916908373ffffffffffffffffffffffffffffffffffffffff16021790555085600182600381106102d1576102d06111cb565b5b600c02016008018190555084600182600381106102f1576102f06111cb565b5b600c0201600901819055504260018260038110610311576103106111cb565b5b600c020160010181905550600560018260038110610332576103316111cb565b5b600c0201600a01819055508360018260038110610352576103516111cb565b5b600c0201600501819055506103668161074a565b7fa11993eb95384e356b03388262d2842238f11010690c653232a9da617fa923608787876001856003811061039e5761039d6111cb565b5b600c020160070160009054906101000a900473ffffffffffffffffffffffffffffffffffffffff166040516103d69493929190610ec9565b60405180910390a150505b5050505050565b6000808214156103f757600080fd5b6000610402836107f7565b90507fffffffffffffffffffffffffffffffffffffffffffffffffffffffffffffffff811415610467576040517f08c379a000000000000000000000000000000000000000000000000000000000815260040161045e90610e52565b60405180910390fd5b600081905061047581610871565b1561048557600092505050610664565b60018160038110610499576104986111cb565b5b600c0201600501543410156104e3576040517f08c379a00000000000000000000000000000000000000000000000000000000081526004016104da90610e72565b60405180910390fd5b600073ffffffffffffffffffffffffffffffffffffffff166001826003811061050f5761050e6111cb565b5b600c020160060160009054906101000a900473ffffffffffffffffffffffffffffffffffffffff1673ffffffffffffffffffffffffffffffffffffffff16146105f05760018160038110610566576105656111cb565b5b600c020160060160009054906101000a900473ffffffffffffffffffffffffffffffffffffffff1673ffffffffffffffffffffffffffffffffffffffff166108fc600183600381106105bb576105ba6111cb565b5b600c0201600401549081150290604051600060405180830381858888f193505050501580156105ee573d6000803e3d6000fd5b505b3360018260038110610605576106046111cb565b5b600c020160060160006101000a81548173ffffffffffffffffffffffffffffffffffffffff021916908373ffffffffffffffffffffffffffffffffffffffff16021790555061065481346108e3565b61065d8161074a565b6001925050505b919050565b600381565b600080600090505b600381101561069c5761068881610871565b50808061069490611124565b915050610676565b5060005b60038110156106e9576000600182600381106106bf576106be6111cb565b5b600c02016002015414156106d65780915050610745565b80806106e190611124565b9150506106a0565b507f85b3529207dd89841fa3db816f8978cc3e132c92559d4f082f7dabce026aa634826040516107199190610eae565b60405180910390a17fffffffffffffffffffffffffffffffffffffffffffffffffffffffffffffffff90505b919050565b73__$282ff1fafeb9497391e3c60428aded7dd4$__632238b73a426000546040518363ffffffff1660e01b8152600401610785929190610f0e565b60206040518083038186803b15801561079d57600080fd5b505af41580156107b1573d6000803e3d6000fd5b505050506040513d601f19601f820116820180604052508101906107d59190610b5e565b600182600381106107e9576107e86111cb565b5b600c02016002018190555050565b600080600090505b600381101561084757826001826003811061081d5761081c6111cb565b5b600c0201600001541415610834578091505061086c565b808061083f90611124565b9150506107ff565b507fffffffffffffffffffffffffffffffffffffffffffffffffffffffffffffffff90505b919050565b600060018260038110610887576108866111cb565b5b600c020160020154421180156108b957506000600183600381106108ae576108ad6111cb565b5b600c02016002015414155b156108d9576108c782610964565b6108d0826100f1565b600190506108de565b600090505b919050565b80600183600381106108f8576108f76111cb565b5b600c02016004018190555060018260038110610917576109166111cb565b5b600c0201600a015460648261092c9190610f9e565b6109369190610fcf565b816109419190610f48565b60018360038110610955576109546111cb565b5b600c0201600501819055505050565b600073ffffffffffffffffffffffffffffffffffffffff16600182600381106109905761098f6111cb565b5b600c020160060160009054906101000a900473ffffffffffffffffffffffffffffffffffffffff1673ffffffffffffffffffffffffffffffffffffffff1614610a7157600181600381106109e7576109e66111cb565b5b600c020160070160009054906101000a900473ffffffffffffffffffffffffffffffffffffffff1673ffffffffffffffffffffffffffffffffffffffff166108fc60018360038110610a3c57610a3b6111cb565b5b600c0201600401549081150290604051600060405180830381858888f19350505050158015610a6f573d6000803e3d6000fd5b505b73__$282ff1fafeb9497391e3c60428aded7dd4$__63a964daeb60018360038110610a9f57610a9e6111cb565b5b600c02016040518263ffffffff1660e01b8152600401610abf9190610e92565b60006040518083038186803b158015610ad757600080fd5b505af4158015610aeb573d6000803e3d6000fd5b5050505050565b600081359050610b018161125e565b92915050565b600081359050610b1681611275565b92915050565b600081519050610b2b81611275565b92915050565b600060208284031215610b4757610b466111fa565b5b6000610b5584828501610b07565b91505092915050565b600060208284031215610b7457610b736111fa565b5b6000610b8284828501610b1c565b91505092915050565b60008060008060808587031215610ba557610ba46111fa565b5b6000610bb387828801610b07565b9450506020610bc487828801610af2565b9350506040610bd587828801610af2565b9250506060610be687828801610b07565b91505092959194509250565b610bfb8161106a565b82525050565b610c0a8161106a565b82525050565b610c198161107c565b82525050565b610c288161107c565b82525050565b610c3781611088565b82525050565b610c4681611088565b82525050565b6000610c59600d83610f37565b9150610c648261120c565b602082019050919050565b6000610c7c601283610f37565b9150610c8782611235565b602082019050919050565b61018082016000808301549050610ca88161110a565b610cb56000860182610e28565b5060018301549050610cc68161110a565b610cd36020860182610e28565b5060028301549050610ce48161110a565b610cf16040860182610e28565b5060038301549050610d028161110a565b610d0f6060860182610e28565b5060048301549050610d208161110a565b610d2d6080860182610e28565b5060058301549050610d3e8161110a565b610d4b60a0860182610e28565b5060068301549050610d5c816110bc565b610d6960c0860182610c01565b5060078301549050610d7a816110bc565b610d8760e0860182610c01565b5060088301549050610d98816110f0565b610da6610100860182610c3d565b5060098301549050610db7816110f0565b610dc5610120860182610c3d565b50600a8301549050610dd68161110a565b610de4610140860182610e28565b50600b8301549050610df5816110d6565b610e03610160860182610c1f565b5050505050565b610e13816110b2565b82525050565b610e22816110b2565b82525050565b610e31816110b2565b82525050565b6000602082019050610e4c6000830184610c10565b92915050565b60006020820190508181036000830152610e6b81610c4c565b9050919050565b60006020820190508181036000830152610e8b81610c6f565b9050919050565b600061018082019050610ea86000830184610c92565b92915050565b6000602082019050610ec36000830184610e0a565b92915050565b6000608082019050610ede6000830187610e0a565b610eeb6020830186610c2e565b610ef86040830185610c2e565b610f056060830184610bf2565b95945050505050565b6000604082019050610f236000830185610e19565b610f306020830184610e19565b9392505050565b600082825260208201905092915050565b6000610f53826110b2565b9150610f5e836110b2565b9250827fffffffffffffffffffffffffffffffffffffffffffffffffffffffffffffffff03821115610f9357610f9261116d565b5b828201905092915050565b6000610fa9826110b2565b9150610fb4836110b2565b925082610fc457610fc361119c565b5b828204905092915050565b6000610fda826110b2565b9150610fe5836110b2565b9250817fffffffffffffffffffffffffffffffffffffffffffffffffffffffffffffffff048311821515161561101e5761101d61116d565b5b828202905092915050565b600073ffffffffffffffffffffffffffffffffffffffff82169050919050565b600060ff82169050919050565b6000819050919050565b6000819050919050565b600061107582611092565b9050919050565b60008115159050919050565b6000819050919050565b600073ffffffffffffffffffffffffffffffffffffffff82169050919050565b6000819050919050565b60006110cf6110ca836111ff565b611029565b9050919050565b60006110e96110e4836111ff565b611049565b9050919050565b60006111036110fe836111ff565b611056565b9050919050565b600061111d611118836111ff565b611060565b9050919050565b600061112f826110b2565b91507fffffffffffffffffffffffffffffffffffffffffffffffffffffffffffffffff8214156111625761116161116d565b5b600182019050919050565b7f4e487b7100000000000000000000000000000000000000000000000000000000600052601160045260246000fd5b7f4e487b7100000000000000000000000000000000000000000000000000000000600052601260045260246000fd5b7f4e487b7100000000000000000000000000000000000000000000000000000000600052603260045260246000fd5b600080fd5b60008160001c9050919050565b7f556b6e6f776e2068617368496400000000000000000000000000000000000000600082015250565b7f56616c756520697320696e636f72726563740000000000000000000000000000600082015250565b61126781611088565b811461127257600080fd5b50565b61127e816110b2565b811461128957600080fd5b5056fea264697066735822122098c2129324bb6422ab44712b1b0683f111d0ea5dc16e6469da0e9e1b25bf267564736f6c63430008070033","opcodes":"PUSH1 0x80 PUSH1 0x40 MSTORE PUSH2 0x258 PUSH1 0x0 SSTORE CALLVALUE DUP1 ISZERO PUSH3 0x17 JUMPI PUSH1 0x0 DUP1 REVERT JUMPDEST POP PUSH1 0x40 MLOAD PUSH3 0x138F CODESIZE SUB DUP1 PUSH3 0x138F DUP4 CODECOPY DUP2 DUP2 ADD PUSH1 0x40 MSTORE DUP2 ADD SWAP1 PUSH3 0x3D SWAP2 SWAP1 PUSH3 0x62 JUMP JUMPDEST DUP1 PUSH1 0x0 DUP2 SWAP1 SSTORE POP POP PUSH3 0xBD JUMP JUMPDEST PUSH1 0x0 DUP2 MLOAD SWAP1 POP PUSH3 0x5C DUP2 PUSH3 0xA3 JUMP JUMPDEST SWAP3 SWAP2 POP POP JUMP JUMPDEST PUSH1 0x0 PUSH1 0x20 DUP3 DUP5 SUB SLT ISZERO PUSH3 0x7B JUMPI PUSH3 0x7A PUSH3 0x9E JUMP JUMPDEST JUMPDEST PUSH1 0x0 PUSH3 0x8B DUP5 DUP3 DUP6 ADD PUSH3 0x4B JUMP JUMPDEST SWAP2 POP POP SWAP3 SWAP2 POP POP JUMP JUMPDEST PUSH1 0x0 DUP2 SWAP1 POP SWAP2 SWAP1 POP JUMP JUMPDEST PUSH1 0x0 DUP1 REVERT JUMPDEST PUSH3 0xAE DUP2 PUSH3 0x94 JUMP JUMPDEST DUP2 EQ PUSH3 0xBA JUMPI PUSH1 0x0 DUP1 REVERT JUMPDEST POP JUMP JUMPDEST PUSH2 0x12C2 DUP1 PUSH3 0xCD PUSH1 0x0 CODECOPY PUSH1 0x0 RETURN INVALID PUSH1 0x80 PUSH1 0x40 MSTORE PUSH1 0x4 CALLDATASIZE LT PUSH2 0x3F JUMPI PUSH1 0x0 CALLDATALOAD PUSH1 0xE0 SHR DUP1 PUSH4 0x6E120DCB EQ PUSH2 0x44 JUMPI DUP1 PUSH4 0x73260329 EQ PUSH2 0x6D JUMPI DUP1 PUSH4 0xE7FB74C7 EQ PUSH2 0x96 JUMPI DUP1 PUSH4 0xF7208C9C EQ PUSH2 0xC6 JUMPI JUMPDEST PUSH1 0x0 DUP1 REVERT JUMPDEST CALLVALUE DUP1 ISZERO PUSH2 0x50 JUMPI PUSH1 0x0 DUP1 REVERT JUMPDEST POP PUSH2 0x6B PUSH1 0x4 DUP1 CALLDATASIZE SUB DUP2 ADD SWAP1 PUSH2 0x66 SWAP2 SWAP1 PUSH2 0xB31 JUMP JUMPDEST PUSH2 0xF1 JUMP JUMPDEST STOP JUMPDEST CALLVALUE DUP1 ISZERO PUSH2 0x79 JUMPI PUSH1 0x0 DUP1 REVERT JUMPDEST POP PUSH2 0x94 PUSH1 0x4 DUP1 CALLDATASIZE SUB DUP2 ADD SWAP1 PUSH2 0x8F SWAP2 SWAP1 PUSH2 0xB8B JUMP JUMPDEST PUSH2 0x1B9 JUMP JUMPDEST STOP JUMPDEST PUSH2 0xB0 PUSH1 0x4 DUP1 CALLDATASIZE SUB DUP2 ADD SWAP1 PUSH2 0xAB SWAP2 SWAP1 PUSH2 0xB31 JUMP JUMPDEST PUSH2 0x3E8 JUMP JUMPDEST PUSH1 0x40 MLOAD PUSH2 0xBD SWAP2 SWAP1 PUSH2 0xE37 JUMP JUMPDEST PUSH1 0x40 MLOAD DUP1 SWAP2 SUB SWAP1 RETURN JUMPDEST CALLVALUE DUP1 ISZERO PUSH2 0xD2 JUMPI PUSH1 0x0 DUP1 REVERT JUMPDEST POP PUSH2 0xDB PUSH2 0x669 JUMP JUMPDEST PUSH1 0x40 MLOAD PUSH2 0xE8 SWAP2 SWAP1 PUSH2 0xEAE JUMP JUMPDEST PUSH1 0x40 MLOAD DUP1 SWAP2 SUB SWAP1 RETURN JUMPDEST PUSH1 0x1 DUP2 PUSH1 0x3 DUP2 LT PUSH2 0x105 JUMPI PUSH2 0x104 PUSH2 0x11CB JUMP JUMPDEST JUMPDEST PUSH1 0xC MUL ADD PUSH1 0x0 DUP1 DUP3 ADD PUSH1 0x0 SWAP1 SSTORE PUSH1 0x1 DUP3 ADD PUSH1 0x0 SWAP1 SSTORE PUSH1 0x2 DUP3 ADD PUSH1 0x0 SWAP1 SSTORE PUSH1 0x3 DUP3 ADD PUSH1 0x0 SWAP1 SSTORE PUSH1 0x4 DUP3 ADD PUSH1 0x0 SWAP1 SSTORE PUSH1 0x5 DUP3 ADD PUSH1 0x0 SWAP1 SSTORE PUSH1 0x6 DUP3 ADD PUSH1 0x0 PUSH2 0x100 EXP DUP2 SLOAD SWAP1 PUSH20 0xFFFFFFFFFFFFFFFFFFFFFFFFFFFFFFFFFFFFFFFF MUL NOT AND SWAP1 SSTORE PUSH1 0x7 DUP3 ADD PUSH1 0x0 PUSH2 0x100 EXP DUP2 SLOAD SWAP1 PUSH20 0xFFFFFFFFFFFFFFFFFFFFFFFFFFFFFFFFFFFFFFFF MUL NOT AND SWAP1 SSTORE PUSH1 0x8 DUP3 ADD PUSH1 0x0 SWAP1 SSTORE PUSH1 0x9 DUP3 ADD PUSH1 0x0 SWAP1 SSTORE PUSH1 0xA DUP3 ADD PUSH1 0x0 SWAP1 SSTORE PUSH1 0xB DUP3 ADD PUSH1 0x0 PUSH2 0x100 EXP DUP2 SLOAD SWAP1 PUSH1 0xFF MUL NOT AND SWAP1 SSTORE POP POP POP JUMP JUMPDEST DUP4 PUSH1 0x0 JUMPDEST PUSH1 0x3 DUP2 LT ISZERO PUSH2 0x201 JUMPI DUP2 PUSH1 0x1 DUP3 PUSH1 0x3 DUP2 LT PUSH2 0x1DB JUMPI PUSH2 0x1DA PUSH2 0x11CB JUMP JUMPDEST JUMPDEST PUSH1 0xC MUL ADD PUSH1 0x0 ADD SLOAD EQ ISZERO PUSH2 0x1EE JUMPI PUSH1 0x0 DUP1 REVERT JUMPDEST DUP1 DUP1 PUSH2 0x1F9 SWAP1 PUSH2 0x1124 JUMP JUMPDEST SWAP2 POP POP PUSH2 0x1BD JUMP JUMPDEST POP PUSH1 0x0 PUSH2 0x20D DUP7 PUSH2 0x66E JUMP JUMPDEST SWAP1 POP PUSH32 0xFFFFFFFFFFFFFFFFFFFFFFFFFFFFFFFFFFFFFFFFFFFFFFFFFFFFFFFFFFFFFFFF DUP2 EQ ISZERO PUSH2 0x23D JUMPI POP PUSH2 0x3E1 JUMP JUMPDEST PUSH1 0x0 DUP2 SWAP1 POP DUP7 PUSH1 0x1 DUP3 PUSH1 0x3 DUP2 LT PUSH2 0x257 JUMPI PUSH2 0x256 PUSH2 0x11CB JUMP JUMPDEST JUMPDEST PUSH1 0xC MUL ADD PUSH1 0x0 ADD DUP2 SWAP1 SSTORE POP CALLER PUSH1 0x1 DUP3 PUSH1 0x3 DUP2 LT PUSH2 0x277 JUMPI PUSH2 0x276 PUSH2 0x11CB JUMP JUMPDEST JUMPDEST PUSH1 0xC MUL ADD PUSH1 0x7 ADD PUSH1 0x0 PUSH2 0x100 EXP DUP2 SLOAD DUP2 PUSH20 0xFFFFFFFFFFFFFFFFFFFFFFFFFFFFFFFFFFFFFFFF MUL NOT AND SWAP1 DUP4 PUSH20 0xFFFFFFFFFFFFFFFFFFFFFFFFFFFFFFFFFFFFFFFF AND MUL OR SWAP1 SSTORE POP DUP6 PUSH1 0x1 DUP3 PUSH1 0x3 DUP2 LT PUSH2 0x2D1 JUMPI PUSH2 0x2D0 PUSH2 0x11CB JUMP JUMPDEST JUMPDEST PUSH1 0xC MUL ADD PUSH1 0x8 ADD DUP2 SWAP1 SSTORE POP DUP5 PUSH1 0x1 DUP3 PUSH1 0x3 DUP2 LT PUSH2 0x2F1 JUMPI PUSH2 0x2F0 PUSH2 0x11CB JUMP JUMPDEST JUMPDEST PUSH1 0xC MUL ADD PUSH1 0x9 ADD DUP2 SWAP1 SSTORE POP TIMESTAMP PUSH1 0x1 DUP3 PUSH1 0x3 DUP2 LT PUSH2 0x311 JUMPI PUSH2 0x310 PUSH2 0x11CB JUMP JUMPDEST JUMPDEST PUSH1 0xC MUL ADD PUSH1 0x1 ADD DUP2 SWAP1 SSTORE POP PUSH1 0x5 PUSH1 0x1 DUP3 PUSH1 0x3 DUP2 LT PUSH2 0x332 JUMPI PUSH2 0x331 PUSH2 0x11CB JUMP JUMPDEST JUMPDEST PUSH1 0xC MUL ADD PUSH1 0xA ADD DUP2 SWAP1 SSTORE POP DUP4 PUSH1 0x1 DUP3 PUSH1 0x3 DUP2 LT PUSH2 0x352 JUMPI PUSH2 0x351 PUSH2 0x11CB JUMP JUMPDEST JUMPDEST PUSH1 0xC MUL ADD PUSH1 0x5 ADD DUP2 SWAP1 SSTORE POP PUSH2 0x366 DUP2 PUSH2 0x74A JUMP JUMPDEST PUSH32 0xA11993EB95384E356B03388262D2842238F11010690C653232A9DA617FA92360 DUP8 DUP8 DUP8 PUSH1 0x1 DUP6 PUSH1 0x3 DUP2 LT PUSH2 0x39E JUMPI PUSH2 0x39D PUSH2 0x11CB JUMP JUMPDEST JUMPDEST PUSH1 0xC MUL ADD PUSH1 0x7 ADD PUSH1 0x0 SWAP1 SLOAD SWAP1 PUSH2 0x100 EXP SWAP1 DIV PUSH20 0xFFFFFFFFFFFFFFFFFFFFFFFFFFFFFFFFFFFFFFFF AND PUSH1 0x40 MLOAD PUSH2 0x3D6 SWAP5 SWAP4 SWAP3 SWAP2 SWAP1 PUSH2 0xEC9 JUMP JUMPDEST PUSH1 0x40 MLOAD DUP1 SWAP2 SUB SWAP1 LOG1 POP POP JUMPDEST POP POP POP POP POP JUMP JUMPDEST PUSH1 0x0 DUP1 DUP3 EQ ISZERO PUSH2 0x3F7 JUMPI PUSH1 0x0 DUP1 REVERT JUMPDEST PUSH1 0x0 PUSH2 0x402 DUP4 PUSH2 0x7F7 JUMP JUMPDEST SWAP1 POP PUSH32 0xFFFFFFFFFFFFFFFFFFFFFFFFFFFFFFFFFFFFFFFFFFFFFFFFFFFFFFFFFFFFFFFF DUP2 EQ ISZERO PUSH2 0x467 JUMPI PUSH1 0x40 MLOAD PUSH32 0x8C379A000000000000000000000000000000000000000000000000000000000 DUP2 MSTORE PUSH1 0x4 ADD PUSH2 0x45E SWAP1 PUSH2 0xE52 JUMP JUMPDEST PUSH1 0x40 MLOAD DUP1 SWAP2 SUB SWAP1 REVERT JUMPDEST PUSH1 0x0 DUP2 SWAP1 POP PUSH2 0x475 DUP2 PUSH2 0x871 JUMP JUMPDEST ISZERO PUSH2 0x485 JUMPI PUSH1 0x0 SWAP3 POP POP POP PUSH2 0x664 JUMP JUMPDEST PUSH1 0x1 DUP2 PUSH1 0x3 DUP2 LT PUSH2 0x499 JUMPI PUSH2 0x498 PUSH2 0x11CB JUMP JUMPDEST JUMPDEST PUSH1 0xC MUL ADD PUSH1 0x5 ADD SLOAD CALLVALUE LT ISZERO PUSH2 0x4E3 JUMPI PUSH1 0x40 MLOAD PUSH32 0x8C379A000000000000000000000000000000000000000000000000000000000 DUP2 MSTORE PUSH1 0x4 ADD PUSH2 0x4DA SWAP1 PUSH2 0xE72 JUMP JUMPDEST PUSH1 0x40 MLOAD DUP1 SWAP2 SUB SWAP1 REVERT JUMPDEST PUSH1 0x0 PUSH20 0xFFFFFFFFFFFFFFFFFFFFFFFFFFFFFFFFFFFFFFFF AND PUSH1 0x1 DUP3 PUSH1 0x3 DUP2 LT PUSH2 0x50F JUMPI PUSH2 0x50E PUSH2 0x11CB JUMP JUMPDEST JUMPDEST PUSH1 0xC MUL ADD PUSH1 0x6 ADD PUSH1 0x0 SWAP1 SLOAD SWAP1 PUSH2 0x100 EXP SWAP1 DIV PUSH20 0xFFFFFFFFFFFFFFFFFFFFFFFFFFFFFFFFFFFFFFFF AND PUSH20 0xFFFFFFFFFFFFFFFFFFFFFFFFFFFFFFFFFFFFFFFF AND EQ PUSH2 0x5F0 JUMPI PUSH1 0x1 DUP2 PUSH1 0x3 DUP2 LT PUSH2 0x566 JUMPI PUSH2 0x565 PUSH2 0x11CB JUMP JUMPDEST JUMPDEST PUSH1 0xC MUL ADD PUSH1 0x6 ADD PUSH1 0x0 SWAP1 SLOAD SWAP1 PUSH2 0x100 EXP SWAP1 DIV PUSH20 0xFFFFFFFFFFFFFFFFFFFFFFFFFFFFFFFFFFFFFFFF AND PUSH20 0xFFFFFFFFFFFFFFFFFFFFFFFFFFFFFFFFFFFFFFFF AND PUSH2 0x8FC PUSH1 0x1 DUP4 PUSH1 0x3 DUP2 LT PUSH2 0x5BB JUMPI PUSH2 0x5BA PUSH2 0x11CB JUMP JUMPDEST JUMPDEST PUSH1 0xC MUL ADD PUSH1 0x4 ADD SLOAD SWAP1 DUP2 ISZERO MUL SWAP1 PUSH1 0x40 MLOAD PUSH1 0x0 PUSH1 0x40 MLOAD DUP1 DUP4 SUB DUP2 DUP6 DUP9 DUP9 CALL SWAP4 POP POP POP POP ISZERO DUP1 ISZERO PUSH2 0x5EE JUMPI RETURNDATASIZE PUSH1 0x0 DUP1 RETURNDATACOPY RETURNDATASIZE PUSH1 0x0 REVERT JUMPDEST POP JUMPDEST CALLER PUSH1 0x1 DUP3 PUSH1 0x3 DUP2 LT PUSH2 0x605 JUMPI PUSH2 0x604 PUSH2 0x11CB JUMP JUMPDEST JUMPDEST PUSH1 0xC MUL ADD PUSH1 0x6 ADD PUSH1 0x0 PUSH2 0x100 EXP DUP2 SLOAD DUP2 PUSH20 0xFFFFFFFFFFFFFFFFFFFFFFFFFFFFFFFFFFFFFFFF MUL NOT AND SWAP1 DUP4 PUSH20 0xFFFFFFFFFFFFFFFFFFFFFFFFFFFFFFFFFFFFFFFF AND MUL OR SWAP1 SSTORE POP PUSH2 0x654 DUP2 CALLVALUE PUSH2 0x8E3 JUMP JUMPDEST PUSH2 0x65D DUP2 PUSH2 0x74A JUMP JUMPDEST PUSH1 0x1 SWAP3 POP POP POP JUMPDEST SWAP2 SWAP1 POP JUMP JUMPDEST PUSH1 0x3 DUP2 JUMP JUMPDEST PUSH1 0x0 DUP1 PUSH1 0x0 SWAP1 POP JUMPDEST PUSH1 0x3 DUP2 LT ISZERO PUSH2 0x69C JUMPI PUSH2 0x688 DUP2 PUSH2 0x871 JUMP JUMPDEST POP DUP1 DUP1 PUSH2 0x694 SWAP1 PUSH2 0x1124 JUMP JUMPDEST SWAP2 POP POP PUSH2 0x676 JUMP JUMPDEST POP PUSH1 0x0 JUMPDEST PUSH1 0x3 DUP2 LT ISZERO PUSH2 0x6E9 JUMPI PUSH1 0x0 PUSH1 0x1 DUP3 PUSH1 0x3 DUP2 LT PUSH2 0x6BF JUMPI PUSH2 0x6BE PUSH2 0x11CB JUMP JUMPDEST JUMPDEST PUSH1 0xC MUL ADD PUSH1 0x2 ADD SLOAD EQ ISZERO PUSH2 0x6D6 JUMPI DUP1 SWAP2 POP POP PUSH2 0x745 JUMP JUMPDEST DUP1 DUP1 PUSH2 0x6E1 SWAP1 PUSH2 0x1124 JUMP JUMPDEST SWAP2 POP POP PUSH2 0x6A0 JUMP JUMPDEST POP PUSH32 0x85B3529207DD89841FA3DB816F8978CC3E132C92559D4F082F7DABCE026AA634 DUP3 PUSH1 0x40 MLOAD PUSH2 0x719 SWAP2 SWAP1 PUSH2 0xEAE JUMP JUMPDEST PUSH1 0x40 MLOAD DUP1 SWAP2 SUB SWAP1 LOG1 PUSH32 0xFFFFFFFFFFFFFFFFFFFFFFFFFFFFFFFFFFFFFFFFFFFFFFFFFFFFFFFFFFFFFFFF SWAP1 POP JUMPDEST SWAP2 SWAP1 POP JUMP JUMPDEST PUSH20 0x0 PUSH4 0x2238B73A TIMESTAMP PUSH1 0x0 SLOAD PUSH1 0x40 MLOAD DUP4 PUSH4 0xFFFFFFFF AND PUSH1 0xE0 SHL DUP2 MSTORE PUSH1 0x4 ADD PUSH2 0x785 SWAP3 SWAP2 SWAP1 PUSH2 0xF0E JUMP JUMPDEST PUSH1 0x20 PUSH1 0x40 MLOAD DUP1 DUP4 SUB DUP2 DUP7 DUP1 EXTCODESIZE ISZERO DUP1 ISZERO PUSH2 0x79D JUMPI PUSH1 0x0 DUP1 REVERT JUMPDEST POP GAS DELEGATECALL ISZERO DUP1 ISZERO PUSH2 0x7B1 JUMPI RETURNDATASIZE PUSH1 0x0 DUP1 RETURNDATACOPY RETURNDATASIZE PUSH1 0x0 REVERT JUMPDEST POP POP POP POP PUSH1 0x40 MLOAD RETURNDATASIZE PUSH1 0x1F NOT PUSH1 0x1F DUP3 ADD AND DUP3 ADD DUP1 PUSH1 0x40 MSTORE POP DUP2 ADD SWAP1 PUSH2 0x7D5 SWAP2 SWAP1 PUSH2 0xB5E JUMP JUMPDEST PUSH1 0x1 DUP3 PUSH1 0x3 DUP2 LT PUSH2 0x7E9 JUMPI PUSH2 0x7E8 PUSH2 0x11CB JUMP JUMPDEST JUMPDEST PUSH1 0xC MUL ADD PUSH1 0x2 ADD DUP2 SWAP1 SSTORE POP POP JUMP JUMPDEST PUSH1 0x0 DUP1 PUSH1 0x0 SWAP1 POP JUMPDEST PUSH1 0x3 DUP2 LT ISZERO PUSH2 0x847 JUMPI DUP3 PUSH1 0x1 DUP3 PUSH1 0x3 DUP2 LT PUSH2 0x81D JUMPI PUSH2 0x81C PUSH2 0x11CB JUMP JUMPDEST JUMPDEST PUSH1 0xC MUL ADD PUSH1 0x0 ADD SLOAD EQ ISZERO PUSH2 0x834 JUMPI DUP1 SWAP2 POP POP PUSH2 0x86C JUMP JUMPDEST DUP1 DUP1 PUSH2 0x83F SWAP1 PUSH2 0x1124 JUMP JUMPDEST SWAP2 POP POP PUSH2 0x7FF JUMP JUMPDEST POP PUSH32 0xFFFFFFFFFFFFFFFFFFFFFFFFFFFFFFFFFFFFFFFFFFFFFFFFFFFFFFFFFFFFFFFF SWAP1 POP JUMPDEST SWAP2 SWAP1 POP JUMP JUMPDEST PUSH1 0x0 PUSH1 0x1 DUP3 PUSH1 0x3 DUP2 LT PUSH2 0x887 JUMPI PUSH2 0x886 PUSH2 0x11CB JUMP JUMPDEST JUMPDEST PUSH1 0xC MUL ADD PUSH1 0x2 ADD SLOAD TIMESTAMP GT DUP1 ISZERO PUSH2 0x8B9 JUMPI POP PUSH1 0x0 PUSH1 0x1 DUP4 PUSH1 0x3 DUP2 LT PUSH2 0x8AE JUMPI PUSH2 0x8AD PUSH2 0x11CB JUMP JUMPDEST JUMPDEST PUSH1 0xC MUL ADD PUSH1 0x2 ADD SLOAD EQ ISZERO JUMPDEST ISZERO PUSH2 0x8D9 JUMPI PUSH2 0x8C7 DUP3 PUSH2 0x964 JUMP JUMPDEST PUSH2 0x8D0 DUP3 PUSH2 0xF1 JUMP JUMPDEST PUSH1 0x1 SWAP1 POP PUSH2 0x8DE JUMP JUMPDEST PUSH1 0x0 SWAP1 POP JUMPDEST SWAP2 SWAP1 POP JUMP JUMPDEST DUP1 PUSH1 0x1 DUP4 PUSH1 0x3 DUP2 LT PUSH2 0x8F8 JUMPI PUSH2 0x8F7 PUSH2 0x11CB JUMP JUMPDEST JUMPDEST PUSH1 0xC MUL ADD PUSH1 0x4 ADD DUP2 SWAP1 SSTORE POP PUSH1 0x1 DUP3 PUSH1 0x3 DUP2 LT PUSH2 0x917 JUMPI PUSH2 0x916 PUSH2 0x11CB JUMP JUMPDEST JUMPDEST PUSH1 0xC MUL ADD PUSH1 0xA ADD SLOAD PUSH1 0x64 DUP3 PUSH2 0x92C SWAP2 SWAP1 PUSH2 0xF9E JUMP JUMPDEST PUSH2 0x936 SWAP2 SWAP1 PUSH2 0xFCF JUMP JUMPDEST DUP2 PUSH2 0x941 SWAP2 SWAP1 PUSH2 0xF48 JUMP JUMPDEST PUSH1 0x1 DUP4 PUSH1 0x3 DUP2 LT PUSH2 0x955 JUMPI PUSH2 0x954 PUSH2 0x11CB JUMP JUMPDEST JUMPDEST PUSH1 0xC MUL ADD PUSH1 0x5 ADD DUP2 SWAP1 SSTORE POP POP POP JUMP JUMPDEST PUSH1 0x0 PUSH20 0xFFFFFFFFFFFFFFFFFFFFFFFFFFFFFFFFFFFFFFFF AND PUSH1 0x1 DUP3 PUSH1 0x3 DUP2 LT PUSH2 0x990 JUMPI PUSH2 0x98F PUSH2 0x11CB JUMP JUMPDEST JUMPDEST PUSH1 0xC MUL ADD PUSH1 0x6 ADD PUSH1 0x0 SWAP1 SLOAD SWAP1 PUSH2 0x100 EXP SWAP1 DIV PUSH20 0xFFFFFFFFFFFFFFFFFFFFFFFFFFFFFFFFFFFFFFFF AND PUSH20 0xFFFFFFFFFFFFFFFFFFFFFFFFFFFFFFFFFFFFFFFF AND EQ PUSH2 0xA71 JUMPI PUSH1 0x1 DUP2 PUSH1 0x3 DUP2 LT PUSH2 0x9E7 JUMPI PUSH2 0x9E6 PUSH2 0x11CB JUMP JUMPDEST JUMPDEST PUSH1 0xC MUL ADD PUSH1 0x7 ADD PUSH1 0x0 SWAP1 SLOAD SWAP1 PUSH2 0x100 EXP SWAP1 DIV PUSH20 0xFFFFFFFFFFFFFFFFFFFFFFFFFFFFFFFFFFFFFFFF AND PUSH20 0xFFFFFFFFFFFFFFFFFFFFFFFFFFFFFFFFFFFFFFFF AND PUSH2 0x8FC PUSH1 0x1 DUP4 PUSH1 0x3 DUP2 LT PUSH2 0xA3C JUMPI PUSH2 0xA3B PUSH2 0x11CB JUMP JUMPDEST JUMPDEST PUSH1 0xC MUL ADD PUSH1 0x4 ADD SLOAD SWAP1 DUP2 ISZERO MUL SWAP1 PUSH1 0x40 MLOAD PUSH1 0x0 PUSH1 0x40 MLOAD DUP1 DUP4 SUB DUP2 DUP6 DUP9 DUP9 CALL SWAP4 POP POP POP POP ISZERO DUP1 ISZERO PUSH2 0xA6F JUMPI RETURNDATASIZE PUSH1 0x0 DUP1 RETURNDATACOPY RETURNDATASIZE PUSH1 0x0 REVERT JUMPDEST POP JUMPDEST PUSH20 0x0 PUSH4 0xA964DAEB PUSH1 0x1 DUP4 PUSH1 0x3 DUP2 LT PUSH2 0xA9F JUMPI PUSH2 0xA9E PUSH2 0x11CB JUMP JUMPDEST JUMPDEST PUSH1 0xC MUL ADD PUSH1 0x40 MLOAD DUP3 PUSH4 0xFFFFFFFF AND PUSH1 0xE0 SHL DUP2 MSTORE PUSH1 0x4 ADD PUSH2 0xABF SWAP2 SWAP1 PUSH2 0xE92 JUMP JUMPDEST PUSH1 0x0 PUSH1 0x40 MLOAD DUP1 DUP4 SUB DUP2 DUP7 DUP1 EXTCODESIZE ISZERO DUP1 ISZERO PUSH2 0xAD7 JUMPI PUSH1 0x0 DUP1 REVERT JUMPDEST POP GAS DELEGATECALL ISZERO DUP1 ISZERO PUSH2 0xAEB JUMPI RETURNDATASIZE PUSH1 0x0 DUP1 RETURNDATACOPY RETURNDATASIZE PUSH1 0x0 REVERT JUMPDEST POP POP POP POP POP JUMP JUMPDEST PUSH1 0x0 DUP2 CALLDATALOAD SWAP1 POP PUSH2 0xB01 DUP2 PUSH2 0x125E JUMP JUMPDEST SWAP3 SWAP2 POP POP JUMP JUMPDEST PUSH1 0x0 DUP2 CALLDATALOAD SWAP1 POP PUSH2 0xB16 DUP2 PUSH2 0x1275 JUMP JUMPDEST SWAP3 SWAP2 POP POP JUMP JUMPDEST PUSH1 0x0 DUP2 MLOAD SWAP1 POP PUSH2 0xB2B DUP2 PUSH2 0x1275 JUMP JUMPDEST SWAP3 SWAP2 POP POP JUMP JUMPDEST PUSH1 0x0 PUSH1 0x20 DUP3 DUP5 SUB SLT ISZERO PUSH2 0xB47 JUMPI PUSH2 0xB46 PUSH2 0x11FA JUMP JUMPDEST JUMPDEST PUSH1 0x0 PUSH2 0xB55 DUP5 DUP3 DUP6 ADD PUSH2 0xB07 JUMP JUMPDEST SWAP2 POP POP SWAP3 SWAP2 POP POP JUMP JUMPDEST PUSH1 0x0 PUSH1 0x20 DUP3 DUP5 SUB SLT ISZERO PUSH2 0xB74 JUMPI PUSH2 0xB73 PUSH2 0x11FA JUMP JUMPDEST JUMPDEST PUSH1 0x0 PUSH2 0xB82 DUP5 DUP3 DUP6 ADD PUSH2 0xB1C JUMP JUMPDEST SWAP2 POP POP SWAP3 SWAP2 POP POP JUMP JUMPDEST PUSH1 0x0 DUP1 PUSH1 0x0 DUP1 PUSH1 0x80 DUP6 DUP8 SUB SLT ISZERO PUSH2 0xBA5 JUMPI PUSH2 0xBA4 PUSH2 0x11FA JUMP JUMPDEST JUMPDEST PUSH1 0x0 PUSH2 0xBB3 DUP8 DUP3 DUP9 ADD PUSH2 0xB07 JUMP JUMPDEST SWAP5 POP POP PUSH1 0x20 PUSH2 0xBC4 DUP8 DUP3 DUP9 ADD PUSH2 0xAF2 JUMP JUMPDEST SWAP4 POP POP PUSH1 0x40 PUSH2 0xBD5 DUP8 DUP3 DUP9 ADD PUSH2 0xAF2 JUMP JUMPDEST SWAP3 POP POP PUSH1 0x60 PUSH2 0xBE6 DUP8 DUP3 DUP9 ADD PUSH2 0xB07 JUMP JUMPDEST SWAP2 POP POP SWAP3 SWAP6 SWAP2 SWAP5 POP SWAP3 POP JUMP JUMPDEST PUSH2 0xBFB DUP2 PUSH2 0x106A JUMP JUMPDEST DUP3 MSTORE POP POP JUMP JUMPDEST PUSH2 0xC0A DUP2 PUSH2 0x106A JUMP JUMPDEST DUP3 MSTORE POP POP JUMP JUMPDEST PUSH2 0xC19 DUP2 PUSH2 0x107C JUMP JUMPDEST DUP3 MSTORE POP POP JUMP JUMPDEST PUSH2 0xC28 DUP2 PUSH2 0x107C JUMP JUMPDEST DUP3 MSTORE POP POP JUMP JUMPDEST PUSH2 0xC37 DUP2 PUSH2 0x1088 JUMP JUMPDEST DUP3 MSTORE POP POP JUMP JUMPDEST PUSH2 0xC46 DUP2 PUSH2 0x1088 JUMP JUMPDEST DUP3 MSTORE POP POP JUMP JUMPDEST PUSH1 0x0 PUSH2 0xC59 PUSH1 0xD DUP4 PUSH2 0xF37 JUMP JUMPDEST SWAP2 POP PUSH2 0xC64 DUP3 PUSH2 0x120C JUMP JUMPDEST PUSH1 0x20 DUP3 ADD SWAP1 POP SWAP2 SWAP1 POP JUMP JUMPDEST PUSH1 0x0 PUSH2 0xC7C PUSH1 0x12 DUP4 PUSH2 0xF37 JUMP JUMPDEST SWAP2 POP PUSH2 0xC87 DUP3 PUSH2 0x1235 JUMP JUMPDEST PUSH1 0x20 DUP3 ADD SWAP1 POP SWAP2 SWAP1 POP JUMP JUMPDEST PUSH2 0x180 DUP3 ADD PUSH1 0x0 DUP1 DUP4 ADD SLOAD SWAP1 POP PUSH2 0xCA8 DUP2 PUSH2 0x110A JUMP JUMPDEST PUSH2 0xCB5 PUSH1 0x0 DUP7 ADD DUP3 PUSH2 0xE28 JUMP JUMPDEST POP PUSH1 0x1 DUP4 ADD SLOAD SWAP1 POP PUSH2 0xCC6 DUP2 PUSH2 0x110A JUMP JUMPDEST PUSH2 0xCD3 PUSH1 0x20 DUP7 ADD DUP3 PUSH2 0xE28 JUMP JUMPDEST POP PUSH1 0x2 DUP4 ADD SLOAD SWAP1 POP PUSH2 0xCE4 DUP2 PUSH2 0x110A JUMP JUMPDEST PUSH2 0xCF1 PUSH1 0x40 DUP7 ADD DUP3 PUSH2 0xE28 JUMP JUMPDEST POP PUSH1 0x3 DUP4 ADD SLOAD SWAP1 POP PUSH2 0xD02 DUP2 PUSH2 0x110A JUMP JUMPDEST PUSH2 0xD0F PUSH1 0x60 DUP7 ADD DUP3 PUSH2 0xE28 JUMP JUMPDEST POP PUSH1 0x4 DUP4 ADD SLOAD SWAP1 POP PUSH2 0xD20 DUP2 PUSH2 0x110A JUMP JUMPDEST PUSH2 0xD2D PUSH1 0x80 DUP7 ADD DUP3 PUSH2 0xE28 JUMP JUMPDEST POP PUSH1 0x5 DUP4 ADD SLOAD SWAP1 POP PUSH2 0xD3E DUP2 PUSH2 0x110A JUMP JUMPDEST PUSH2 0xD4B PUSH1 0xA0 DUP7 ADD DUP3 PUSH2 0xE28 JUMP JUMPDEST POP PUSH1 0x6 DUP4 ADD SLOAD SWAP1 POP PUSH2 0xD5C DUP2 PUSH2 0x10BC JUMP JUMPDEST PUSH2 0xD69 PUSH1 0xC0 DUP7 ADD DUP3 PUSH2 0xC01 JUMP JUMPDEST POP PUSH1 0x7 DUP4 ADD SLOAD SWAP1 POP PUSH2 0xD7A DUP2 PUSH2 0x10BC JUMP JUMPDEST PUSH2 0xD87 PUSH1 0xE0 DUP7 ADD DUP3 PUSH2 0xC01 JUMP JUMPDEST POP PUSH1 0x8 DUP4 ADD SLOAD SWAP1 POP PUSH2 0xD98 DUP2 PUSH2 0x10F0 JUMP JUMPDEST PUSH2 0xDA6 PUSH2 0x100 DUP7 ADD DUP3 PUSH2 0xC3D JUMP JUMPDEST POP PUSH1 0x9 DUP4 ADD SLOAD SWAP1 POP PUSH2 0xDB7 DUP2 PUSH2 0x10F0 JUMP JUMPDEST PUSH2 0xDC5 PUSH2 0x120 DUP7 ADD DUP3 PUSH2 0xC3D JUMP JUMPDEST POP PUSH1 0xA DUP4 ADD SLOAD SWAP1 POP PUSH2 0xDD6 DUP2 PUSH2 0x110A JUMP JUMPDEST PUSH2 0xDE4 PUSH2 0x140 DUP7 ADD DUP3 PUSH2 0xE28 JUMP JUMPDEST POP PUSH1 0xB DUP4 ADD SLOAD SWAP1 POP PUSH2 0xDF5 DUP2 PUSH2 0x10D6 JUMP JUMPDEST PUSH2 0xE03 PUSH2 0x160 DUP7 ADD DUP3 PUSH2 0xC1F JUMP JUMPDEST POP POP POP POP POP JUMP JUMPDEST PUSH2 0xE13 DUP2 PUSH2 0x10B2 JUMP JUMPDEST DUP3 MSTORE POP POP JUMP JUMPDEST PUSH2 0xE22 DUP2 PUSH2 0x10B2 JUMP JUMPDEST DUP3 MSTORE POP POP JUMP JUMPDEST PUSH2 0xE31 DUP2 PUSH2 0x10B2 JUMP JUMPDEST DUP3 MSTORE POP POP JUMP JUMPDEST PUSH1 0x0 PUSH1 0x20 DUP3 ADD SWAP1 POP PUSH2 0xE4C PUSH1 0x0 DUP4 ADD DUP5 PUSH2 0xC10 JUMP JUMPDEST SWAP3 SWAP2 POP POP JUMP JUMPDEST PUSH1 0x0 PUSH1 0x20 DUP3 ADD SWAP1 POP DUP2 DUP2 SUB PUSH1 0x0 DUP4 ADD MSTORE PUSH2 0xE6B DUP2 PUSH2 0xC4C JUMP JUMPDEST SWAP1 POP SWAP2 SWAP1 POP JUMP JUMPDEST PUSH1 0x0 PUSH1 0x20 DUP3 ADD SWAP1 POP DUP2 DUP2 SUB PUSH1 0x0 DUP4 ADD MSTORE PUSH2 0xE8B DUP2 PUSH2 0xC6F JUMP JUMPDEST SWAP1 POP SWAP2 SWAP1 POP JUMP JUMPDEST PUSH1 0x0 PUSH2 0x180 DUP3 ADD SWAP1 POP PUSH2 0xEA8 PUSH1 0x0 DUP4 ADD DUP5 PUSH2 0xC92 JUMP JUMPDEST SWAP3 SWAP2 POP POP JUMP JUMPDEST PUSH1 0x0 PUSH1 0x20 DUP3 ADD SWAP1 POP PUSH2 0xEC3 PUSH1 0x0 DUP4 ADD DUP5 PUSH2 0xE0A JUMP JUMPDEST SWAP3 SWAP2 POP POP JUMP JUMPDEST PUSH1 0x0 PUSH1 0x80 DUP3 ADD SWAP1 POP PUSH2 0xEDE PUSH1 0x0 DUP4 ADD DUP8 PUSH2 0xE0A JUMP JUMPDEST PUSH2 0xEEB PUSH1 0x20 DUP4 ADD DUP7 PUSH2 0xC2E JUMP JUMPDEST PUSH2 0xEF8 PUSH1 0x40 DUP4 ADD DUP6 PUSH2 0xC2E JUMP JUMPDEST PUSH2 0xF05 PUSH1 0x60 DUP4 ADD DUP5 PUSH2 0xBF2 JUMP JUMPDEST SWAP6 SWAP5 POP POP POP POP POP JUMP JUMPDEST PUSH1 0x0 PUSH1 0x40 DUP3 ADD SWAP1 POP PUSH2 0xF23 PUSH1 0x0 DUP4 ADD DUP6 PUSH2 0xE19 JUMP JUMPDEST PUSH2 0xF30 PUSH1 0x20 DUP4 ADD DUP5 PUSH2 0xE19 JUMP JUMPDEST SWAP4 SWAP3 POP POP POP JUMP JUMPDEST PUSH1 0x0 DUP3 DUP3 MSTORE PUSH1 0x20 DUP3 ADD SWAP1 POP SWAP3 SWAP2 POP POP JUMP JUMPDEST PUSH1 0x0 PUSH2 0xF53 DUP3 PUSH2 0x10B2 JUMP JUMPDEST SWAP2 POP PUSH2 0xF5E DUP4 PUSH2 0x10B2 JUMP JUMPDEST SWAP3 POP DUP3 PUSH32 0xFFFFFFFFFFFFFFFFFFFFFFFFFFFFFFFFFFFFFFFFFFFFFFFFFFFFFFFFFFFFFFFF SUB DUP3 GT ISZERO PUSH2 0xF93 JUMPI PUSH2 0xF92 PUSH2 0x116D JUMP JUMPDEST JUMPDEST DUP3 DUP3 ADD SWAP1 POP SWAP3 SWAP2 POP POP JUMP JUMPDEST PUSH1 0x0 PUSH2 0xFA9 DUP3 PUSH2 0x10B2 JUMP JUMPDEST SWAP2 POP PUSH2 0xFB4 DUP4 PUSH2 0x10B2 JUMP JUMPDEST SWAP3 POP DUP3 PUSH2 0xFC4 JUMPI PUSH2 0xFC3 PUSH2 0x119C JUMP JUMPDEST JUMPDEST DUP3 DUP3 DIV SWAP1 POP SWAP3 SWAP2 POP POP JUMP JUMPDEST PUSH1 0x0 PUSH2 0xFDA DUP3 PUSH2 0x10B2 JUMP JUMPDEST SWAP2 POP PUSH2 0xFE5 DUP4 PUSH2 0x10B2 JUMP JUMPDEST SWAP3 POP DUP2 PUSH32 0xFFFFFFFFFFFFFFFFFFFFFFFFFFFFFFFFFFFFFFFFFFFFFFFFFFFFFFFFFFFFFFFF DIV DUP4 GT DUP3 ISZERO ISZERO AND ISZERO PUSH2 0x101E JUMPI PUSH2 0x101D PUSH2 0x116D JUMP JUMPDEST JUMPDEST DUP3 DUP3 MUL SWAP1 POP SWAP3 SWAP2 POP POP JUMP JUMPDEST PUSH1 0x0 PUSH20 0xFFFFFFFFFFFFFFFFFFFFFFFFFFFFFFFFFFFFFFFF DUP3 AND SWAP1 POP SWAP2 SWAP1 POP JUMP JUMPDEST PUSH1 0x0 PUSH1 0xFF DUP3 AND SWAP1 POP SWAP2 SWAP1 POP JUMP JUMPDEST PUSH1 0x0 DUP2 SWAP1 POP SWAP2 SWAP1 POP JUMP JUMPDEST PUSH1 0x0 DUP2 SWAP1 POP SWAP2 SWAP1 POP JUMP JUMPDEST PUSH1 0x0 PUSH2 0x1075 DUP3 PUSH2 0x1092 JUMP JUMPDEST SWAP1 POP SWAP2 SWAP1 POP JUMP JUMPDEST PUSH1 0x0 DUP2 ISZERO ISZERO SWAP1 POP SWAP2 SWAP1 POP JUMP JUMPDEST PUSH1 0x0 DUP2 SWAP1 POP SWAP2 SWAP1 POP JUMP JUMPDEST PUSH1 0x0 PUSH20 0xFFFFFFFFFFFFFFFFFFFFFFFFFFFFFFFFFFFFFFFF DUP3 AND SWAP1 POP SWAP2 SWAP1 POP JUMP JUMPDEST PUSH1 0x0 DUP2 SWAP1 POP SWAP2 SWAP1 POP JUMP JUMPDEST PUSH1 0x0 PUSH2 0x10CF PUSH2 0x10CA DUP4 PUSH2 0x11FF JUMP JUMPDEST PUSH2 0x1029 JUMP JUMPDEST SWAP1 POP SWAP2 SWAP1 POP JUMP JUMPDEST PUSH1 0x0 PUSH2 0x10E9 PUSH2 0x10E4 DUP4 PUSH2 0x11FF JUMP JUMPDEST PUSH2 0x1049 JUMP JUMPDEST SWAP1 POP SWAP2 SWAP1 POP JUMP JUMPDEST PUSH1 0x0 PUSH2 0x1103 PUSH2 0x10FE DUP4 PUSH2 0x11FF JUMP JUMPDEST PUSH2 0x1056 JUMP JUMPDEST SWAP1 POP SWAP2 SWAP1 POP JUMP JUMPDEST PUSH1 0x0 PUSH2 0x111D PUSH2 0x1118 DUP4 PUSH2 0x11FF JUMP JUMPDEST PUSH2 0x1060 JUMP JUMPDEST SWAP1 POP SWAP2 SWAP1 POP JUMP JUMPDEST PUSH1 0x0 PUSH2 0x112F DUP3 PUSH2 0x10B2 JUMP JUMPDEST SWAP2 POP PUSH32 0xFFFFFFFFFFFFFFFFFFFFFFFFFFFFFFFFFFFFFFFFFFFFFFFFFFFFFFFFFFFFFFFF DUP3 EQ ISZERO PUSH2 0x1162 JUMPI PUSH2 0x1161 PUSH2 0x116D JUMP JUMPDEST JUMPDEST PUSH1 0x1 DUP3 ADD SWAP1 POP SWAP2 SWAP1 POP JUMP JUMPDEST PUSH32 0x4E487B7100000000000000000000000000000000000000000000000000000000 PUSH1 0x0 MSTORE PUSH1 0x11 PUSH1 0x4 MSTORE PUSH1 0x24 PUSH1 0x0 REVERT JUMPDEST PUSH32 0x4E487B7100000000000000000000000000000000000000000000000000000000 PUSH1 0x0 MSTORE PUSH1 0x12 PUSH1 0x4 MSTORE PUSH1 0x24 PUSH1 0x0 REVERT JUMPDEST PUSH32 0x4E487B7100000000000000000000000000000000000000000000000000000000 PUSH1 0x0 MSTORE PUSH1 0x32 PUSH1 0x4 MSTORE PUSH1 0x24 PUSH1 0x0 REVERT JUMPDEST PUSH1 0x0 DUP1 REVERT JUMPDEST PUSH1 0x0 DUP2 PUSH1 0x0 SHR SWAP1 POP SWAP2 SWAP1 POP JUMP JUMPDEST PUSH32 0x556B6E6F776E2068617368496400000000000000000000000000000000000000 PUSH1 0x0 DUP3 ADD MSTORE POP JUMP JUMPDEST PUSH32 0x56616C756520697320696E636F72726563740000000000000000000000000000 PUSH1 0x0 DUP3 ADD MSTORE POP JUMP JUMPDEST PUSH2 0x1267 DUP2 PUSH2 0x1088 JUMP JUMPDEST DUP2 EQ PUSH2 0x1272 JUMPI PUSH1 0x0 DUP1 REVERT JUMPDEST POP JUMP JUMPDEST PUSH2 0x127E DUP2 PUSH2 0x10B2 JUMP JUMPDEST DUP2 EQ PUSH2 0x1289 JUMPI PUSH1 0x0 DUP1 REVERT JUMPDEST POP JUMP INVALID LOG2 PUSH5 0x6970667358 0x22 SLT KECCAK256 SWAP9 0xC2 SLT SWAP4 0x24 0xBB PUSH5 0x22AB44712B SHL MOD DUP4 CALL GT 0xD0 0xEA 0x5D 0xC1 PUSH15 0x6469DA0E9E1B25BF267564736F6C63 NUMBER STOP ADDMOD SMOD STOP CALLER "},"methodIdentifiers":{"QUEUE_COUNT()":"f7208c9c","_clearProp(uint256)":"6e120dcb","buyItem(uint256)":"e7fb74c7","createBidding(uint256,bytes32,bytes32,uint256)":"73260329"}}}}}