{"contracts/MilkaSingleBidding.sol":{"MilkaSingleBidding":{"abi":[{"inputs":[{"internalType":"bytes32","name":"title","type":"bytes32"},{"internalType":"bytes32","name":"description","type":"bytes32"},{"internalType":"uint256","name":"minValue","type":"uint256"},{"internalType":"uint256","name":"minTime","type":"uint256"},{"internalType":"uint256","name":"maxTime","type":"uint256"},{"internalType":"uint256","name":"addityProcent","type":"uint256"}],"stateMutability":"nonpayable","type":"constructor"},{"inputs":[],"name":"buyItem","outputs":[{"internalType":"bool","name":"","type":"bool"}],"stateMutability":"payable","type":"function"}],"evm":{"bytecode":{"linkReferences":{"contracts/MilkaBiddingUtils.sol":{"MilkaBiddingUtils":[{"length":20,"start":580},{"length":20,"start":2462},{"length":20,"start":2847}]}},"object":"6080604052620151806000556102586001553480156200001e57600080fd5b50604051620011b1380380620011b183398181016040528101906200004491906200030e565b818311156200008a576040517f08c379a0000000000000000000000000000000000000000000000000000000008152600401620000819062000447565b60405180910390fd5b33600260070160006101000a81548173ffffffffffffffffffffffffffffffffffffffff021916908373ffffffffffffffffffffffffffffffffffffffff160217905550856002600801819055508460026009018190555042600260010181905550806002600a018190555083600260050181905550600082146200011157816000819055505b600083146200012257826001819055505b600154600e600101819055506200013e620001c860201b60201c565b600260030181905550620001576200024260201b60201c565b7fa11993eb95384e356b03388262d2842238f11010690c653232a9da617fa9236060008787600260070160009054906101000a900473ffffffffffffffffffffffffffffffffffffffff16604051620001b4949392919062000469565b60405180910390a15050505050506200068b565b600080600e6000015490506000600e60010154905060008183620001ed9190620004f4565b905060008160005462000201919062000551565b11620002155760015493505050506200023f565b81600e6000018190555080600e600101819055508060005462000239919062000551565b93505050505b90565b73__$282ff1fafeb9497391e3c60428aded7dd4$__632238b73a426002600301546040518363ffffffff1660e01b815260040162000282929190620004b6565b60206040518083038186803b1580156200029b57600080fd5b505af4158015620002b0573d6000803e3d6000fd5b505050506040513d601f19601f82011682018060405250810190620002d69190620003aa565b6002800181905550565b600081519050620002f18162000657565b92915050565b600081519050620003088162000671565b92915050565b60008060008060008060c087890312156200032e576200032d62000603565b5b60006200033e89828a01620002e0565b96505060206200035189828a01620002e0565b95505060406200036489828a01620002f7565b94505060606200037789828a01620002f7565b93505060806200038a89828a01620002f7565b92505060a06200039d89828a01620002f7565b9150509295509295509295565b600060208284031215620003c357620003c262000603565b5b6000620003d384828501620002f7565b91505092915050565b620003e7816200058c565b82525050565b620003f881620005a0565b82525050565b60006200040d603d83620004e3565b91506200041a8262000608565b604082019050919050565b6200043081620005ca565b82525050565b6200044181620005ca565b82525050565b600060208201905081810360008301526200046281620003fe565b9050919050565b600060808201905062000480600083018762000425565b6200048f6020830186620003ed565b6200049e6040830185620003ed565b620004ad6060830184620003dc565b95945050505050565b6000604082019050620004cd600083018562000436565b620004dc602083018462000436565b9392505050565b600082825260208201905092915050565b60006200050182620005ca565b91506200050e83620005ca565b9250827fffffffffffffffffffffffffffffffffffffffffffffffffffffffffffffffff03821115620005465762000545620005d4565b5b828201905092915050565b60006200055e82620005ca565b91506200056b83620005ca565b925082821015620005815762000580620005d4565b5b828203905092915050565b60006200059982620005aa565b9050919050565b6000819050919050565b600073ffffffffffffffffffffffffffffffffffffffff82169050919050565b6000819050919050565b7f4e487b7100000000000000000000000000000000000000000000000000000000600052601160045260246000fd5b600080fd5b7f506c656173652c20696e70757420636f72726563742074696d653a206d696e5460008201527f696d65206d757374206265206c657373207468616e206d617854696d65000000602082015250565b6200066281620005a0565b81146200066e57600080fd5b50565b6200067c81620005ca565b81146200068857600080fd5b50565b610b16806200069b6000396000f3fe60806040526004361061001e5760003560e01c8063795612d614610023575b600080fd5b61002b610041565b6040516100389190610746565b60405180910390f35b60006002600b0160009054906101000a900460ff1615610096576040517f08c379a000000000000000000000000000000000000000000000000000000000815260040161008d90610761565b60405180910390fd5b61009e610269565b156100ac5760009050610266565b6002600501543410156100f4576040517f08c379a00000000000000000000000000000000000000000000000000000000081526004016100eb90610781565b60405180910390fd5b600073ffffffffffffffffffffffffffffffffffffffff16600260060160009054906101000a900473ffffffffffffffffffffffffffffffffffffffff1673ffffffffffffffffffffffffffffffffffffffff16146101bf57600260060160009054906101000a900473ffffffffffffffffffffffffffffffffffffffff1673ffffffffffffffffffffffffffffffffffffffff166108fc6002600401549081150290604051600060405180830381858888f193505050501580156101bd573d6000803e3d6000fd5b505b33600260060160006101000a81548173ffffffffffffffffffffffffffffffffffffffff021916908373ffffffffffffffffffffffffffffffffffffffff160217905550346002600401819055506002600a01546064600260040154610225919061084d565b61022f919061087e565b60026004015461023f91906107f7565b60026005018190555061025061028f565b600260030181905550610261610301565b600190505b90565b6000600280015442106102875761027e610399565b6001905061028c565b600090505b90565b600080600e6000015490506000600e600101549050600081836102b291906107f7565b90506000816000546102c491906108d8565b116102d65760015493505050506102fe565b81600e6000018190555080600e60010181905550806000546102f891906108d8565b93505050505b90565b73__$282ff1fafeb9497391e3c60428aded7dd4$__632238b73a426002600301546040518363ffffffff1660e01b815260040161033f9291906107bd565b60206040518083038186803b15801561035757600080fd5b505af415801561036b573d6000803e3d6000fd5b505050506040513d601f19601f8201168201806040525081019061038f9190610501565b6002800181905550565b60016002600b0160006101000a81548160ff021916908315150217905550600073ffffffffffffffffffffffffffffffffffffffff16600260060160009054906101000a900473ffffffffffffffffffffffffffffffffffffffff1673ffffffffffffffffffffffffffffffffffffffff161461048257600260070160009054906101000a900473ffffffffffffffffffffffffffffffffffffffff1673ffffffffffffffffffffffffffffffffffffffff166108fc6002600401549081150290604051600060405180830381858888f19350505050158015610480573d6000803e3d6000fd5b505b73__$282ff1fafeb9497391e3c60428aded7dd4$__63a964daeb60026040518263ffffffff1660e01b81526004016104ba91906107a1565b60006040518083038186803b1580156104d257600080fd5b505af41580156104e6573d6000803e3d6000fd5b50505050565b6000815190506104fb81610ac9565b92915050565b60006020828403121561051757610516610a65565b5b6000610525848285016104ec565b91505092915050565b6105378161094d565b82525050565b6105468161095f565b82525050565b6105558161095f565b82525050565b6105648161096b565b82525050565b60006105776013836107e6565b915061058282610a77565b602082019050919050565b600061059a6012836107e6565b91506105a582610aa0565b602082019050919050565b610180820160008083015490506105c6816109ed565b6105d36000860182610737565b50600183015490506105e4816109ed565b6105f16020860182610737565b5060028301549050610602816109ed565b61060f6040860182610737565b5060038301549050610620816109ed565b61062d6060860182610737565b506004830154905061063e816109ed565b61064b6080860182610737565b506005830154905061065c816109ed565b61066960a0860182610737565b506006830154905061067a8161099f565b61068760c086018261052e565b50600783015490506106988161099f565b6106a560e086018261052e565b50600883015490506106b6816109d3565b6106c461010086018261055b565b50600983015490506106d5816109d3565b6106e361012086018261055b565b50600a83015490506106f4816109ed565b610702610140860182610737565b50600b8301549050610713816109b9565b61072161016086018261054c565b5050505050565b61073181610995565b82525050565b61074081610995565b82525050565b600060208201905061075b600083018461053d565b92915050565b6000602082019050818103600083015261077a8161056a565b9050919050565b6000602082019050818103600083015261079a8161058d565b9050919050565b6000610180820190506107b760008301846105b0565b92915050565b60006040820190506107d26000830185610728565b6107df6020830184610728565b9392505050565b600082825260208201905092915050565b600061080282610995565b915061080d83610995565b9250827fffffffffffffffffffffffffffffffffffffffffffffffffffffffffffffffff0382111561084257610841610a07565b5b828201905092915050565b600061085882610995565b915061086383610995565b92508261087357610872610a36565b5b828204905092915050565b600061088982610995565b915061089483610995565b9250817fffffffffffffffffffffffffffffffffffffffffffffffffffffffffffffffff04831182151516156108cd576108cc610a07565b5b828202905092915050565b60006108e382610995565b91506108ee83610995565b92508282101561090157610900610a07565b5b828203905092915050565b600073ffffffffffffffffffffffffffffffffffffffff82169050919050565b600060ff82169050919050565b6000819050919050565b6000819050919050565b600061095882610975565b9050919050565b60008115159050919050565b6000819050919050565b600073ffffffffffffffffffffffffffffffffffffffff82169050919050565b6000819050919050565b60006109b26109ad83610a6a565b61090c565b9050919050565b60006109cc6109c783610a6a565b61092c565b9050919050565b60006109e66109e183610a6a565b610939565b9050919050565b6000610a006109fb83610a6a565b610943565b9050919050565b7f4e487b7100000000000000000000000000000000000000000000000000000000600052601160045260246000fd5b7f4e487b7100000000000000000000000000000000000000000000000000000000600052601260045260246000fd5b600080fd5b60008160001c9050919050565b7f42696464696e672069732066696e697368656400000000000000000000000000600082015250565b7f56616c756520697320696e636f72726563740000000000000000000000000000600082015250565b610ad281610995565b8114610add57600080fd5b5056fea2646970667358221220edef61c0e5323a4c085ac8affe1337cb7e8e71bc50d2c928201e59b7da930e2f64736f6c63430008070033","opcodes":"PUSH1 0x80 PUSH1 0x40 MSTORE PUSH3 0x15180 PUSH1 0x0 SSTORE PUSH2 0x258 PUSH1 0x1 SSTORE CALLVALUE DUP1 ISZERO PUSH3 0x1E JUMPI PUSH1 0x0 DUP1 REVERT JUMPDEST POP PUSH1 0x40 MLOAD PUSH3 0x11B1 CODESIZE SUB DUP1 PUSH3 0x11B1 DUP4 CODECOPY DUP2 DUP2 ADD PUSH1 0x40 MSTORE DUP2 ADD SWAP1 PUSH3 0x44 SWAP2 SWAP1 PUSH3 0x30E JUMP JUMPDEST DUP2 DUP4 GT ISZERO PUSH3 0x8A JUMPI PUSH1 0x40 MLOAD PUSH32 0x8C379A000000000000000000000000000000000000000000000000000000000 DUP2 MSTORE PUSH1 0x4 ADD PUSH3 0x81 SWAP1 PUSH3 0x447 JUMP JUMPDEST PUSH1 0x40 MLOAD DUP1 SWAP2 SUB SWAP1 REVERT JUMPDEST CALLER PUSH1 0x2 PUSH1 0x7 ADD PUSH1 0x0 PUSH2 0x100 EXP DUP2 SLOAD DUP2 PUSH20 0xFFFFFFFFFFFFFFFFFFFFFFFFFFFFFFFFFFFFFFFF MUL NOT AND SWAP1 DUP4 PUSH20 0xFFFFFFFFFFFFFFFFFFFFFFFFFFFFFFFFFFFFFFFF AND MUL OR SWAP1 SSTORE POP DUP6 PUSH1 0x2 PUSH1 0x8 ADD DUP2 SWAP1 SSTORE POP DUP5 PUSH1 0x2 PUSH1 0x9 ADD DUP2 SWAP1 SSTORE POP TIMESTAMP PUSH1 0x2 PUSH1 0x1 ADD DUP2 SWAP1 SSTORE POP DUP1 PUSH1 0x2 PUSH1 0xA ADD DUP2 SWAP1 SSTORE POP DUP4 PUSH1 0x2 PUSH1 0x5 ADD DUP2 SWAP1 SSTORE POP PUSH1 0x0 DUP3 EQ PUSH3 0x111 JUMPI DUP2 PUSH1 0x0 DUP2 SWAP1 SSTORE POP JUMPDEST PUSH1 0x0 DUP4 EQ PUSH3 0x122 JUMPI DUP3 PUSH1 0x1 DUP2 SWAP1 SSTORE POP JUMPDEST PUSH1 0x1 SLOAD PUSH1 0xE PUSH1 0x1 ADD DUP2 SWAP1 SSTORE POP PUSH3 0x13E PUSH3 0x1C8 PUSH1 0x20 SHL PUSH1 0x20 SHR JUMP JUMPDEST PUSH1 0x2 PUSH1 0x3 ADD DUP2 SWAP1 SSTORE POP PUSH3 0x157 PUSH3 0x242 PUSH1 0x20 SHL PUSH1 0x20 SHR JUMP JUMPDEST PUSH32 0xA11993EB95384E356B03388262D2842238F11010690C653232A9DA617FA92360 PUSH1 0x0 DUP8 DUP8 PUSH1 0x2 PUSH1 0x7 ADD PUSH1 0x0 SWAP1 SLOAD SWAP1 PUSH2 0x100 EXP SWAP1 DIV PUSH20 0xFFFFFFFFFFFFFFFFFFFFFFFFFFFFFFFFFFFFFFFF AND PUSH1 0x40 MLOAD PUSH3 0x1B4 SWAP5 SWAP4 SWAP3 SWAP2 SWAP1 PUSH3 0x469 JUMP JUMPDEST PUSH1 0x40 MLOAD DUP1 SWAP2 SUB SWAP1 LOG1 POP POP POP POP POP POP PUSH3 0x68B JUMP JUMPDEST PUSH1 0x0 DUP1 PUSH1 0xE PUSH1 0x0 ADD SLOAD SWAP1 POP PUSH1 0x0 PUSH1 0xE PUSH1 0x1 ADD SLOAD SWAP1 POP PUSH1 0x0 DUP2 DUP4 PUSH3 0x1ED SWAP2 SWAP1 PUSH3 0x4F4 JUMP JUMPDEST SWAP1 POP PUSH1 0x0 DUP2 PUSH1 0x0 SLOAD PUSH3 0x201 SWAP2 SWAP1 PUSH3 0x551 JUMP JUMPDEST GT PUSH3 0x215 JUMPI PUSH1 0x1 SLOAD SWAP4 POP POP POP POP PUSH3 0x23F JUMP JUMPDEST DUP2 PUSH1 0xE PUSH1 0x0 ADD DUP2 SWAP1 SSTORE POP DUP1 PUSH1 0xE PUSH1 0x1 ADD DUP2 SWAP1 SSTORE POP DUP1 PUSH1 0x0 SLOAD PUSH3 0x239 SWAP2 SWAP1 PUSH3 0x551 JUMP JUMPDEST SWAP4 POP POP POP POP JUMPDEST SWAP1 JUMP JUMPDEST PUSH20 0x0 PUSH4 0x2238B73A TIMESTAMP PUSH1 0x2 PUSH1 0x3 ADD SLOAD PUSH1 0x40 MLOAD DUP4 PUSH4 0xFFFFFFFF AND PUSH1 0xE0 SHL DUP2 MSTORE PUSH1 0x4 ADD PUSH3 0x282 SWAP3 SWAP2 SWAP1 PUSH3 0x4B6 JUMP JUMPDEST PUSH1 0x20 PUSH1 0x40 MLOAD DUP1 DUP4 SUB DUP2 DUP7 DUP1 EXTCODESIZE ISZERO DUP1 ISZERO PUSH3 0x29B JUMPI PUSH1 0x0 DUP1 REVERT JUMPDEST POP GAS DELEGATECALL ISZERO DUP1 ISZERO PUSH3 0x2B0 JUMPI RETURNDATASIZE PUSH1 0x0 DUP1 RETURNDATACOPY RETURNDATASIZE PUSH1 0x0 REVERT JUMPDEST POP POP POP POP PUSH1 0x40 MLOAD RETURNDATASIZE PUSH1 0x1F NOT PUSH1 0x1F DUP3 ADD AND DUP3 ADD DUP1 PUSH1 0x40 MSTORE POP DUP2 ADD SWAP1 PUSH3 0x2D6 SWAP2 SWAP1 PUSH3 0x3AA JUMP JUMPDEST PUSH1 0x2 DUP1 ADD DUP2 SWAP1 SSTORE POP JUMP JUMPDEST PUSH1 0x0 DUP2 MLOAD SWAP1 POP PUSH3 0x2F1 DUP2 PUSH3 0x657 JUMP JUMPDEST SWAP3 SWAP2 POP POP JUMP JUMPDEST PUSH1 0x0 DUP2 MLOAD SWAP1 POP PUSH3 0x308 DUP2 PUSH3 0x671 JUMP JUMPDEST SWAP3 SWAP2 POP POP JUMP JUMPDEST PUSH1 0x0 DUP1 PUSH1 0x0 DUP1 PUSH1 0x0 DUP1 PUSH1 0xC0 DUP8 DUP10 SUB SLT ISZERO PUSH3 0x32E JUMPI PUSH3 0x32D PUSH3 0x603 JUMP JUMPDEST JUMPDEST PUSH1 0x0 PUSH3 0x33E DUP10 DUP3 DUP11 ADD PUSH3 0x2E0 JUMP JUMPDEST SWAP7 POP POP PUSH1 0x20 PUSH3 0x351 DUP10 DUP3 DUP11 ADD PUSH3 0x2E0 JUMP JUMPDEST SWAP6 POP POP PUSH1 0x40 PUSH3 0x364 DUP10 DUP3 DUP11 ADD PUSH3 0x2F7 JUMP JUMPDEST SWAP5 POP POP PUSH1 0x60 PUSH3 0x377 DUP10 DUP3 DUP11 ADD PUSH3 0x2F7 JUMP JUMPDEST SWAP4 POP POP PUSH1 0x80 PUSH3 0x38A DUP10 DUP3 DUP11 ADD PUSH3 0x2F7 JUMP JUMPDEST SWAP3 POP POP PUSH1 0xA0 PUSH3 0x39D DUP10 DUP3 DUP11 ADD PUSH3 0x2F7 JUMP JUMPDEST SWAP2 POP POP SWAP3 SWAP6 POP SWAP3 SWAP6 POP SWAP3 SWAP6 JUMP JUMPDEST PUSH1 0x0 PUSH1 0x20 DUP3 DUP5 SUB SLT ISZERO PUSH3 0x3C3 JUMPI PUSH3 0x3C2 PUSH3 0x603 JUMP JUMPDEST JUMPDEST PUSH1 0x0 PUSH3 0x3D3 DUP5 DUP3 DUP6 ADD PUSH3 0x2F7 JUMP JUMPDEST SWAP2 POP POP SWAP3 SWAP2 POP POP JUMP JUMPDEST PUSH3 0x3E7 DUP2 PUSH3 0x58C JUMP JUMPDEST DUP3 MSTORE POP POP JUMP JUMPDEST PUSH3 0x3F8 DUP2 PUSH3 0x5A0 JUMP JUMPDEST DUP3 MSTORE POP POP JUMP JUMPDEST PUSH1 0x0 PUSH3 0x40D PUSH1 0x3D DUP4 PUSH3 0x4E3 JUMP JUMPDEST SWAP2 POP PUSH3 0x41A DUP3 PUSH3 0x608 JUMP JUMPDEST PUSH1 0x40 DUP3 ADD SWAP1 POP SWAP2 SWAP1 POP JUMP JUMPDEST PUSH3 0x430 DUP2 PUSH3 0x5CA JUMP JUMPDEST DUP3 MSTORE POP POP JUMP JUMPDEST PUSH3 0x441 DUP2 PUSH3 0x5CA JUMP JUMPDEST DUP3 MSTORE POP POP JUMP JUMPDEST PUSH1 0x0 PUSH1 0x20 DUP3 ADD SWAP1 POP DUP2 DUP2 SUB PUSH1 0x0 DUP4 ADD MSTORE PUSH3 0x462 DUP2 PUSH3 0x3FE JUMP JUMPDEST SWAP1 POP SWAP2 SWAP1 POP JUMP JUMPDEST PUSH1 0x0 PUSH1 0x80 DUP3 ADD SWAP1 POP PUSH3 0x480 PUSH1 0x0 DUP4 ADD DUP8 PUSH3 0x425 JUMP JUMPDEST PUSH3 0x48F PUSH1 0x20 DUP4 ADD DUP7 PUSH3 0x3ED JUMP JUMPDEST PUSH3 0x49E PUSH1 0x40 DUP4 ADD DUP6 PUSH3 0x3ED JUMP JUMPDEST PUSH3 0x4AD PUSH1 0x60 DUP4 ADD DUP5 PUSH3 0x3DC JUMP JUMPDEST SWAP6 SWAP5 POP POP POP POP POP JUMP JUMPDEST PUSH1 0x0 PUSH1 0x40 DUP3 ADD SWAP1 POP PUSH3 0x4CD PUSH1 0x0 DUP4 ADD DUP6 PUSH3 0x436 JUMP JUMPDEST PUSH3 0x4DC PUSH1 0x20 DUP4 ADD DUP5 PUSH3 0x436 JUMP JUMPDEST SWAP4 SWAP3 POP POP POP JUMP JUMPDEST PUSH1 0x0 DUP3 DUP3 MSTORE PUSH1 0x20 DUP3 ADD SWAP1 POP SWAP3 SWAP2 POP POP JUMP JUMPDEST PUSH1 0x0 PUSH3 0x501 DUP3 PUSH3 0x5CA JUMP JUMPDEST SWAP2 POP PUSH3 0x50E DUP4 PUSH3 0x5CA JUMP JUMPDEST SWAP3 POP DUP3 PUSH32 0xFFFFFFFFFFFFFFFFFFFFFFFFFFFFFFFFFFFFFFFFFFFFFFFFFFFFFFFFFFFFFFFF SUB DUP3 GT ISZERO PUSH3 0x546 JUMPI PUSH3 0x545 PUSH3 0x5D4 JUMP JUMPDEST JUMPDEST DUP3 DUP3 ADD SWAP1 POP SWAP3 SWAP2 POP POP JUMP JUMPDEST PUSH1 0x0 PUSH3 0x55E DUP3 PUSH3 0x5CA JUMP JUMPDEST SWAP2 POP PUSH3 0x56B DUP4 PUSH3 0x5CA JUMP JUMPDEST SWAP3 POP DUP3 DUP3 LT ISZERO PUSH3 0x581 JUMPI PUSH3 0x580 PUSH3 0x5D4 JUMP JUMPDEST JUMPDEST DUP3 DUP3 SUB SWAP1 POP SWAP3 SWAP2 POP POP JUMP JUMPDEST PUSH1 0x0 PUSH3 0x599 DUP3 PUSH3 0x5AA JUMP JUMPDEST SWAP1 POP SWAP2 SWAP1 POP JUMP JUMPDEST PUSH1 0x0 DUP2 SWAP1 POP SWAP2 SWAP1 POP JUMP JUMPDEST PUSH1 0x0 PUSH20 0xFFFFFFFFFFFFFFFFFFFFFFFFFFFFFFFFFFFFFFFF DUP3 AND SWAP1 POP SWAP2 SWAP1 POP JUMP JUMPDEST PUSH1 0x0 DUP2 SWAP1 POP SWAP2 SWAP1 POP JUMP JUMPDEST PUSH32 0x4E487B7100000000000000000000000000000000000000000000000000000000 PUSH1 0x0 MSTORE PUSH1 0x11 PUSH1 0x4 MSTORE PUSH1 0x24 PUSH1 0x0 REVERT JUMPDEST PUSH1 0x0 DUP1 REVERT JUMPDEST PUSH32 0x506C656173652C20696E70757420636F72726563742074696D653A206D696E54 PUSH1 0x0 DUP3 ADD MSTORE PUSH32 0x696D65206D757374206265206C657373207468616E206D617854696D65000000 PUSH1 0x20 DUP3 ADD MSTORE POP JUMP JUMPDEST PUSH3 0x662 DUP2 PUSH3 0x5A0 JUMP JUMPDEST DUP2 EQ PUSH3 0x66E JUMPI PUSH1 0x0 DUP1 REVERT JUMPDEST POP JUMP JUMPDEST PUSH3 0x67C DUP2 PUSH3 0x5CA JUMP JUMPDEST DUP2 EQ PUSH3 0x688 JUMPI PUSH1 0x0 DUP1 REVERT JUMPDEST POP JUMP JUMPDEST PUSH2 0xB16 DUP1 PUSH3 0x69B PUSH1 0x0 CODECOPY PUSH1 0x0 RETURN INVALID PUSH1 0x80 PUSH1 0x40 MSTORE PUSH1 0x4 CALLDATASIZE LT PUSH2 0x1E JUMPI PUSH1 0x0 CALLDATALOAD PUSH1 0xE0 SHR DUP1 PUSH4 0x795612D6 EQ PUSH2 0x23 JUMPI JUMPDEST PUSH1 0x0 DUP1 REVERT JUMPDEST PUSH2 0x2B PUSH2 0x41 JUMP JUMPDEST PUSH1 0x40 MLOAD PUSH2 0x38 SWAP2 SWAP1 PUSH2 0x746 JUMP JUMPDEST PUSH1 0x40 MLOAD DUP1 SWAP2 SUB SWAP1 RETURN JUMPDEST PUSH1 0x0 PUSH1 0x2 PUSH1 0xB ADD PUSH1 0x0 SWAP1 SLOAD SWAP1 PUSH2 0x100 EXP SWAP1 DIV PUSH1 0xFF AND ISZERO PUSH2 0x96 JUMPI PUSH1 0x40 MLOAD PUSH32 0x8C379A000000000000000000000000000000000000000000000000000000000 DUP2 MSTORE PUSH1 0x4 ADD PUSH2 0x8D SWAP1 PUSH2 0x761 JUMP JUMPDEST PUSH1 0x40 MLOAD DUP1 SWAP2 SUB SWAP1 REVERT JUMPDEST PUSH2 0x9E PUSH2 0x269 JUMP JUMPDEST ISZERO PUSH2 0xAC JUMPI PUSH1 0x0 SWAP1 POP PUSH2 0x266 JUMP JUMPDEST PUSH1 0x2 PUSH1 0x5 ADD SLOAD CALLVALUE LT ISZERO PUSH2 0xF4 JUMPI PUSH1 0x40 MLOAD PUSH32 0x8C379A000000000000000000000000000000000000000000000000000000000 DUP2 MSTORE PUSH1 0x4 ADD PUSH2 0xEB SWAP1 PUSH2 0x781 JUMP JUMPDEST PUSH1 0x40 MLOAD DUP1 SWAP2 SUB SWAP1 REVERT JUMPDEST PUSH1 0x0 PUSH20 0xFFFFFFFFFFFFFFFFFFFFFFFFFFFFFFFFFFFFFFFF AND PUSH1 0x2 PUSH1 0x6 ADD PUSH1 0x0 SWAP1 SLOAD SWAP1 PUSH2 0x100 EXP SWAP1 DIV PUSH20 0xFFFFFFFFFFFFFFFFFFFFFFFFFFFFFFFFFFFFFFFF AND PUSH20 0xFFFFFFFFFFFFFFFFFFFFFFFFFFFFFFFFFFFFFFFF AND EQ PUSH2 0x1BF JUMPI PUSH1 0x2 PUSH1 0x6 ADD PUSH1 0x0 SWAP1 SLOAD SWAP1 PUSH2 0x100 EXP SWAP1 DIV PUSH20 0xFFFFFFFFFFFFFFFFFFFFFFFFFFFFFFFFFFFFFFFF AND PUSH20 0xFFFFFFFFFFFFFFFFFFFFFFFFFFFFFFFFFFFFFFFF AND PUSH2 0x8FC PUSH1 0x2 PUSH1 0x4 ADD SLOAD SWAP1 DUP2 ISZERO MUL SWAP1 PUSH1 0x40 MLOAD PUSH1 0x0 PUSH1 0x40 MLOAD DUP1 DUP4 SUB DUP2 DUP6 DUP9 DUP9 CALL SWAP4 POP POP POP POP ISZERO DUP1 ISZERO PUSH2 0x1BD JUMPI RETURNDATASIZE PUSH1 0x0 DUP1 RETURNDATACOPY RETURNDATASIZE PUSH1 0x0 REVERT JUMPDEST POP JUMPDEST CALLER PUSH1 0x2 PUSH1 0x6 ADD PUSH1 0x0 PUSH2 0x100 EXP DUP2 SLOAD DUP2 PUSH20 0xFFFFFFFFFFFFFFFFFFFFFFFFFFFFFFFFFFFFFFFF MUL NOT AND SWAP1 DUP4 PUSH20 0xFFFFFFFFFFFFFFFFFFFFFFFFFFFFFFFFFFFFFFFF AND MUL OR SWAP1 SSTORE POP CALLVALUE PUSH1 0x2 PUSH1 0x4 ADD DUP2 SWAP1 SSTORE POP PUSH1 0x2 PUSH1 0xA ADD SLOAD PUSH1 0x64 PUSH1 0x2 PUSH1 0x4 ADD SLOAD PUSH2 0x225 SWAP2 SWAP1 PUSH2 0x84D JUMP JUMPDEST PUSH2 0x22F SWAP2 SWAP1 PUSH2 0x87E JUMP JUMPDEST PUSH1 0x2 PUSH1 0x4 ADD SLOAD PUSH2 0x23F SWAP2 SWAP1 PUSH2 0x7F7 JUMP JUMPDEST PUSH1 0x2 PUSH1 0x5 ADD DUP2 SWAP1 SSTORE POP PUSH2 0x250 PUSH2 0x28F JUMP JUMPDEST PUSH1 0x2 PUSH1 0x3 ADD DUP2 SWAP1 SSTORE POP PUSH2 0x261 PUSH2 0x301 JUMP JUMPDEST PUSH1 0x1 SWAP1 POP JUMPDEST SWAP1 JUMP JUMPDEST PUSH1 0x0 PUSH1 0x2 DUP1 ADD SLOAD TIMESTAMP LT PUSH2 0x287 JUMPI PUSH2 0x27E PUSH2 0x399 JUMP JUMPDEST PUSH1 0x1 SWAP1 POP PUSH2 0x28C JUMP JUMPDEST PUSH1 0x0 SWAP1 POP JUMPDEST SWAP1 JUMP JUMPDEST PUSH1 0x0 DUP1 PUSH1 0xE PUSH1 0x0 ADD SLOAD SWAP1 POP PUSH1 0x0 PUSH1 0xE PUSH1 0x1 ADD SLOAD SWAP1 POP PUSH1 0x0 DUP2 DUP4 PUSH2 0x2B2 SWAP2 SWAP1 PUSH2 0x7F7 JUMP JUMPDEST SWAP1 POP PUSH1 0x0 DUP2 PUSH1 0x0 SLOAD PUSH2 0x2C4 SWAP2 SWAP1 PUSH2 0x8D8 JUMP JUMPDEST GT PUSH2 0x2D6 JUMPI PUSH1 0x1 SLOAD SWAP4 POP POP POP POP PUSH2 0x2FE JUMP JUMPDEST DUP2 PUSH1 0xE PUSH1 0x0 ADD DUP2 SWAP1 SSTORE POP DUP1 PUSH1 0xE PUSH1 0x1 ADD DUP2 SWAP1 SSTORE POP DUP1 PUSH1 0x0 SLOAD PUSH2 0x2F8 SWAP2 SWAP1 PUSH2 0x8D8 JUMP JUMPDEST SWAP4 POP POP POP POP JUMPDEST SWAP1 JUMP JUMPDEST PUSH20 0x0 PUSH4 0x2238B73A TIMESTAMP PUSH1 0x2 PUSH1 0x3 ADD SLOAD PUSH1 0x40 MLOAD DUP4 PUSH4 0xFFFFFFFF AND PUSH1 0xE0 SHL DUP2 MSTORE PUSH1 0x4 ADD PUSH2 0x33F SWAP3 SWAP2 SWAP1 PUSH2 0x7BD JUMP JUMPDEST PUSH1 0x20 PUSH1 0x40 MLOAD DUP1 DUP4 SUB DUP2 DUP7 DUP1 EXTCODESIZE ISZERO DUP1 ISZERO PUSH2 0x357 JUMPI PUSH1 0x0 DUP1 REVERT JUMPDEST POP GAS DELEGATECALL ISZERO DUP1 ISZERO PUSH2 0x36B JUMPI RETURNDATASIZE PUSH1 0x0 DUP1 RETURNDATACOPY RETURNDATASIZE PUSH1 0x0 REVERT JUMPDEST POP POP POP POP PUSH1 0x40 MLOAD RETURNDATASIZE PUSH1 0x1F NOT PUSH1 0x1F DUP3 ADD AND DUP3 ADD DUP1 PUSH1 0x40 MSTORE POP DUP2 ADD SWAP1 PUSH2 0x38F SWAP2 SWAP1 PUSH2 0x501 JUMP JUMPDEST PUSH1 0x2 DUP1 ADD DUP2 SWAP1 SSTORE POP JUMP JUMPDEST PUSH1 0x1 PUSH1 0x2 PUSH1 0xB ADD PUSH1 0x0 PUSH2 0x100 EXP DUP2 SLOAD DUP2 PUSH1 0xFF MUL NOT AND SWAP1 DUP4 ISZERO ISZERO MUL OR SWAP1 SSTORE POP PUSH1 0x0 PUSH20 0xFFFFFFFFFFFFFFFFFFFFFFFFFFFFFFFFFFFFFFFF AND PUSH1 0x2 PUSH1 0x6 ADD PUSH1 0x0 SWAP1 SLOAD SWAP1 PUSH2 0x100 EXP SWAP1 DIV PUSH20 0xFFFFFFFFFFFFFFFFFFFFFFFFFFFFFFFFFFFFFFFF AND PUSH20 0xFFFFFFFFFFFFFFFFFFFFFFFFFFFFFFFFFFFFFFFF AND EQ PUSH2 0x482 JUMPI PUSH1 0x2 PUSH1 0x7 ADD PUSH1 0x0 SWAP1 SLOAD SWAP1 PUSH2 0x100 EXP SWAP1 DIV PUSH20 0xFFFFFFFFFFFFFFFFFFFFFFFFFFFFFFFFFFFFFFFF AND PUSH20 0xFFFFFFFFFFFFFFFFFFFFFFFFFFFFFFFFFFFFFFFF AND PUSH2 0x8FC PUSH1 0x2 PUSH1 0x4 ADD SLOAD SWAP1 DUP2 ISZERO MUL SWAP1 PUSH1 0x40 MLOAD PUSH1 0x0 PUSH1 0x40 MLOAD DUP1 DUP4 SUB DUP2 DUP6 DUP9 DUP9 CALL SWAP4 POP POP POP POP ISZERO DUP1 ISZERO PUSH2 0x480 JUMPI RETURNDATASIZE PUSH1 0x0 DUP1 RETURNDATACOPY RETURNDATASIZE PUSH1 0x0 REVERT JUMPDEST POP JUMPDEST PUSH20 0x0 PUSH4 0xA964DAEB PUSH1 0x2 PUSH1 0x40 MLOAD DUP3 PUSH4 0xFFFFFFFF AND PUSH1 0xE0 SHL DUP2 MSTORE PUSH1 0x4 ADD PUSH2 0x4BA SWAP2 SWAP1 PUSH2 0x7A1 JUMP JUMPDEST PUSH1 0x0 PUSH1 0x40 MLOAD DUP1 DUP4 SUB DUP2 DUP7 DUP1 EXTCODESIZE ISZERO DUP1 ISZERO PUSH2 0x4D2 JUMPI PUSH1 0x0 DUP1 REVERT JUMPDEST POP GAS DELEGATECALL ISZERO DUP1 ISZERO PUSH2 0x4E6 JUMPI RETURNDATASIZE PUSH1 0x0 DUP1 RETURNDATACOPY RETURNDATASIZE PUSH1 0x0 REVERT JUMPDEST POP POP POP POP JUMP JUMPDEST PUSH1 0x0 DUP2 MLOAD SWAP1 POP PUSH2 0x4FB DUP2 PUSH2 0xAC9 JUMP JUMPDEST SWAP3 SWAP2 POP POP JUMP JUMPDEST PUSH1 0x0 PUSH1 0x20 DUP3 DUP5 SUB SLT ISZERO PUSH2 0x517 JUMPI PUSH2 0x516 PUSH2 0xA65 JUMP JUMPDEST JUMPDEST PUSH1 0x0 PUSH2 0x525 DUP5 DUP3 DUP6 ADD PUSH2 0x4EC JUMP JUMPDEST SWAP2 POP POP SWAP3 SWAP2 POP POP JUMP JUMPDEST PUSH2 0x537 DUP2 PUSH2 0x94D JUMP JUMPDEST DUP3 MSTORE POP POP JUMP JUMPDEST PUSH2 0x546 DUP2 PUSH2 0x95F JUMP JUMPDEST DUP3 MSTORE POP POP JUMP JUMPDEST PUSH2 0x555 DUP2 PUSH2 0x95F JUMP JUMPDEST DUP3 MSTORE POP POP JUMP JUMPDEST PUSH2 0x564 DUP2 PUSH2 0x96B JUMP JUMPDEST DUP3 MSTORE POP POP JUMP JUMPDEST PUSH1 0x0 PUSH2 0x577 PUSH1 0x13 DUP4 PUSH2 0x7E6 JUMP JUMPDEST SWAP2 POP PUSH2 0x582 DUP3 PUSH2 0xA77 JUMP JUMPDEST PUSH1 0x20 DUP3 ADD SWAP1 POP SWAP2 SWAP1 POP JUMP JUMPDEST PUSH1 0x0 PUSH2 0x59A PUSH1 0x12 DUP4 PUSH2 0x7E6 JUMP JUMPDEST SWAP2 POP PUSH2 0x5A5 DUP3 PUSH2 0xAA0 JUMP JUMPDEST PUSH1 0x20 DUP3 ADD SWAP1 POP SWAP2 SWAP1 POP JUMP JUMPDEST PUSH2 0x180 DUP3 ADD PUSH1 0x0 DUP1 DUP4 ADD SLOAD SWAP1 POP PUSH2 0x5C6 DUP2 PUSH2 0x9ED JUMP JUMPDEST PUSH2 0x5D3 PUSH1 0x0 DUP7 ADD DUP3 PUSH2 0x737 JUMP JUMPDEST POP PUSH1 0x1 DUP4 ADD SLOAD SWAP1 POP PUSH2 0x5E4 DUP2 PUSH2 0x9ED JUMP JUMPDEST PUSH2 0x5F1 PUSH1 0x20 DUP7 ADD DUP3 PUSH2 0x737 JUMP JUMPDEST POP PUSH1 0x2 DUP4 ADD SLOAD SWAP1 POP PUSH2 0x602 DUP2 PUSH2 0x9ED JUMP JUMPDEST PUSH2 0x60F PUSH1 0x40 DUP7 ADD DUP3 PUSH2 0x737 JUMP JUMPDEST POP PUSH1 0x3 DUP4 ADD SLOAD SWAP1 POP PUSH2 0x620 DUP2 PUSH2 0x9ED JUMP JUMPDEST PUSH2 0x62D PUSH1 0x60 DUP7 ADD DUP3 PUSH2 0x737 JUMP JUMPDEST POP PUSH1 0x4 DUP4 ADD SLOAD SWAP1 POP PUSH2 0x63E DUP2 PUSH2 0x9ED JUMP JUMPDEST PUSH2 0x64B PUSH1 0x80 DUP7 ADD DUP3 PUSH2 0x737 JUMP JUMPDEST POP PUSH1 0x5 DUP4 ADD SLOAD SWAP1 POP PUSH2 0x65C DUP2 PUSH2 0x9ED JUMP JUMPDEST PUSH2 0x669 PUSH1 0xA0 DUP7 ADD DUP3 PUSH2 0x737 JUMP JUMPDEST POP PUSH1 0x6 DUP4 ADD SLOAD SWAP1 POP PUSH2 0x67A DUP2 PUSH2 0x99F JUMP JUMPDEST PUSH2 0x687 PUSH1 0xC0 DUP7 ADD DUP3 PUSH2 0x52E JUMP JUMPDEST POP PUSH1 0x7 DUP4 ADD SLOAD SWAP1 POP PUSH2 0x698 DUP2 PUSH2 0x99F JUMP JUMPDEST PUSH2 0x6A5 PUSH1 0xE0 DUP7 ADD DUP3 PUSH2 0x52E JUMP JUMPDEST POP PUSH1 0x8 DUP4 ADD SLOAD SWAP1 POP PUSH2 0x6B6 DUP2 PUSH2 0x9D3 JUMP JUMPDEST PUSH2 0x6C4 PUSH2 0x100 DUP7 ADD DUP3 PUSH2 0x55B JUMP JUMPDEST POP PUSH1 0x9 DUP4 ADD SLOAD SWAP1 POP PUSH2 0x6D5 DUP2 PUSH2 0x9D3 JUMP JUMPDEST PUSH2 0x6E3 PUSH2 0x120 DUP7 ADD DUP3 PUSH2 0x55B JUMP JUMPDEST POP PUSH1 0xA DUP4 ADD SLOAD SWAP1 POP PUSH2 0x6F4 DUP2 PUSH2 0x9ED JUMP JUMPDEST PUSH2 0x702 PUSH2 0x140 DUP7 ADD DUP3 PUSH2 0x737 JUMP JUMPDEST POP PUSH1 0xB DUP4 ADD SLOAD SWAP1 POP PUSH2 0x713 DUP2 PUSH2 0x9B9 JUMP JUMPDEST PUSH2 0x721 PUSH2 0x160 DUP7 ADD DUP3 PUSH2 0x54C JUMP JUMPDEST POP POP POP POP POP JUMP JUMPDEST PUSH2 0x731 DUP2 PUSH2 0x995 JUMP JUMPDEST DUP3 MSTORE POP POP JUMP JUMPDEST PUSH2 0x740 DUP2 PUSH2 0x995 JUMP JUMPDEST DUP3 MSTORE POP POP JUMP JUMPDEST PUSH1 0x0 PUSH1 0x20 DUP3 ADD SWAP1 POP PUSH2 0x75B PUSH1 0x0 DUP4 ADD DUP5 PUSH2 0x53D JUMP JUMPDEST SWAP3 SWAP2 POP POP JUMP JUMPDEST PUSH1 0x0 PUSH1 0x20 DUP3 ADD SWAP1 POP DUP2 DUP2 SUB PUSH1 0x0 DUP4 ADD MSTORE PUSH2 0x77A DUP2 PUSH2 0x56A JUMP JUMPDEST SWAP1 POP SWAP2 SWAP1 POP JUMP JUMPDEST PUSH1 0x0 PUSH1 0x20 DUP3 ADD SWAP1 POP DUP2 DUP2 SUB PUSH1 0x0 DUP4 ADD MSTORE PUSH2 0x79A DUP2 PUSH2 0x58D JUMP JUMPDEST SWAP1 POP SWAP2 SWAP1 POP JUMP JUMPDEST PUSH1 0x0 PUSH2 0x180 DUP3 ADD SWAP1 POP PUSH2 0x7B7 PUSH1 0x0 DUP4 ADD DUP5 PUSH2 0x5B0 JUMP JUMPDEST SWAP3 SWAP2 POP POP JUMP JUMPDEST PUSH1 0x0 PUSH1 0x40 DUP3 ADD SWAP1 POP PUSH2 0x7D2 PUSH1 0x0 DUP4 ADD DUP6 PUSH2 0x728 JUMP JUMPDEST PUSH2 0x7DF PUSH1 0x20 DUP4 ADD DUP5 PUSH2 0x728 JUMP JUMPDEST SWAP4 SWAP3 POP POP POP JUMP JUMPDEST PUSH1 0x0 DUP3 DUP3 MSTORE PUSH1 0x20 DUP3 ADD SWAP1 POP SWAP3 SWAP2 POP POP JUMP JUMPDEST PUSH1 0x0 PUSH2 0x802 DUP3 PUSH2 0x995 JUMP JUMPDEST SWAP2 POP PUSH2 0x80D DUP4 PUSH2 0x995 JUMP JUMPDEST SWAP3 POP DUP3 PUSH32 0xFFFFFFFFFFFFFFFFFFFFFFFFFFFFFFFFFFFFFFFFFFFFFFFFFFFFFFFFFFFFFFFF SUB DUP3 GT ISZERO PUSH2 0x842 JUMPI PUSH2 0x841 PUSH2 0xA07 JUMP JUMPDEST JUMPDEST DUP3 DUP3 ADD SWAP1 POP SWAP3 SWAP2 POP POP JUMP JUMPDEST PUSH1 0x0 PUSH2 0x858 DUP3 PUSH2 0x995 JUMP JUMPDEST SWAP2 POP PUSH2 0x863 DUP4 PUSH2 0x995 JUMP JUMPDEST SWAP3 POP DUP3 PUSH2 0x873 JUMPI PUSH2 0x872 PUSH2 0xA36 JUMP JUMPDEST JUMPDEST DUP3 DUP3 DIV SWAP1 POP SWAP3 SWAP2 POP POP JUMP JUMPDEST PUSH1 0x0 PUSH2 0x889 DUP3 PUSH2 0x995 JUMP JUMPDEST SWAP2 POP PUSH2 0x894 DUP4 PUSH2 0x995 JUMP JUMPDEST SWAP3 POP DUP2 PUSH32 0xFFFFFFFFFFFFFFFFFFFFFFFFFFFFFFFFFFFFFFFFFFFFFFFFFFFFFFFFFFFFFFFF DIV DUP4 GT DUP3 ISZERO ISZERO AND ISZERO PUSH2 0x8CD JUMPI PUSH2 0x8CC PUSH2 0xA07 JUMP JUMPDEST JUMPDEST DUP3 DUP3 MUL SWAP1 POP SWAP3 SWAP2 POP POP JUMP JUMPDEST PUSH1 0x0 PUSH2 0x8E3 DUP3 PUSH2 0x995 JUMP JUMPDEST SWAP2 POP PUSH2 0x8EE DUP4 PUSH2 0x995 JUMP JUMPDEST SWAP3 POP DUP3 DUP3 LT ISZERO PUSH2 0x901 JUMPI PUSH2 0x900 PUSH2 0xA07 JUMP JUMPDEST JUMPDEST DUP3 DUP3 SUB SWAP1 POP SWAP3 SWAP2 POP POP JUMP JUMPDEST PUSH1 0x0 PUSH20 0xFFFFFFFFFFFFFFFFFFFFFFFFFFFFFFFFFFFFFFFF DUP3 AND SWAP1 POP SWAP2 SWAP1 POP JUMP JUMPDEST PUSH1 0x0 PUSH1 0xFF DUP3 AND SWAP1 POP SWAP2 SWAP1 POP JUMP JUMPDEST PUSH1 0x0 DUP2 SWAP1 POP SWAP2 SWAP1 POP JUMP JUMPDEST PUSH1 0x0 DUP2 SWAP1 POP SWAP2 SWAP1 POP JUMP JUMPDEST PUSH1 0x0 PUSH2 0x958 DUP3 PUSH2 0x975 JUMP JUMPDEST SWAP1 POP SWAP2 SWAP1 POP JUMP JUMPDEST PUSH1 0x0 DUP2 ISZERO ISZERO SWAP1 POP SWAP2 SWAP1 POP JUMP JUMPDEST PUSH1 0x0 DUP2 SWAP1 POP SWAP2 SWAP1 POP JUMP JUMPDEST PUSH1 0x0 PUSH20 0xFFFFFFFFFFFFFFFFFFFFFFFFFFFFFFFFFFFFFFFF DUP3 AND SWAP1 POP SWAP2 SWAP1 POP JUMP JUMPDEST PUSH1 0x0 DUP2 SWAP1 POP SWAP2 SWAP1 POP JUMP JUMPDEST PUSH1 0x0 PUSH2 0x9B2 PUSH2 0x9AD DUP4 PUSH2 0xA6A JUMP JUMPDEST PUSH2 0x90C JUMP JUMPDEST SWAP1 POP SWAP2 SWAP1 POP JUMP JUMPDEST PUSH1 0x0 PUSH2 0x9CC PUSH2 0x9C7 DUP4 PUSH2 0xA6A JUMP JUMPDEST PUSH2 0x92C JUMP JUMPDEST SWAP1 POP SWAP2 SWAP1 POP JUMP JUMPDEST PUSH1 0x0 PUSH2 0x9E6 PUSH2 0x9E1 DUP4 PUSH2 0xA6A JUMP JUMPDEST PUSH2 0x939 JUMP JUMPDEST SWAP1 POP SWAP2 SWAP1 POP JUMP JUMPDEST PUSH1 0x0 PUSH2 0xA00 PUSH2 0x9FB DUP4 PUSH2 0xA6A JUMP JUMPDEST PUSH2 0x943 JUMP JUMPDEST SWAP1 POP SWAP2 SWAP1 POP JUMP JUMPDEST PUSH32 0x4E487B7100000000000000000000000000000000000000000000000000000000 PUSH1 0x0 MSTORE PUSH1 0x11 PUSH1 0x4 MSTORE PUSH1 0x24 PUSH1 0x0 REVERT JUMPDEST PUSH32 0x4E487B7100000000000000000000000000000000000000000000000000000000 PUSH1 0x0 MSTORE PUSH1 0x12 PUSH1 0x4 MSTORE PUSH1 0x24 PUSH1 0x0 REVERT JUMPDEST PUSH1 0x0 DUP1 REVERT JUMPDEST PUSH1 0x0 DUP2 PUSH1 0x0 SHR SWAP1 POP SWAP2 SWAP1 POP JUMP JUMPDEST PUSH32 0x42696464696E672069732066696E697368656400000000000000000000000000 PUSH1 0x0 DUP3 ADD MSTORE POP JUMP JUMPDEST PUSH32 0x56616C756520697320696E636F72726563740000000000000000000000000000 PUSH1 0x0 DUP3 ADD MSTORE POP JUMP JUMPDEST PUSH2 0xAD2 DUP2 PUSH2 0x995 JUMP JUMPDEST DUP2 EQ PUSH2 0xADD JUMPI PUSH1 0x0 DUP1 REVERT JUMPDEST POP JUMP INVALID LOG2 PUSH5 0x6970667358 0x22 SLT KECCAK256 0xED 0xEF PUSH2 0xC0E5 ORIGIN GASPRICE 0x4C ADDMOD GAS 0xC8 0xAF INVALID SGT CALLDATACOPY 0xCB PUSH31 0x8E71BC50D2C928201E59B7DA930E2F64736F6C634300080700330000000000 "},"methodIdentifiers":{"buyItem()":"795612d6"}}}}}