{"contracts/MilkaBiddingUtils.sol":{"MilkaBiddingUtils":{"abi":[{"anonymous":false,"inputs":[{"indexed":false,"internalType":"uint256","name":"hashId","type":"uint256"},{"indexed":false,"internalType":"bytes32","name":"title","type":"bytes32"},{"indexed":false,"internalType":"bytes32","name":"description","type":"bytes32"},{"indexed":false,"internalType":"address payable","name":"currentOwner","type":"address"},{"indexed":false,"internalType":"uint256","name":"value","type":"uint256"}],"name":"AcceptedProposal","type":"event"},{"anonymous":false,"inputs":[{"indexed":false,"internalType":"uint256","name":"hashId","type":"uint256"},{"indexed":false,"internalType":"bytes32","name":"title","type":"bytes32"},{"indexed":false,"internalType":"bytes32","name":"description","type":"bytes32"}],"name":"CancelProposal","type":"event"},{"anonymous":false,"inputs":[{"indexed":false,"internalType":"uint256","name":"hashId","type":"uint256"},{"indexed":false,"internalType":"bytes32","name":"title","type":"bytes32"},{"indexed":false,"internalType":"bytes32","name":"description","type":"bytes32"},{"indexed":false,"internalType":"address payable","name":"currentOwner","type":"address"}],"name":"CreatedBidding","type":"event"},{"anonymous":false,"inputs":[{"indexed":false,"internalType":"uint256","name":"hashId","type":"uint256"}],"name":"RejectedProposal","type":"event"},{"inputs":[{"internalType":"uint256","name":"currTime","type":"uint256"},{"internalType":"uint256","name":"deltaTime","type":"uint256"}],"name":"calcUpdatedTime","outputs":[{"internalType":"uint256","name":"","type":"uint256"}],"stateMutability":"pure","type":"function"}],"evm":{"bytecode":{"linkReferences":{},"object":"6104af610053600b82828239805160001a607314610046577f4e487b7100000000000000000000000000000000000000000000000000000000600052600060045260246000fd5b30600052607381538281f3fe73000000000000000000000000000000000000000030146080604052600436106100405760003560e01c80632238b73a14610045578063a964daeb14610075575b600080fd5b61005f600480360381019061005a9190610255565b61009e565b60405161006c91906102d1565b60405180910390f35b81801561008157600080fd5b5061009c60048036038101906100979190610227565b6100b4565b005b600081836100ac9190610376565b905092915050565b600073ffffffffffffffffffffffffffffffffffffffff168160c00160208101906100df91906101fa565b73ffffffffffffffffffffffffffffffffffffffff161415610149577ff13bfa7d2cec3002aa80fa154881c0b17d3fd01c4ff8b0f25e68895053462cd3816000013582610100013583610120013560405161013c939291906102ec565b60405180910390a16101ad565b7fe92dedc60fde586a3e790ad45c1b64f3af47f7086dbded30d4495b6fcfacf2b381600001358261010001358361012001358460c001602081019061018e91906101fa565b85608001356040516101a4959493929190610323565b60405180910390a15b50565b6000813590506101bf8161044b565b92915050565b600061018082840312156101dc576101db610441565b5b81905092915050565b6000813590506101f481610462565b92915050565b6000602082840312156102105761020f610446565b5b600061021e848285016101b0565b91505092915050565b6000610180828403121561023e5761023d610446565b5b600061024c848285016101c5565b91505092915050565b6000806040838503121561026c5761026b610446565b5b600061027a858286016101e5565b925050602061028b858286016101e5565b9150509250929050565b61029e816103cc565b82525050565b6102ad816103de565b82525050565b6102bc81610408565b82525050565b6102cb81610408565b82525050565b60006020820190506102e660008301846102c2565b92915050565b600060608201905061030160008301866102b3565b61030e60208301856102a4565b61031b60408301846102a4565b949350505050565b600060a08201905061033860008301886102b3565b61034560208301876102a4565b61035260408301866102a4565b61035f6060830185610295565b61036c60808301846102b3565b9695505050505050565b600061038182610408565b915061038c83610408565b9250827fffffffffffffffffffffffffffffffffffffffffffffffffffffffffffffffff038211156103c1576103c0610412565b5b828201905092915050565b60006103d7826103e8565b9050919050565b6000819050919050565b600073ffffffffffffffffffffffffffffffffffffffff82169050919050565b6000819050919050565b7f4e487b7100000000000000000000000000000000000000000000000000000000600052601160045260246000fd5b600080fd5b600080fd5b610454816103cc565b811461045f57600080fd5b50565b61046b81610408565b811461047657600080fd5b5056fea2646970667358221220d66fc38b2ab8e4f72a12034cbc167034109242ae794cd1ede887ceff7ef836b464736f6c63430008070033","opcodes":"PUSH2 0x4AF PUSH2 0x53 PUSH1 0xB DUP3 DUP3 DUP3 CODECOPY DUP1 MLOAD PUSH1 0x0 BYTE PUSH1 0x73 EQ PUSH2 0x46 JUMPI PUSH32 0x4E487B7100000000000000000000000000000000000000000000000000000000 PUSH1 0x0 MSTORE PUSH1 0x0 PUSH1 0x4 MSTORE PUSH1 0x24 PUSH1 0x0 REVERT JUMPDEST ADDRESS PUSH1 0x0 MSTORE PUSH1 0x73 DUP2 MSTORE8 DUP3 DUP2 RETURN INVALID PUSH20 0x0 ADDRESS EQ PUSH1 0x80 PUSH1 0x40 MSTORE PUSH1 0x4 CALLDATASIZE LT PUSH2 0x40 JUMPI PUSH1 0x0 CALLDATALOAD PUSH1 0xE0 SHR DUP1 PUSH4 0x2238B73A EQ PUSH2 0x45 JUMPI DUP1 PUSH4 0xA964DAEB EQ PUSH2 0x75 JUMPI JUMPDEST PUSH1 0x0 DUP1 REVERT JUMPDEST PUSH2 0x5F PUSH1 0x4 DUP1 CALLDATASIZE SUB DUP2 ADD SWAP1 PUSH2 0x5A SWAP2 SWAP1 PUSH2 0x255 JUMP JUMPDEST PUSH2 0x9E JUMP JUMPDEST PUSH1 0x40 MLOAD PUSH2 0x6C SWAP2 SWAP1 PUSH2 0x2D1 JUMP JUMPDEST PUSH1 0x40 MLOAD DUP1 SWAP2 SUB SWAP1 RETURN JUMPDEST DUP2 DUP1 ISZERO PUSH2 0x81 JUMPI PUSH1 0x0 DUP1 REVERT JUMPDEST POP PUSH2 0x9C PUSH1 0x4 DUP1 CALLDATASIZE SUB DUP2 ADD SWAP1 PUSH2 0x97 SWAP2 SWAP1 PUSH2 0x227 JUMP JUMPDEST PUSH2 0xB4 JUMP JUMPDEST STOP JUMPDEST PUSH1 0x0 DUP2 DUP4 PUSH2 0xAC SWAP2 SWAP1 PUSH2 0x376 JUMP JUMPDEST SWAP1 POP SWAP3 SWAP2 POP POP JUMP JUMPDEST PUSH1 0x0 PUSH20 0xFFFFFFFFFFFFFFFFFFFFFFFFFFFFFFFFFFFFFFFF AND DUP2 PUSH1 0xC0 ADD PUSH1 0x20 DUP2 ADD SWAP1 PUSH2 0xDF SWAP2 SWAP1 PUSH2 0x1FA JUMP JUMPDEST PUSH20 0xFFFFFFFFFFFFFFFFFFFFFFFFFFFFFFFFFFFFFFFF AND EQ ISZERO PUSH2 0x149 JUMPI PUSH32 0xF13BFA7D2CEC3002AA80FA154881C0B17D3FD01C4FF8B0F25E68895053462CD3 DUP2 PUSH1 0x0 ADD CALLDATALOAD DUP3 PUSH2 0x100 ADD CALLDATALOAD DUP4 PUSH2 0x120 ADD CALLDATALOAD PUSH1 0x40 MLOAD PUSH2 0x13C SWAP4 SWAP3 SWAP2 SWAP1 PUSH2 0x2EC JUMP JUMPDEST PUSH1 0x40 MLOAD DUP1 SWAP2 SUB SWAP1 LOG1 PUSH2 0x1AD JUMP JUMPDEST PUSH32 0xE92DEDC60FDE586A3E790AD45C1B64F3AF47F7086DBDED30D4495B6FCFACF2B3 DUP2 PUSH1 0x0 ADD CALLDATALOAD DUP3 PUSH2 0x100 ADD CALLDATALOAD DUP4 PUSH2 0x120 ADD CALLDATALOAD DUP5 PUSH1 0xC0 ADD PUSH1 0x20 DUP2 ADD SWAP1 PUSH2 0x18E SWAP2 SWAP1 PUSH2 0x1FA JUMP JUMPDEST DUP6 PUSH1 0x80 ADD CALLDATALOAD PUSH1 0x40 MLOAD PUSH2 0x1A4 SWAP6 SWAP5 SWAP4 SWAP3 SWAP2 SWAP1 PUSH2 0x323 JUMP JUMPDEST PUSH1 0x40 MLOAD DUP1 SWAP2 SUB SWAP1 LOG1 JUMPDEST POP JUMP JUMPDEST PUSH1 0x0 DUP2 CALLDATALOAD SWAP1 POP PUSH2 0x1BF DUP2 PUSH2 0x44B JUMP JUMPDEST SWAP3 SWAP2 POP POP JUMP JUMPDEST PUSH1 0x0 PUSH2 0x180 DUP3 DUP5 SUB SLT ISZERO PUSH2 0x1DC JUMPI PUSH2 0x1DB PUSH2 0x441 JUMP JUMPDEST JUMPDEST DUP2 SWAP1 POP SWAP3 SWAP2 POP POP JUMP JUMPDEST PUSH1 0x0 DUP2 CALLDATALOAD SWAP1 POP PUSH2 0x1F4 DUP2 PUSH2 0x462 JUMP JUMPDEST SWAP3 SWAP2 POP POP JUMP JUMPDEST PUSH1 0x0 PUSH1 0x20 DUP3 DUP5 SUB SLT ISZERO PUSH2 0x210 JUMPI PUSH2 0x20F PUSH2 0x446 JUMP JUMPDEST JUMPDEST PUSH1 0x0 PUSH2 0x21E DUP5 DUP3 DUP6 ADD PUSH2 0x1B0 JUMP JUMPDEST SWAP2 POP POP SWAP3 SWAP2 POP POP JUMP JUMPDEST PUSH1 0x0 PUSH2 0x180 DUP3 DUP5 SUB SLT ISZERO PUSH2 0x23E JUMPI PUSH2 0x23D PUSH2 0x446 JUMP JUMPDEST JUMPDEST PUSH1 0x0 PUSH2 0x24C DUP5 DUP3 DUP6 ADD PUSH2 0x1C5 JUMP JUMPDEST SWAP2 POP POP SWAP3 SWAP2 POP POP JUMP JUMPDEST PUSH1 0x0 DUP1 PUSH1 0x40 DUP4 DUP6 SUB SLT ISZERO PUSH2 0x26C JUMPI PUSH2 0x26B PUSH2 0x446 JUMP JUMPDEST JUMPDEST PUSH1 0x0 PUSH2 0x27A DUP6 DUP3 DUP7 ADD PUSH2 0x1E5 JUMP JUMPDEST SWAP3 POP POP PUSH1 0x20 PUSH2 0x28B DUP6 DUP3 DUP7 ADD PUSH2 0x1E5 JUMP JUMPDEST SWAP2 POP POP SWAP3 POP SWAP3 SWAP1 POP JUMP JUMPDEST PUSH2 0x29E DUP2 PUSH2 0x3CC JUMP JUMPDEST DUP3 MSTORE POP POP JUMP JUMPDEST PUSH2 0x2AD DUP2 PUSH2 0x3DE JUMP JUMPDEST DUP3 MSTORE POP POP JUMP JUMPDEST PUSH2 0x2BC DUP2 PUSH2 0x408 JUMP JUMPDEST DUP3 MSTORE POP POP JUMP JUMPDEST PUSH2 0x2CB DUP2 PUSH2 0x408 JUMP JUMPDEST DUP3 MSTORE POP POP JUMP JUMPDEST PUSH1 0x0 PUSH1 0x20 DUP3 ADD SWAP1 POP PUSH2 0x2E6 PUSH1 0x0 DUP4 ADD DUP5 PUSH2 0x2C2 JUMP JUMPDEST SWAP3 SWAP2 POP POP JUMP JUMPDEST PUSH1 0x0 PUSH1 0x60 DUP3 ADD SWAP1 POP PUSH2 0x301 PUSH1 0x0 DUP4 ADD DUP7 PUSH2 0x2B3 JUMP JUMPDEST PUSH2 0x30E PUSH1 0x20 DUP4 ADD DUP6 PUSH2 0x2A4 JUMP JUMPDEST PUSH2 0x31B PUSH1 0x40 DUP4 ADD DUP5 PUSH2 0x2A4 JUMP JUMPDEST SWAP5 SWAP4 POP POP POP POP JUMP JUMPDEST PUSH1 0x0 PUSH1 0xA0 DUP3 ADD SWAP1 POP PUSH2 0x338 PUSH1 0x0 DUP4 ADD DUP9 PUSH2 0x2B3 JUMP JUMPDEST PUSH2 0x345 PUSH1 0x20 DUP4 ADD DUP8 PUSH2 0x2A4 JUMP JUMPDEST PUSH2 0x352 PUSH1 0x40 DUP4 ADD DUP7 PUSH2 0x2A4 JUMP JUMPDEST PUSH2 0x35F PUSH1 0x60 DUP4 ADD DUP6 PUSH2 0x295 JUMP JUMPDEST PUSH2 0x36C PUSH1 0x80 DUP4 ADD DUP5 PUSH2 0x2B3 JUMP JUMPDEST SWAP7 SWAP6 POP POP POP POP POP POP JUMP JUMPDEST PUSH1 0x0 PUSH2 0x381 DUP3 PUSH2 0x408 JUMP JUMPDEST SWAP2 POP PUSH2 0x38C DUP4 PUSH2 0x408 JUMP JUMPDEST SWAP3 POP DUP3 PUSH32 0xFFFFFFFFFFFFFFFFFFFFFFFFFFFFFFFFFFFFFFFFFFFFFFFFFFFFFFFFFFFFFFFF SUB DUP3 GT ISZERO PUSH2 0x3C1 JUMPI PUSH2 0x3C0 PUSH2 0x412 JUMP JUMPDEST JUMPDEST DUP3 DUP3 ADD SWAP1 POP SWAP3 SWAP2 POP POP JUMP JUMPDEST PUSH1 0x0 PUSH2 0x3D7 DUP3 PUSH2 0x3E8 JUMP JUMPDEST SWAP1 POP SWAP2 SWAP1 POP JUMP JUMPDEST PUSH1 0x0 DUP2 SWAP1 POP SWAP2 SWAP1 POP JUMP JUMPDEST PUSH1 0x0 PUSH20 0xFFFFFFFFFFFFFFFFFFFFFFFFFFFFFFFFFFFFFFFF DUP3 AND SWAP1 POP SWAP2 SWAP1 POP JUMP JUMPDEST PUSH1 0x0 DUP2 SWAP1 POP SWAP2 SWAP1 POP JUMP JUMPDEST PUSH32 0x4E487B7100000000000000000000000000000000000000000000000000000000 PUSH1 0x0 MSTORE PUSH1 0x11 PUSH1 0x4 MSTORE PUSH1 0x24 PUSH1 0x0 REVERT JUMPDEST PUSH1 0x0 DUP1 REVERT JUMPDEST PUSH1 0x0 DUP1 REVERT JUMPDEST PUSH2 0x454 DUP2 PUSH2 0x3CC JUMP JUMPDEST DUP2 EQ PUSH2 0x45F JUMPI PUSH1 0x0 DUP1 REVERT JUMPDEST POP JUMP JUMPDEST PUSH2 0x46B DUP2 PUSH2 0x408 JUMP JUMPDEST DUP2 EQ PUSH2 0x476 JUMPI PUSH1 0x0 DUP1 REVERT JUMPDEST POP JUMP INVALID LOG2 PUSH5 0x6970667358 0x22 SLT KECCAK256 0xD6 PUSH16 0xC38B2AB8E4F72A12034CBC1670341092 TIMESTAMP 0xAE PUSH26 0x4CD1EDE887CEFF7EF836B464736F6C6343000807003300000000 "},"methodIdentifiers":{"calcUpdatedTime(uint256,uint256)":"2238b73a","emitFinishedBidding(MilkaBiddingUtils.Product)":"a964daeb"}}}}}