{
  "_format": "hh-sol-artifact-1",
  "contractName": "MilkaVote",
  "sourceName": "contracts/MilkaVote.sol",
  "abi": [
    {
      "inputs": [
        {
          "internalType": "contract ERC20",
          "name": "inputVoteCoin",
          "type": "address"
        }
      ],
      "stateMutability": "nonpayable",
      "type": "constructor"
    },
    {
      "anonymous": false,
      "inputs": [
        {
          "indexed": true,
          "internalType": "uint256",
          "name": "hash",
          "type": "uint256"
        }
      ],
      "name": "AcceptedProposal",
      "type": "event"
    },
    {
      "anonymous": false,
      "inputs": [
        {
          "indexed": true,
          "internalType": "uint256",
          "name": "hash",
          "type": "uint256"
        }
      ],
      "name": "CreatedProposal",
      "type": "event"
    },
    {
      "anonymous": false,
      "inputs": [
        {
          "indexed": true,
          "internalType": "uint256",
          "name": "hash",
          "type": "uint256"
        }
      ],
      "name": "DisableProposal",
      "type": "event"
    },
    {
      "anonymous": false,
      "inputs": [
        {
          "indexed": true,
          "internalType": "uint256",
          "name": "hash",
          "type": "uint256"
        }
      ],
      "name": "RejectedProposal",
      "type": "event"
    },
    {
      "inputs": [
        {
          "internalType": "uint256",
          "name": "propIndex",
          "type": "uint256"
        }
      ],
      "name": "_clearProp",
      "outputs": [],
      "stateMutability": "nonpayable",
      "type": "function"
    },
    {
      "inputs": [
        {
          "internalType": "uint256",
          "name": "hashId",
          "type": "uint256"
        }
      ],
      "name": "_getFreeProposal",
      "outputs": [
        {
          "internalType": "int256",
          "name": "",
          "type": "int256"
        }
      ],
      "stateMutability": "nonpayable",
      "type": "function"
    },
    {
      "inputs": [],
      "name": "containsFreeProps",
      "outputs": [
        {
          "internalType": "bool",
          "name": "",
          "type": "bool"
        }
      ],
      "stateMutability": "view",
      "type": "function"
    },
    {
      "inputs": [
        {
          "internalType": "uint256",
          "name": "hashId",
          "type": "uint256"
        }
      ],
      "name": "createNewProposal",
      "outputs": [],
      "stateMutability": "nonpayable",
      "type": "function"
    },
    {
      "inputs": [
        {
          "internalType": "uint256",
          "name": "hashId",
          "type": "uint256"
        }
      ],
      "name": "makeAgreeVotes",
      "outputs": [],
      "stateMutability": "nonpayable",
      "type": "function"
    },
    {
      "inputs": [
        {
          "internalType": "uint256",
          "name": "hashId",
          "type": "uint256"
        }
      ],
      "name": "makeRejectVotes",
      "outputs": [],
      "stateMutability": "nonpayable",
      "type": "function"
    }
  ],
  "bytecode": "0x608060405234801561001057600080fd5b50604051610dab380380610dab8339818101604052810190610032919061008e565b80601260006101000a81548173ffffffffffffffffffffffffffffffffffffffff021916908373ffffffffffffffffffffffffffffffffffffffff1602179055505061011b565b60008151905061008881610104565b92915050565b6000602082840312156100a4576100a36100ff565b5b60006100b284828501610079565b91505092915050565b60006100c6826100df565b9050919050565b60006100d8826100bb565b9050919050565b600073ffffffffffffffffffffffffffffffffffffffff82169050919050565b600080fd5b61010d816100cd565b811461011857600080fd5b50565b610c818061012a6000396000f3fe608060405234801561001057600080fd5b50600436106100625760003560e01c8063250e24e91461006757806367098b59146100975780636e120dcb146100b35780637d4584cd146100cf578063bc191fb4146100eb578063c7fc845a14610109575b600080fd5b610081600480360381019061007c919061091f565b610125565b60405161008e9190610a22565b60405180910390f35b6100b160048036038101906100ac919061091f565b610200565b005b6100cd60048036038101906100c8919061091f565b61020e565b005b6100e960048036038101906100e4919061091f565b610260565b005b6100f361026e565b6040516101009190610a07565b60405180910390f35b610123600480360381019061011e919061091f565b6102d2565b005b600080600090505b60038110156101535761013f81610411565b50808061014b90610b36565b91505061012d565b5060005b60038110156101a9576000816003811061017457610173610bae565b5b6006020160040160009054906101000a900460ff1661019657809150506101fb565b80806101a190610b36565b915050610157565b50817f877b62329cce1bf39c9d6913ca97392dc0be730112ea2842f001c9c1dc9e120560405160405180910390a27fffffffffffffffffffffffffffffffffffffffffffffffffffffffffffffffff90505b919050565b61020b8160006104b0565b50565b6000816003811061022257610221610bae565b5b600602016000808201600090556001820160009055600282016000905560038201600090556004820160006101000a81549060ff0219169055505050565b61026b8160016104b0565b50565b600080600090505b60038110156102c9576000816003811061029357610292610bae565b5b6006020160040160009054906101000a900460ff166102b65760019150506102cf565b80806102c190610b36565b915050610276565b50600090505b90565b8060005b600381101561031a5781600082600381106102f4576102f3610bae565b5b6006020160000154141561030757600080fd5b808061031290610b36565b9150506102d6565b50600061032683610125565b90507fffffffffffffffffffffffffffffffffffffffffffffffffffffffffffffffff811415610356575061040d565b600081905060016000826003811061037157610370610bae565b5b6006020160040160006101000a81548160ff02191690831515021790555083600082600381106103a4576103a3610bae565b5b60060201600001819055506203f480426103be9190610a8e565b600082600381106103d2576103d1610bae565b5b6006020160030181905550837fb1cc60311a9b5133ab0e8d3288f9e8a9c663b0dd1d81431f36d2bc88500f504960405160405180910390a250505b5050565b600080826003811061042657610425610bae565b5b60060201600301544211156104a65761043e82610763565b1561044c57600190506104ab565b600082600381106104605761045f610bae565b5b60060201600001547f877b62329cce1bf39c9d6913ca97392dc0be730112ea2842f001c9c1dc9e120560405160405180910390a261049d8261020e565b600190506104ab565b600090505b919050565b60006104bb8361087b565b90507fffffffffffffffffffffffffffffffffffffffffffffffffffffffffffffffff811415610520576040517f08c379a000000000000000000000000000000000000000000000000000000000815260040161051790610a5d565b60405180910390fd5b600081905061052e81610411565b1561053a57505061075f565b836000826003811061054f5761054e610bae565b5b6006020160050160003373ffffffffffffffffffffffffffffffffffffffff1673ffffffffffffffffffffffffffffffffffffffff1681526020019081526020016000205414156105d5576040517f08c379a00000000000000000000000000000000000000000000000000000000081526004016105cc90610a3d565b60405180910390fd5b6000601260009054906101000a900473ffffffffffffffffffffffffffffffffffffffff1673ffffffffffffffffffffffffffffffffffffffff166370a08231336040518263ffffffff1660e01b815260040161063291906109ec565b60206040518083038186803b15801561064a57600080fd5b505afa15801561065e573d6000803e3d6000fd5b505050506040513d601f19601f82011682018060405250810190610682919061094c565b905083156106c157806000836003811061069f5761069e610bae565b5b6006020160010160008282546106b59190610a8e565b925050819055506106f4565b80600083600381106106d6576106d5610bae565b5b6006020160020160008282546106ec9190610a8e565b925050819055505b846000836003811061070957610708610bae565b5b6006020160050160003373ffffffffffffffffffffffffffffffffffffffff1673ffffffffffffffffffffffffffffffffffffffff1681526020019081526020016000208190555061075a82610763565b505050505b5050565b60006302faf08063ffffffff166000836003811061078457610783610bae565b5b6006020160010154106107eb57600082600381106107a5576107a4610bae565b5b60060201600001547f1741186fea6cb44d0edf559c207c18db2e1ee22a3bd9a96bf8571a61b729b0ba60405160405180910390a26107e28261020e565b60019050610876565b6302faf08063ffffffff166000836003811061080a57610809610bae565b5b600602016002015410610871576000826003811061082b5761082a610bae565b5b60060201600001547f85b3529207dd89841fa3db816f8978cc3e132c92559d4f082f7dabce026aa63460405160405180910390a26108688261020e565b60019050610876565b600090505b919050565b600080600090505b60038110156108cb5782600082600381106108a1576108a0610bae565b5b600602016000015414156108b857809150506108f0565b80806108c390610b36565b915050610883565b507fffffffffffffffffffffffffffffffffffffffffffffffffffffffffffffffff90505b919050565b60008135905061090481610c34565b92915050565b60008151905061091981610c34565b92915050565b60006020828403121561093557610934610bdd565b5b6000610943848285016108f5565b91505092915050565b60006020828403121561096257610961610bdd565b5b60006109708482850161090a565b91505092915050565b61098281610ae4565b82525050565b61099181610af6565b82525050565b6109a081610b02565b82525050565b60006109b3601283610a7d565b91506109be82610be2565b602082019050919050565b60006109d6600d83610a7d565b91506109e182610c0b565b602082019050919050565b6000602082019050610a016000830184610979565b92915050565b6000602082019050610a1c6000830184610988565b92915050565b6000602082019050610a376000830184610997565b92915050565b60006020820190508181036000830152610a56816109a6565b9050919050565b60006020820190508181036000830152610a76816109c9565b9050919050565b600082825260208201905092915050565b6000610a9982610b2c565b9150610aa483610b2c565b9250827fffffffffffffffffffffffffffffffffffffffffffffffffffffffffffffffff03821115610ad957610ad8610b7f565b5b828201905092915050565b6000610aef82610b0c565b9050919050565b60008115159050919050565b6000819050919050565b600073ffffffffffffffffffffffffffffffffffffffff82169050919050565b6000819050919050565b6000610b4182610b2c565b91507fffffffffffffffffffffffffffffffffffffffffffffffffffffffffffffffff821415610b7457610b73610b7f565b5b600182019050919050565b7f4e487b7100000000000000000000000000000000000000000000000000000000600052601160045260246000fd5b7f4e487b7100000000000000000000000000000000000000000000000000000000600052603260045260246000fd5b600080fd5b7f5573657220616c726561647920766f7465640000000000000000000000000000600082015250565b7f556b6e6f776e2068617368496400000000000000000000000000000000000000600082015250565b610c3d81610b2c565b8114610c4857600080fd5b5056fea2646970667358221220cb62ccb4cf3e6767fb685ddc83bf8eb141a0aeb7c5c14b6af13f8ae5d029513864736f6c63430008070033",
  "linkReferences": {},
  "deployedLinkReferences": {}
}