{
  "_format": "hh-sol-artifact-1",
  "contractName": "CoolDeFiProtocolWithAnyToken",
  "sourceName": "contracts/Vuln.sol",
  "abi": [
    {
      "inputs": [],
      "stateMutability": "nonpayable",
      "type": "constructor"
    },
    {
      "inputs": [
        {
          "internalType": "address",
          "name": "_who",
          "type": "address"
        }
      ],
      "name": "balanceOf",
      "outputs": [
        {
          "internalType": "uint256",
          "name": "",
          "type": "uint256"
        }
      ],
      "stateMutability": "view",
      "type": "function"
    },
    {
      "inputs": [],
      "name": "coolDeFiOperation",
      "outputs": [],
      "stateMutability": "nonpayable",
      "type": "function"
    },
    {
      "inputs": [
        {
          "internalType": "address",
          "name": "_token",
          "type": "address"
        }
      ],
      "name": "setUserToken",
      "outputs": [],
      "stateMutability": "nonpayable",
      "type": "function"
    },
    {
      "inputs": [],
      "name": "userToken",
      "outputs": [
        {
          "internalType": "address",
          "name": "",
          "type": "address"
        }
      ],
      "stateMutability": "view",
      "type": "function"
    }
  ],
  "bytecode": "0x608060405234801561001057600080fd5b5033600160006101000a81548173ffffffffffffffffffffffffffffffffffffffff021916908373ffffffffffffffffffffffffffffffffffffffff160217905550610695806100616000396000f3fe608060405234801561001057600080fd5b506004361061004c5760003560e01c806338ef2cb01461005157806370a082311461006f578063846ff9b91461009f578063e7897444146100a9575b600080fd5b6100596100c5565b6040516100669190610517565b60405180910390f35b61008960048036038101906100849190610434565b6100e9565b6040516100969190610552565b60405180910390f35b6100a7610132565b005b6100c360048036038101906100be9190610434565b610210565b005b60008054906101000a900473ffffffffffffffffffffffffffffffffffffffff1681565b6000600260008373ffffffffffffffffffffffffffffffffffffffff1673ffffffffffffffffffffffffffffffffffffffff168152602001908152602001600020549050919050565b600073ffffffffffffffffffffffffffffffffffffffff1660008054906101000a900473ffffffffffffffffffffffffffffffffffffffff1673ffffffffffffffffffffffffffffffffffffffff1614156101c2576040517f08c379a00000000000000000000000000000000000000000000000000000000081526004016101b990610532565b60405180910390fd5b6101cb336102ad565b600260003373ffffffffffffffffffffffffffffffffffffffff1673ffffffffffffffffffffffffffffffffffffffff16815260200190815260200160002081905550565b600160009054906101000a900473ffffffffffffffffffffffffffffffffffffffff1673ffffffffffffffffffffffffffffffffffffffff163373ffffffffffffffffffffffffffffffffffffffff161461026a57600080fd5b806000806101000a81548173ffffffffffffffffffffffffffffffffffffffff021916908373ffffffffffffffffffffffffffffffffffffffff16021790555050565b6000806040518060400160405280601281526020017f62616c616e63654f662861646472657373290000000000000000000000000000815250805190602001209050606060008054906101000a900473ffffffffffffffffffffffffffffffffffffffff1673ffffffffffffffffffffffffffffffffffffffff16828560405160240161033a9190610517565b604051602081830303815290604052907bffffffffffffffffffffffffffffffffffffffffffffffffffffffff19166020820180517bffffffffffffffffffffffffffffffffffffffffffffffffffffffff83818316178352505050506040516103a49190610500565b6000604051808303816000865af19150503d80600081146103e1576040519150601f19603f3d011682016040523d82523d6000602084013e6103e6565b606091505b50905080915050808060200190518101906104019190610461565b92505050919050565b60008135905061041981610631565b92915050565b60008151905061042e81610648565b92915050565b60006020828403121561044a57610449610603565b5b60006104588482850161040a565b91505092915050565b60006020828403121561047757610476610603565b5b60006104858482850161041f565b91505092915050565b61049781610594565b82525050565b60006104a88261056d565b6104b28185610578565b93506104c28185602086016105d0565b80840191505092915050565b60006104db601383610583565b91506104e682610608565b602082019050919050565b6104fa816105c6565b82525050565b600061050c828461049d565b915081905092915050565b600060208201905061052c600083018461048e565b92915050565b6000602082019050818103600083015261054b816104ce565b9050919050565b600060208201905061056760008301846104f1565b92915050565b600081519050919050565b600081905092915050565b600082825260208201905092915050565b600061059f826105a6565b9050919050565b600073ffffffffffffffffffffffffffffffffffffffff82169050919050565b6000819050919050565b60005b838110156105ee5780820151818401526020810190506105d3565b838111156105fd576000848401525b50505050565b600080fd5b7f6e6f20746f6b656e206164647265732073657400000000000000000000000000600082015250565b61063a81610594565b811461064557600080fd5b50565b610651816105c6565b811461065c57600080fd5b5056fea26469706673582212208261f0251b3214d3b3302525a8ff971718856488aa421daa248678c20a59ef0b64736f6c63430008070033",
  "linkReferences": {},
  "deployedLinkReferences": {}
}