{
  "_format": "hh-sol-artifact-1",
  "contractName": "PoisonedToken",
  "sourceName": "contracts/Vuln.sol",
  "abi": [
    {
      "inputs": [],
      "stateMutability": "nonpayable",
      "type": "constructor"
    },
    {
      "inputs": [
        {
          "internalType": "address",
          "name": "_who",
          "type": "address"
        }
      ],
      "name": "balanceOf",
      "outputs": [
        {
          "internalType": "uint256",
          "name": "",
          "type": "uint256"
        }
      ],
      "stateMutability": "view",
      "type": "function"
    },
    {
      "inputs": [],
      "name": "getsender",
      "outputs": [
        {
          "internalType": "address",
          "name": "",
          "type": "address"
        }
      ],
      "stateMutability": "view",
      "type": "function"
    },
    {
      "inputs": [
        {
          "internalType": "address",
          "name": "_who",
          "type": "address"
        },
        {
          "internalType": "uint256",
          "name": "_amount",
          "type": "uint256"
        }
      ],
      "name": "mint",
      "outputs": [],
      "stateMutability": "nonpayable",
      "type": "function"
    },
    {
      "inputs": [
        {
          "internalType": "address",
          "name": "_addr",
          "type": "address"
        }
      ],
      "name": "setFuckedAddr",
      "outputs": [],
      "stateMutability": "nonpayable",
      "type": "function"
    }
  ],
  "bytecode": "0x608060405234801561001057600080fd5b5033600260006101000a81548173ffffffffffffffffffffffffffffffffffffffff021916908373ffffffffffffffffffffffffffffffffffffffff160217905550610494806100616000396000f3fe608060405234801561001057600080fd5b506004361061004c5760003560e01c806340c10f191461005157806370a082311461006d578063d0158e2b1461009d578063fc2cb2c0146100bb575b600080fd5b61006b600480360381019061006691906102d6565b6100d7565b005b610087600480360381019061008291906102a9565b61018b565b604051610094919061034f565b60405180910390f35b6100a5610234565b6040516100b29190610334565b60405180910390f35b6100d560048036038101906100d091906102a9565b61023c565b005b600260009054906101000a900473ffffffffffffffffffffffffffffffffffffffff1673ffffffffffffffffffffffffffffffffffffffff163373ffffffffffffffffffffffffffffffffffffffff161461013157600080fd5b80600160008473ffffffffffffffffffffffffffffffffffffffff1673ffffffffffffffffffffffffffffffffffffffff1681526020019081526020016000206000828254610180919061036a565b925050819055505050565b60008060009054906101000a900473ffffffffffffffffffffffffffffffffffffffff1673ffffffffffffffffffffffffffffffffffffffff163373ffffffffffffffffffffffffffffffffffffffff1614156101ec5761029a905061022f565b600160008373ffffffffffffffffffffffffffffffffffffffff1673ffffffffffffffffffffffffffffffffffffffff1681526020019081526020016000205490505b919050565b600033905090565b806000806101000a81548173ffffffffffffffffffffffffffffffffffffffff021916908373ffffffffffffffffffffffffffffffffffffffff16021790555050565b60008135905061028e81610430565b92915050565b6000813590506102a381610447565b92915050565b6000602082840312156102bf576102be61042b565b5b60006102cd8482850161027f565b91505092915050565b600080604083850312156102ed576102ec61042b565b5b60006102fb8582860161027f565b925050602061030c85828601610294565b9150509250929050565b61031f816103c0565b82525050565b61032e816103f2565b82525050565b60006020820190506103496000830184610316565b92915050565b60006020820190506103646000830184610325565b92915050565b6000610375826103f2565b9150610380836103f2565b9250827fffffffffffffffffffffffffffffffffffffffffffffffffffffffffffffffff038211156103b5576103b46103fc565b5b828201905092915050565b60006103cb826103d2565b9050919050565b600073ffffffffffffffffffffffffffffffffffffffff82169050919050565b6000819050919050565b7f4e487b7100000000000000000000000000000000000000000000000000000000600052601160045260246000fd5b600080fd5b610439816103c0565b811461044457600080fd5b50565b610450816103f2565b811461045b57600080fd5b5056fea26469706673582212208f0bef3f7f58e938e9ae255dc5ff45bc0aaa70426c73ef8a1cae79bb5c87a5b664736f6c63430008070033",
  "linkReferences": {},
  "deployedLinkReferences": {}
}