{
  "_format": "hh-sol-artifact-1",
  "contractName": "Vuln1",
  "sourceName": "contracts/Vuln.sol",
  "abi": [
    {
      "inputs": [],
      "name": "payForMatch",
      "outputs": [],
      "stateMutability": "nonpayable",
      "type": "function"
    },
    {
      "inputs": [],
      "name": "player1",
      "outputs": [
        {
          "internalType": "address",
          "name": "",
          "type": "address"
        }
      ],
      "stateMutability": "view",
      "type": "function"
    },
    {
      "inputs": [],
      "name": "player2",
      "outputs": [
        {
          "internalType": "address",
          "name": "",
          "type": "address"
        }
      ],
      "stateMutability": "view",
      "type": "function"
    },
    {
      "inputs": [],
      "name": "registerPlayer1",
      "outputs": [],
      "stateMutability": "payable",
      "type": "function"
    },
    {
      "inputs": [],
      "name": "registerPlayer2",
      "outputs": [],
      "stateMutability": "payable",
      "type": "function"
    },
    {
      "inputs": [
        {
          "internalType": "uint16",
          "name": "score",
          "type": "uint16"
        }
      ],
      "name": "scorePlayer1",
      "outputs": [],
      "stateMutability": "nonpayable",
      "type": "function"
    },
    {
      "inputs": [
        {
          "internalType": "uint16",
          "name": "score",
          "type": "uint16"
        }
      ],
      "name": "scorePlayer2",
      "outputs": [],
      "stateMutability": "nonpayable",
      "type": "function"
    },
    {
      "inputs": [
        {
          "internalType": "uint256",
          "name": "",
          "type": "uint256"
        }
      ],
      "name": "scores",
      "outputs": [
        {
          "internalType": "uint16",
          "name": "",
          "type": "uint16"
        }
      ],
      "stateMutability": "view",
      "type": "function"
    }
  ],
  "bytecode": "0x608060405234801561001057600080fd5b50610b07806100206000396000f3fe60806040526004361061007b5760003560e01c8063d1c8bce51161004e578063d1c8bce51461011b578063d30895e414610125578063dfe0439514610150578063e58da035146101675761007b565b80632ee691a31461008057806340f1ef22146100bd57806359a5f12d146100e6578063842d502e14610111575b600080fd5b34801561008c57600080fd5b506100a760048036038101906100a2919061072e565b610190565b6040516100b4919061085d565b60405180910390f35b3480156100c957600080fd5b506100e460048036038101906100df9190610701565b6101be565b005b3480156100f257600080fd5b506100fb6101fb565b60405161010891906107e2565b60405180910390f35b610119610221565b005b6101236102ae565b005b34801561013157600080fd5b5061013a61033b565b60405161014791906107e2565b60405180910390f35b34801561015c57600080fd5b50610165610361565b005b34801561017357600080fd5b5061018e60048036038101906101899190610701565b610699565b005b600081600281106101a057600080fd5b60109182820401919006600202915054906101000a900461ffff1681565b80600080600281106101d3576101d26109f4565b5b601091828204019190066002026101000a81548161ffff021916908361ffff16021790555050565b600260009054906101000a900473ffffffffffffffffffffffffffffffffffffffff1681565b670de0b6b3a7640000341461026b576040517f08c379a00000000000000000000000000000000000000000000000000000000081526004016102629061083d565b60405180910390fd5b33600160006101000a81548173ffffffffffffffffffffffffffffffffffffffff021916908373ffffffffffffffffffffffffffffffffffffffff160217905550565b670de0b6b3a764000034146102f8576040517f08c379a00000000000000000000000000000000000000000000000000000000081526004016102ef9061083d565b60405180910390fd5b33600260006101000a81548173ffffffffffffffffffffffffffffffffffffffff021916908373ffffffffffffffffffffffffffffffffffffffff160217905550565b600160009054906101000a900473ffffffffffffffffffffffffffffffffffffffff1681565b600080600060028110610377576103766109f4565b5b601091828204019190066002029054906101000a900461ffff1661ffff16116103d5576040517f08c379a00000000000000000000000000000000000000000000000000000000081526004016103cc9061081d565b60405180910390fd5b6000806001600281106103eb576103ea6109f4565b5b601091828204019190066002029054906101000a900461ffff1661ffff1611610449576040517f08c379a0000000000000000000000000000000000000000000000000000000008152600401610440906107fd565b60405180910390fd5b6000476000600160028110610461576104606109f4565b5b601091828204019190066002029054906101000a900461ffff166000806002811061048f5761048e6109f4565b5b601091828204019190066002029054906101000a900461ffff166104b39190610889565b600080600281106104c7576104c66109f4565b5b601091828204019190066002029054906101000a900461ffff166104eb91906108c1565b61ffff166104f991906108f2565b90506000476000600160028110610513576105126109f4565b5b601091828204019190066002029054906101000a900461ffff1660008060028110610541576105406109f4565b5b601091828204019190066002029054906101000a900461ffff166105659190610889565b600060016002811061057a576105796109f4565b5b601091828204019190066002029054906101000a900461ffff1661059e91906108c1565b61ffff166105ac91906108f2565b9050600160009054906101000a900473ffffffffffffffffffffffffffffffffffffffff1673ffffffffffffffffffffffffffffffffffffffff166108fc839081150290604051600060405180830381858888f19350505050158015610616573d6000803e3d6000fd5b50600260009054906101000a900473ffffffffffffffffffffffffffffffffffffffff1673ffffffffffffffffffffffffffffffffffffffff166108fc829081150290604051600060405180830381858888f1935050505015801561067f573d6000803e3d6000fd5b503373ffffffffffffffffffffffffffffffffffffffff16ff5b8060006001600281106106af576106ae6109f4565b5b601091828204019190066002026101000a81548161ffff021916908361ffff16021790555050565b6000813590506106e681610aa3565b92915050565b6000813590506106fb81610aba565b92915050565b60006020828403121561071757610716610a23565b5b6000610725848285016106d7565b91505092915050565b60006020828403121561074457610743610a23565b5b6000610752848285016106ec565b91505092915050565b6107648161094c565b82525050565b6000610777601b83610878565b915061078282610a28565b602082019050919050565b600061079a601a83610878565b91506107a582610a51565b602082019050919050565b60006107bd600f83610878565b91506107c882610a7a565b602082019050919050565b6107dc8161095e565b82525050565b60006020820190506107f7600083018461075b565b92915050565b600060208201905081810360008301526108168161076a565b9050919050565b600060208201905081810360008301526108368161078d565b9050919050565b60006020820190508181036000830152610856816107b0565b9050919050565b600060208201905061087260008301846107d3565b92915050565b600082825260208201905092915050565b60006108948261095e565b915061089f8361095e565b92508261ffff038211156108b6576108b5610996565b5b828201905092915050565b60006108cc8261095e565b91506108d78361095e565b9250826108e7576108e66109c5565b5b828204905092915050565b60006108fd8261098c565b91506109088361098c565b9250817fffffffffffffffffffffffffffffffffffffffffffffffffffffffffffffffff048311821515161561094157610940610996565b5b828202905092915050565b60006109578261096c565b9050919050565b600061ffff82169050919050565b600073ffffffffffffffffffffffffffffffffffffffff82169050919050565b6000819050919050565b7f4e487b7100000000000000000000000000000000000000000000000000000000600052601160045260246000fd5b7f4e487b7100000000000000000000000000000000000000000000000000000000600052601260045260246000fd5b7f4e487b7100000000000000000000000000000000000000000000000000000000600052603260045260246000fd5b600080fd5b7f7365636f6e6420706c617965722073686f756c6420636f6d6d69740000000000600082015250565b7f666972737420706c617965722073686f756c6420636f6d6d6974000000000000600082015250565b7f6d757374206d616b652061206265740000000000000000000000000000000000600082015250565b610aac8161095e565b8114610ab757600080fd5b50565b610ac38161098c565b8114610ace57600080fd5b5056fea2646970667358221220400b84ce7e25dc2acad9ab7315a0b5e555d06d2ad9490b8e6997fbe0c31c413864736f6c63430008070033",
  "linkReferences": {},
  "deployedLinkReferences": {}
}