{
  "_format": "hh-sol-artifact-1",
  "contractName": "FactoryToken",
  "sourceName": "contracts/TokenFactory.sol",
  "abi": [
    {
      "inputs": [
        {
          "internalType": "uint256",
          "name": "_initialBalance",
          "type": "uint256"
        }
      ],
      "stateMutability": "nonpayable",
      "type": "constructor"
    },
    {
      "inputs": [
        {
          "internalType": "address",
          "name": "account",
          "type": "address"
        }
      ],
      "name": "balanceOf",
      "outputs": [
        {
          "internalType": "uint256",
          "name": "",
          "type": "uint256"
        }
      ],
      "stateMutability": "view",
      "type": "function"
    },
    {
      "inputs": [],
      "name": "destroy",
      "outputs": [],
      "stateMutability": "nonpayable",
      "type": "function"
    },
    {
      "inputs": [
        {
          "internalType": "address",
          "name": "user",
          "type": "address"
        },
        {
          "internalType": "uint256",
          "name": "amount",
          "type": "uint256"
        }
      ],
      "name": "mint",
      "outputs": [],
      "stateMutability": "nonpayable",
      "type": "function"
    },
    {
      "inputs": [],
      "name": "name",
      "outputs": [
        {
          "internalType": "string",
          "name": "",
          "type": "string"
        }
      ],
      "stateMutability": "view",
      "type": "function"
    },
    {
      "inputs": [],
      "name": "owner",
      "outputs": [
        {
          "internalType": "address",
          "name": "",
          "type": "address"
        }
      ],
      "stateMutability": "view",
      "type": "function"
    },
    {
      "inputs": [],
      "name": "symbol",
      "outputs": [
        {
          "internalType": "string",
          "name": "",
          "type": "string"
        }
      ],
      "stateMutability": "view",
      "type": "function"
    },
    {
      "inputs": [],
      "name": "totalSupply",
      "outputs": [
        {
          "internalType": "uint256",
          "name": "",
          "type": "uint256"
        }
      ],
      "stateMutability": "view",
      "type": "function"
    },
    {
      "inputs": [
        {
          "internalType": "address",
          "name": "to",
          "type": "address"
        },
        {
          "internalType": "uint256",
          "name": "amount",
          "type": "uint256"
        }
      ],
      "name": "transfer",
      "outputs": [],
      "stateMutability": "nonpayable",
      "type": "function"
    }
  ],
  "bytecode": "0x60806040526040518060400160405280600c81526020017f466163746f7279546f6b656e00000000000000000000000000000000000000008152506000908051906020019062000051929190620001a8565b506040518060400160405280600381526020017f4643540000000000000000000000000000000000000000000000000000000000815250600190805190602001906200009f929190620001a8565b5060006002556000600460146101000a81548160ff021916908315150217905550348015620000cd57600080fd5b5060405162000bbd38038062000bbd8339818101604052810190620000f391906200026f565b33600460006101000a81548173ffffffffffffffffffffffffffffffffffffffff021916908373ffffffffffffffffffffffffffffffffffffffff160217905550806002819055508060036000600460009054906101000a900473ffffffffffffffffffffffffffffffffffffffff1673ffffffffffffffffffffffffffffffffffffffff1673ffffffffffffffffffffffffffffffffffffffff16815260200190815260200160002081905550506200032f565b828054620001b690620002ab565b90600052602060002090601f016020900481019282620001da576000855562000226565b82601f10620001f557805160ff191683800117855562000226565b8280016001018555821562000226579182015b828111156200022557825182559160200191906001019062000208565b5b50905062000235919062000239565b5090565b5b80821115620002545760008160009055506001016200023a565b5090565b600081519050620002698162000315565b92915050565b60006020828403121562000288576200028762000310565b5b6000620002988482850162000258565b91505092915050565b6000819050919050565b60006002820490506001821680620002c457607f821691505b60208210811415620002db57620002da620002e1565b5b50919050565b7f4e487b7100000000000000000000000000000000000000000000000000000000600052602260045260246000fd5b600080fd5b6200032081620002a1565b81146200032c57600080fd5b50565b61087e806200033f6000396000f3fe608060405234801561001057600080fd5b50600436106100885760003560e01c806383197ef01161005b57806383197ef0146101155780638da5cb5b1461011f57806395d89b411461013d578063a9059cbb1461015b57610088565b806306fdde031461008d57806318160ddd146100ab57806340c10f19146100c957806370a08231146100e5575b600080fd5b610095610177565b6040516100a291906105d9565b60405180910390f35b6100b3610205565b6040516100c0919061061b565b60405180910390f35b6100e360048036038101906100de9190610504565b61020b565b005b6100ff60048036038101906100fa91906104d7565b610265565b60405161010c919061061b565b60405180910390f35b61011d6102ae565b005b6101276102c7565b60405161013491906105be565b60405180910390f35b6101456102ed565b60405161015291906105d9565b60405180910390f35b61017560048036038101906101709190610504565b61037b565b005b600080546101849061074b565b80601f01602080910402602001604051908101604052809291908181526020018280546101b09061074b565b80156101fd5780601f106101d2576101008083540402835291602001916101fd565b820191906000526020600020905b8154815290600101906020018083116101e057829003601f168201915b505050505081565b60025481565b80600360008473ffffffffffffffffffffffffffffffffffffffff1673ffffffffffffffffffffffffffffffffffffffff168152602001908152602001600020600082825461025a9190610652565b925050819055505050565b6000600360008373ffffffffffffffffffffffffffffffffffffffff1673ffffffffffffffffffffffffffffffffffffffff168152602001908152602001600020549050919050565b3373ffffffffffffffffffffffffffffffffffffffff16ff5b600460009054906101000a900473ffffffffffffffffffffffffffffffffffffffff1681565b600180546102fa9061074b565b80601f01602080910402602001604051908101604052809291908181526020018280546103269061074b565b80156103735780601f1061034857610100808354040283529160200191610373565b820191906000526020600020905b81548152906001019060200180831161035657829003601f168201915b505050505081565b80600360003373ffffffffffffffffffffffffffffffffffffffff1673ffffffffffffffffffffffffffffffffffffffff1681526020019081526020016000205410156103fd576040517f08c379a00000000000000000000000000000000000000000000000000000000081526004016103f4906105fb565b60405180910390fd5b80600360003373ffffffffffffffffffffffffffffffffffffffff1673ffffffffffffffffffffffffffffffffffffffff168152602001908152602001600020600082825461044c91906106a8565b9250508190555080600360008473ffffffffffffffffffffffffffffffffffffffff1673ffffffffffffffffffffffffffffffffffffffff16815260200190815260200160002060008282546104a29190610652565b925050819055505050565b6000813590506104bc8161081a565b92915050565b6000813590506104d181610831565b92915050565b6000602082840312156104ed576104ec6107db565b5b60006104fb848285016104ad565b91505092915050565b6000806040838503121561051b5761051a6107db565b5b6000610529858286016104ad565b925050602061053a858286016104c2565b9150509250929050565b61054d816106dc565b82525050565b600061055e82610636565b6105688185610641565b9350610578818560208601610718565b610581816107e0565b840191505092915050565b6000610599601183610641565b91506105a4826107f1565b602082019050919050565b6105b88161070e565b82525050565b60006020820190506105d36000830184610544565b92915050565b600060208201905081810360008301526105f38184610553565b905092915050565b600060208201905081810360008301526106148161058c565b9050919050565b600060208201905061063060008301846105af565b92915050565b600081519050919050565b600082825260208201905092915050565b600061065d8261070e565b91506106688361070e565b9250827fffffffffffffffffffffffffffffffffffffffffffffffffffffffffffffffff0382111561069d5761069c61077d565b5b828201905092915050565b60006106b38261070e565b91506106be8361070e565b9250828210156106d1576106d061077d565b5b828203905092915050565b60006106e7826106ee565b9050919050565b600073ffffffffffffffffffffffffffffffffffffffff82169050919050565b6000819050919050565b60005b8381101561073657808201518184015260208101905061071b565b83811115610745576000848401525b50505050565b6000600282049050600182168061076357607f821691505b60208210811415610777576107766107ac565b5b50919050565b7f4e487b7100000000000000000000000000000000000000000000000000000000600052601160045260246000fd5b7f4e487b7100000000000000000000000000000000000000000000000000000000600052602260045260246000fd5b600080fd5b6000601f19601f8301169050919050565b7f4e6f7420656e6f75676820746f6b656e73000000000000000000000000000000600082015250565b610823816106dc565b811461082e57600080fd5b50565b61083a8161070e565b811461084557600080fd5b5056fea2646970667358221220db0f5b6462f9ab95c8c45ec29f025f8648efe823f389b9c6ff200e2e1d0f11dc64736f6c63430008070033",
  "linkReferences": {},
  "deployedLinkReferences": {}
}