{
  "_format": "hh-sol-artifact-1",
  "contractName": "TokenFactory",
  "sourceName": "contracts/TokenFactory.sol",
  "abi": [
    {
      "inputs": [],
      "stateMutability": "nonpayable",
      "type": "constructor"
    },
    {
      "anonymous": false,
      "inputs": [
        {
          "indexed": false,
          "internalType": "contract FactoryToken",
          "name": "factoryToken",
          "type": "address"
        }
      ],
      "name": "FactoryTokenCreated",
      "type": "event"
    },
    {
      "inputs": [
        {
          "internalType": "uint256",
          "name": "initialBalance",
          "type": "uint256"
        }
      ],
      "name": "create2FactoryToken",
      "outputs": [],
      "stateMutability": "payable",
      "type": "function"
    },
    {
      "inputs": [],
      "name": "createDummy",
      "outputs": [],
      "stateMutability": "nonpayable",
      "type": "function"
    },
    {
      "inputs": [],
      "name": "createDummyPayable",
      "outputs": [],
      "stateMutability": "payable",
      "type": "function"
    },
    {
      "inputs": [
        {
          "internalType": "uint256",
          "name": "initialBalance",
          "type": "uint256"
        }
      ],
      "name": "createFactoryToken",
      "outputs": [],
      "stateMutability": "payable",
      "type": "function"
    },
    {
      "inputs": [
        {
          "internalType": "uint256",
          "name": "",
          "type": "uint256"
        }
      ],
      "name": "factoryTokenAddresses",
      "outputs": [
        {
          "internalType": "contract FactoryToken",
          "name": "",
          "type": "address"
        }
      ],
      "stateMutability": "view",
      "type": "function"
    },
    {
      "inputs": [],
      "name": "getFactoryTokens",
      "outputs": [
        {
          "internalType": "contract FactoryToken[]",
          "name": "",
          "type": "address[]"
        }
      ],
      "stateMutability": "view",
      "type": "function"
    },
    {
      "inputs": [],
      "name": "interactions",
      "outputs": [
        {
          "internalType": "uint256",
          "name": "",
          "type": "uint256"
        }
      ],
      "stateMutability": "view",
      "type": "function"
    },
    {
      "inputs": [
        {
          "internalType": "address",
          "name": "token",
          "type": "address"
        }
      ],
      "name": "mintOneTokenForFactory",
      "outputs": [],
      "stateMutability": "nonpayable",
      "type": "function"
    }
  ],
  "bytecode": "0x6080604052600060025534801561001557600080fd5b5033600160006101000a81548173ffffffffffffffffffffffffffffffffffffffff021916908373ffffffffffffffffffffffffffffffffffffffff160217905550611529806100666000396000f3fe608060405260043610620000865760003560e01c8063422e69e71162000055578063422e69e7146200012b5780636b60901f1462000145578063950f434a1462000189578063e00c0bfe14620001b75762000086565b80631f80fe66146200008b5780632627a49c14620000ab5780633a62990114620000db5780633db408cd146200010b575b600080fd5b620000a96004803603810190620000a39190620005c6565b620001c3565b005b348015620000b857600080fd5b50620000c3620002c5565b604051620000d291906200073f565b60405180910390f35b348015620000e857600080fd5b50620000f3620002cb565b604051620001029190620006fe565b60405180910390f35b620001296004803603810190620001239190620005c6565b6200035b565b005b3480156200013857600080fd5b506200014362000438565b005b3480156200015257600080fd5b506200017160048036038101906200016b9190620005c6565b62000467565b60405162000180919062000722565b60405180910390f35b3480156200019657600080fd5b50620001b56004803603810190620001af919062000594565b620004a7565b005b620001c16200051c565b005b60007f616161616100000000000000000000000000000000000000000000000000000082604051620001f5906200054b565b6200020191906200073f565b8190604051809103906000f590508015801562000222573d6000803e3d6000fd5b5090506000819080600181540180825580915050600190039060005260206000200160009091909190916101000a81548173ffffffffffffffffffffffffffffffffffffffff021916908373ffffffffffffffffffffffffffffffffffffffff1602179055507f93fd4bb41940e2759d287c1fe9d738a450d9b04c0e2bc321def3fb800d44b2fc81604051620002b9919062000722565b60405180910390a15050565b60025481565b606060008054806020026020016040519081016040528092919081815260200182805480156200035157602002820191906000526020600020905b8160009054906101000a900473ffffffffffffffffffffffffffffffffffffffff1673ffffffffffffffffffffffffffffffffffffffff168152602001906001019080831162000306575b5050505050905090565b6000816040516200036c906200054b565b6200037891906200073f565b604051809103906000f08015801562000395573d6000803e3d6000fd5b5090506000819080600181540180825580915050600190039060005260206000200160009091909190916101000a81548173ffffffffffffffffffffffffffffffffffffffff021916908373ffffffffffffffffffffffffffffffffffffffff1602179055507f93fd4bb41940e2759d287c1fe9d738a450d9b04c0e2bc321def3fb800d44b2fc816040516200042c919062000722565b60405180910390a15050565b604051620004469062000559565b604051809103906000f08015801562000463573d6000803e3d6000fd5b5050565b600081815481106200047857600080fd5b906000526020600020016000915054906101000a900473ffffffffffffffffffffffffffffffffffffffff1681565b8073ffffffffffffffffffffffffffffffffffffffff166340c10f193060016040518363ffffffff1660e01b8152600401620004e5929190620006d1565b600060405180830381600087803b1580156200050057600080fd5b505af115801562000515573d6000803e3d6000fd5b5050505050565b6040516200052a9062000559565b604051809103906000f08015801562000547573d6000803e3d6000fd5b5050565b610bbd806200085d83390190565b60da806200141a83390190565b600081359050620005778162000828565b92915050565b6000813590506200058e8162000842565b92915050565b600060208284031215620005ad57620005ac62000823565b5b6000620005bd8482850162000566565b91505092915050565b600060208284031215620005df57620005de62000823565b5b6000620005ef848285016200057d565b91505092915050565b60006200060683836200068d565b60208301905092915050565b6200061d8162000795565b82525050565b600062000630826200076c565b6200063c818562000784565b935062000649836200075c565b8060005b8381101562000680578151620006648882620005f8565b9750620006718362000777565b9250506001810190506200064d565b5085935050505092915050565b6200069881620007d3565b82525050565b620006a981620007d3565b82525050565b620006ba81620007e7565b82525050565b620006cb81620007c9565b82525050565b6000604082019050620006e8600083018562000612565b620006f76020830184620006af565b9392505050565b600060208201905081810360008301526200071a818462000623565b905092915050565b60006020820190506200073960008301846200069e565b92915050565b6000602082019050620007566000830184620006c0565b92915050565b6000819050602082019050919050565b600081519050919050565b6000602082019050919050565b600082825260208201905092915050565b6000620007a282620007a9565b9050919050565b600073ffffffffffffffffffffffffffffffffffffffff82169050919050565b6000819050919050565b6000620007e082620007fb565b9050919050565b6000620007f482620007c9565b9050919050565b600062000808826200080f565b9050919050565b60006200081c82620007a9565b9050919050565b600080fd5b620008338162000795565b81146200083f57600080fd5b50565b6200084d81620007c9565b81146200085957600080fd5b5056fe60806040526040518060400160405280600c81526020017f466163746f7279546f6b656e00000000000000000000000000000000000000008152506000908051906020019062000051929190620001a8565b506040518060400160405280600381526020017f4643540000000000000000000000000000000000000000000000000000000000815250600190805190602001906200009f929190620001a8565b5060006002556000600460146101000a81548160ff021916908315150217905550348015620000cd57600080fd5b5060405162000bbd38038062000bbd8339818101604052810190620000f391906200026f565b33600460006101000a81548173ffffffffffffffffffffffffffffffffffffffff021916908373ffffffffffffffffffffffffffffffffffffffff160217905550806002819055508060036000600460009054906101000a900473ffffffffffffffffffffffffffffffffffffffff1673ffffffffffffffffffffffffffffffffffffffff1673ffffffffffffffffffffffffffffffffffffffff16815260200190815260200160002081905550506200032f565b828054620001b690620002ab565b90600052602060002090601f016020900481019282620001da576000855562000226565b82601f10620001f557805160ff191683800117855562000226565b8280016001018555821562000226579182015b828111156200022557825182559160200191906001019062000208565b5b50905062000235919062000239565b5090565b5b80821115620002545760008160009055506001016200023a565b5090565b600081519050620002698162000315565b92915050565b60006020828403121562000288576200028762000310565b5b6000620002988482850162000258565b91505092915050565b6000819050919050565b60006002820490506001821680620002c457607f821691505b60208210811415620002db57620002da620002e1565b5b50919050565b7f4e487b7100000000000000000000000000000000000000000000000000000000600052602260045260246000fd5b600080fd5b6200032081620002a1565b81146200032c57600080fd5b50565b61087e806200033f6000396000f3fe608060405234801561001057600080fd5b50600436106100885760003560e01c806383197ef01161005b57806383197ef0146101155780638da5cb5b1461011f57806395d89b411461013d578063a9059cbb1461015b57610088565b806306fdde031461008d57806318160ddd146100ab57806340c10f19146100c957806370a08231146100e5575b600080fd5b610095610177565b6040516100a291906105d9565b60405180910390f35b6100b3610205565b6040516100c0919061061b565b60405180910390f35b6100e360048036038101906100de9190610504565b61020b565b005b6100ff60048036038101906100fa91906104d7565b610265565b60405161010c919061061b565b60405180910390f35b61011d6102ae565b005b6101276102c7565b60405161013491906105be565b60405180910390f35b6101456102ed565b60405161015291906105d9565b60405180910390f35b61017560048036038101906101709190610504565b61037b565b005b600080546101849061074b565b80601f01602080910402602001604051908101604052809291908181526020018280546101b09061074b565b80156101fd5780601f106101d2576101008083540402835291602001916101fd565b820191906000526020600020905b8154815290600101906020018083116101e057829003601f168201915b505050505081565b60025481565b80600360008473ffffffffffffffffffffffffffffffffffffffff1673ffffffffffffffffffffffffffffffffffffffff168152602001908152602001600020600082825461025a9190610652565b925050819055505050565b6000600360008373ffffffffffffffffffffffffffffffffffffffff1673ffffffffffffffffffffffffffffffffffffffff168152602001908152602001600020549050919050565b3373ffffffffffffffffffffffffffffffffffffffff16ff5b600460009054906101000a900473ffffffffffffffffffffffffffffffffffffffff1681565b600180546102fa9061074b565b80601f01602080910402602001604051908101604052809291908181526020018280546103269061074b565b80156103735780601f1061034857610100808354040283529160200191610373565b820191906000526020600020905b81548152906001019060200180831161035657829003601f168201915b505050505081565b80600360003373ffffffffffffffffffffffffffffffffffffffff1673ffffffffffffffffffffffffffffffffffffffff1681526020019081526020016000205410156103fd576040517f08c379a00000000000000000000000000000000000000000000000000000000081526004016103f4906105fb565b60405180910390fd5b80600360003373ffffffffffffffffffffffffffffffffffffffff1673ffffffffffffffffffffffffffffffffffffffff168152602001908152602001600020600082825461044c91906106a8565b9250508190555080600360008473ffffffffffffffffffffffffffffffffffffffff1673ffffffffffffffffffffffffffffffffffffffff16815260200190815260200160002060008282546104a29190610652565b925050819055505050565b6000813590506104bc8161081a565b92915050565b6000813590506104d181610831565b92915050565b6000602082840312156104ed576104ec6107db565b5b60006104fb848285016104ad565b91505092915050565b6000806040838503121561051b5761051a6107db565b5b6000610529858286016104ad565b925050602061053a858286016104c2565b9150509250929050565b61054d816106dc565b82525050565b600061055e82610636565b6105688185610641565b9350610578818560208601610718565b610581816107e0565b840191505092915050565b6000610599601183610641565b91506105a4826107f1565b602082019050919050565b6105b88161070e565b82525050565b60006020820190506105d36000830184610544565b92915050565b600060208201905081810360008301526105f38184610553565b905092915050565b600060208201905081810360008301526106148161058c565b9050919050565b600060208201905061063060008301846105af565b92915050565b600081519050919050565b600082825260208201905092915050565b600061065d8261070e565b91506106688361070e565b9250827fffffffffffffffffffffffffffffffffffffffffffffffffffffffffffffffff0382111561069d5761069c61077d565b5b828201905092915050565b60006106b38261070e565b91506106be8361070e565b9250828210156106d1576106d061077d565b5b828203905092915050565b60006106e7826106ee565b9050919050565b600073ffffffffffffffffffffffffffffffffffffffff82169050919050565b6000819050919050565b60005b8381101561073657808201518184015260208101905061071b565b83811115610745576000848401525b50505050565b6000600282049050600182168061076357607f821691505b60208210811415610777576107766107ac565b5b50919050565b7f4e487b7100000000000000000000000000000000000000000000000000000000600052601160045260246000fd5b7f4e487b7100000000000000000000000000000000000000000000000000000000600052602260045260246000fd5b600080fd5b6000601f19601f8301169050919050565b7f4e6f7420656e6f75676820746f6b656e73000000000000000000000000000000600082015250565b610823816106dc565b811461082e57600080fd5b50565b61083a8161070e565b811461084557600080fd5b5056fea2646970667358221220db0f5b6462f9ab95c8c45ec29f025f8648efe823f389b9c6ff200e2e1d0f11dc64736f6c63430008070033608060405234801561001057600080fd5b50600160008190555060b3806100276000396000f3fe6080604052348015600f57600080fd5b506004361060285760003560e01c806332e43a1114602d575b600080fd5b60336047565b604051603e9190605a565b60405180910390f35b60005481565b6054816073565b82525050565b6000602082019050606d6000830184604d565b92915050565b600081905091905056fea2646970667358221220bf37f5d7bc86ea835c66a840d1cf4b663825647f0d77a24f41c57e674a05eb2b64736f6c63430008070033a2646970667358221220be4d21cc2db7a579631f142adcc56b40511554f9c14d3491bc48c400b98964c164736f6c63430008070033",
  "linkReferences": {},
  "deployedLinkReferences": {}
}