{
  "_format": "hh-sol-artifact-1",
  "contractName": "MilkaSingleBidding",
  "sourceName": "contracts/MilkaSingleBidding.sol",
  "abi": [
    {
      "inputs": [
        {
          "internalType": "bytes32",
          "name": "title",
          "type": "bytes32"
        },
        {
          "internalType": "bytes32",
          "name": "description",
          "type": "bytes32"
        },
        {
          "internalType": "uint256",
          "name": "minValue",
          "type": "uint256"
        },
        {
          "internalType": "uint256",
          "name": "minTime",
          "type": "uint256"
        },
        {
          "internalType": "uint256",
          "name": "maxTime",
          "type": "uint256"
        },
        {
          "internalType": "uint256",
          "name": "addityProcent",
          "type": "uint256"
        }
      ],
      "stateMutability": "nonpayable",
      "type": "constructor"
    },
    {
      "anonymous": false,
      "inputs": [
        {
          "indexed": false,
          "internalType": "uint256",
          "name": "hashId",
          "type": "uint256"
        },
        {
          "indexed": false,
          "internalType": "bytes32",
          "name": "title",
          "type": "bytes32"
        },
        {
          "indexed": false,
          "internalType": "bytes32",
          "name": "description",
          "type": "bytes32"
        },
        {
          "indexed": false,
          "internalType": "address payable",
          "name": "currentOwner",
          "type": "address"
        },
        {
          "indexed": false,
          "internalType": "uint256",
          "name": "value",
          "type": "uint256"
        }
      ],
      "name": "AcceptedProposal",
      "type": "event"
    },
    {
      "anonymous": false,
      "inputs": [
        {
          "indexed": false,
          "internalType": "uint256",
          "name": "hashId",
          "type": "uint256"
        },
        {
          "indexed": false,
          "internalType": "bytes32",
          "name": "title",
          "type": "bytes32"
        },
        {
          "indexed": false,
          "internalType": "bytes32",
          "name": "description",
          "type": "bytes32"
        }
      ],
      "name": "CancelProposal",
      "type": "event"
    },
    {
      "anonymous": false,
      "inputs": [
        {
          "indexed": false,
          "internalType": "uint256",
          "name": "hashId",
          "type": "uint256"
        },
        {
          "indexed": false,
          "internalType": "bytes32",
          "name": "title",
          "type": "bytes32"
        },
        {
          "indexed": false,
          "internalType": "bytes32",
          "name": "description",
          "type": "bytes32"
        },
        {
          "indexed": false,
          "internalType": "address payable",
          "name": "currentOwner",
          "type": "address"
        }
      ],
      "name": "CreatedBidding",
      "type": "event"
    },
    {
      "anonymous": false,
      "inputs": [
        {
          "indexed": false,
          "internalType": "uint256",
          "name": "hashId",
          "type": "uint256"
        }
      ],
      "name": "RejectedProposal",
      "type": "event"
    },
    {
      "inputs": [],
      "name": "buyItem",
      "outputs": [
        {
          "internalType": "bool",
          "name": "",
          "type": "bool"
        }
      ],
      "stateMutability": "payable",
      "type": "function"
    },
    {
      "inputs": [
        {
          "internalType": "uint256",
          "name": "currTime",
          "type": "uint256"
        },
        {
          "internalType": "uint256",
          "name": "deltaTime",
          "type": "uint256"
        }
      ],
      "name": "calcUpdatedTime",
      "outputs": [
        {
          "internalType": "uint256",
          "name": "",
          "type": "uint256"
        }
      ],
      "stateMutability": "pure",
      "type": "function"
    },
    {
      "inputs": [],
      "name": "currentAddress",
      "outputs": [
        {
          "internalType": "address",
          "name": "",
          "type": "address"
        }
      ],
      "stateMutability": "view",
      "type": "function"
    },
    {
      "inputs": [],
      "name": "currentDeltaTime",
      "outputs": [
        {
          "internalType": "uint256",
          "name": "",
          "type": "uint256"
        }
      ],
      "stateMutability": "view",
      "type": "function"
    },
    {
      "inputs": [],
      "name": "currentIsFinished",
      "outputs": [
        {
          "internalType": "bool",
          "name": "",
          "type": "bool"
        }
      ],
      "stateMutability": "view",
      "type": "function"
    },
    {
      "inputs": [
        {
          "components": [
            {
              "internalType": "uint256",
              "name": "hashId",
              "type": "uint256"
            },
            {
              "internalType": "uint256",
              "name": "createDate",
              "type": "uint256"
            },
            {
              "internalType": "uint256",
              "name": "endDate",
              "type": "uint256"
            },
            {
              "internalType": "uint256",
              "name": "currentDeltaTime",
              "type": "uint256"
            },
            {
              "internalType": "uint256",
              "name": "value",
              "type": "uint256"
            },
            {
              "internalType": "uint256",
              "name": "nextMinValue",
              "type": "uint256"
            },
            {
              "internalType": "address payable",
              "name": "currentOwner",
              "type": "address"
            },
            {
              "internalType": "address payable",
              "name": "biddingCreator",
              "type": "address"
            },
            {
              "internalType": "bytes32",
              "name": "title",
              "type": "bytes32"
            },
            {
              "internalType": "bytes32",
              "name": "description",
              "type": "bytes32"
            },
            {
              "internalType": "uint256",
              "name": "addityProcent",
              "type": "uint256"
            },
            {
              "internalType": "bool",
              "name": "isEndBidding",
              "type": "bool"
            }
          ],
          "internalType": "struct MilkaBiddingUtils.Product",
          "name": "prod",
          "type": "tuple"
        }
      ],
      "name": "emitFinishedBidding",
      "outputs": [],
      "stateMutability": "nonpayable",
      "type": "function"
    },
    {
      "inputs": [],
      "name": "tryFinishBidding",
      "outputs": [
        {
          "internalType": "bool",
          "name": "",
          "type": "bool"
        }
      ],
      "stateMutability": "nonpayable",
      "type": "function"
    }
  ],
  "bytecode": "0x6080604052620151806000556102586001553480156200001e57600080fd5b506040516200154d3803806200154d8339818101604052810190620000449190620002ae565b818311156200008a576040517f08c379a00000000000000000000000000000000000000000000000000000000081526004016200008190620003a4565b60405180910390fd5b33600260070160006101000a81548173ffffffffffffffffffffffffffffffffffffffff021916908373ffffffffffffffffffffffffffffffffffffffff160217905550856002600801819055508460026009018190555042600260010181905550806002600a018190555083600260050181905550600082146200011157816000819055505b600083146200012257826001819055505b600154600e600101819055506200013e620001c860201b60201c565b600260030181905550620001576200024260201b60201c565b7fa11993eb95384e356b03388262d2842238f11010690c653232a9da617fa9236060008787600260070160009054906101000a900473ffffffffffffffffffffffffffffffffffffffff16604051620001b49493929190620003c6565b60405180910390a1505050505050620005bb565b600080600e6000015490506000600e60010154905060008183620001ed919062000424565b905060008160005462000201919062000481565b11620002155760015493505050506200023f565b81600e6000018190555080600e600101819055508060005462000239919062000481565b93505050505b90565b6200025e426002600301546200026860201b620001a51760201c565b6002800181905550565b6000818362000278919062000424565b905092915050565b600081519050620002918162000587565b92915050565b600081519050620002a881620005a1565b92915050565b60008060008060008060c08789031215620002ce57620002cd62000533565b5b6000620002de89828a0162000280565b9650506020620002f189828a0162000280565b95505060406200030489828a0162000297565b94505060606200031789828a0162000297565b93505060806200032a89828a0162000297565b92505060a06200033d89828a0162000297565b9150509295509295509295565b6200035581620004bc565b82525050565b6200036681620004d0565b82525050565b60006200037b603d8362000413565b9150620003888262000538565b604082019050919050565b6200039e81620004fa565b82525050565b60006020820190508181036000830152620003bf816200036c565b9050919050565b6000608082019050620003dd600083018762000393565b620003ec60208301866200035b565b620003fb60408301856200035b565b6200040a60608301846200034a565b95945050505050565b600082825260208201905092915050565b60006200043182620004fa565b91506200043e83620004fa565b9250827fffffffffffffffffffffffffffffffffffffffffffffffffffffffffffffffff0382111562000476576200047562000504565b5b828201905092915050565b60006200048e82620004fa565b91506200049b83620004fa565b925082821015620004b157620004b062000504565b5b828203905092915050565b6000620004c982620004da565b9050919050565b6000819050919050565b600073ffffffffffffffffffffffffffffffffffffffff82169050919050565b6000819050919050565b7f4e487b7100000000000000000000000000000000000000000000000000000000600052601160045260246000fd5b600080fd5b7f506c656173652c20696e70757420636f72726563742074696d653a206d696e5460008201527f696d65206d757374206265206c657373207468616e206d617854696d65000000602082015250565b6200059281620004d0565b81146200059e57600080fd5b50565b620005ac81620004fa565b8114620005b857600080fd5b50565b610f8280620005cb6000396000f3fe6080604052600436106100705760003560e01c8063795612d61161004e578063795612d61461010857806381bf4718146101265780639341d4eb14610151578063f66d631c1461017a57610070565b80632238b73a146100755780634e9c1208146100b25780636cc494c5146100dd575b600080fd5b34801561008157600080fd5b5061009c600480360381019061009791906109be565b6101a5565b6040516100a99190610b48565b60405180910390f35b3480156100be57600080fd5b506100c76101bb565b6040516100d49190610acd565b60405180910390f35b3480156100e957600080fd5b506100f26101e1565b6040516100ff9190610acd565b60405180910390f35b6101106101fc565b60405161011d9190610acd565b60405180910390f35b34801561013257600080fd5b5061013b610453565b6040516101489190610ab2565b60405180910390f35b34801561015d57600080fd5b5061017860048036038101906101739190610990565b610480565b005b34801561018657600080fd5b5061018f610560565b60405161019c9190610b48565b60405180910390f35b600081836101b39190610c23565b905092915050565b6000600280015442106101d9576101d061056d565b600190506101de565b600090505b90565b60006002600b0160009054906101000a900460ff1615905090565b60006002600b0160009054906101000a900460ff1615610251576040517f08c379a000000000000000000000000000000000000000000000000000000000815260040161024890610b08565b60405180910390fd5b60028001544210610297576040517f08c379a000000000000000000000000000000000000000000000000000000000815260040161028e90610ae8565b60405180910390fd5b6002600501543410156102df576040517f08c379a00000000000000000000000000000000000000000000000000000000081526004016102d690610b28565b60405180910390fd5b600073ffffffffffffffffffffffffffffffffffffffff16600260060160009054906101000a900473ffffffffffffffffffffffffffffffffffffffff1673ffffffffffffffffffffffffffffffffffffffff16146103aa57600260060160009054906101000a900473ffffffffffffffffffffffffffffffffffffffff1673ffffffffffffffffffffffffffffffffffffffff166108fc6002600401549081150290604051600060405180830381858888f193505050501580156103a8573d6000803e3d6000fd5b505b33600260060160006101000a81548173ffffffffffffffffffffffffffffffffffffffff021916908373ffffffffffffffffffffffffffffffffffffffff160217905550346002600401819055506002600a015460646002600401546104109190610c79565b61041a9190610caa565b60026004015461042a9190610c23565b60026005018190555061043b61078f565b60026003018190555061044c610801565b6001905090565b6000600260060160009054906101000a900473ffffffffffffffffffffffffffffffffffffffff16905090565b600073ffffffffffffffffffffffffffffffffffffffff168160c0015173ffffffffffffffffffffffffffffffffffffffff161415610507577ff13bfa7d2cec3002aa80fa154881c0b17d3fd01c4ff8b0f25e68895053462cd381600001518261010001518361012001516040516104fa93929190610b63565b60405180910390a161055d565b7fe92dedc60fde586a3e790ad45c1b64f3af47f7086dbded30d4495b6fcfacf2b381600001518261010001518361012001518460c001518560800151604051610554959493929190610b9a565b60405180910390a15b50565b6000600260030154905090565b60016002600b0160006101000a81548160ff021916908315150217905550600073ffffffffffffffffffffffffffffffffffffffff16600260060160009054906101000a900473ffffffffffffffffffffffffffffffffffffffff1673ffffffffffffffffffffffffffffffffffffffff161461065657600260070160009054906101000a900473ffffffffffffffffffffffffffffffffffffffff1673ffffffffffffffffffffffffffffffffffffffff166108fc6002600401549081150290604051600060405180830381858888f19350505050158015610654573d6000803e3d6000fd5b505b61078d6002604051806101800160405290816000820154815260200160018201548152602001600282015481526020016003820154815260200160048201548152602001600582015481526020016006820160009054906101000a900473ffffffffffffffffffffffffffffffffffffffff1673ffffffffffffffffffffffffffffffffffffffff1673ffffffffffffffffffffffffffffffffffffffff1681526020016007820160009054906101000a900473ffffffffffffffffffffffffffffffffffffffff1673ffffffffffffffffffffffffffffffffffffffff1673ffffffffffffffffffffffffffffffffffffffff1681526020016008820154815260200160098201548152602001600a8201548152602001600b820160009054906101000a900460ff161515151581525050610480565b565b600080600e6000015490506000600e600101549050600081836107b29190610c23565b90506000816000546107c49190610d04565b116107d65760015493505050506107fe565b81600e6000018190555080600e60010181905550806000546107f89190610d04565b93505050505b90565b610810426002600301546101a5565b6002800181905550565b60008135905061082981610ef0565b92915050565b60008135905061083e81610f07565b92915050565b60008135905061085381610f1e565b92915050565b600061018082840312156108705761086f610e5a565b5b61087b610180610bed565b9050600061088b8482850161097b565b600083015250602061089f8482850161097b565b60208301525060406108b38482850161097b565b60408301525060606108c78482850161097b565b60608301525060806108db8482850161097b565b60808301525060a06108ef8482850161097b565b60a08301525060c06109038482850161081a565b60c08301525060e06109178482850161081a565b60e08301525061010061092c84828501610844565b6101008301525061012061094284828501610844565b610120830152506101406109588482850161097b565b6101408301525061016061096e8482850161082f565b6101608301525092915050565b60008135905061098a81610f35565b92915050565b600061018082840312156109a7576109a6610e5f565b5b60006109b584828501610859565b91505092915050565b600080604083850312156109d5576109d4610e5f565b5b60006109e38582860161097b565b92505060206109f48582860161097b565b9150509250929050565b610a0781610d4a565b82525050565b610a1681610d38565b82525050565b610a2581610d5c565b82525050565b610a3481610d68565b82525050565b6000610a47600683610c12565b9150610a5282610e75565b602082019050919050565b6000610a6a601383610c12565b9150610a7582610e9e565b602082019050919050565b6000610a8d601283610c12565b9150610a9882610ec7565b602082019050919050565b610aac81610d92565b82525050565b6000602082019050610ac76000830184610a0d565b92915050565b6000602082019050610ae26000830184610a1c565b92915050565b60006020820190508181036000830152610b0181610a3a565b9050919050565b60006020820190508181036000830152610b2181610a5d565b9050919050565b60006020820190508181036000830152610b4181610a80565b9050919050565b6000602082019050610b5d6000830184610aa3565b92915050565b6000606082019050610b786000830186610aa3565b610b856020830185610a2b565b610b926040830184610a2b565b949350505050565b600060a082019050610baf6000830188610aa3565b610bbc6020830187610a2b565b610bc96040830186610a2b565b610bd660608301856109fe565b610be36080830184610aa3565b9695505050505050565b6000610bf7610c08565b9050610c038282610d9c565b919050565b6000604051905090565b600082825260208201905092915050565b6000610c2e82610d92565b9150610c3983610d92565b9250827fffffffffffffffffffffffffffffffffffffffffffffffffffffffffffffffff03821115610c6e57610c6d610dcd565b5b828201905092915050565b6000610c8482610d92565b9150610c8f83610d92565b925082610c9f57610c9e610dfc565b5b828204905092915050565b6000610cb582610d92565b9150610cc083610d92565b9250817fffffffffffffffffffffffffffffffffffffffffffffffffffffffffffffffff0483118215151615610cf957610cf8610dcd565b5b828202905092915050565b6000610d0f82610d92565b9150610d1a83610d92565b925082821015610d2d57610d2c610dcd565b5b828203905092915050565b6000610d4382610d72565b9050919050565b6000610d5582610d72565b9050919050565b60008115159050919050565b6000819050919050565b600073ffffffffffffffffffffffffffffffffffffffff82169050919050565b6000819050919050565b610da582610e64565b810181811067ffffffffffffffff82111715610dc457610dc3610e2b565b5b80604052505050565b7f4e487b7100000000000000000000000000000000000000000000000000000000600052601160045260246000fd5b7f4e487b7100000000000000000000000000000000000000000000000000000000600052601260045260246000fd5b7f4e487b7100000000000000000000000000000000000000000000000000000000600052604160045260246000fd5b600080fd5b600080fd5b6000601f19601f8301169050919050565b7f46696e6973680000000000000000000000000000000000000000000000000000600082015250565b7f42696464696e672069732066696e697368656400000000000000000000000000600082015250565b7f56616c756520697320696e636f72726563740000000000000000000000000000600082015250565b610ef981610d4a565b8114610f0457600080fd5b50565b610f1081610d5c565b8114610f1b57600080fd5b50565b610f2781610d68565b8114610f3257600080fd5b50565b610f3e81610d92565b8114610f4957600080fd5b5056fea2646970667358221220250c9f987304d3dbcbaa833267cbd16b8311020c75286aeca0d28bc6a0dbddfd64736f6c63430008070033",
  "linkReferences": {},
  "deployedLinkReferences": {}
}