{
  "_format": "hh-sol-artifact-1",
  "contractName": "MilkaQueueBidding",
  "sourceName": "contracts/MilkaQueueBidding.sol",
  "abi": [
    {
      "inputs": [
        {
          "internalType": "uint256",
          "name": "minTime",
          "type": "uint256"
        }
      ],
      "stateMutability": "nonpayable",
      "type": "constructor"
    },
    {
      "anonymous": false,
      "inputs": [
        {
          "indexed": false,
          "internalType": "uint256",
          "name": "hashId",
          "type": "uint256"
        },
        {
          "indexed": false,
          "internalType": "bytes32",
          "name": "title",
          "type": "bytes32"
        },
        {
          "indexed": false,
          "internalType": "bytes32",
          "name": "description",
          "type": "bytes32"
        },
        {
          "indexed": false,
          "internalType": "address payable",
          "name": "currentOwner",
          "type": "address"
        },
        {
          "indexed": false,
          "internalType": "uint256",
          "name": "value",
          "type": "uint256"
        }
      ],
      "name": "AcceptedProposal",
      "type": "event"
    },
    {
      "anonymous": false,
      "inputs": [
        {
          "indexed": false,
          "internalType": "uint256",
          "name": "hashId",
          "type": "uint256"
        },
        {
          "indexed": false,
          "internalType": "bytes32",
          "name": "title",
          "type": "bytes32"
        },
        {
          "indexed": false,
          "internalType": "bytes32",
          "name": "description",
          "type": "bytes32"
        }
      ],
      "name": "CancelProposal",
      "type": "event"
    },
    {
      "anonymous": false,
      "inputs": [
        {
          "indexed": false,
          "internalType": "uint256",
          "name": "hashId",
          "type": "uint256"
        },
        {
          "indexed": false,
          "internalType": "bytes32",
          "name": "title",
          "type": "bytes32"
        },
        {
          "indexed": false,
          "internalType": "bytes32",
          "name": "description",
          "type": "bytes32"
        },
        {
          "indexed": false,
          "internalType": "address payable",
          "name": "currentOwner",
          "type": "address"
        }
      ],
      "name": "CreatedBidding",
      "type": "event"
    },
    {
      "anonymous": false,
      "inputs": [
        {
          "indexed": false,
          "internalType": "uint256",
          "name": "hashId",
          "type": "uint256"
        }
      ],
      "name": "RejectedProposal",
      "type": "event"
    },
    {
      "inputs": [],
      "name": "QUEUE_COUNT",
      "outputs": [
        {
          "internalType": "uint256",
          "name": "",
          "type": "uint256"
        }
      ],
      "stateMutability": "view",
      "type": "function"
    },
    {
      "inputs": [
        {
          "internalType": "uint256",
          "name": "hashId",
          "type": "uint256"
        }
      ],
      "name": "buyItem",
      "outputs": [
        {
          "internalType": "bool",
          "name": "",
          "type": "bool"
        }
      ],
      "stateMutability": "payable",
      "type": "function"
    },
    {
      "inputs": [
        {
          "internalType": "uint256",
          "name": "currTime",
          "type": "uint256"
        },
        {
          "internalType": "uint256",
          "name": "deltaTime",
          "type": "uint256"
        }
      ],
      "name": "calcUpdatedTime",
      "outputs": [
        {
          "internalType": "uint256",
          "name": "",
          "type": "uint256"
        }
      ],
      "stateMutability": "pure",
      "type": "function"
    },
    {
      "inputs": [
        {
          "internalType": "uint256",
          "name": "hashId",
          "type": "uint256"
        },
        {
          "internalType": "bytes32",
          "name": "title",
          "type": "bytes32"
        },
        {
          "internalType": "bytes32",
          "name": "description",
          "type": "bytes32"
        },
        {
          "internalType": "uint256",
          "name": "minValue",
          "type": "uint256"
        }
      ],
      "name": "createBidding",
      "outputs": [],
      "stateMutability": "nonpayable",
      "type": "function"
    },
    {
      "inputs": [
        {
          "internalType": "uint256",
          "name": "hashId",
          "type": "uint256"
        }
      ],
      "name": "currentAddress",
      "outputs": [
        {
          "internalType": "address",
          "name": "",
          "type": "address"
        }
      ],
      "stateMutability": "view",
      "type": "function"
    },
    {
      "inputs": [
        {
          "internalType": "uint256",
          "name": "hashId",
          "type": "uint256"
        }
      ],
      "name": "currentDeltaTime",
      "outputs": [
        {
          "internalType": "uint256",
          "name": "",
          "type": "uint256"
        }
      ],
      "stateMutability": "view",
      "type": "function"
    },
    {
      "inputs": [
        {
          "components": [
            {
              "internalType": "uint256",
              "name": "hashId",
              "type": "uint256"
            },
            {
              "internalType": "uint256",
              "name": "createDate",
              "type": "uint256"
            },
            {
              "internalType": "uint256",
              "name": "endDate",
              "type": "uint256"
            },
            {
              "internalType": "uint256",
              "name": "currentDeltaTime",
              "type": "uint256"
            },
            {
              "internalType": "uint256",
              "name": "value",
              "type": "uint256"
            },
            {
              "internalType": "uint256",
              "name": "nextMinValue",
              "type": "uint256"
            },
            {
              "internalType": "address payable",
              "name": "currentOwner",
              "type": "address"
            },
            {
              "internalType": "address payable",
              "name": "biddingCreator",
              "type": "address"
            },
            {
              "internalType": "bytes32",
              "name": "title",
              "type": "bytes32"
            },
            {
              "internalType": "bytes32",
              "name": "description",
              "type": "bytes32"
            },
            {
              "internalType": "uint256",
              "name": "addityProcent",
              "type": "uint256"
            },
            {
              "internalType": "bool",
              "name": "isEndBidding",
              "type": "bool"
            }
          ],
          "internalType": "struct MilkaBiddingUtils.Product",
          "name": "prod",
          "type": "tuple"
        }
      ],
      "name": "emitFinishedBidding",
      "outputs": [],
      "stateMutability": "nonpayable",
      "type": "function"
    },
    {
      "inputs": [
        {
          "internalType": "uint256",
          "name": "hashId",
          "type": "uint256"
        }
      ],
      "name": "getTimeStampEnd",
      "outputs": [
        {
          "internalType": "uint256",
          "name": "",
          "type": "uint256"
        }
      ],
      "stateMutability": "view",
      "type": "function"
    },
    {
      "inputs": [
        {
          "internalType": "uint256",
          "name": "hashId",
          "type": "uint256"
        }
      ],
      "name": "tryFinishBidding",
      "outputs": [
        {
          "internalType": "bool",
          "name": "",
          "type": "bool"
        }
      ],
      "stateMutability": "nonpayable",
      "type": "function"
    }
  ],
  "bytecode": "0x60806040526102586000553480156200001757600080fd5b506040516200184a3803806200184a83398181016040528101906200003d919062000062565b8060008190555050620000bd565b6000815190506200005c81620000a3565b92915050565b6000602082840312156200007b576200007a6200009e565b5b60006200008b848285016200004b565b91505092915050565b6000819050919050565b600080fd5b620000ae8162000094565b8114620000ba57600080fd5b50565b61177d80620000cd6000396000f3fe6080604052600436106100865760003560e01c80637326032911610059578063732603291461017f5780639341d4eb146101a8578063a907865c146101d1578063e7fb74c71461020e578063f7208c9c1461023e57610086565b806318e7d58d1461008b5780632238b73a146100c85780633ff760401461010557806344b7db0814610142575b600080fd5b34801561009757600080fd5b506100b260048036038101906100ad9190611108565b610269565b6040516100bf9190611288565b60405180910390f35b3480156100d457600080fd5b506100ef60048036038101906100ea919061119c565b6102b7565b6040516100fc91906112e3565b60405180910390f35b34801561011157600080fd5b5061012c60048036038101906101279190611108565b6102cd565b60405161013991906112e3565b60405180910390f35b34801561014e57600080fd5b5061016960048036038101906101649190611108565b6102ff565b604051610176919061126d565b60405180910390f35b34801561018b57600080fd5b506101a660048036038101906101a19190611135565b610351565b005b3480156101b457600080fd5b506101cf60048036038101906101ca91906110da565b6105a2565b005b3480156101dd57600080fd5b506101f860048036038101906101f39190611108565b610682565b60405161020591906112e3565b60405180910390f35b61022860048036038101906102239190611108565b6106b4565b6040516102359190611288565b60405180910390f35b34801561024a57600080fd5b50610253610935565b60405161026091906112e3565b60405180910390f35b6000806102758361093a565b90506001816003811061028b5761028a611620565b5b600c02016002015442106102ac576102a2816109c8565b60019150506102b2565b60009150505b919050565b600081836102c59190611403565b905092915050565b6000806102d98361093a565b9050600181600381106102ef576102ee611620565b5b600c020160020154915050919050565b60008061030b8361093a565b90506001816003811061032157610320611620565b5b600c020160060160009054906101000a900473ffffffffffffffffffffffffffffffffffffffff16915050919050565b8360005b600381101561039957816001826003811061037357610372611620565b5b600c020160000154141561038657600080fd5b808061039190611579565b915050610355565b5060006103a586610c25565b90507fffffffffffffffffffffffffffffffffffffffffffffffffffffffffffffffff8114156103d5575061059b565b600081905086600182600381106103ef576103ee611620565b5b600c020160000181905550336001826003811061040f5761040e611620565b5b600c020160070160006101000a81548173ffffffffffffffffffffffffffffffffffffffff021916908373ffffffffffffffffffffffffffffffffffffffff160217905550856001826003811061046957610468611620565b5b600c020160080181905550846001826003811061048957610488611620565b5b600c02016009018190555042600182600381106104a9576104a8611620565b5b600c0201600101819055506005600182600381106104ca576104c9611620565b5b600c0201600a018190555083600182600381106104ea576104e9611620565b5b600c0201600501819055506000546001826003811061050c5761050b611620565b5b600c02016003018190555061052081610d01565b7fa11993eb95384e356b03388262d2842238f11010690c653232a9da617fa923608787876001856003811061055857610557611620565b5b600c020160070160009054906101000a900473ffffffffffffffffffffffffffffffffffffffff166040516105909493929190611335565b60405180910390a150505b5050505050565b600073ffffffffffffffffffffffffffffffffffffffff168160c0015173ffffffffffffffffffffffffffffffffffffffff161415610629577ff13bfa7d2cec3002aa80fa154881c0b17d3fd01c4ff8b0f25e68895053462cd3816000015182610100015183610120015160405161061c939291906112fe565b60405180910390a161067f565b7fe92dedc60fde586a3e790ad45c1b64f3af47f7086dbded30d4495b6fcfacf2b381600001518261010001518361012001518460c00151856080015160405161067695949392919061137a565b60405180910390a15b50565b60008061068e8361093a565b9050600181600381106106a4576106a3611620565b5b600c020160030154915050919050565b6000808214156106c357600080fd5b60006106ce83610d2f565b90507fffffffffffffffffffffffffffffffffffffffffffffffffffffffffffffffff811415610733576040517f08c379a000000000000000000000000000000000000000000000000000000000815260040161072a906112a3565b60405180910390fd5b600081905061074181610da9565b1561075157600092505050610930565b6001816003811061076557610764611620565b5b600c0201600501543410156107af576040517f08c379a00000000000000000000000000000000000000000000000000000000081526004016107a6906112c3565b60405180910390fd5b600073ffffffffffffffffffffffffffffffffffffffff16600182600381106107db576107da611620565b5b600c020160060160009054906101000a900473ffffffffffffffffffffffffffffffffffffffff1673ffffffffffffffffffffffffffffffffffffffff16146108bc576001816003811061083257610831611620565b5b600c020160060160009054906101000a900473ffffffffffffffffffffffffffffffffffffffff1673ffffffffffffffffffffffffffffffffffffffff166108fc6001836003811061088757610886611620565b5b600c0201600401549081150290604051600060405180830381858888f193505050501580156108ba573d6000803e3d6000fd5b505b33600182600381106108d1576108d0611620565b5b600c020160060160006101000a81548173ffffffffffffffffffffffffffffffffffffffff021916908373ffffffffffffffffffffffffffffffffffffffff1602179055506109208134610e1b565b61092981610d01565b6001925050505b919050565b600381565b60008082141561094957600080fd5b600061095483610d2f565b90507fffffffffffffffffffffffffffffffffffffffffffffffffffffffffffffffff8114156109b9576040517f08c379a00000000000000000000000000000000000000000000000000000000081526004016109b0906112a3565b60405180910390fd5b60008190508092505050919050565b600073ffffffffffffffffffffffffffffffffffffffff16600182600381106109f4576109f3611620565b5b600c020160060160009054906101000a900473ffffffffffffffffffffffffffffffffffffffff1673ffffffffffffffffffffffffffffffffffffffff1614610ad55760018160038110610a4b57610a4a611620565b5b600c020160070160009054906101000a900473ffffffffffffffffffffffffffffffffffffffff1673ffffffffffffffffffffffffffffffffffffffff166108fc60018360038110610aa057610a9f611620565b5b600c0201600401549081150290604051600060405180830381858888f19350505050158015610ad3573d6000803e3d6000fd5b505b610c2260018260038110610aec57610aeb611620565b5b600c0201604051806101800160405290816000820154815260200160018201548152602001600282015481526020016003820154815260200160048201548152602001600582015481526020016006820160009054906101000a900473ffffffffffffffffffffffffffffffffffffffff1673ffffffffffffffffffffffffffffffffffffffff1673ffffffffffffffffffffffffffffffffffffffff1681526020016007820160009054906101000a900473ffffffffffffffffffffffffffffffffffffffff1673ffffffffffffffffffffffffffffffffffffffff1673ffffffffffffffffffffffffffffffffffffffff1681526020016008820154815260200160098201548152602001600a8201548152602001600b820160009054906101000a900460ff1615151515815250506105a2565b50565b600080600090505b6003811015610c5357610c3f81610da9565b508080610c4b90611579565b915050610c2d565b5060005b6003811015610ca057600060018260038110610c7657610c75611620565b5b600c0201600201541415610c8d5780915050610cfc565b8080610c9890611579565b915050610c57565b507f85b3529207dd89841fa3db816f8978cc3e132c92559d4f082f7dabce026aa63482604051610cd091906112e3565b60405180910390a17fffffffffffffffffffffffffffffffffffffffffffffffffffffffffffffffff90505b919050565b610d0d426000546102b7565b60018260038110610d2157610d20611620565b5b600c02016002018190555050565b600080600090505b6003811015610d7f578260018260038110610d5557610d54611620565b5b600c0201600001541415610d6c5780915050610da4565b8080610d7790611579565b915050610d37565b507fffffffffffffffffffffffffffffffffffffffffffffffffffffffffffffffff90505b919050565b600060018260038110610dbf57610dbe611620565b5b600c02016002015442118015610df15750600060018360038110610de657610de5611620565b5b600c02016002015414155b15610e1157610dff826109c8565b610e0882610e9c565b60019050610e16565b600090505b919050565b8060018360038110610e3057610e2f611620565b5b600c02016004018190555060018260038110610e4f57610e4e611620565b5b600c0201600a0154606482610e649190611459565b610e6e919061148a565b81610e799190611403565b60018360038110610e8d57610e8c611620565b5b600c0201600501819055505050565b60018160038110610eb057610eaf611620565b5b600c0201600080820160009055600182016000905560028201600090556003820160009055600482016000905560058201600090556006820160006101000a81549073ffffffffffffffffffffffffffffffffffffffff02191690556007820160006101000a81549073ffffffffffffffffffffffffffffffffffffffff021916905560088201600090556009820160009055600a820160009055600b820160006101000a81549060ff0219169055505050565b600081359050610f73816116eb565b92915050565b600081359050610f8881611702565b92915050565b600081359050610f9d81611719565b92915050565b60006101808284031215610fba57610fb961167e565b5b610fc56101806113cd565b90506000610fd5848285016110c5565b6000830152506020610fe9848285016110c5565b6020830152506040610ffd848285016110c5565b6040830152506060611011848285016110c5565b6060830152506080611025848285016110c5565b60808301525060a0611039848285016110c5565b60a08301525060c061104d84828501610f64565b60c08301525060e061106184828501610f64565b60e08301525061010061107684828501610f8e565b6101008301525061012061108c84828501610f8e565b610120830152506101406110a2848285016110c5565b610140830152506101606110b884828501610f79565b6101608301525092915050565b6000813590506110d481611730565b92915050565b600061018082840312156110f1576110f0611683565b5b60006110ff84828501610fa3565b91505092915050565b60006020828403121561111e5761111d611683565b5b600061112c848285016110c5565b91505092915050565b6000806000806080858703121561114f5761114e611683565b5b600061115d878288016110c5565b945050602061116e87828801610f8e565b935050604061117f87828801610f8e565b9250506060611190878288016110c5565b91505092959194509250565b600080604083850312156111b3576111b2611683565b5b60006111c1858286016110c5565b92505060206111d2858286016110c5565b9150509250929050565b6111e5816114f6565b82525050565b6111f4816114e4565b82525050565b61120381611508565b82525050565b61121281611514565b82525050565b6000611225600d836113f2565b915061123082611699565b602082019050919050565b60006112486012836113f2565b9150611253826116c2565b602082019050919050565b6112678161153e565b82525050565b600060208201905061128260008301846111eb565b92915050565b600060208201905061129d60008301846111fa565b92915050565b600060208201905081810360008301526112bc81611218565b9050919050565b600060208201905081810360008301526112dc8161123b565b9050919050565b60006020820190506112f8600083018461125e565b92915050565b6000606082019050611313600083018661125e565b6113206020830185611209565b61132d6040830184611209565b949350505050565b600060808201905061134a600083018761125e565b6113576020830186611209565b6113646040830185611209565b61137160608301846111dc565b95945050505050565b600060a08201905061138f600083018861125e565b61139c6020830187611209565b6113a96040830186611209565b6113b660608301856111dc565b6113c3608083018461125e565b9695505050505050565b60006113d76113e8565b90506113e38282611548565b919050565b6000604051905090565b600082825260208201905092915050565b600061140e8261153e565b91506114198361153e565b9250827fffffffffffffffffffffffffffffffffffffffffffffffffffffffffffffffff0382111561144e5761144d6115c2565b5b828201905092915050565b60006114648261153e565b915061146f8361153e565b92508261147f5761147e6115f1565b5b828204905092915050565b60006114958261153e565b91506114a08361153e565b9250817fffffffffffffffffffffffffffffffffffffffffffffffffffffffffffffffff04831182151516156114d9576114d86115c2565b5b828202905092915050565b60006114ef8261151e565b9050919050565b60006115018261151e565b9050919050565b60008115159050919050565b6000819050919050565b600073ffffffffffffffffffffffffffffffffffffffff82169050919050565b6000819050919050565b61155182611688565b810181811067ffffffffffffffff821117156115705761156f61164f565b5b80604052505050565b60006115848261153e565b91507fffffffffffffffffffffffffffffffffffffffffffffffffffffffffffffffff8214156115b7576115b66115c2565b5b600182019050919050565b7f4e487b7100000000000000000000000000000000000000000000000000000000600052601160045260246000fd5b7f4e487b7100000000000000000000000000000000000000000000000000000000600052601260045260246000fd5b7f4e487b7100000000000000000000000000000000000000000000000000000000600052603260045260246000fd5b7f4e487b7100000000000000000000000000000000000000000000000000000000600052604160045260246000fd5b600080fd5b600080fd5b6000601f19601f8301169050919050565b7f556b6e6f776e2068617368496400000000000000000000000000000000000000600082015250565b7f56616c756520697320696e636f72726563740000000000000000000000000000600082015250565b6116f4816114f6565b81146116ff57600080fd5b50565b61170b81611508565b811461171657600080fd5b50565b61172281611514565b811461172d57600080fd5b50565b6117398161153e565b811461174457600080fd5b5056fea26469706673582212200529b3f8738c026931041c976240a7fa716f01fba23a10aec8c539ca404fc9cd64736f6c63430008070033",
  "linkReferences": {},
  "deployedLinkReferences": {}
}