{
  "_format": "hh-sol-artifact-1",
  "contractName": "EvilToken",
  "sourceName": "contracts/ProxiesAndCalls.sol",
  "abi": [
    {
      "inputs": [],
      "stateMutability": "nonpayable",
      "type": "constructor"
    },
    {
      "inputs": [
        {
          "internalType": "address",
          "name": "account",
          "type": "address"
        }
      ],
      "name": "balanceOf",
      "outputs": [
        {
          "internalType": "uint256",
          "name": "",
          "type": "uint256"
        }
      ],
      "stateMutability": "view",
      "type": "function"
    },
    {
      "inputs": [],
      "name": "init",
      "outputs": [],
      "stateMutability": "nonpayable",
      "type": "function"
    },
    {
      "inputs": [
        {
          "internalType": "address",
          "name": "user",
          "type": "address"
        },
        {
          "internalType": "uint256",
          "name": "amount",
          "type": "uint256"
        }
      ],
      "name": "mint",
      "outputs": [],
      "stateMutability": "nonpayable",
      "type": "function"
    },
    {
      "inputs": [],
      "name": "name",
      "outputs": [
        {
          "internalType": "string",
          "name": "",
          "type": "string"
        }
      ],
      "stateMutability": "view",
      "type": "function"
    },
    {
      "inputs": [],
      "name": "owner",
      "outputs": [
        {
          "internalType": "address",
          "name": "",
          "type": "address"
        }
      ],
      "stateMutability": "view",
      "type": "function"
    },
    {
      "inputs": [],
      "name": "proxyOwner",
      "outputs": [],
      "stateMutability": "nonpayable",
      "type": "function"
    },
    {
      "inputs": [],
      "name": "symbol",
      "outputs": [
        {
          "internalType": "string",
          "name": "",
          "type": "string"
        }
      ],
      "stateMutability": "view",
      "type": "function"
    },
    {
      "inputs": [],
      "name": "totalSupply",
      "outputs": [
        {
          "internalType": "uint256",
          "name": "",
          "type": "uint256"
        }
      ],
      "stateMutability": "view",
      "type": "function"
    },
    {
      "inputs": [
        {
          "internalType": "address",
          "name": "to",
          "type": "address"
        },
        {
          "internalType": "uint256",
          "name": "amount",
          "type": "uint256"
        }
      ],
      "name": "transfer",
      "outputs": [],
      "stateMutability": "nonpayable",
      "type": "function"
    }
  ],
  "bytecode": "0x60806040526040518060400160405280600981526020017f4576696c546f6b656e000000000000000000000000000000000000000000000081525060009080519060200190620000519291906200030b565b506040518060400160405280600381526020017f4556540000000000000000000000000000000000000000000000000000000000815250600190805190602001906200009f9291906200030b565b5060006002556000600460146101000a81548160ff021916908315150217905550348015620000cd57600080fd5b5033600460006101000a81548173ffffffffffffffffffffffffffffffffffffffff021916908373ffffffffffffffffffffffffffffffffffffffff160217905550606460028190555060025460036000600460009054906101000a900473ffffffffffffffffffffffffffffffffffffffff1673ffffffffffffffffffffffffffffffffffffffff1673ffffffffffffffffffffffffffffffffffffffff16815260200190815260200160002081905550620002336040518060600160405280603081526020016200135f60309139600460009054906101000a900473ffffffffffffffffffffffffffffffffffffffff1660036000600460009054906101000a900473ffffffffffffffffffffffffffffffffffffffff1673ffffffffffffffffffffffffffffffffffffffff1673ffffffffffffffffffffffffffffffffffffffff168152602001908152602001600020546200023960201b6200080f1760201c565b62000568565b620002dd83838360405160240162000254939291906200041e565b6040516020818303038152906040527f0d26b925000000000000000000000000000000000000000000000000000000007bffffffffffffffffffffffffffffffffffffffffffffffffffffffff19166020820180517bffffffffffffffffffffffffffffffffffffffffffffffffffffffff8381831617835250505050620002e260201b60201c565b505050565b60008151905060006a636f6e736f6c652e6c6f679050602083016000808483855afa5050505050565b8280546200031990620004f2565b90600052602060002090601f0160209004810192826200033d576000855562000389565b82601f106200035857805160ff191683800117855562000389565b8280016001018555821562000389579182015b82811115620003885782518255916020019190600101906200036b565b5b5090506200039891906200039c565b5090565b5b80821115620003b75760008160009055506001016200039d565b5090565b620003c6816200047e565b82525050565b6000620003d98262000462565b620003e581856200046d565b9350620003f7818560208601620004bc565b620004028162000557565b840191505092915050565b6200041881620004b2565b82525050565b600060608201905081810360008301526200043a8186620003cc565b90506200044b6020830185620003bb565b6200045a60408301846200040d565b949350505050565b600081519050919050565b600082825260208201905092915050565b60006200048b8262000492565b9050919050565b600073ffffffffffffffffffffffffffffffffffffffff82169050919050565b6000819050919050565b60005b83811015620004dc578082015181840152602081019050620004bf565b83811115620004ec576000848401525b50505050565b600060028204905060018216806200050b57607f821691505b6020821081141562000522576200052162000528565b5b50919050565b7f4e487b7100000000000000000000000000000000000000000000000000000000600052602260045260246000fd5b6000601f19601f8301169050919050565b610de780620005786000396000f3fe608060405234801561001057600080fd5b50600436106100935760003560e01c806370a082311161006657806370a08231146100fa5780638da5cb5b1461012a57806395d89b4114610148578063a9059cbb14610166578063e1c7392a1461018257610093565b8063025313a21461009857806306fdde03146100a257806318160ddd146100c057806340c10f19146100de575b600080fd5b6100a061018c565b005b6100aa610298565b6040516100b79190610a49565b60405180910390f35b6100c8610326565b6040516100d59190610b09565b60405180910390f35b6100f860048036038101906100f3919061092e565b61032c565b005b610114600480360381019061010f9190610901565b610416565b6040516101219190610b09565b60405180910390f35b61013261045f565b60405161013f9190610a2e565b60405180910390f35b610150610485565b60405161015d9190610a49565b60405180910390f35b610180600480360381019061017b919061092e565b610513565b005b61018a610645565b005b600460009054906101000a900473ffffffffffffffffffffffffffffffffffffffff1673ffffffffffffffffffffffffffffffffffffffff163373ffffffffffffffffffffffffffffffffffffffff161461021c576040517f08c379a000000000000000000000000000000000000000000000000000000000815260040161021390610ac9565b60405180910390fd5b61029a60036000600460009054906101000a900473ffffffffffffffffffffffffffffffffffffffff1673ffffffffffffffffffffffffffffffffffffffff1673ffffffffffffffffffffffffffffffffffffffff168152602001908152602001600020600082825461028f9190610b40565b92505081905550565b600080546102a590610c39565b80601f01602080910402602001604051908101604052809291908181526020018280546102d190610c39565b801561031e5780601f106102f35761010080835404028352916020019161031e565b820191906000526020600020905b81548152906001019060200180831161030157829003601f168201915b505050505081565b60025481565b600460009054906101000a900473ffffffffffffffffffffffffffffffffffffffff1673ffffffffffffffffffffffffffffffffffffffff163373ffffffffffffffffffffffffffffffffffffffff16146103bc576040517f08c379a00000000000000000000000000000000000000000000000000000000081526004016103b390610ac9565b60405180910390fd5b80600360008473ffffffffffffffffffffffffffffffffffffffff1673ffffffffffffffffffffffffffffffffffffffff168152602001908152602001600020600082825461040b9190610b40565b925050819055505050565b6000600360008373ffffffffffffffffffffffffffffffffffffffff1673ffffffffffffffffffffffffffffffffffffffff168152602001908152602001600020549050919050565b600460009054906101000a900473ffffffffffffffffffffffffffffffffffffffff1681565b6001805461049290610c39565b80601f01602080910402602001604051908101604052809291908181526020018280546104be90610c39565b801561050b5780601f106104e05761010080835404028352916020019161050b565b820191906000526020600020905b8154815290600101906020018083116104ee57829003601f168201915b505050505081565b80600360003373ffffffffffffffffffffffffffffffffffffffff1673ffffffffffffffffffffffffffffffffffffffff168152602001908152602001600020541015610595576040517f08c379a000000000000000000000000000000000000000000000000000000000815260040161058c90610ae9565b60405180910390fd5b80600360003373ffffffffffffffffffffffffffffffffffffffff1673ffffffffffffffffffffffffffffffffffffffff16815260200190815260200160002060008282546105e49190610b96565b9250508190555080600360008473ffffffffffffffffffffffffffffffffffffffff1673ffffffffffffffffffffffffffffffffffffffff168152602001908152602001600020600082825461063a9190610b40565b925050819055505050565b60001515600460149054906101000a900460ff1615151461069b576040517f08c379a000000000000000000000000000000000000000000000000000000000815260040161069290610aa9565b60405180910390fd5b6001600460146101000a81548160ff02191690831515021790555033600460006101000a81548173ffffffffffffffffffffffffffffffffffffffff021916908373ffffffffffffffffffffffffffffffffffffffff160217905550606460028190555060025460036000600460009054906101000a900473ffffffffffffffffffffffffffffffffffffffff1673ffffffffffffffffffffffffffffffffffffffff1673ffffffffffffffffffffffffffffffffffffffff1681526020019081526020016000208190555061080d604051806060016040528060298152602001610d8960299139600460009054906101000a900473ffffffffffffffffffffffffffffffffffffffff1660036000600460009054906101000a900473ffffffffffffffffffffffffffffffffffffffff1673ffffffffffffffffffffffffffffffffffffffff1673ffffffffffffffffffffffffffffffffffffffff1681526020019081526020016000205461080f565b565b6108a983838360405160240161082793929190610a6b565b6040516020818303038152906040527f0d26b925000000000000000000000000000000000000000000000000000000007bffffffffffffffffffffffffffffffffffffffffffffffffffffffff19166020820180517bffffffffffffffffffffffffffffffffffffffffffffffffffffffff83818316178352505050506108ae565b505050565b60008151905060006a636f6e736f6c652e6c6f679050602083016000808483855afa5050505050565b6000813590506108e681610d5a565b92915050565b6000813590506108fb81610d71565b92915050565b60006020828403121561091757610916610cc9565b5b6000610925848285016108d7565b91505092915050565b6000806040838503121561094557610944610cc9565b5b6000610953858286016108d7565b9250506020610964858286016108ec565b9150509250929050565b61097781610bca565b82525050565b600061098882610b24565b6109928185610b2f565b93506109a2818560208601610c06565b6109ab81610cce565b840191505092915050565b60006109c3601983610b2f565b91506109ce82610cdf565b602082019050919050565b60006109e6600d83610b2f565b91506109f182610d08565b602082019050919050565b6000610a09601183610b2f565b9150610a1482610d31565b602082019050919050565b610a2881610bfc565b82525050565b6000602082019050610a43600083018461096e565b92915050565b60006020820190508181036000830152610a63818461097d565b905092915050565b60006060820190508181036000830152610a85818661097d565b9050610a94602083018561096e565b610aa16040830184610a1f565b949350505050565b60006020820190508181036000830152610ac2816109b6565b9050919050565b60006020820190508181036000830152610ae2816109d9565b9050919050565b60006020820190508181036000830152610b02816109fc565b9050919050565b6000602082019050610b1e6000830184610a1f565b92915050565b600081519050919050565b600082825260208201905092915050565b6000610b4b82610bfc565b9150610b5683610bfc565b9250827fffffffffffffffffffffffffffffffffffffffffffffffffffffffffffffffff03821115610b8b57610b8a610c6b565b5b828201905092915050565b6000610ba182610bfc565b9150610bac83610bfc565b925082821015610bbf57610bbe610c6b565b5b828203905092915050565b6000610bd582610bdc565b9050919050565b600073ffffffffffffffffffffffffffffffffffffffff82169050919050565b6000819050919050565b60005b83811015610c24578082015181840152602081019050610c09565b83811115610c33576000848401525b50505050565b60006002820490506001821680610c5157607f821691505b60208210811415610c6557610c64610c9a565b5b50919050565b7f4e487b7100000000000000000000000000000000000000000000000000000000600052601160045260246000fd5b7f4e487b7100000000000000000000000000000000000000000000000000000000600052602260045260246000fd5b600080fd5b6000601f19601f8301169050919050565b7f696e69742063616e2062652072756e206f6e6c79206f6e636500000000000000600082015250565b7f4163636573732064656e69656400000000000000000000000000000000000000600082015250565b7f4e6f7420656e6f75676820746f6b656e73000000000000000000000000000000600082015250565b610d6381610bca565b8114610d6e57600080fd5b50565b610d7a81610bfc565b8114610d8557600080fd5b5056fe332e20496e69742069732063616c6c65642c206f776e65722025732068617320257320746f6b656e73a2646970667358221220bd43779429a491e307a484d30c171d2a90e465730bf67e77bc70b1af5c460c9464736f6c63430008070033312e20436f6e7374727563746f722069732063616c6c65642c206f776e65722025732068617320257320746f6b656e73",
  "linkReferences": {},
  "deployedLinkReferences": {}
}