{
  "_format": "hh-sol-artifact-1",
  "contractName": "Proxy",
  "sourceName": "contracts/ProxiesAndCalls.sol",
  "abi": [
    {
      "inputs": [
        {
          "internalType": "address",
          "name": "_implementation",
          "type": "address"
        }
      ],
      "stateMutability": "nonpayable",
      "type": "constructor"
    },
    {
      "stateMutability": "nonpayable",
      "type": "fallback"
    },
    {
      "inputs": [],
      "name": "___clash550254402",
      "outputs": [],
      "stateMutability": "nonpayable",
      "type": "function"
    },
    {
      "inputs": [],
      "name": "impl",
      "outputs": [
        {
          "internalType": "address",
          "name": "",
          "type": "address"
        }
      ],
      "stateMutability": "view",
      "type": "function"
    },
    {
      "inputs": [],
      "name": "version",
      "outputs": [
        {
          "internalType": "uint256",
          "name": "",
          "type": "uint256"
        }
      ],
      "stateMutability": "view",
      "type": "function"
    }
  ],
  "bytecode": "0x6080604052600360015534801561001557600080fd5b5060405161037f38038061037f83398181016040528101906100379190610092565b806000806101000a81548173ffffffffffffffffffffffffffffffffffffffff021916908373ffffffffffffffffffffffffffffffffffffffff1602179055505061010d565b60008151905061008c816100f6565b92915050565b6000602082840312156100a8576100a76100f1565b5b60006100b68482850161007d565b91505092915050565b60006100ca826100d1565b9050919050565b600073ffffffffffffffffffffffffffffffffffffffff82169050919050565b600080fd5b6100ff816100bf565b811461010a57600080fd5b50565b6102638061011c6000396000f3fe608060405234801561001057600080fd5b50600436106100455760003560e01c80631aac76011461009257806354fd4d501461009c5780638abf6077146100ba57610046565b5b60008060009054906101000a900473ffffffffffffffffffffffffffffffffffffffff1690503660008037600080366000845af43d6000803e806000811461008d573d6000f35b3d6000fd5b61009a6100d8565b005b6100a46100ee565b6040516100b19190610151565b60405180910390f35b6100c26100f4565b6040516100cf9190610136565b60405180910390f35b600180546100e6919061016c565b600181905550565b60015481565b60008054906101000a900473ffffffffffffffffffffffffffffffffffffffff1681565b610121816101c2565b82525050565b610130816101f4565b82525050565b600060208201905061014b6000830184610118565b92915050565b60006020820190506101666000830184610127565b92915050565b6000610177826101f4565b9150610182836101f4565b9250827fffffffffffffffffffffffffffffffffffffffffffffffffffffffffffffffff038211156101b7576101b66101fe565b5b828201905092915050565b60006101cd826101d4565b9050919050565b600073ffffffffffffffffffffffffffffffffffffffff82169050919050565b6000819050919050565b7f4e487b7100000000000000000000000000000000000000000000000000000000600052601160045260246000fdfea26469706673582212201455035fe9a2039539b46e365b398ac51f09749e01396a229ca7a26e9b5c535464736f6c63430008070033",
  "linkReferences": {},
  "deployedLinkReferences": {}
}